:020000040800F2
:1000000060230020A9010008552A0008891E000865
:10001000512A000887100008A1970008000000007E
:10002000000000000000000000000000CB7200088B
:10003000C31A00080000000037020008ED81000824
:10004000A5970008C3010008C3010008C301000808
:10005000C3010008C3010008F51A0008C301000825
:10006000C3010008C3010008C3010008711700089C
:1000700099170008C3010008C3010008C301000864
:10008000C3010008C3010008C3010008C301000840
:10009000C3010008C3010008C3010008C301000830
:1000A000A9840008C3010008C3010008AD8400084A
:1000B000C3010008CD8400083D860008C301000884
:1000C000C3010008C3010008C3010008C301000800
:1000D000C3010008C3010008C3010008A992000879
:1000E000C3010008C3010008C301000800F002F8C2
:1000F00000F04BF80AA090E8000C82448344AAF177
:100100000107DA4501D100F040F8AFF2090EBAE874
:100110000F0013F0010F18BFFB1A43F0010318473B
:1001200084B4000094B400000A444FF0000C10F8AE
:10013000013B13F0070408BF10F8014B1D1108BF65
:1001400010F8015B641E05D010F8016B641E01F805
:10015000016BF9D113F0080F1EBF10F8014BAD1C55
:100160000C1B09D16D1E58BF01F801CBFAD505E073
:1001700014F8016B01F8016B6D1EF9D59142D6D3CD
:1001800070471FB51FBD10B510BD00F0E0F8114657
:10019000FFF7F7FF09F006FF00F0FEF803B4FFF7E2
:1001A000F2FF03BC00F002F9094880470948004704
:1001B000FEE7FEE7FEE7FEE7FEE7FEE7FEE7FEE717
:1001C000FEE7FEE704480549054A064B7047000074
:1001D00009820008ED000008601D00206023002057
:1001E000601F0020601F0020EFF3108072B6704780
:1001F00080F310887047204C204D25604FF000049C
:1002000084F309881E4C4FF0010525701D4C4FF0FA
:100210008055256062B6FEE730B41A4C4FF0805529
:10022000256030BC704730B4164C4FF080552560C7
:1002300030BC704700BF72B6EFF3098028B1203898
:1002400080E8F00F10490968086000B50F48804742
:100250005DF804EB0E480F490A7802700A480E490F
:100260000A680260106890E8F00F203080F3098877
:100270004EF0040E62B6704720ED00E00000FFFF74
:10028000F603002004ED00E0FC0300206D500008A0
:10029000EB030020EC0300200404002040EA0103EB
:1002A00010B59B070FD1042A0DD310C808C9121F1F
:1002B0009C42F8D020BA19BA884201D9012010BD59
:1002C0004FF0FF3010BD1AB1D30703D0521C07E026
:1002D000002010BD10F8013B11F8014B1B1B07D18A
:1002E00010F8013B11F8014B1B1B01D1921EF1D1FB
:1002F000184610BD40EA0103024630B59B0710D1F5
:100300004FF0013400E008C208C91D1B9D4315EAE7
:10031000C41FF8D013F0FF0102F8011B0DD01B0A17
:10032000F8E711F8013B002B02F8013B05D011F86A
:10033000013B002B02F8013BF3D130BD7047704701
:100340007047000000487047FC1C0020704775464D
:10035000FFF7F8FFAE4605006946534620F0070058
:10036000854618B020B5FFF72DFFBDE820404FF0BF
:1003700000064FF000074FF000084FF0000B21F08F
:100380000701AC46ACE8C009ACE8C009ACE8C0095C
:10039000ACE8C0098D46704710B50446AFF3008045
:1003A0002046BDE81040FFF7F9BE000001491820C3
:1003B000ABBEFEE72600020021B1826842F00102D6
:1003C000826003E0826822F001028260704721B1FE
:1003D000826842F48072826003E0826822F4807254
:1003E00082607047014600208A6802F004020AB168
:1003F000012000E000207047014600208A6802F0DA
:1004000008020AB1012000E00020704730B5024622
:100410000020002350680F4C20400D790C6844EAFE
:1004200005242043506090680B4C2040D1E90254D1
:100430002C434D7944EA450420439060D06A20F46F
:1004400070000C7C641EE4B2234340EA0350D06287
:1004500030BD0000FFFEF0FFFDF7F1FFF0B50446F0
:100460000D4600200021092D11DDE068A5F10A06E6
:1004700006EB4607072606FA07F18843A5F10A06A8
:1004800006EB460603FA06F10843E0600CE020693B
:1004900005EB4507072606FA07F1884305EB4506F5
:1004A00003FA06F108432061072A0FDA606B561E33
:1004B00006EB86071F2606FA07F18843561E06EB51
:1004C000860605FA06F10843606322E00D2A0FDA7A
:1004D000206BD61F06EB86071F2606FA07F1884316
:1004E000D61F06EB860605FA06F10843206310E0E6
:1004F000E06AA2F10D0606EB86071F2606FA07F151
:100500008843A2F10D0606EB860605FA06F10843BC
:10051000E062F0BD816841F008018160704721B15F
:10052000826842F4A002826003E0826822F4A002A2
:1005300082607047816841F004018160704700006B
:1005400000B591B04FF4004005F0F0FC01214FF4EC
:10055000047005F027FD0F20ADF8400000208DF855
:10056000430010A93D4801F08CFB3D4801F0AAF979
:100570003C4800903C4801900020029004200390E9
:100580000020049080200590400006908000079095
:10059000202008900002099000200A906946304807
:1005A00001F06FFA012202212D4801F061FA0121C8
:1005B0002B4801F07BF900200B9001208DF83000D2
:1005C00000208DF831004FF460200D9000200E9037
:1005D00004208DF83C000BA922484C38FFF716FF89
:1005E000032301220A211F484C38FFF737FF03235A
:1005F00002220B211B484C38FFF730FF03231A4619
:100600000C2118484C38FFF729FF032304220D2141
:1006100014484C38FFF722FF012112484C38FFF7ED
:10062000D6FE01210F484C38FFF7C6FE0D484C3866
:10063000FFF770FF00BF0B484C38FFF7DDFE0028C6
:10064000F9D108484C38FFF775FF00BF05484C3812
:10065000FFF7C8FE0028F9D111B000BD001001401D
:10066000080002404C24014006000020F0B503467B
:1006700000201AE0178813F800C087EA0C071780DB
:1006800000240EE0168806F0010517887F101780F9
:100690002DB117884AF2010C87EA0C071780671CF6
:1006A000BCB2082CEEDB471CB8B28842E2DBF0BDDE
:1006B00070B5049C012C01D0022C36D1022902D045
:1006C000032930D117E01C4D2D7835B901251A4E7C
:1006D000357015881D4415800CE0184D2D78072DB8
:1006E00005DA164D2D786D1C144E357002E0158814
:1006F0001D44158018E0104D2D7835B901250E4E9A
:1007000035701588ED1A15800CE00C4D2D78072DED
:1007100005DA0A4D2D786D1C084E357002E01588FB
:10072000ED1A158000E000BF05E024B90025024E57
:100730003570024E357070BD31030020300300204B
:1007400070B504460D46164600F098F8B12006F044
:1007500033FB232006F030FB200A06F02DFBE0B22D
:1007600006F02AFB280A06F027FBE8B206F024FB75
:10077000F0B206F021FB01F0A5F970BD2DE9FC47B0
:100780003548B0F900000AF0EEF804460D4633484B
:10079000B0F900000AF0E7F806460022304B0AF0F4
:1007A00049F9804622462B4609F056FFCDE9000163
:1007B00009F06CFE824601202A4908802A4909680E
:1007C0000A882949243151F82200804750460AF00E
:1007D00039FC044622461D21022007F068FA012058
:1007E00000230090214802880C21022007F04BFBD7
:1007F0000120002300901E4802880E21022007F0ED
:1008000042FB012000901B480078503842B201237F
:100810001021022007F037FB1348006801881248B6
:10082000001D50F821201221022007F067FB12481A
:10083000006801881048183050F821201421022047
:1008400007F05CFB0120034652461E210090022067
:1008500007F0DEFABDE8FC873E0400203C040020DF
:10086000000059401E040020E00000202C0400205D
:100870002A040020300400202001002010B5EE20C2
:1008800006F09AFA4FF6FF700149088010BD00008B
:10089000A200002007285FD2DFE800F05E4F314061
:1008A000130422000121344A1160344AC2F8A8110D
:1008B00043F20401324A118000212F4A121D1160B7
:1008C00058E001212C4A11602C4AC2F8A8114FF4BB
:1008D00050512B4A11800021274A121D116049E016
:1008E0000121254A121D1160244AC2F8A8114FF4B3
:1008F0005051234A118000211F4A11603AE0012122
:100900001D4A121D11601D4AC2F8A8114FF4415131
:100910001B4A11800021184A11602BE00121164A60
:100920001160164AC2F8A4114FF44151144A1180C3
:100930000021114A083211601CE001210E4A1160A9
:100940000E4AC2F8A41143F204010D4A118000219D
:10095000094A083211600DE04FF44051084A1180F5
:100960000121054A1160054AC2F8A411024A083261
:10097000116000BF00BF7047A0012142000021426A
:10098000202C0140072861D2DFE800F0605133429B
:10099000130423000121364A1160364AC2F8A81117
:1009A0004FF44151344A11800021314A121F116025
:1009B0005BE001212E4A121F11602E4AC2F8A411D9
:1009C0004FF441512C4A11800021294A121D116017
:1009D0004BE00121264A121F1160264AC2F8A411D9
:1009E00043F20401244A11800021214A121D1160A2
:1009F0003BE001211E4A121F11601E4AC2F8A811D5
:100A000043F204011C4A11800021194A11602CE0B4
:100A10000121174A121F1160164AC2F8A8114FF49B
:100A20005051154A11800021114A11601DE0012129
:100A30000F4A11600F4AC2F8A8114FF450510E4AE4
:100A4000118000210A4A121F11600EE04FF440513C
:100A5000094A11800121064A121F1160054AC2F895
:100A6000A411034A121D116000BF00BF70470000AF
:100A7000A401214200002142202C014008B54FF47E
:100A80007060ADF8000010208DF8030003208DF891
:100A9000020069460E4801F0F4F84FF46040ADF8EA
:100AA000000018208DF8030003208DF8020069462D
:100AB000084801F0E6F84FF4E070ADF80000482077
:100AC0008DF803006946044801F0DBF808BD00001A
:100AD00000080140000C01400010014000B5002357
:100AE0000F488068C0F38213012B17DB062B15DC3F
:100AF00001200C490871084690F90700401C18B9FC
:100B00001846FFF7C7FE06E00648C079012802D163
:100B10001846FFF737FF00200349088000BD00009A
:100B200000100140880000202404004000200749F4
:100B3000088000BF00BF0020054908600549C1F8D2
:100B4000A40103490831086070470000202C0140CF
:100B5000A00121420000214200B58BB00121C80252
:100B600005F020FA424807F07FFF0220ADF8200090
:100B70004020ADF8220040F2AF40ADF82400002044
:100B8000ADF826008DF8280008A9394808F06AFA5F
:100B90006020ADF810000020ADF81200ADF8140090
:100BA0004FF41670ADF816000020ADF81800ADF83F
:100BB0001A00ADF81C00ADF81E0004A92C4808F07E
:100BC000A7F84FF41670ADF8160004A9284808F0ED
:100BD000F5F84FF41670ADF8160004A9244808F093
:100BE0004DF97020ADF810000020ADF812000A2079
:100BF000ADF816000220ADF8180004A91C4808F052
:100C000097F94FF40060ADF800004010ADF8020015
:100C10008010ADF804007820ADF806000020ADF893
:100C20000800ADF80A00ADF80C006946104807F05E
:100C3000EDFE08210E4808F0B7F808210C4808F02E
:100C40000FF908210A4808F069F90121084807F05E
:100C5000FCFE1021064807F0E9FE0121044807F0D8
:100C6000E8FE01221021024808F048F80BB000BD50
:100C7000002C014000B58BB00121022005F072F973
:100C80000121354801F088F8344807F0EDFE47208F
:100C9000ADF820000020ADF8220042F20F70ADF850
:100CA00024000020ADF826008DF8280008A92B4864
:100CB00008F0D8F90020ADF81400ADF816000320B4
:100CC000ADF818000020ADF81A000A20ADF81C009D
:100CD00005A9224807F0BCFF0020ADF80400ADF8DC
:100CE000060042F21070ADF80A000020ADF80C00CA
:100CF00001A91A4808F01CF90121184808F056F912
:100D00004021164808F05EF90421144808F075F9EE
:100D10008021124808F05FF95021104808F064F96A
:100D20000E48103000884FF6EF7108400B49103123
:100D30000880084600884FF6BF7108400749103107
:100D400008800121054807F074FE01225021034864
:100D500007F0D4FF0BB000BD000C1A0000040040E7
:100D60000EB50121042005F0FDF8124807F07CFEC5
:100D70004720ADF800000020ADF8020040F69F705B
:100D8000ADF804000020ADF806008DF808006946B3
:100D9000084808F067F90121064807F047FE0121DD
:100DA000044807F046FE01221146024807F0A6FF5C
:100DB0000EBD00000008004010B505F013F908F062
:100DC00051FF01F08DFAFFF759FEFFF7C5FEFFF75F
:100DD00051FFFFF7C5FF04F0D1FC4FF4E13009F0FB
:100DE000BBFAFFF7ADFB40F6B83008F069FF10BD65
:100DF00010B501205E4908805E4800885E49088081
:100E00005E48008848805E48008808815D48008808
:100E100048815D48008888815C480088C8815C48BA
:100E2000008808825B48008848825B480088888286
:100E30005A480088C8825A48008808835948008860
:100E4000488359480088888358480088C883584890
:100E500000880884574800884884574800880885D7
:100E60005648008848855648008888855548008837
:100E7000C8855548008808865448008848865448E4
:100E80000088888653480088C886534800880887A9
:100E9000524800884887524800888887514800880F
:100EA000C88751480088A1F8400050480088A1F840
:100EB00042004F480088A1F844004E480088A1F83D
:100EC00046004D480088A1F848004C480088A1F829
:100ED0004A004B480088A1F84C004A480088A1F815
:100EE0004E0049480088A1F8500048480088A1F801
:100EF000520047480088A1F8540046480088A1F8ED
:100F0000560045480088A1F8580044480088A1F8D8
:100F10005A0043480088A1F85C0042480088A1F8C4
:100F20005E00414800784049497840EA0120124972
:100F3000A1F860003C4880783B49C97840EA01202C
:100F40000D49A1F86200384800793749497940EAEB
:100F500001200949A1F86400FFF746F904466A2216
:100F60000549324806F02AF92046FFF741F910BD3D
:100F70001C04002018040020800C00201A0400200B
:100F80002004002022040020240400202604002045
:100F9000280400202A0400202C0400202E04002015
:100FA00030040020320400203404002036040020E5
:100FB0003A040020380400204004002042040020AD
:100FC0004404002046040020480400204A04002075
:100FD0004C0400204E040020500400205204002045
:100FE0005404002056040020580400205A04002015
:100FF0005C0400205E0400206004002062040020E5
:101000006404002066040020680400206A040020B4
:101010006C0400206E040020700400207204002084
:1010200076040020740400207804002000040108E5
:1010300010B50446FFF722FCB12005F0BDFE1220DA
:1010400005F0BAFE200A05F0B7FEE0B205F0B4FEE6
:1010500010BD10B500F036FD10BD70B504460D464C
:10106000200A05F0A9FEE0B205F0A6FE002005F07A
:10107000A3FE022005F0A0FE280A05F09DFEE8B2BE
:1010800005F09AFE70BD00BFFEE700002DE9F047B5
:1010900005460C46284609F0F5FF674909680862CD
:1010A00065490968086A65490AF018F87CD86249F8
:1010B0000968086A62490AF011F9F7D85E490968B7
:1010C000086A4FF080410AF009F811D85A490968B6
:1010D000086A4FF040410AF001F909D8002056494A
:1010E0000968486003205749C8700020887089E06B
:1010F00051480068416A4FF080400AF023F8814669
:101100004D4A1268916A4C4A1268106A09F0DCFE76
:10111000824649460AF014F9804647480068C1698A
:1011200040460AF00FF80646434A1268116A424ADE
:10113000126850690AF006F881463F4A1268516AFF
:101140003D4A1268106A0AF0FBF882463A48006885
:101150000169504609F0F6FF8046494609F0B4FEA1
:101160000746314609F0B0FE334909688860324AC3
:1011700012689168304A1268D06809F0A5FE2E49BD
:1011800009684860204609F07DFF06462A48006845
:101190004168304609F0A2FF07D2204609F072FFED
:1011A0002549096848602DE011E0604209F06AFFB6
:1011B000064621480068416830460AF08FF821D27F
:1011C000604209F05FFF1C49096848601AE01A494B
:1011D0000968086A19490AF081F806D2204609F020
:1011E00051FF1549096848600CE013490968086A0D
:1011F000134909F073FF05D2604209F043FF0E491D
:10120000096848600C480068406A0B4909688862B0
:1012100009480068006A0849096848620648006889
:10122000406805490968C86003490968486809F0C9
:10123000EDFEBDE8F08700006C030020000048428E
:10124000000048C2140100202DE9FC473648B0F9DF
:10125000000009F088FB04460D463448B0F9000050
:1012600009F081FB06460022314B09F0E3FB804682
:1012700022462B4609F0F0F9CDE9000109F006F904
:10128000824602202B490880504609F0DBFE0446C6
:1012900022461D21072006F00AFD012000230090B0
:1012A000254802880C21072006F0EDFD01200023CF
:1012B0000090224802880E21072006F0E4FD01205C
:1012C00000901F480078503842B2012310210720B7
:1012D00006F0D9FD1B48006801881A48001D50F827
:1012E00021201221072006F009FE17480068018816
:1012F0001548183050F821201421072006F0FEFD73
:10130000012000230090114802881621072006F0D2
:10131000BAFD0120034652461E210090072006F028
:1013200077FDBDE8FC8700003E0400203C0400205F
:10133000000059401E0400202C0400202A04002034
:1013400030040020E00000202001002044040020A0
:101350002DE9F04705460C46284609F093FE6449FE
:101360000968086262490968086A624909F0B6FEBC
:1013700077D85F490968086A5F4909F0AFFFF7D875
:101380005B490968086A4FF0804109F0A7FE0CD854
:1013900057490968086A4FF0404109F09FFF04D897
:1013A000002053490968486089E051480068416A53
:1013B0004FF0804009F0C6FE81464D4A1268916A9E
:1013C0004B4A1268106A09F07FFD8246494609F0CF
:1013D000B7FF804646480068C169404609F0B2FE42
:1013E0000646434A1268116A414A1268506909F078
:1013F000A9FE81463E4A1268516A3D4A1268106A47
:1014000009F09EFF82463A4800680169504609F09B
:1014100099FE8046494609F057FD0746314609F0D6
:1014200053FD334909688860314A12689168304A2F
:101430001268D06809F048FD2D49096848602046C7
:1014400009F020FE06462A4800684168304609F047
:1014500045FE07D2204609F015FE25490968486077
:101460002DE011E0604209F00DFE064620480068BC
:101470004168304609F032FF21D2604209F002FE95
:101480001B49096848601AE019490968086A19493E
:1014900009F024FF06D2204609F0F4FD144909683A
:1014A00048600CE012490968086A134909F016FE01
:1014B00005D2604209F0E6FD0D49096848600C4814
:1014C0000068406A0A490968886209480068006A39
:1014D0000749096848620648006840680449096885
:1014E000C86003490968486809F090FDBDE8F087C5
:1014F0006403002000004842000048C210B50446C2
:10150000012005494870214603480830FEF7F2FEE5
:10151000352006F0F5FB10BD40010020F8B505466A
:101520000C4600264FF6FF700090022C0BDB601E6D
:10153000295CA01E285C41EA0026A01E81B26A46F2
:101540002846FFF793F8BDF80000864201D101203C
:10155000F8BD0020FCE7000070B505460C46042DE0
:1015600009D109484188207800EB4002201D00EB9A
:10157000820040680180012003494870B4F80001EE
:1015800006F0BEFB70BD0000280200202DE9F047E8
:1015900088B004468846154600266B48008800EB54
:1015A0004001C1EB4010A8EB80096848008809F0B1
:1015B000F1F94FF03332664BCDE9000109F03AFA08
:1015C000CDE90401404609F0E5F9CDE90201DDE984
:1015D000042309F063FBCDE9060109F095F9824681
:1015E0005C48C0F80080204600F02BFC07465A48B3
:1015F000807801281BD1BAF1000F16DDB7F1FF3F4B
:1016000003D047B1012F0ED107E004EB8A06002E6C
:1016100000DD002608E0002606E0A4EB8A06002E86
:1016200000DA002600E000BF66E0264664E04B4892
:101630000078002850D12CB94949088049490880D0
:10164000002659E04648008844F6206188422DDA99
:1016500043480088401C42490880B9F1000F20DD52
:101660000520414948713F480088401C3D49088099
:10167000B7F1FF3F03D057B1012F10D109E004EBC0
:10168000C90616F1050F01DD6FF0040608E000261B
:1016900006E0A4EBC906052E00DA052600E000BF2F
:1016A0002AE0264600203049487125E02D48008870
:1016B000B0F5FA5F09DB00260120284908700620F2
:1016C000294988712948076000E0264600202549FD
:1016D0000880234908800FE02448006887420AD028
:1016E0004FB12248006830B100201F49887126465A
:1016F0001A49087000E0002640F2EC50854208DCF0
:1017000040F22E40854204DB00201749487288725F
:1017100015E040F2EC50854202DD09201249487282
:1017200040F22E40854202DA0A200F4988720026D4
:1017300040F22D20854202DC72B605F0C7FD30462E
:1017400008B0BDE8F08700003A040020380400200B
:101750003333274058030020140100205C0300208D
:101760005E03002060030020CE040020540300200C
:1017700010B5022000F066F948B1012000F088F8A9
:101780000348006804F070FB01200249087010BD96
:10179000280000200E00002010B5FEF725FD0446AD
:1017A00012480078401C114908702046FEF720FDC1
:1017B000202000F047F9A8B1002240F224410C4853
:1017C00007F02CFE012240F22661094807F026FEB0
:1017D000202000F05DF8102000F05AF800210548A4
:1017E00000F064F803F08EF910BD0000E90300205A
:1017F000004800401C00024010B5044600BF2021F4
:101800001A4807F0D4FD0028F9D104B910BD0A2008
:1018100008F08CFA00BF164800F0FAF80028FAD158
:101820000021134800F042F82146114800F047F922
:1018300001210F4800F03AF800BF202000F0ECF83A
:101840000028FAD000BF4021084807F0B0FD00286A
:10185000F9D04021054807F07DFD202000F00AF86E
:101860000021034800F022F800BFCFE70048004005
:101870001C00024000F0805111B10349086001E0F2
:101880000249486070470000040402400000024022
:1018900000F0805111B10349086001E0024948603D
:1018A00070470000040402400000024021B10268B9
:1018B00042F00102026004E002684FF6FE731A4033
:1018C0000260704701684FF6FE721140016000210E
:1018D000016041608160C1604B49884208D14A493A
:1018E0000839496841F00F01474A083A51608AE0D7
:1018F00045491431884208D143490839496841F0C3
:10190000F001414A083A51607DE03F492831884260
:1019100008D13D490839496841F470613A4A083AAA
:10192000516070E038493C31884208D13649083965
:10193000496841F47041344A083A516063E03249E1
:101940005031884208D130490839496841F4702142
:101950002D4A083A516056E02B496431884208D13B
:1019600029490839496841F47001274A083A516009
:1019700049E025497831884208D123490839496826
:1019800041F07061204A083A51603CE01F498842AA
:1019900006D1011F096841F00F01021F116032E0FA
:1019A0001A491431884208D11849091F096841F0C1
:1019B000F001164A121F116025E0144928318842AF
:1019C00008D11249091F096841F470610F4A121FBA
:1019D000116018E00D493C31884208D10B49091FBC
:1019E000096841F47041094A121F11600BE0074970
:1019F0005031884207D10549091F096841F4702117
:101A0000024A121F11607047080002400804024099
:101A10000146486880B2704701460020002201F06C
:101A2000805313B1054B1A6801E0054B1A6802EAAE
:101A300001030BB1012000E00020704700040240C8
:101A40000000024001460020002201F0805313B143
:101A5000054B1A6801E0054B1A6802EA01030BB155
:101A6000012000E000207047000402400000024016
:101A70001AB103680B43036002E003688B43036001
:101A8000704710B50022026847F6F0739A430C6A5B
:101A90008B6823430C6923434C6923438C6923439C
:101AA000CC6923434C6A23438C6A23431A43026064
:101AB000CB6843600B6883604B68C36010BD4160B6
:101AC0007047704710B50A480488200A05F074F979
:101AD000E0B205F071F9FF2005F06EF9FC2005F089
:101AE0006BF9FF2005F068F9FF2005F065F910BDDE
:101AF000A200002010B5012000F014F840B14021F0
:101B0000044800F09CF905F0E1FB012000F004F826
:101B100010BD00000014014001490860704700003A
:101B20001404014001460020034A12680A400AB129
:101B3000012000E0002070471404014030B5044645
:101B400004254FF4302000F089F80546042D17D104
:101B50000C48006940F002000A49086108464461E7
:101B6000006940F0400008614FF4302000F076F842
:101B700005460448006941F6FD71084001490861C5
:101B8000284630BD0020024004200B49C96801F0FE
:101B9000010109B101200EE00749C96801F0040103
:101BA00009B1022007E00449C96801F0100109B138
:101BB000032000E004207047002002400348006931
:101BC00040F0800001490861704700000020024099
:101BD0000549096821F01001034A1160114609689E
:101BE00001431160704700000020024070B50446B8
:101BF0000D460426F00200F031F80646042E11D1FD
:101C00000948006940F00100074908612580F00299
:101C100000F024F806460448006941F6FE710840C9
:101C200001490861304670BD002002400146002095
:101C3000034A106800F03800084310607047000045
:101C4000002002400248034948600348486070474A
:101C50002301674500200240AB89EFCD00B5024665
:101C60000423FFF791FF034603E0FFF78DFF0346D0
:101C7000521E012B01D1002AF7D102B905231846C3
:101C800000BD2DE9F041024600250026002000237A
:101C90000024002791F803C00CF00F0591F803C051
:101CA0000CF0100CBCF1000F03D091F802C04CEA0C
:101CB000050591F800C0BCF1000F31D01468002078
:101CC0002BE04FF0010C0CFA00F3B1F800C00CEA65
:101CD00003069E4220D183004FF00F0C0CFA03F74D
:101CE000BC4305FA03FC4CEA040491F803C0BCF1C0
:101CF000280F06D14FF0010C0CFA00FCC2F814C0FA
:101D00000AE091F803C0BCF1480F05D14FF0010C77
:101D10000CFA00FCC2F810C0401C0828D1D3146093
:101D2000B1F800C0BCF1FF0F34DD546800202EE094
:101D300000F1080C4FF0010808FA0CF3B1F800C0EC
:101D40000CEA03069E4221D183004FF00F0C0CFADF
:101D500003F7BC4305FA03FC4CEA040491F803C002
:101D6000BCF1280F05D100F1080C08FA0CF8C2F8F4
:101D7000148091F803C0BCF1480F07D100F1080CA2
:101D80004FF0010808FA0CF8C2F81080401C08282F
:101D9000CED35460BDE8F081F0B50A46002300249C
:101DA0000021002500F00046B6F1004F02D11D4E83
:101DB000F16901E01B4E7168C0F3034583B200F482
:101DC0004016B6F5401F08D121F07061154E7668B7
:101DD00026F07066134F7E6012E000F48016B6F5B0
:101DE000801F06D1032606FA05F4A14341F0706175
:101DF00006E0460D360103FA06F6B14341F0706184
:101E000022B1460D360103FA06F6314300F00046D2
:101E1000B6F1004F02D1034EF16101E0014E716055
:101E2000F0BD0000000001400246002093680B4016
:101E30000BB1012000E00020704741617047016153
:101E40007047014609B900207047002902DA4FF0B7
:101E5000FF30F9E70120F7E7024611B1012904D16B
:101E600001E0104670475042FCE70020FAE710B549
:101E7000FEF704FDB12004F09FFF012004F09CFF59
:101E8000FFF720FE10BD00000348006800F00100CD
:101E900000B100BE00BFFEE7F0ED00E04CF6CC4024
:101EA00001490860704700000030004010B500F0A4
:101EB00013F810BD70B505460C4645F2555000F0BC
:101EC0001FF8284600F010F8204600F013F800F044
:101ED00003F8FFF7E3FF70BD4AF6AA200149086046
:101EE0007047000000300040014948607047000022
:101EF0000030004001498860704700000030004019
:101F00000149086070470000003000402DE9F843A7
:101F10006248027808211B2005F084FD60480278A1
:101F200005211B2005F07EFD5E48027813211B2051
:101F300005F078FD5C4802781A211B2005F072FD3F
:101F40005A48027807213920FEF7FAFB5849896878
:101F5000088808F01FFD07460022564B08F07CFB5E
:101F6000054608F093FA8146012003464A460321BC
:101F70000090462005F04CFF4F48C06802884E484C
:101F8000103030F812301038006802884A48001DBE
:101F9000805CC0F1FF013222012005F06AFE464854
:101FA000C06800880C3081B20122332005F00FFD9B
:101FB000414909680A884049091D885C05F0FAFC16
:101FC0003D4800680088C01C81B20122332005F022
:101FD000FEFC3A480068027802211320FEF7B0FBAD
:101FE00000240DE004EB8403354800EB8300006916
:101FF000027804F10B0081B24020FEF7A1FB641CC3
:10200000082CEFDB012000902D48001FD0F8A40021
:10201000028800230A21402005F035FF01200090AE
:102020002748001FD0F8A400028800230A213F207F
:1020300005F029FF23480088C0F10100C2B2042145
:102040003420FEF77DFB1F48027805213420FEF77F
:1020500077FB1D48008830B11B480088012802D05A
:10206000002019490880184A1178107805F0EAFD17
:10207000C82007F025FE1448027804213620FEF718
:102080005FFB11480088C0F10100C2B20521362073
:10209000FEF756FB00F04CF8BDE8F883680400201A
:1020A0006A0400206C0400206E0400201C04002040
:1020B0001401002000002440B8000020E0000020AF
:1020C00060010020760400207004002010B500227A
:1020D0003221022005F0A6FC00223321022005F067
:1020E000A1FC00223421022005F09CFC00223221B8
:1020F000062005F097FC00223321062005F092FC13
:1021000000223421062005F08DFC00223221072018
:1021100005F088FC00223321072005F083FC002213
:102120003421072005F07EFCFFF7F0FE10BD000013
:1021300010B51B20FEF77CFF5D4800885D4A1288C1
:1021400002EB400081B20720FEF787FF5848008865
:10215000594A128802EB400081B20B20FEF77DFF46
:1021600053480088554A128802EB400081B215207E
:10217000FEF773FF4E480088514A128802EB400078
:1021800081B21C20FEF769FFFEF763FF4848007824
:1021900000EB40004B4909780844C2B211212220CB
:1021A000FEF7CEFA424800784749097801EB400033
:1021B000C2B210212620FEF7C3FA3D4800784349F9
:1021C000097801EB4000C2B209212A20FEF7B8FAD3
:1021D0003F48406801783648007801EB4000C2B2C1
:1021E00003212E20FEF7ACFA394800680178304808
:1021F000007801EB4000C2B204212E20FEF7A0FAC5
:102200002B4800783349097801EB4000C2B206211F
:102210003120FEF795FA264800782F49097801EB1E
:102220008000C2B202213720FEF78AFA3C20FEF776
:10223000FFFE2A4A126812881D4B1B8803EB4304D9
:1022400004EBC3031A4491B2244AD089FEF705FF78
:10225000224A12691288164B1B8803EB430404EBD5
:10226000C3031A4491B21D4AD08BFEF7F6FE1B4AF7
:10227000126A12880E4B1B8803EB430404EBC30362
:102280001A4491B2154AD08DFEF7E7FE134A126B3D
:102290001288074B1B8803EB430404EBC3031A4467
:1022A00091B20E4AD08FFEF7D8FEFEF7D2FE10BDD7
:1022B00070040020680400206A0400206C040020E0
:1022C0006E04002040040020480400205004002038
:1022D0002001002026040020280400207C03002088
:1022E00008B510208DF8030003208DF802004FF48C
:1022F0008050ADF8000069461848FFF7C2FC042082
:10230000ADF8000069461648FFF7BBFCBDF80010A9
:102310001348FFF792FD04208DF803004002ADF84A
:10232000000069460F48FFF7ACFC4FF48050ADF851
:10233000000069460B48FFF7A4FC4FF48070ADF82D
:10234000000069460548FFF79CFC4FF40070ADF8AB
:10235000000069460148FFF794FC08BD000C0140ED
:10236000001401400010014010B504460622214629
:102370001048FDF793FF30B1062221460E48006851
:10238000FDF78CFF40B9112005F0BAFC00221221A4
:102390003D20FEF7D5F90BE008480078401C0849BD
:1023A000097800EB4100C2B212213D20FEF7C8F9C6
:1023B00010BD000078040020000000204001002033
:1023C0007004002008B54FF4A06000F083FB1D20CE
:1023D0008DF8000000208DF8010001208DF802002A
:1023E0008DF80300684600F03DFB1B208DF80000CF
:1023F00001208DF8010000208DF8020001208DF8E9
:102400000300684600F02EFB0B208DF80000012031
:102410008DF801008DF802008DF80300684600F089
:1024200021FB1E208DF8000002208DF80100002005
:102430008DF8020001208DF80300684600F012FBC1
:1024400027208DF8000003208DF8010000208DF872
:10245000020001208DF80300684600F003FB0C2009
:102460008DF8000003208DF8010001208DF8020096
:102470008DF80300684600F0F5FA0D208DF8000095
:1024800003208DF8010002208DF8020001208DF854
:102490000300684600F0E6FA08BD000002681288F2
:1024A0000B2A71D2DFE802F0060714202B36414BCD
:1024B000555F71007BE0C27A012A03D102224A8073
:1024C0008A8004E0C27A12B900224A808A806EE0D3
:1024D000C27A012A02D14A808A8004E0C27A12B903
:1024E00000224A808A8062E0C27A012A02D1052253
:1024F000CA8003E0C27A0AB90022CA8057E0C27AD1
:10250000012A02D104220A8103E0C27A0AB9022216
:102510000A814CE0C27A012A02D102224A8103E0F8
:10252000C27A0AB904224A8141E0C27A012A01D161
:102530008A8103E0C27A0AB900228A8137E0C27A2E
:10254000012A01D1CA8103E0C27A0AB90022CA81F4
:102550002DE0C27A012A01D10A8203E0C27A0AB9C7
:1025600000220A8223E0134A12881AB1114A128803
:10257000012A08D1C27A012A01D14A8203E0C27A33
:102580000AB900224A8212E010E00A4A12881AB1FF
:10259000084A1288012A08D1C27A012A01D18A8206
:1025A00003E0C27A0AB900228A8200E000BF00BFBD
:1025B00070470000200400202DE9F0410146DFF8BB
:1025C00064C3BCF800C00CEB8C0C4FF6FF7808EA33
:1025D0004C02DFF854C3BCF800C00CEB8C0C08EACA
:1025E0004C0303F11E0C1FFA8CF5A2F11E0C1FFA0E
:1025F0008CF6DFF838C3BCF800C0BCF1000F7CD10A
:10260000DFF82CC3BCF800C0AC450DDDDFF820C3FB
:10261000BCF800C0B44507DA4FF0000CDFF81483B3
:1026200088F804C008467AE1DFF804C3BCF800C0AB
:10263000944505DADFF8F8C2BCF800C09C4520DC00
:102640004FF0040CDFF8EC8288F804C0DFF8E0C239
:10265000BCF800C0944506DB002901DA8C4601E095
:102660004FF0000C6046DFF8C8C2BCF800C09C45C3
:10267000D9DC002901DD8C4601E04FF0000C6046FA
:102680004DE14FF0000CDFF8AC8288F804C0DFF8B1
:10269000A0C2BCF800C0AC4516DCDFF894C2BCF8A0
:1026A00000C09C4510DD00290CDADFF884C2BCF8BC
:1026B00000C0ACEB030C0CFB01FC4FF01E089CFBB4
:1026C000F8FC00E08C466046DFF864C2BCF800C04D
:1026D000B445A8DBDFF858C2BCF800C09445A2DAC4
:1026E00000290EDDDFF848C2BCF800C0A2EB0C0CDC
:1026F0000CFB01FC4FF01E0800E005E09CFBF8FC21
:1027000000E08C4660460AE1DFF820C2BCF800C059
:10271000BCF1010F47D1DFF820C2BCF80EC0BCF1FC
:10272000000F02D14FF0010C01E04FF0000CDFF878
:102730000882B8F81080B8F1000F02D14FF00108FC
:1027400001E04FF000080CEA080CBCF1000F07D0C4
:102750004FF0000CDFF8DC8188F804C00846DEE0AA
:102760004FF0040CDFF8CC8188F804C0DFF8C8C152
:10277000BCF80EC0BCF1010F06D1002901DA8C466D
:1027800001E04FF0000C6046DFF8ACC1BCF810C0AF
:10279000BCF1010FB7D1002901DD8C4601E04FF0FB
:1027A000000C6046BBE0DFF884C1BCF800C0BCF19F
:1027B000020F73D10846DFF878C1BCF800C0944519
:1027C00005DADFF86CC1BCF800C09C451BDC0124B5
:1027D000DFF85CC1BCF800C0944506DB002901DAD3
:1027E0008C4601E04FF0000C6046DFF844C1BCF8B5
:1027F00000C09C4557DC002901DD8C4601E04FF00C
:10280000000C60464FE0DFF828C1BCF800C0A2EB26
:102810000C0CBCF11E0F08DBDFF814C1BCF800C0C3
:10282000ACEB030CBCF11E0F3CDA0024DFF800C156
:10283000BCF800C0AC4516DCDFF8F4C0BCF800C042
:102840009C4510DD00290CDADFF8E4C0BCF800C0BC
:10285000ACEB030C0CFB01FC4FF01E089CFBF8FCDE
:1028600000E08C466046DFF8C8C0BCF800C0B44544
:1028700019DBDFF8BCC0BCF800C0944513DA0029AE
:102880000DDDDFF8ACC0BCF800C0A2EB0C0C0CFBFB
:1028900001FC4FF01E089CFBF8FC01E03FE08C4679
:1028A000604600E00024DFF890C0BCF80EC0BCF128
:1028B000000F08D1DFF880C0BCF810C0BCF1000FD9
:1028C00001D100271CE00127DFF86CC0BCF80EC066
:1028D000BCF1010F06D1002801DA844601E04FF077
:1028E000000C6046DFF850C0BCF810C0BCF1010F0E
:1028F00006D1002801DD844601E04FF0000C60465F
:1029000004B937B14FF0040CDFF8288088F804C010
:1029100005E04FF0000CDFF81C8088F804C0BDE82B
:10292000F081000042040020460400204004002002
:1029300034030020CE040020DA0400202DE9FC47F7
:102940003848B0F9000008F00EF804460D46364845
:10295000B0F9000008F007F806460022334B08F0F3
:1029600069F8804622462B4607F076FECDE9000145
:1029700007F08CFD824600202D49088006202D4955
:1029800008802D4908802D4909680A882B4924317F
:1029900051F822008047504608F054FB0446224676
:1029A0001D21062005F083F9012000230090244812
:1029B00002880C21062005F066FA01200023009011
:1029C000204802880E21062005F05DFA01200090C3
:1029D0001D480078503842B201231021062005F02E
:1029E00052FA1648006801881448001D50F821204A
:1029F0001221062005F082FA144800680188134865
:102A0000183050F821201421062005F077FA012013
:102A1000034652461E210090062005F0F9F9BDE854
:102A2000FC8700003E0400203C04002000005940C8
:102A30001E0400205C01002014010020E0000020A2
:102A40002C0400202A040020300400202001002053
:102A500000BFFEE7704710B501220221032004F0F9
:102A6000B6FF10BD70B5002100230F22C47804B357
:102A7000154C246804F4E064C4F5E064210AC1F153
:102A80000403CA40447804FA03F1847814402143D3
:102A900009010E4C0678A155047804F01F050124A5
:102AA000AC4005786D11AD0005F1E025C5F8004199
:102AB00009E0047804F01F050124AC40044D0678B9
:102AC000761145F8264070BD0CED00E000E400E012
:102AD00080E100E002490143024A116070470000B2
:102AE0000000FA050CED00E008B51A48807810B136
:102AF00001282CD115E0184800881649A1F8AC002F
:102B00000120002300901448028801211348008806
:102B100005F0B9F912A203211048008805F0EEF97A
:102B200016E0114800880B49A1F8B00001200023ED
:102B300000900D48028801210848008805F0A3F99B
:102B40000AA203210548008805F0D8F900E000BF7B
:102B500000BF08BD5C01002010000020AC00002078
:102B60004550433100000000120000204550433220
:102B70000000000030B501461F4C248804EB84049B
:102B80004FF6FF7505EA84021C4C248804EB84048C
:102B900005EA84031A4C24886442A14203DB184CE2
:102BA0002488A1421FDD174C2478012C01D108464E
:102BB00021E0154C2488944206DA0846124C2488F9
:102BC000641C114D2C8016E00020104C24889C427F
:102BD00005DA0E4C2488641C0C4D2C800BE001247B
:102BE000084D2C7007E008460024064D2C70064D59
:102BF0002C80064D2C8030BD54040020560400204B
:102C0000520400203A0300203C0300203E03002031
:102C100007B588B00898482881F01780DFE810F0E1
:102C200048004A006300B8000B0115011F016F0145
:102C3000B001B901060207022702280263027B02E3
:102C4000B402BE02BF02C602C702EF02F9020303CA
:102C50002A0334033E0348037C03860390039A034C
:102C6000A403A503AF03E203EC03F6030004380456
:102C700042044C045604CA04D404DE04E804E90403
:102C8000FA040405050506055A056D05BA0515087B
:102C900015087906C6061508D105FD060E071307A7
:102CA00026077D079B07A207A307A407ED070C08CB
:102CB00000F0CCBF0998022814D10A98012811D13C
:102CC000FA48008818B9062005F01AF80AE0F74813
:102CD0000088012803D1022005F012F802E0072045
:102CE00005F00EF8E4E70998001F05284DD2DFE84B
:102CF00000F00307192F3D000320ED49C87045E09F
:102D0000EC4800680188EC48008801EB4001E94884
:102D1000083050F82100024608210690032005F0F3
:102D2000EDF833E00020E549088001200023009001
:102D3000E34802880421142005F0A5F8002003468A
:102D40000090E04802880521142005F09CF81DE061
:102D500001200090DC480078503840B20123024640
:102D600005210690084605F08EF80FE00020D749AF
:102D700008700A98012801D1012100E00021D34800
:102D80000278801C00F8221000E000BF00BF8FE72F
:102D9000099802284ED10A9801284BD1C5480068ED
:102DA000008810B101280AD104E00120C149096856
:102DB000088005E00020BF490968088000E000BFE6
:102DC00000BFBC4800680188BB48008801EB400197
:102DD000B848083050F82100024608210690032028
:102DE00005F08CF8B34800680188B248183050F8F4
:102DF0002100024614210690022005F07FF8AD481C
:102E000000680188AB48183050F8210002461421B0
:102E10000690062005F072F8A64800680178A648DA
:102E2000007801EB4000C0B20246042106902E203B
:102E3000FDF786FC3CE702200021A54BCDE9001000
:102E400008A807C806F09EFE32E702200521A04B25
:102E5000CDE9001008A807C806F094FE28E70998F5
:102E6000401F062848D2DFE800F003470F1A293830
:102E70000A98012802D10220964908800A9810B9C0
:102E800000209449088038E00A98012801D191492E
:102E900008800A9810B900208E4908802DE0012092
:102EA0008A4908700A98012801D1012100E0002117
:102EB00086480278801C00F822101EE00220834918
:102EC00008700A98012801D1012100E000217F4803
:102ED0000278801C00F822100FE003207B49087064
:102EE0000A98012801D1012100E0002177480278E9
:102EF000801C00F8221000E000BF00BFD8E609984F
:102F0000052806D0072810D0082819D0182834D151
:102F100025E00A98012802D102206E4908800A980B
:102F200010B900206B49088028E00A98012801D1D7
:102F3000684908800A9810B90020664908801DE099
:102F40000420624908700A98012801D1012100E09B
:102F500000215E480278801C00F822100EE05E48D6
:102F6000008808F0A7F806900120002300900521B2
:102F70000820069A04F04CFF00E000BF00BF97E66F
:102F800007200090524B019008A807C806F0FAFDF0
:102F90008EE60998022816D100205049087008468C
:102FA00000784549097801EB41010844C0B2024666
:102FB000112106903D20FDF7C3FB002212213D2088
:102FC000FDF7BEFB31E00998042809D10A980128D1
:102FD00002D13749487028E000203549487024E084
:102FE0000998092821D10A9801281ED12F48008864
:102FF00020B1012809D0022815D10DE000202B496D
:103000000880062004F07CFE0EE00120274908809D
:10301000022004F075FE07E0022024490880072002
:1030200004F06EFE00E000BF00BF41E640E60998F4
:10303000012802D0022817D10BE00A98012802D1FA
:103040000220244908800A9810B9002021490880EC
:103050000BE00A98012801D11E4908800A9810B98E
:1030600000201C49088000E000BF00BF20E61FE6EA
:103070000998032802D0042832D10BE00A980128CD
:1030800002D10220134908800A9810B90020114982
:10309000088026E00A98012801D10E4908800A9884
:1030A00010B900200B4908801BE000001E0400201E
:1030B000CE04002020010020700400202E030020F8
:1030C0002C0400202E0400203004002010020020D8
:1030D00028020020040000204404002040010020B9
:1030E00000BF00BFE4E50998042813D10A9801281D
:1030F00010D1FD4800680188FC48008801EB4001C0
:10310000F948083050F821000246082106900F20A7
:1031100004F0F4FECCE50998022834D10A9801287D
:1031200031D1F1480068008810B101280AD104E0CB
:103130000120ED490968088005E00020EA49096896
:10314000088000E000BF00BFE74800680188E7484A
:10315000008801EB4001E448083050F821000246A5
:10316000082106900F2004F0C9FEDF4800680178AE
:10317000DE48007801EB4000C0B202460421069010
:103180002E20FDF7DDFA93E50E200021D84BCDE986
:10319000001008A807C806F0F5FC89E588E509983D
:1031A000032802D10120D349088081E580E50998F0
:1031B000062809D1012000230090CF48028805216C
:1031C000152004F060FE19E00998072809D10120B4
:1031D00000230090C94802880521162004F053FE00
:1031E0000CE00998092809D1C248008818B90220C2
:1031F00004F086FD02E0122004F082FD58E5142060
:103200000021BB4BCDE9001008A807C806F0BAFCA6
:103210004EE514200121B64BCDE9001008A807C8DF
:1032200006F0B0FC44E509980B2809D101200023E1
:103230000090B34802880521182004F024FE18E00D
:103240000998072809D1012000230090AD48028881
:103250000521192004F017FE0BE00998082808D171
:10326000012000230090A848028805211A2004F0BC
:103270000AFE1DE5172003219D4BCDE9001008A88B
:1032800007C806F07FFC13E517200221984BCDE913
:10329000001008A807C806F075FC09E517200421EE
:1032A000934BCDE9001008A807C806F06BFCFFE4BB
:1032B0000998082809D1012000230090934802882A
:1032C00005211C2004F0DFFD25E00998052809D11F
:1032D0000120002300908E48028805211D2004F063
:1032E000D2FD18E00998132809D10120002300908D
:1032F0008848028805211E2004F0C5FD0BE00998CE
:103300001A2808D101200023009083480288052153
:103310001F2004F0B8FDCBE41B200F21744BCDE936
:10332000001008A807C806F02DFCC1E41B201021DE
:103330006F4BCDE9001008A807C806F023FCB7E4DE
:103340001B2011216A4BCDE9001008A807C806F020
:1033500019FCADE41B201221654BCDE9001008A833
:1033600007C806F00FFCA3E4A2E420201421604B60
:10337000CDE9001008A807C806F004FC98E40998F5
:1033800003280DD16548008807F094FE06900120BF
:103390000023009005212320069A04F039FD20E047
:1033A000099804280DD15E48008807F083FE069036
:1033B00001200023009005212420069A04F028FD16
:1033C0000FE0099808280CD15648008807F072FED3
:1033D000069001200023009005212520069A04F084
:1033E00017FD95E222200621414BCDE9001008A8E7
:1033F00007C806F0C7FB8BE2222007213C4BCDE932
:10340000001008A807C806F0BDFB81E222200821B1
:10341000374BCDE9001008A807C806F0B3FB77E2E8
:10342000099807281AD14048008807F043FE019008
:1034300007F01EFD00223D4BCDE9020107F00CF91B
:10344000CDE9040107F022F8069001200346009020
:1034500005212720069A04F0DBFC18E009980828CB
:1034600009D101200023009031480288052128203D
:1034700004F009FD0BE00998092808D10120002378
:1034800000902C4802880521292004F0FCFCDDE393
:1034900026200C21164BCDE9001008A807C806F01D
:1034A00071FBD3E326200D21114BCDE9001008A8B4
:1034B00007C806F067FBC9E326200E210C4BCDE9B7
:1034C000001008A807C806F05DFBBFE309980628AE
:1034D00034D10120002300901748028805212B20B9
:1034E00004F0D1FC65E00000200100207004002001
:1034F000280200202E0300202C0400202E0400208F
:10350000340400203204002036040020600400202F
:1035100062040020640400206604002042040020AD
:1035200044040020460400204A04002000002440F7
:103530004C0400204E040020520400200998072863
:103540001AD1F948008807F0B5FD019007F090FC0A
:103550000022F64BCDE9020107F07EF8CDE9040127
:1035600006F094FF069001200346009005212C20D0
:10357000069A04F04DFC1CE00998082819D1EC4883
:10358000008807F097FD019007F072FC0022E74BDE
:10359000CDE9020107F060F8CDE9040106F076FFFD
:1035A000069001200346009005212D20069A04F084
:1035B0002FFC4BE32A200921DE4BCDE9001008A89F
:1035C00007C806F0DFFA41E32A200A21D94BCDE9EA
:1035D000001008A807C806F0D5FA37E32A200B2107
:1035E000D44BCDE9001008A807C806F0CBFA2DE3AC
:1035F0002CE309980D280CD101200090CE480078CA
:10360000503840B20123024605210690302004F0D4
:103610003AFC1BE32F200521C64BCDE9001008A87A
:1036200007C806F0AFFA11E310E30FE30998C01ED4
:103630000D2835D2DFE800F0070C11161B343434A6
:103640003420252A2F000020BC490968088028E082
:103650000120BA490968088023E00220B7490968B7
:1036600008801EE00320B5490968088019E004209D
:10367000B2490968088014E00020B049C968088090
:103680000FE00120AD49C96808800AE00220AB497B
:10369000C968088005E00320A849C968088000E0DF
:1036A00000BF00BFA548C0680188A448103030F8AA
:1036B00011000690A14800680188A048001D405CE8
:1036C000C0F1FF000590322201460120069B04F064
:1036D000D0FABBE20998032805D10A98012802D143
:1036E0009749088008E00998062805D10A9801281A
:1036F00002D1002092490880A8E20998042818D134
:103700000A98012815D18F490870084600788E491B
:10371000097801EB41010844C0B20246112106902C
:103720003D20FDF70DF8002212213D20FDF708F89D
:103730002FE00998062819D10A98012816D10220ED
:1037400080490870084600787F49097801EB4101FB
:103750000844C0B20246112106903D20FCF7F0FF5C
:10376000002212213D20FCF7EBFF12E00998072808
:103770000FD10A9801280CD172484078022808D14C
:103780000020704948700846406808310690FCF7F0
:10379000B1FD5BE20998032808D10A98012805D1F8
:1037A000002069490880FEF7C3FC09E00998062853
:1037B00006D10A98012803D163490880FEF7B8FCB6
:1037C00044E20998401F1B2870D2DFE800F00E1277
:1037D000161A1E82278282823082398242824B826E
:1037E00054825D8266827082790000205749087099
:1037F00070E00120554908706CE0022053490870C0
:1038000068E003205149087064E0002150484F4AA5
:10381000127800EB0210006801805BE001214C4847
:103820004A4A127800EB02100068018052E0022040
:103830004749464A127801EB02110968088049E0BD
:1038400003214348414A127800EB021000680180CE
:1038500040E004203E493D4A127801EB021109681C
:10386000088037E005213A48384A127800EB021008
:10387000006801802EE006203549344A127801EBB9
:1038800002110968088025E0072031492F4A127883
:1038900001EB0211096808801CE008212C482B4A22
:1038A000127800EB02100068018013E011E009209B
:1038B0002749264A127801EB02110968088009E0BD
:1038C0000A202349214A127801EB02110968088075
:1038D00000E000BF00BF1E481C49097800EB011042
:1038E000006800781849097801EB410202EBC10138
:1038F0000844C0B2164906901448007801EB001045
:10390000C0890590014613480088069AFCF718FF05
:103910009CE10998042821D10A9801281ED1002091
:103920000D49087033E000005404002000002440DA
:10393000560400202802002030040020B800002097
:10394000760400204001002070040020B600002012
:103950007C030020AC000020D0000020099805283E
:103960000CD10A98012809D1BA490870BA480088D0
:1039700001280CD13A2004F0C3F908E00998062880
:1039800005D10A98012802D10220B2490870B14835
:103990000078B249097801EB41010844C0B20246FF
:1039A000022106903A20FCF7CBFE4FE1099803284C
:1039B00032D10A9801282FD1A9480088A949088046
:1039C0000020A7490880A3480078A449097801EBA2
:1039D00041010844C0B20246022106903B20FCF798
:1039E000AFFE4FF47A7006F06BF99A480178001D2B
:1039F00050F8210006908047392004F081F995485D
:103A0000007818B193480078012803D195480088C0
:103A100093490880FEF77AFA18E109980E280CD02D
:103A20000998102809D19048007818B9092004F0A5
:103A300067F902E0352004F063F907E18B49099842
:103A4000FDF78AFD02E10998032804D0042803D079
:103A5000152808D101E007E006E0854800880690B7
:103A600004F04EF900E000BF00BFEFE0099809281C
:103A700036D2DFE800F035050B11171D23292F0082
:103A800000207B49D1F8A41008802AE00120784961
:103A9000D1F8A410088024E002207549D1F8A410C0
:103AA00008801EE003207249D1F8A410088018E0B5
:103AB00004206F49D1F8A410088012E005206C4959
:103AC000D1F8A41008800CE006206949D1F8A410B0
:103AD000088006E007206649D1F8A410088000E0BD
:103AE00000BF00BF012000906148D0F8A40000880A
:103AF000002302460A210690402004F0C4F9012068
:103B000000905B48D0F8A4000088002302460A21F8
:103B100006903F2004F0B7F998E00998012804D0F6
:103B2000022806D0032813D10EE0002050498870E7
:103B30000FE04B48008818B9432004F0E1F802E098
:103B4000422004F0DDF804E001204949887000E0DB
:103B500000BF00BF7AE00998032802D10020404945
:103B6000088073E072E071E00998092844D1404868
:103B7000807870B93E48D0F8A400008800EB80013E
:103B80003B48001D00EB81000069008840F0020006
:103B90000DE03748D0F8A400008800EB80013448DD
:103BA000001D00EB81000069008840F001003049F1
:103BB000D1F8A410098801EB81022D49091D01EB00
:103BC0008201096908802A48D0F8A400008800EB27
:103BD00080012748001D00EB8100006900780690F5
:103BE0002348D0F8A40000880B3080B2059001462D
:103BF0004020069AFCF7A4FD28E0099801280BD183
:103C00001748008840B901201A4988700020C87000
:103C1000472004F075F80EE00998092805D11548E9
:103C20000088069004F06CF805E00998112802D18C
:103C300000200B49088009E00998022804D10020DF
:103C40000C498870C870486000E000BF00BF0BB02E
:103C500000BD0000D00000201C04002070040020E3
:103C60001E040020B4000020400100202802002093
:103C70005C010020140100202DE9F04104460D46AE
:103C800016461F46462C21D1042D1FD1012F1DD1D0
:103C900036B1012E09D0022E0CD0032E14D10EE025
:103CA0000A20FA49896808800FE00F20F7498968DF
:103CB00008800AE01420F5498968088005E01E2084
:103CC000F2498968088000E000BFDCE1132C29D1AB
:103CD000032D27D1012F25D136B1012E09D0022E77
:103CE0000CD0032E14D10EE00020E94909680880A9
:103CF0000FE00120E649096808800AE00220E44953
:103D00000968088005E00320E1490968088000E0AF
:103D100000BF00BFDE480068027802211320FCF7D4
:103D20000FFDB0E1262C1DD1122D1BD1012F19D171
:103D300016B1012E08D103E00020D649088004E026
:103D40000120D449088000E000BF00BFD2480078BD
:103D5000D049097801EB4000C2B210212620FCF7BF
:103D6000EFFC90E1222C24D1122D22D1012F20D161
:103D700026B1012E06D0022E0CD107E00020C74943
:103D8000088008E00120C549088004E00220C349FA
:103D9000088000E000BF00BFBF48007800EB400093
:103DA000BE4909780844C2B211212220FCF7C8FCA0
:103DB00069E12A2C1DD10F2D1BD1012F19D116B16C
:103DC000012E08D103E00020B549088004E001205D
:103DD000B349088000E000BF00BFAF480078B04999
:103DE000097801EB4000C2B209212A20FCF7A8FCA7
:103DF00049E12E2C20D1072D1ED1012F1CD116B147
:103E0000012E0AD104E00020A6494968088005E097
:103E10000120A4494968088000E000BF00BFA14814
:103E2000406801789C48007801EB4000C2B2032151
:103E30002E20FCF785FC26E12E2C20D1082D1ED14A
:103E4000012F1CD116B1012E0AD104E000209549A2
:103E50000968088005E0012092490968088000E0AF
:103E600000BF00BF8F48006801788B48007801EBE5
:103E70004000C2B204212E20FCF762FC03E11B2C9F
:103E800026D10F2D24D1012F22D116B1012E0BD115
:103E900006E000208449088032208449088004E03C
:103EA00001208149088000E000BF00BF7E48027801
:103EB00008211B2003F0B6FD774800787A4909787D
:103EC00001EB4000C2B207211B20FCF739FCDAE00D
:103ED0001B2C26D1102D24D1012F22D116B1012E59
:103EE0000BD106E0002072490880642071490880E7
:103EF00004E001206E49088000E000BF00BF6C486C
:103F0000027805211B2003F08DFD63480078684985
:103F1000097801EB4000C2B20B211B20FCF710FC1A
:103F2000B1E01B2C26D1172D24D1012F22D116B19F
:103F3000012E0BD106E000205F49088014205F4964
:103F4000088004E001205C49088000E000BF00BF59
:103F50005948027813211B2003F064FD4E48007875
:103F60005549097801EB4000C2B215211B20FCF72E
:103F7000E7FB88E01B2C26D11E2D24D1012F22D156
:103F800016B1012E0BD106E000204D4908805020CB
:103F90004C49088004E001204949088000E000BF46
:103FA00000BF474802781A211B2003F03BFD3A4826
:103FB00000784349097801EB4000C2B21C211B2064
:103FC000FCF7BEFB5FE0312C32D1092D30D1012F3F
:103FD0002ED116B1012E08D103E000203A49088005
:103FE00004E001203849088000E000BF00BF2A48F3
:103FF00000783549097801EB4000C2B20621312032
:10400000FCF79EFB3048008810B101280ED106E075
:104010002E482F49086018202E49087007E02E48C6
:104020002B4908601E202B49087000E000BF2AE0E1
:10403000372C28D1042D26D1012F24D136B1012EC1
:1040400008D0022E0AD0032E10D10BE00020234905
:1040500008800CE001202149088008E002201F4967
:10406000088004E003201D49088000E000BF00BF75
:10407000094800781949097801EB8000C2B2022191
:104080003720FCF75DFBBDE8F08100001401002043
:10409000E0000020480400207004002040040020BC
:1040A000500400202001002068040020600400204B
:1040B0006A040020620400206C04002064040020D4
:1040C0006E0400206604002026040020E0707200C8
:1040D0001400002018000020808D5B0028040020C0
:1040E00070477047704770B504AC70CC70BD00006D
:1040F0002DE9F8430446FE480480008848286FD222
:10410000DFE800F0243D3E4142576F72758A8B8F85
:1041100093979B9FA0B5B6B7F3F1F0EFEEEDECEB04
:10412000EAE9E8E7E6E5E4E3E2E1E0DFDEDDDCDB67
:10413000DAD9D8D7D6D5D4D3D2D1D0CFCECDCCCB57
:10414000CAC9C8C7C6C5C4C3C2C1C0BFE948008880
:1041500020B1012806D002280CD107E0062003F088
:10416000CFFD08E0022003F0CBFD04E0072003F0C0
:10417000C7FD00E000BF00BFFDF7A8FF11E2FDE7AB
:10418000FCF7FCFAFAE7F9E7DB484078012805D1AB
:10419000DA480088D8494880002048700120002370
:1041A0000090D64802880521D148008803F06BFEB4
:1041B000E4E7D1484078012805D1D1480088CE49AC
:1041C00048800020487001200090CD480078503889
:1041D00042B201230521C648008803F054FECDE712
:1041E000FEE3FEF7ABFBC9E7FDF72EF8C6E7C248D2
:1041F0004078012805D1C3480088BF494880002085
:104200004870012000230090BE4802880521B8486C
:10421000008803F038FEB1E7B0E70A20BA49088009
:10422000ACE70020B3490880A8E70C20B749088014
:10423000A4E70020AF490880A0E70120AD4908802D
:104240009CE79BE7AC484078012805D1AB48008843
:10425000A949488000204870012000230090A74809
:1042600002880521A248008803F00DFEF0E3EFE389
:10427000EEE3A7480068027802211320FCF760FAF9
:10428000E6E3C7E380E37CE378E374E372E370E39F
:104290006EE338E336E334E332E330E32EE32CE33A
:1042A0002AE328E326E324E322E316E314E30FE3FF
:1042B000F7E2E6E2D8E2B6E294E27EE246E230E2FB
:1042C0001AE2F8E1CCE1B6E1A0E18AE16AE154E169
:1042D00048E132E1F9E0E3E0CDE0A3E08DE077E012
:1042E00061E041E02BE015E0FFE7012000230090B2
:1042F0008248028804217E48008803F0C4FD002023
:10430000034600908348028805217948008803F01D
:10431000BAFD9DE378484078012805D177480088A8
:1043200075494880002048700120002300907348A0
:10433000028805216E48008803F0A5FD88E36E48D9
:104340004078012805D1734800886B4948800020D7
:1043500048700020034600906E480288052164489A
:10436000008803F090FD73E30120002300906A4869
:10437000028804215E48008803F085FD01200023A7
:1043800000906648028805215948008803F07BFDAB
:1043900001200023009062480288062154480088CA
:1043A00003F071FD54E354484078012805D15A4880
:1043B0000088514948800020487000200346009042
:1043C0005548028805214A48008803F05CFD3FE318
:1043D00049484078012805D150480088464948801E
:1043E000002048700020034600904C4802880521B8
:1043F0003F48008803F047FD2AE33F484078012802
:1044000005D1474800883C4948800020487000207A
:10441000034600904248028805213548008803F091
:1044200032FD15E30120002300903E48028803215D
:104430002F48008803F027FD0120002300903A4810
:10444000028804212A48008803F01DFD0120002372
:1044500000903648028812212548008803F013FD99
:10446000012000230090324802881921204800884A
:1044700003F009FDECE220484078012805D12948E5
:1044800000881D49488000204870002003460090A5
:104490002448028805211648008803F0F4FCD7E27E
:1044A00015484078012805D11F48008812494880E6
:1044B000002048700020034600901B480288052118
:1044C0000B48008803F0DFFCC2E20B48407801286B
:1044D00005D116480088084948800020487000200F
:1044E000034600901148028805210148008821E018
:1044F000AC0000201E040020280200202C04002014
:104500003004002044040020140100205C0100203D
:10451000E00000202E04002034040020320400209B
:10452000360400206004002062040020640400209F
:104530006604002003F0A7FC8AE2F94840780128CD
:1045400005D1F8480088F6494880002048700020CE
:1045500003460090F34802880521F348008803F0E1
:1045600092FC75E2002003460090F0480288022188
:10457000ED48008803F087FC6AE2E94840780128AA
:1045800005D1EA480088E6494880002048700020AC
:1045900003460090E54802880521E348008803F0BF
:1045A00072FC55E2012000230090E14802880521B9
:1045B000DD48008803F067FC012000230090DD48FF
:1045C00002880621D848008803F05DFC0120002302
:1045D0000090D94802880921D348008803F053FC91
:1045E00036E2CF484078012805D1D1480088CC492F
:1045F000488000204870012000230090CC480288A9
:104600000521C948008803F03EFC21E2C4484078F7
:10461000012805D1C7480088C1494880002048705A
:10462000012000230090C34802880521BE4800886D
:1046300003F029FC0CE2BA484078012805D1BE48B5
:104640000088B7494880002048700120002300906E
:10465000B94802880521B448008803F014FCF7E14A
:10466000B648008806F096F907460022B44B05F0DC
:10467000F3FF054605F00AFF8146012003464A463E
:1046800004210090A848008803F0C2FB0120002309
:104690000090AC4802880521A348008803F0F3FB92
:1046A000012000230090A848028806219E48008827
:1046B00003F0E9FBCCE19A484078012805D19F48F6
:1046C000008897494880002048709C48008806F080
:1046D00061F9074600229A4B05F0BEFF054605F03A
:1046E000D5FE8146012003464A46052100908E48AA
:1046F000008803F08DFBABE189484078012805D1A3
:104700009048008886494880002048700120002396
:1047100000908C48028805218348008803F0B3FB91
:1047200096E17F484078012805D1874800887C4978
:1047300048800020487001200023009082480288B1
:1047400005217948008803F09EFB81E101200023C8
:1047500000907E4802880C217348008803F093FB88
:104760007B48008806F016F907460022744B05F0D6
:1047700073FF054605F08AFE8146012003464A463E
:104780000D2100906848008803F042FB71480088C2
:1047900006F000F907460022694B05F05DFF05466B
:1047A00005F074FE8146012003464A460E21009022
:1047B0005D48008803F02CFB4AE159484078012805
:1047C00005D1624800885649488000204870012081
:1047D000002300905D48028805215348008803F0BB
:1047E00052FB35E14E484078012805D158480088F1
:1047F0004B494880002048705548008806F0CAF8A8
:10480000074600224E4B05F027FF054605F03EFE09
:104810008146012003464A4605210090424800880F
:1048200003F0F6FA14E13E484078012805D14948E2
:1048300000883B494880002048704648008806F0C0
:10484000A9F8074600223E4B05F006FF054605F095
:104850001DFE8146012003464A460521009032484C
:10486000008803F0D5FAF3E03B48006801783B4844
:10487000007801EB4000C2B204212E20FBF760FF5C
:10488000E6E00120009036480078503842B201231B
:1048900008212548008803F0F6FA2F2031490880C6
:1048A000D6E01F484078012805D12D4800881C49D2
:1048B0004880002048700120009029480078503836
:1048C00042B2012305211848008803F0DCFABFE05A
:1048D000312025490880BBE0BAE001200023009088
:1048E0002248028805211048008803F0CCFAAFE086
:1048F000AEE0ADE0ACE0ABE0AAE0A9E0A8E0A7E064
:10490000A6E0A5E0A4E0002000901648D0F8A4009E
:104910000288002302210448008803F0B4FA97E0DB
:104920002802002066040020AC0000203A04002089
:104930004204002044040020460400204A040020D1
:10494000000024404C0400204E04002052040020AB
:104950005404002056040020200100207004002090
:10496000300400205C01002014010020B000002071
:104970006EE06DE06CE0FEF7B7F869E003F0F6FA80
:1049800066E001F039FF63E03348008820B1012878
:1049900015D002283BD127E001220B212F480088A7
:1049A000FBF7CEFE00220C212C480088FBF7C8FE46
:1049B00000220D2129480088FBF7C2FE28E00022D2
:1049C0000B2126480088FBF7BBFE01220C2123485F
:1049D0000088FBF7B5FE00220D212048008800E08A
:1049E00035E0FBF7ADFE13E000220B211B480088E9
:1049F000FBF7A6FE00220C2118480088FBF7A0FE5A
:104A000001220D2115480088FBF79AFE00E000BF47
:104A100000BF1DE01249088805F0BCFF0746114A97
:104A2000114B06F007F8054605F030FD81460120E0
:104A300003464A46062100900848008803F0E8F93A
:104A40000A48807810B9462003F05AF900E000BF08
:104A500000BFBDE8F88300001E040020AC00002069
:104A600006000020FCA9F1D24D62803F1401002015
:104A70007047704770B504460E4615463D2C06D16A
:104A800003480278103050F822102846884770BD3D
:104A90004001002070B505460C46082D04D1072CB6
:104AA00002D1642002F0B1FF70BD7047704710B5AD
:104AB00000F013F800F0E6FB00F00EFC00F02EFC16
:104AC00000F0B6FB00F088FB00F0C2FC00F066FCD2
:104AD00000F08CFC00F002F810BD70477047000039
:104AE00006480078012808D105480078FF2804D23C
:104AF00003480078401C024908707047F603002004
:104B0000E903002010B500241A480078012830D1AC
:104B1000FBF76AFB04461848007820B11648007875
:104B2000401E1549087014480078F8B913480078F9
:104B3000E0B900F0EFFC12481249097850F8210062
:104B4000114908600F4800781049097888420DD053
:104B50000D480068806B401C0B49096888630C484D
:104B60000068401C0A490860FBF75DFB2046FBF724
:104B70003FFB10BDF6030020E9030020EA030020FC
:104B800094170020EC03002004040020EB03002015
:104B9000D003002010B500240B480078012811D163
:104BA000FBF722FB04460948007840B90848007822
:104BB000FF2804D206480078401C054908702046AA
:104BC000FBF716FB10BD0000F6030020E9030020F0
:104BD000EA03002010B5002413480078012821D1F1
:104BE000FBF702FB044611480078C0B10F4800787B
:104BF000401E0E4908700846007860B90C480078DD
:104C000028B92046FBF7F4FA00F04AFC0AE02046F7
:104C1000FBF7EEFA06E02046FBF7EAFA02E0204650
:104C2000FBF7E6FA10BD0000F6030020EA030020BF
:104C3000E903002010B50B48007890B900F06AFC39
:104C4000094800780949087009480749097850F867
:104C50002100084908600846006807490860FBF71A
:104C6000CAFA10BDF6030020EC030020EB0300207D
:104C70009417002004040020FC03002010B5002439
:104C8000022000F0F5F9FBF7AFFA044600200B49CB
:104C900008602046FBF7ACFA192000F0E9F9FBF7B1
:104CA000A3FA044605480068054908600120054943
:104CB00008702046FBF79CFA10BD0000F8030020A6
:104CC000E0030020E8030020704700002DE9FE4FBC
:104CD00006460F4690461C464FF00009FBF784FA43
:104CE00081461F48007828B14846FBF781FA3C20EE
:104CF000BDE8FE8F1B4850F8240060BB0120194915
:104D000041F824004846FBF773FA0023424639462F
:104D1000304600F009F982460020009001900346D9
:104D2000024651460290204600F00AFC054635B97D
:104D30000D48007801280CD100F0B2FB09E0FBF728
:104D400053FA81460020074941F824004846FBF702
:104D50004FFA2846CCE74846FBF74AFA2820C7E72F
:104D6000E903002094170020F60300202DE9F04FFE
:104D700085B081468A4693461C46DDE90F78129D30
:104D800000200390FBF730FA03902348007830B1FD
:104D90000398FBF72DFA3C2005B0BDE8F08F1F48C3
:104DA00050F8240088BB01201C4941F824000398D6
:104DB000FBF71EFA2A464146384600F0D1FC2B4646
:104DC0005A465146484600F0AFF804901198CDE994
:104DD000008002953A4620460E9B049900F0B0FBF5
:104DE000064636B90E48007801280CD100F058FB71
:104DF00009E0FBF7F9F903900020084941F8240085
:104E00000398FBF7F5F93046C6E7FFE70398FBF791
:104E1000EFF92820C0E70000E903002094170020E4
:104E2000F6030020704770472DE9F04106460F4613
:104E300014464FF000081548007818B11220207071
:104E4000BDE8F081FBF7D0F98046FF2E03D1104872
:104E5000006890F832600F4850F826502DB940464F
:104E6000FBF7C6F943202070EAE7012D05D1404643
:104E7000FBF7BEF943202070E2E7EF644046FBF702
:104E8000B7F90020207000BFDAE70000E903002036
:104E9000FC03002094170020704700002DE9F04724
:104EA00007460D464FF0000A002028606860FBF7B7
:104EB0009BF98246FF2F03D11948006890F83270A1
:104EC000184850F827402CB95046FBF791F9432079
:104ED000BDE8F087012C04D15046FBF789F9432047
:104EE000F6E7207C00F0010020B95046FBF780F97E
:104EF0004520EDE70026D4F80C90D4F80880504601
:104F0000FBF776F900E0761C58F8041B0029FAD06C
:104F1000B0002860A9EB0600800068600020D7E799
:104F2000FC0300209417002070B5044610464FF093
:104F300080750560051F28462C606FF00106051F6F
:104F400028462E604FF01236051F28462E604FF07F
:104F50000336051F28462E604FF00236051F2846EF
:104F60002E607610051F28462E60051F28462960F2
:104F70004FF01136051F28462E604FF01036051FE2
:104F800028462E604FF00936051F28462E604FF048
:104F90000836051F28462E604FF00736051F2846A5
:104FA0002E604FF00636051F28462E604FF005365E
:104FB000051F28462E604FF00436051F28462E6038
:104FC00070BD00002DE9F04105464FF00008FBF7E9
:104FD0000BF98046FF2D05D12048006890F832502B
:104FE000012608E01D48006890F83200A84201D16F
:104FF000012600E000261A4850F825402CB940460A
:10500000FBF7F6F84820BDE8F081012C04D14046BA
:10501000FBF7EEF84320F6E794F834701148C05DD2
:1050200094F8351088430F49C8550846C05D30B91B
:1050300094F836100C48007888430B49087094F8AF
:10504000300040F0080084F830004046FBF7D0F80C
:10505000012E01D100F024FA0020D4E7FC03002047
:1050600094170020EE030020ED030020704700009D
:1050700070B5054600261748007800B170BD164887
:10508000007800B1FAE71DB3FBF7AEF80646134807
:10509000006890F834401248005D1049096891F8A2
:1050A000351088430E4908550846005D40B90B4845
:1050B000006890F836100B4800788843094908705A
:1050C00006480068C5623046FBF792F800F0E8F940
:1050D00000BFD3E7E9030020EA030020FC0300201F
:1050E000EE030020ED03002070B5002600F072F8FA
:1050F000FBF77AF8064631480068401C2F490860E3
:105100003046FBF775F82E480078012853D12D481A
:10511000007820B1012804D0022809D103E001253C
:105120000BE0002509E0012501202649087004E074
:10513000012500202349087000BF00BF05B970BDDC
:105140002148046833E0FBF74FF80646E06A50B3A5
:10515000E06A401EE062E06A28BB94F8300000F08C
:10516000370040B114F8300F00F0C8002070012063
:105170006070303C02E0002084F8310094F8300088
:1051800000F0080078B93434A07810490978084351
:105190000E49087020780E49085C6178084314F8BD
:1051A00034190B4A505464693046FBF721F894F8DF
:1051B00032003F28C7D100BFC1E70000140400201F
:1051C000F60300200C04002008040020ED0300205A
:1051D000EE030020704700002DE9F04150211148F6
:1051E00000F02CF900250DE0681C86B20D4800EB9C
:1051F000051400EB06170020207067600AA0E0602D
:10520000681C85B2042DEFD3064800EB051400207E
:105210002070606004A0E060024804490860BDE8B6
:10522000F0810000441300203F000000D80300205C
:1052300070B5C821114800F001F900230FE0581C97
:1052400085B203EB83000D4901EB800405EB85007B
:1052500001EB8006002020706660581C83B2092B89
:10526000EDD303EB8300054901EB8004002020709F
:10527000606008460249086070BD00007C12002092
:10528000D403002000200A4908600A4908700A492E
:1052900008700A4908700A4908700A4908600A49F2
:1052A00008600A4908600A4908600A49087070479E
:1052B00014040020E9030020EA030020F703002083
:1052C000F6030020D0030020F8030020E4030020B0
:1052D000E0030020E803002000210A4A11700020AA
:1052E00004E00021084A1154411CC8B20828F8D330
:1052F0000021064A1170064A1170064A1160064ADA
:1053000011607047ED030020EE030020EB03002046
:10531000EC03002004040020FC03002070B54FF4CF
:105320007C71194800F08AF84FF48071174800F03A
:1053300085F8002413E0601CC5B2C4EBC40000EB88
:105340004000114901EB8003C5EBC50000EB4000B4
:1053500001EB80065E610EA0D864601CC4B20B2C09
:10536000E9D3C4EBC40000EB4000074901EB800324
:105370000020586106A0D864002006490860024851
:105380000549086070BD00009418002094170020A3
:105390003F000000080400200004002000B587B092
:1053A0000320002180220A4BCDE90132CDE9031010
:1053B0004FF6FF703F23074A00900748FFF7D6FCDF
:1053C00006AA06A13F20FFF72FFD07B000BD000091
:1053D00094150020901700207556000875432F4F34
:1053E000532D49492049646C6500000000B587B021
:1053F0000320002180220A4BCDE90132CDE90310C0
:105400004FF6FE703E23074A00900748FFF7AEFCB8
:1054100006AA06A13E20FFF707FD07B000BD000069
:1054200094130020901500209D56000875432F4FBF
:10543000532D4949205374617400000004E0002298
:1054400000F8012B4A1E91B20029F8D170470000E4
:105450002DE9F04178211048FFF7F0FF00240DE01E
:10546000601C86B204EB44000B4901EBC00506EB5F
:10547000460001EBC0072F60601C84B2042CEFD300
:1054800004EB4400044901EBC005002028600846F5
:1054900002490860BDE8F081841C0020100400204F
:1054A00010B50024FAF7A0FE044613480078F8B9B6
:1054B00012480078E0B900F02DF811481149097838
:1054C00050F82100104908600E4800780F4909780B
:1054D00088420DD00C480068806B401C0A4909685E
:1054E00088630B480068401C09490860FAF794FE7D
:1054F0002046FAF77DFE10BDE9030020EA030020F4
:1055000094170020EC03002004040020EB0300208B
:10551000D00300200649074A1278885C0649095CD6
:10552000034A515C01EBC001044A1170704700004E
:105530002AB40008ED030020EE030020EC03002055
:105540002DE9F84F05460F4690469946DDE90AAB2E
:1055500000200090FAF748FE00903F480468002CB5
:1055600074D0183454F8040C3B4908600098FAF7DA
:105570003FFE44F8187CA5760020207660766061B6
:1055800044F814BC44F80CAC44F8108C0C9824F883
:10559000080C24F8069C0020E077E810207705F03E
:1055A0000700E076217F01208840A077E17E01207E
:1055B0008840607700206060E060A0602062A062A8
:1055C0006062E062206325A06063183C002606E06C
:1055D000002104F1500040F82610701CC6B2002EC5
:1055E000F6D02046FFF770FB2046FFF71BFCFAF7CA
:1055F000FBFD00901A4840F825401A480068606199
:105600000020A0611748006810B116480068846146
:10561000144804603434A0781349097808431249C7
:10562000087020781149085C6178084314F834192F
:105630000E4A50540E480078401C0D4908700098DE
:10564000FAF7D6FD0020BDE8F88FFFE70098FAF7DB
:10565000CFFD4220F7E70000000400203F000000DB
:105660009417002008040020ED030020EE03002022
:10567000F7030020002400BF00BFFAF7B5FD044681
:1056800005480068401C044908602046FAF7B0FD50
:10569000FFF7C9FBF1E70000F8030020002400BF7A
:1056A00002E03220FFF7E4FC194800780028F8D027
:1056B000184800686421B0FBF1F0164908600846FC
:1056C000006828B9002014490870FF20FFF77AFC11
:1056D00000BFFAF789FD04461048006810490860C9
:1056E00000200E4908602046FAF782FD0C48006849
:1056F00008490968B0FBF1F0C0F164000649087080
:10570000FFF7CAFB00F00EF81920FFF7B1FCE0E745
:10571000E8030020E0030020DC030020F803002061
:10572000E40300207CB5002514E069462846FFF715
:10573000B5FB064666B9094850F8254044B1012C2E
:1057400006D0D4E9020100EB810060640198A064F6
:10575000681CC5B23F2DE8D97CBD0000941700201D
:1057600002F0010343B102F002032BB102E0491E33
:10577000002308C00029FAD1704700002DE9F0414C
:1057800000206A49096808606849096848606749F3
:10579000096888604FF07C5064490968C8606349B3
:1057A0000968C86805F064FB06460022604B04F0F7
:1057B00053FF044604F06AFE5C4909680861012051
:1057C0005A490968087559490968C86805F050FBC5
:1057D00006460022574B05F02DF9044604F056FE0C
:1057E000524909688861002050490968C8614F49D9
:1057F000096808624D49096848624F4909680860AC
:105800004D49096848604C49096888604A490968F7
:10581000C8604A48484909680861494846490968D2
:1058200048610120444909680876464842490968A8
:10583000C86100204049096808623F490968486218
:105840003D49096888624049096808603E4909681D
:1058500048603D49096888603B490968C860374825
:1058600039490968086136483749096848610120A3
:10587000354909680876334833490968C86100200A
:105880003149096808623049096848622E49096847
:1058900088622E49096808602C49096848602B49CC
:1058A0000968886029490968C86029482749096842
:1058B0000861284825490968486101202349096889
:1058C00008764FF07C5021490968C86100201F49C3
:1058D000096808621D49096848621C4909688862AC
:1058E0001D49096808601C49096848601A49096827
:1058F000886019490968C8614FF0814016490968F4
:10590000C8601648144909680861012012490968ED
:105910000875134810490968886100200E49096814
:1059200008620D4909684862BDE8F08168030020FB
:105930000080514000001440640300200000204219
:105940009A99193F000020416C0300207003002049
:105950009A99993ECDCCCC3D740300200AD7A33D43
:105960000000404000B502F07BF801F0B1FE00BD40
:105970002DE9FF5F044689466549D1F8A4100988DE
:1059800001EB81026249091D51F822100A88604921
:10599000D1F8A410098801EB81035D49091D01EBD1
:1059A000830149680988501A04F0DDFF05460E4658
:1059B0005749D1F8A410098801EB81025449091D07
:1059C00051F822100988081B04F0CDFF0746002279
:1059D000504B05F02FF82A463346CDE9000104F07C
:1059E0003BFE824604F052FD02900021029805F031
:1059F00075FB01D200200290029805F039FA0546A5
:105A00000022444B05F014F901D243480290029859
:105A100005F0FCFA643800B2404908803C49D1F8EE
:105A2000A410098801EB81023949091D01EB8201AB
:105A300089680A883649D1F8A410098801EB8103E6
:105A40003349091D01EB8301C9680988501A04F024
:105A50008AFF05460E462E49D1F8A410098801EBAD
:105A600081022B49091D01EB820189680988A1EB9C
:105A7000090004F078FF82460022264B04F0DAFF8A
:105A800007462A46334604F0E7FDCDE9000104F05D
:105A9000FDFC02900021029805F020FB01D20020BD
:105AA0000290029805F0E4F905460022194B05F032
:105AB000BFF801D218480290029805F0A7FA64389E
:105AC00000B2174908801748C079072803D1002081
:105AD00004B0BDE8F09F1448B0F900004FF47A71AB
