:020000040800F2
:1000000028230020A9010008D5280008B91C0008F1
:10001000592300082D110008976E00080000000009
:10002000000000000000000000000000FB5000087D
:100030003B19000800000000370200089D5A000824
:100040009D6E0008C3010008C3010008C301000839
:10005000C3010008C30100083D190008C3010008DE
:10006000C3010008C3010008C3010008051500080A
:100070002D150008C3010008C3010008C3010008D2
:10008000C301000805160008C3010008C3010008E9
:10009000C3010008C3010008C3010008C301000830
:1000A000595D0008C3010008C30100085D5D000838
:1000B000C30100087D5D0008ED5E0008C301000873
:1000C000C3010008C3010008C3010008C301000800
:1000D000C3010008C3010008796B00080D6C00081B
:1000E000C3010008C3010008C301000800F002F8C2
:1000F00000F04BF80AA090E8000C82448344AAF177
:100100000107DA4501D100F040F8AFF2090EBAE874
:100110000F0013F0010F18BFFB1A43F0010318473B
:1001200018940000289400000A444FF0000C10F8C6
:10013000013B13F0070408BF10F8014B1D1108BF65
:1001400010F8015B641E05D010F8016B641E01F805
:10015000016BF9D113F0080F1EBF10F8014BAD1C55
:100160000C1B09D16D1E58BF01F801CBFAD505E073
:1001700014F8016B01F8016B6D1EF9D59142D6D3CD
:1001800070471FB51FBD10B510BD00F006F9114630
:10019000FFF7F7FF07F03AFD00F024F903B4FFF78B
:1001A000F2FF03BC00F028F90948804709480047DE
:1001B000FEE7FEE7FEE7FEE7FEE7FEE7FEE7FEE717
:1001C000FEE7FEE704480549054A064B7047000074
:1001D000B95A0008ED000008281D0020282300203F
:1001E000281F0020281F0020EFF3108072B67047F0
:1001F00080F310887047204C204D25604FF000049C
:1002000084F309881E4C4FF0010525701D4C4FF0FA
:100210008055256062B6FEE730B41A4C4FF0805529
:10022000256030BC704730B4164C4FF080552560C7
:1002300030BC704700BF72B6EFF3098028B1203898
:1002400080E8F00F10490968086000B50F48804742
:100250005DF804EB0E480F490A7802700A480E490F
:100260000A680260106890E8F00F203080F3098877
:100270004EF0040E62B6704720ED00E00000FFFF74
:100280008603002004ED00E08C03002069310008A3
:100290007B0300207C03002094030020032A40F20B
:1002A000308010F0030C00F0158011F8013BBCF118
:1002B000020F624498BF11F801CB00F8013B38BF30
:1002C00011F8013BA2F1040298BF00F801CB38BF3E
:1002D00000F8013B11F0030300F02880083AC0F059
:1002E000088051F8043B083A51F804CBA0E8081004
:1002F000F5E7121D5CBF51F8043B40F8043BAFF337
:100300000080D20724BF11F8013B11F801CB48BF90
:1003100011F8012B24BF00F8013B00F801CB48BFC6
:1003200000F8012B704770477047704710B5203AAE
:10033000C0F00B80B1E81850203AA0E81850B1E89E
:100340001850A0E81850BFF4F5AF5FEA027C24BF54
:10035000B1E81850A0E8185044BF18C918C0BDE84B
:1003600010405FEA827C24BF51F8043B40F8043B14
:1003700008BF7047D20728BF31F8023B48BF11F8C9
:10038000012B28BF20F8023B48BF00F8012B704723
:1003900000487047C41C002070477546FFF7F8FFFF
:1003A000AE4605006946534620F00700854618B062
:1003B00020B5FFF707FFBDE820404FF000064FF0E3
:1003C00000074FF000084FF0000B21F00701AC468A
:1003D000ACE8C009ACE8C009ACE8C009ACE8C009A9
:1003E0008D46704710B50446AFF300802046BDE847
:1003F0001040FFF7D3BE000001491820ABBEFEE756
:100400002600020021B1826842F00102826003E00E
:10041000826822F001028260704721B1826842F452
:100420008072826003E0826822F48072826070478A
:10043000014600208A6802F004020AB1012000E0AF
:1004400000207047014600208A6802F008020AB1C5
:10045000012000E00020704730B502460020002354
:1004600050680F4C20400D790C6844EA0524204365
:10047000506090680B4C2040D1E902542C434D79D8
:1004800044EA450420439060D06A20F470000C7C5C
:10049000641EE4B2234340EA0350D06230BD000042
:1004A000FFFEF0FFFDF7F1FFF0B504460D4600201A
:1004B0000021092D11DDE068A5F10A0606EB4607CB
:1004C000072606FA07F18843A5F10A0606EB460659
:1004D00003FA06F10843E0600CE0206905EB4507EC
:1004E000072606FA07F1884305EB450603FA06F1ED
:1004F00008432061072A0FDA606B561E06EB860759
:100500001F2606FA07F18843561E06EB860605FAF3
:1005100006F10843606322E00D2A0FDA206BD61F34
:1005200006EB86071F2606FA07F18843D61F06EB5F
:10053000860605FA06F10843206310E0E06AA2F19E
:100540000D0606EB86071F2606FA07F18843A2F17F
:100550000D0606EB860605FA06F10843E062F0BDDB
:10056000816841F008018160704721B1826842F4DE
:10057000A002826003E0826822F4A00282607047D9
:10058000816841F0040181607047000000B591B0BE
:100590004FF4004003F03CFC01214FF4047003F0E1
:1005A00073FC0F20ADF8400000208DF8430010A927
:1005B0003D4801F08AFA3D4801F0C0F83C480090FF
:1005C0003C480190002002900420039000200490F9
:1005D0008020059040000690800007902020089021
:1005E0000002099000200A906946304801F085F920
:1005F000012202212D4801F077F901212B4801F059
:1006000091F800200B9001208DF8300000208DF82B
:1006100031004FF460200D9000200E9004208DF8E2
:100620003C000BA922484C38FFF716FF0323012298
:100630000A211F484C38FFF737FF032302220B2102
:100640001B484C38FFF730FF03231A460C2118488B
:100650004C38FFF729FF032304220D2114484C389E
:10066000FFF722FF012112484C38FFF7D6FE012187
:100670000F484C38FFF7C6FE0D484C38FFF770FFA7
:1006800000BF0B484C38FFF7DDFE0028F9D10848C1
:100690004C38FFF775FF00BF05484C38FFF7C8FE20
:1006A0000028F9D111B000BD00100140080002403F
:1006B0004C2401400200002070B58A480068008880
:1006C00008B1012000E000200546874C2078012871
:1006D0000CD186480068008800EB4001201D00EB2B
:1006E0008100406800886080002020708048007889
:1006F0000A287CDD7B480068008801281ED17B48E1
:100700000068008800EB4001201D00EB810040687C
:10071000018876480068008800EB4002201D00EB4D
:1007200082000089014471480068008800EB4002A3
:10073000201D00EB82004088814200DDC5B96B4B73
:100740001B681B8803EB4306231D03EB86031A7A01
:10075000664B1B681B8803EB4306231D03EB8603D4
:100760005968604B1B6818882B4600F0C7F83BE0BF
:100770005C480068008802281DD15C480068008839
:1007800000EB4001201D00EB8100406801885748C4
:100790000068008800EB4002201D00EB8200008909
:1007A000091A52480068008800EB4002201D30F80A
:1007B0002200814200DABDB94C4B1B681B8803EB59
:1007C0004306231D03EB86031A7A484B1B681B88DC
:1007D00003EB4306231D03EB86035968414B1B685B
:1007E00018882B4600F08AF80020414908703F48DD
:1007F0000068008820B13D4800680088182813D19F
:100800003A480068008800EB4001201D00EB8100A1
:100810004068008800EB80004FF6FF7101EA40005D
:1008200034490968088031E030480068008812289F
:1008300009D02E4800680088162804D02B4800688C
:10084000008817280FD129480068008800EB400174
:10085000201D00EB81004068008800F548702549A4
:100860000968088012E021480068008800EB400118
:10087000201D00EB81004068008800EB80004FF4F1
:10088000487101EB40001B49096808801A4800685C
:100890000088022814D11448418814480068008850
:1008A00000EB40021048001D00EB82004068018010
:1008B00001200D490870FF200C49096808800AE0F2
:1008C0000D4800680088012805D107490870FF20FD
:1008D00006490968088006480078401C04490870E9
:1008E00070BD0000D091000818020020C8910008D7
:1008F0004A030020C0910008D491000830B5012BB4
:1009000036D1012802D0022830D117E01C4C2478BF
:1009100034B901241A4D2C700C8814440C800CE05E
:10092000184C2478072C05DA164C2478641C154DD5
:100930002C7002E00C8814440C8018E0104C2478D1
:1009400034B901240E4D2C700C88A41A0C800CE0D4
:100950000C4C2478072C05DA0A4C2478641C094DC9
:100960002C7002E00C88A41A0C8000E000BF05E0A7
:1009700023B90024024D2C70024D2C7030BD0000B4
:10098000490300204803002007285FD2DFE800F079
:100990005E4F3140130422000121344A1160344A71
:1009A000C2F8A81143F20401324A118000212F4AF3
:1009B000121D116058E001212C4A11602C4AC2F826
:1009C000A8114FF450512B4A11800021274A121DC3
:1009D000116049E00121254A121D1160244AC2F824
:1009E000A8114FF45051234A118000211F4A116071
:1009F0003AE001211D4A121D11601D4AC2F8A811DA
:100A00004FF441511B4A11800021184A11602BE01C
:100A10000121164A1160164AC2F8A4114FF441513F
:100A2000144A11800021114A083211601CE0012192
:100A30000E4A11600E4AC2F8A41143F204010D4A95
:100A400011800021094A083211600DE04FF4405135
:100A5000084A11800121054A1160054AC2F8A41113
:100A6000024A0832116000BF00BF7047A001214256
:100A700000002142202C0140072861D2DFE800F06D
:100A800060513342130423000121364A1160364A73
:100A9000C2F8A8114FF44151344A11800021314A63
:100AA000121F11605BE001212E4A121F11602E4AB5
:100AB000C2F8A4114FF441512C4A11800021294A57
:100AC000121D11604BE00121264A121F1160264AB7
:100AD000C2F8A41143F20401244A11800021214AE2
:100AE000121D11603BE001211E4A121F11601E4AB7
:100AF000C2F8A81143F204011C4A11800021194ACE
:100B000011602CE00121174A121F1160164AC2F829
:100B1000A8114FF45051154A11800021114A11605B
:100B20001DE001210F4A11600F4AC2F8A8114FF4CD
:100B300050510E4A118000210A4A121F11600EE026
:100B40004FF44051094A11800121064A121F1160D9
:100B5000054AC2F8A411034A121D116000BF00BF6C
:100B600070470000A401214200002142202C0140D6
:100B700008B54FF47060ADF8000010208DF8030048
:100B800003208DF8020069460E4800F09EFF4FF4E6
:100B90006040ADF8000018208DF8030003208DF8A8
:100BA00002006946084800F090FF4FF4E070ADF88D
:100BB000000048208DF803006946044800F085FFD6
:100BC00008BD000000080140000C01400010014079
:100BD00000B500230F488068C0F38213012B17DB98
:100BE000062B15DC01200C490871084690F9070016
:100BF000401C18B91846FFF7C7FE06E00648C07942
:100C0000012802D11846FFF737FF0020034908806A
:100C100000BD0000001001408800002024040040B6
:100C200000200749088000BF00BF00200549086078
:100C30000549C1F8A4010349083108607047000064
:100C4000202C0140A00121420000214200B58BB0C0
:100C50000121C80203F018F9424805F06DFB02209B
:100C6000ADF820004020ADF8220040F2AF40ADF8D2
:100C700024000020ADF826008DF8280008A9394886
:100C800005F058FE6020ADF810000020ADF812000D
:100C9000ADF814004FF41670ADF816000020ADF852
:100CA0001800ADF81A00ADF81C00ADF81E0004A93C
:100CB0002C4805F095FC4FF41670ADF8160004A909
:100CC000284805F0E3FC4FF41670ADF8160004A9AF
:100CD000244805F03BFD7020ADF810000020ADF871
:100CE00012000A20ADF816000220ADF8180004A981
:100CF0001C4805F085FD4FF40060ADF80000401081
:100D0000ADF802008010ADF804007820ADF80600C0
:100D10000020ADF80800ADF80A00ADF80C006946F7
:100D2000104805F0DBFA08210E4805F0A5FC082163
:100D30000C4805F0FDFC08210A4805F057FD01218B
:100D4000084805F0EAFA1021064805F0D7FA012113
:100D5000044805F0D6FA01221021024805F036FCBD
:100D60000BB000BD002C014000B58BB0012102206A
:100D700003F06AF80121354800F032FF344805F0ED
:100D8000DBFA4720ADF820000020ADF8220042F247
:100D90000F70ADF824000020ADF826008DF8280073
:100DA00008A92B4805F0C6FD0020ADF81400ADF8E9
:100DB00016000320ADF818000020ADF81A000A2034
:100DC000ADF81C0005A9224805F0AAFB0020ADF8EB
:100DD0000400ADF8060042F21070ADF80A000020E1
:100DE000ADF80C0001A91A4805F00AFD01211848C8
:100DF00005F044FD4021164805F04CFD042114483F
:100E000005F063FD8021124805F04DFD502110488A
:100E100005F052FD0E48103000884FF6EF71084083
:100E20000B4910310880084600884FF6BF71084012
:100E30000749103108800121054805F062FA0122B6
:100E40005021034805F0C2FB0BB000BD000C1A0096
:100E5000000400400EB50121042002F0F5FF124805
:100E600005F06AFA4720ADF800000020ADF8020056
:100E700040F69F70ADF804000020ADF806008DF834
:100E800008006946084805F055FD0121064805F0AF
:100E900035FA0121044805F034FA012211460248CE
:100EA00005F094FB0EBD00000008004010B503F0F3
:100EB0000BF806F04DFA00F041FFFFF759FEFFF77F
:100EC000C5FEFFF751FFFFF7C5FF02F0E3FC4FF44B
:100ED000E13007F02FF84FF4E13007F0D1F8FFF7D9
:100EE00055FB4FF47A7006F061FA002405E000200B
:100EF000084921F81400601CC4B20B2CF7DB002455
:100F000004E0002004490855601CC4B20C2CF8DB36
:100F100010BD0000580400204C04002010B5012032
:100F2000454908804548008845490880454800886B
:100F300048804548008808814448008848814448E2
:100F40000088888143480088C88143480088088217
:100F50004248008848824248008888824148008888
:100F6000C882414800880883404800884883404838
:100F7000008888833F480088C8833F4800880884E9
:100F80003E48008848843E48008888843D48008860
:100F900048853D48008888853C480088C8853C488D
:100FA000008808863B48008848863B480088888639
:100FB0003A480088C8863A48008808873948008837
:100FC000488739480088888738480088C887384863
:100FD0000088A1F8400037480088A1F84200364850
:100FE0000088A1F8440035480088A1F8460034483C
:100FF0000088A1F8480033480088A1F84A00324828
:101000000088A1F84C0031480088A1F84E00304813
:101010000088A1F850002F480088A1F85200FFF77F
:10102000E3F804466A2206492B4803F0DFFF204616
:10103000FFF7DEF810BD0000AC030020A80300207D
:101040007C0A0020AA030020B0030020B203002085
:10105000B4030020B6030020B8030020BA03002028
:10106000BC030020BE030020C0030020C2030020F8
:10107000C4030020C6030020C8030020CA030020C8
:10108000CC030020D2030020D4030020D60300208C
:10109000D8030020DA030020DC030020DE03002058
:1010A000E0030020E2030020E4030020E603002028
:1010B000E8030020EA030020EC030020EE030020F8
:1010C000F0030020F2030020F4030020F6030020C8
:1010D000F8030020FA0300200004010810B51048AE
:1010E0000068008848B10E4800680088012804D0D4
:1010F0000B4800680088022811D1002009490880A7
:101100004FF47A7006F052F9054909680A880649D1
:1011100051F822008047FF2001490968088010BD6E
:10112000EC910008AE0300203401002000BFFEE770
:1011300070B502460C46FF25FF2309E012F8010BAB
:1011400080EA05010648405C80EA03050548435CE7
:10115000201EA4F10106B4B2F0D143EA052070BD0F
:1011600038920008389300082DE9F04705460C46F0
:10117000284607F029FE6949096808626749096835
:10118000086A674907F04CFE7ED864490968086A16
:10119000644907F045FFF7D860490968086A4FF0CD
:1011A000804107F03DFE15D85C490968086A4FF098
:1011B000404107F035FF0DD80020584909684860C4
:1011C00059480078012804D103205749487000206D
:1011D00008708AE051480068416A4FF0804007F08B
:1011E00053FE81464D4A1268916A4C4A1268106A51
:1011F00007F02CFD8246494607F044FF80464748E9
:101200000068C169404607F03FFE0646434A12683F
:10121000116A424A1268506907F036FE81463F4A19
:101220001268516A3D4A1268106A07F02BFF824625
:101230003A4800680169504607F026FE8046494654
:1012400007F004FD0746314607F000FD3349096801
:101250008860324A12689168304A1268D06807F094
:10126000F5FC2E4909684860204607F0ADFD0646AA
:101270002A4800684168304607F0D2FD08D220466F
:1012800007F0A2FD254900E014E0096848602CE061
:10129000604207F099FD06462048006841683046E4
:1012A00007F0BEFE21D2604207F08EFD1B4909689F
:1012B00048601AE019490968086A194907F0B0FE40
:1012C00006D2204607F080FD1449096848600CE00A
:1012D00012490968086A134907F0A2FD05D2604265
:1012E00007F072FD0D49096848600C480068406AC3
:1012F0000A490968886209480068006A074909685C
:10130000486206480068406804490968C8600349A3
:101310000968486807F03CFDBDE8F087DC00002064
:1013200000004842000048C2540100202DE9F04F5F
:1013300087B004468B469146002006906648008898
:1013400000EB800040000590644800886421484319
:1013500004906148008807F0DFF907464FF0333208
:101360005F4B07F029FA05460E46584607F0D4F9B8
:101370002A463346CDE9000107F052FBCDE90201D0
:1013800007F056F9574908605448008800EB4001BF
:10139000C1EB4010ABEB800053490860204600F0E1
:1013A00074FC82465148007801280FD14D480068EE
:1013B000002809DD059883B24A4851460268204654
:1013C00000F0EAFD06905EE006945CE04848007894
:1013D000002845D12CB94749088047490880069024
:1013E00051E04448008844F6206188421FDA4148B1
:1013F0000088401C3F4908803B480068002811DDF8
:1014000006203E4988713C480088401C3A490880C3
:10141000049883B2344851460268204600F0BCFD6F
:10142000069030E006940020344988712BE0324861
:10143000008842F2107188420BDB002006900120E8
:101440002B49087007202D49C8712D48C0F800A00D
:1014500000E006940020284908802649088012E010
:101460002748006882450CD0BAF1000F09D0244803
:10147000006830B100202149C87106941C490870E9
:1014800001E00020069040F2EC50814508DC40F27B
:101490002E40814504DB002018498872C87216E08E
:1014A00040F2EC50814502DD0A201449887240F276
:1014B0002E40814502DA0B201049C87200200690A8
:1014C00040F22D20814502DC72B603F017FE06982B
:1014D00007B0BDE8F08F0000CA030020CC03002055
:1014E00033332740D8000020D400002054010020CE
:1014F000CC000020CE000020D00000204C040020B2
:10150000C800002010B5022000F0D8F948B1012031
:1015100000F0FAF80348006802F000FC01200249DC
:10152000087010BD380000200A00002010B5FEF73A
:101530005BFE044612480078401C114908702046A2
:10154000FEF756FE202000F0B9F9A8B1002240F2C3
:1015500024410C4805F008FC012240F226610948AC
:1015600005F002FC0021084800F0DCF8202000F023
:10157000CBF8102000F0C8F801F0ACFA10BD000064
:1015800079030020004800401C00024010B50446CA
:1015900000BF2021194805F0B0FB0028F9D104B99B
:1015A00010BD00BF164800F06FF90028FAD10021E5
:1015B000134800F0B7F82146114800F0BCF90121AA
:1015C0000F4800F0AFF800BF202000F061F90028BC
:1015D000FAD000BF4021094805F08FFB0028F9D060
:1015E0004021064805F05CFB202000F07FF8002138
:1015F000034800F097F800BFD2E700000048004021
:101600001C00024010B5FEF7EFFD044613480078B9
:10161000401C124908702046FEF7EAFD4FF00070AA
:1016200000F04CF9B8B1002240F224410C4805F01A
:101630009BFB012240F22661094805F095FB002141
:10164000084800F06FF84FF0007000F05DF84FF0C0
:10165000807000F059F801F03DFA10BD79030020C8
:10166000004400408000024010B5044600BF202125
:101670001C4805F042FB0028F9D104B910BD00BF99
:10168000194800F001F90028FAD106F0D9FA002132
:10169000154800F047F82146134800F04CF90121A5
:1016A000114800F03FF800BF4FF0007000F0F0F874
:1016B0000028F9D000BF40210A4805F01EFB002891
:1016C000F9D04021074805F0EBFA4FF0007000F028
:1016D0000DF80021044800F025F806F0A9FA00BF33
:1016E000CCE70000004400408000024000F0805140
:1016F00011B10349086001E00249486070470000E9
:10170000040402400000024000F0805111B103497E
:10171000086001E00249486070470000040402408C
:101720000000024021B1026842F00102026004E0C0
:1017300002684FF6FE731A400260704701684FF668
:10174000FE72114001600021016041608160C16052
:101750004B49884208D14A490839496841F00F018C
:10176000474A083A51608AE045491431884208D115
:1017700043490839496841F0F001414A083A51604B
:101780007DE03F492831884208D13D490839496800
:1017900041F470613A4A083A516070E038493C318E
:1017A000884208D136490839496841F47041344AC1
:1017B000083A516063E032495031884208D13049DB
:1017C0000839496841F470212D4A083A516056E0C1
:1017D0002B496431884208D129490839496841F4C4
:1017E0007001274A083A516049E02549783188421A
:1017F00008D123490839496841F07061204A083A04
:1018000051603CE01F49884206D1011F096841F040
:101810000F01021F116032E01A491431884208D1C9
:101820001849091F096841F0F001164A121F11609A
:1018300025E014492831884208D11249091F096856
:1018400041F470610F4A121F116018E00D493C31DC
:10185000884208D10B49091F096841F47041094ABF
:10186000121F11600BE007495031884207D105492A
:10187000091F096841F47021024A121F1160704764
:1018800008000240080402400146486880B27047E0
:1018900001460020002201F0805313B1054B1A6865
:1018A00001E0054B1A6802EA01030BB1012000E0D8
:1018B0000020704700040240000002400146002062
:1018C000002201F0805313B1054B1A6801E0054B6B
:1018D0001A6802EA01030BB1012000E00020704702
:1018E00000040240000002401AB103680B43036089
:1018F00002E003688B430360704710B50022026862
:1019000047F6F0739A430C6A8B6823430C692343B0
:101910004C6923438C692343CC6923434C6A23439A
:101920008C6A23431A430260CB6843600B68836070
:101930004B68C36010BD41607047704710B501200F
:1019400000F014F840B14021044800F09CF903F085
:10195000D5FB012000F004F810BD00000014014088
:10196000014908607047000014040140014600204E
:10197000034A12680A400AB1012000E000207047C3
:101980001404014030B5044604254FF4302000F023
:1019900089F80546042D17D10C48006940F0020073
:1019A0000A49086108464461006940F04000086146
:1019B0004FF4302000F076F805460448006941F6FF
:1019C000FD71084001490861284630BD00200240F1
:1019D00004200B49C96801F0010109B101200EE0A2
:1019E0000749C96801F0040109B1022007E0044970
:1019F000C96801F0100109B1032000E0042070471C
:101A0000002002400348006940F08000014908615D
:101A100070470000002002400549096821F01001CC
:101A2000034A1160114609680143116070470000C4
:101A30000020024070B504460D460426F00200F076
:101A400031F80646042E11D10948006940F0010022
:101A5000074908612580F00200F024F80646044892
:101A6000006941F6FE71084001490861304670BDC9
:101A70000020024001460020034A106800F03800B0
:101A800008431060704700000020024002480349EC
:101A900048600348486070472301674500200240C2
:101AA000AB89EFCD00B502460423FFF791FF034653
:101AB00003E0FFF78DFF0346521E012B01D1002AE0
:101AC000F7D102B90523184600BD2DE9F0410246C1
:101AD00000250026002000230024002791F803C0E1
:101AE0000CF00F0591F803C00CF0100CBCF1000FC6
:101AF00003D091F802C04CEA050591F800C0BCF192
:101B0000000F31D0146800202BE04FF0010C0CFACC
:101B100000F3B1F800C00CEA03069E4220D1830016
:101B20004FF00F0C0CFA03F7BC4305FA03FC4CEA28
:101B3000040491F803C0BCF1280F06D14FF0010C4A
:101B40000CFA00FCC2F814C00AE091F803C0BCF122
:101B5000480F05D14FF0010C0CFA00FCC2F810C080
:101B6000401C0828D1D31460B1F800C0BCF1FF0FAD
:101B700034DD546800202EE000F1080C4FF001081D
:101B800008FA0CF3B1F800C00CEA03069E4221D11A
:101B900083004FF00F0C0CFA03F7BC4305FA03FC6B
:101BA0004CEA040491F803C0BCF1280F05D100F100
:101BB000080C08FA0CF8C2F8148091F803C0BCF1C4
:101BC000480F07D100F1080C4FF0010808FA0CF893
:101BD000C2F81080401C0828CED35460BDE8F081C4
:101BE000F0B50A46002300240021002500F000463D
:101BF000B6F1004F02D11D4EF16901E01B4E716834
:101C0000C0F3034583B200F44016B6F5401F08D177
:101C100021F07061154E766826F07066134F7E6075
:101C200012E000F48016B6F5801F06D1032606FAEE
:101C300005F4A14341F0706106E0460D360103FA58
:101C400006F6B14341F0706122B1460D360103FA48
:101C500006F6314300F00046B6F1004F02D1034EC4
:101C6000F16101E0014E7160F0BD00000000014033
:101C70000246002093680B400BB1012000E00020D9
:101C800070474161704701617047014609B9002002
:101C90007047002902DA4FF0FF30F9E70120F7E73B
:101CA000024611B1012904D101E0104670475042AB
:101CB000FCE70020FAE700000348006800F001009C
:101CC00000B100BE00BFFEE7F0ED00E04CF6CC40F6
:101CD00001490860704700000030004010B500F076
:101CE00013F810BD70B505460C4645F2555000F08E
:101CF0001FF8284600F010F8204600F013F800F016
:101D000003F8FFF7E3FF70BD4AF6AA200149086017
:101D100070470000003000400149486070470000F3
:101D200000300040014988607047000000300040EA
:101D300001490860704700000030004008B51020DD
:101D40008DF8030003208DF802004FF48050ADF8A9
:101D5000000069461848FFF7B8FE0420ADF80000FF
:101D600069461648FFF7B1FEBDF800101348FFF7AB
:101D700088FF04208DF803004002ADF8000069469A
:101D80000F48FFF7A2FE4FF48050ADF800006946FF
:101D90000B48FFF79AFE4FF48070ADF800006946DB
:101DA0000548FFF792FE4FF40070ADF80000694659
:101DB0000148FFF78AFE08BD000C014000140140F5
:101DC0000010014008B54FF4A06000F0BDFD1D20DB
:101DD0008DF8000000208DF8010001208DF8020030
:101DE0008DF80300684600F077FD1B208DF8000099
:101DF00001208DF8010000208DF8020001208DF8EF
:101E00000300684600F068FD0B208DF800000120FB
:101E10008DF801008DF802008DF80300684600F08F
:101E20005BFD1E208DF8000002208DF801000020CF
:101E30008DF8020001208DF80300684600F04CFD8B
:101E400026208DF8000003208DF8010000208DF879
:101E5000020001208DF80300684600F03DFD2720B8
:101E60008DF8000003208DF8010001208DF802009C
:101E70008DF80300684600F02FFD08BD0268128847
:101E80000B2A71D2DFE802F0060714202B36414BF3
:101E9000555F71007BE0C27A012A03D102224A8099
:101EA0008A8004E0C27A12B900224A808A806EE0F9
:101EB000C27A012A02D14A808A8004E0C27A12B929
:101EC00000224A808A8062E0C27A012A02D1052279
:101ED000CA8003E0C27A0AB90022CA8057E0C27AF7
:101EE000012A02D104220A8103E0C27A0AB902223D
:101EF0000A814CE0C27A012A02D102224A8103E01F
:101F0000C27A0AB904224A8141E0C27A012A01D187
:101F10008A8103E0C27A0AB900228A8137E0C27A54
:101F2000012A01D1CA8103E0C27A0AB90022CA811A
:101F30002DE0C27A012A01D10A8203E0C27A0AB9ED
:101F400000220A8223E0134A12881AB1114A128829
:101F5000012A08D1C27A012A01D14A8203E0C27A59
:101F60000AB900224A8212E010E00A4A12881AB125
:101F7000084A1288012A08D1C27A012A01D18A822C
:101F800003E0C27A0AB900228A8200E000BF00BFE3
:101F900070470000B003002030B50446B1F1FF3FA8
:101FA00003D051B1012911D109E002EB82052819B2
:101FB0005D42A84200DD584209E0002007E002EB44
:101FC0008205601B984200DA184600E000BF00BF9F
:101FD00030BD00002DE9F0410146DFF864C3BCF8D4
:101FE00000C00CEB8C0C4FF6FF7808EA4C02DFF8CF
:101FF00054C3BCF800C00CEB8C0C08EA4C0303F192
:102000001E0C1FFA8CF5A2F11E0C1FFA8CF6DFF8DD
:1020100038C3BCF800C0BCF1000F7CD1DFF82CC382
:10202000BCF800C0AC450DDDDFF820C3BCF800C033
:10203000B44507DA4FF0000CDFF8148388F805C0C8
:1020400008467AE1DFF804C3BCF800C0944505DA1D
:10205000DFF8F8C2BCF800C09C4520DC4FF0050C4E
:10206000DFF8EC8288F805C0DFF8E0C2BCF800C0F9
:10207000944506DB002901DA8C4601E04FF0000CA4
:102080006046DFF8C8C2BCF800C09C45D9DC002916
:1020900001DD8C4601E04FF0000C60464DE14FF051
:1020A000000CDFF8AC8288F805C0DFF8A0C2BCF8ED
:1020B00000C0AC4516DCDFF894C2BCF800C09C45FB
:1020C00010DD00290CDADFF884C2BCF800C0ACEBEC
:1020D000030C0CFB01FC4FF01E089CFBF8FC00E01D
:1020E0008C466046DFF864C2BCF800C0B445A8DB8B
:1020F000DFF858C2BCF800C09445A2DA00290EDD12
:10210000DFF848C2BCF800C0A2EB0C0C0CFB01FCD1
:102110004FF01E0800E005E09CFBF8FC00E08C4658
:1021200060460AE1DFF820C2BCF800C0BCF1010F34
:1021300047D1DFF820C2BCF80EC0BCF1000F02D1BD
:102140004FF0010C01E04FF0000CDFF80882B8F806
:102150001080B8F1000F02D14FF0010801E04FF0FC
:1021600000080CEA080CBCF1000F07D04FF0000C7F
:10217000DFF8DC8188F805C00846DEE04FF0050C8A
:10218000DFF8CC8188F805C0DFF8C8C1BCF80EC004
:10219000BCF1010F06D1002901DA8C4601E04FF0B5
:1021A000000C6046DFF8ACC1BCF810C0BCF1010FF8
:1021B000B7D1002901DD8C4601E04FF0000C6046EC
:1021C000BBE0DFF884C1BCF800C0BCF1020F73D1E2
:1021D0000846DFF878C1BCF800C0944505DADFF89E
:1021E0006CC1BCF800C09C451BDC0124DFF85CC15D
:1021F000BCF800C0944506DB002901DA8C4601E0FA
:102200004FF0000C6046DFF844C1BCF800C09C45AC
:1022100057DC002901DD8C4601E04FF0000C6046E0
:102220004FE0DFF828C1BCF800C0A2EB0C0CBCF1F9
:102230001E0F08DBDFF814C1BCF800C0ACEB030CC8
:10224000BCF11E0F3CDA0024DFF800C1BCF800C06E
:10225000AC4516DCDFF8F4C0BCF800C09C4510DDCE
:1022600000290CDADFF8E4C0BCF800C0ACEB030CCA
:102270000CFB01FC4FF01E089CFBF8FC00E08C46B8
:102280006046DFF8C8C0BCF800C0B44519DBDFF811
:10229000BCC0BCF800C0944513DA00290DDDDFF89E
:1022A000ACC0BCF800C0A2EB0C0C0CFB01FC4FF066
:1022B0001E089CFBF8FC01E03FE08C46604600E015
:1022C0000024DFF890C0BCF80EC0BCF1000F08D1AC
:1022D000DFF880C0BCF810C0BCF1000F01D10027AE
:1022E0001CE00127DFF86CC0BCF80EC0BCF1010F88
:1022F00006D1002801DA844601E04FF0000C604668
:10230000DFF850C0BCF810C0BCF1010F06D10028A6
:1023100001DD844601E04FF0000C604604B937B19E
:102320004FF0050CDFF8288088F805C005E04FF075
:10233000000CDFF81C8088F805C0BDE8F0810000C3
:10234000D4030020D8030020D2030020A8000020DE
:102350004C0400205804002000BFFEE770B524485C
:10236000007E00B970BD2248807D022815DD20481E
:10237000807D801E81B21E48401CFEF7D9FE0446B7
:102380001B48807D401E1A49491C0A5C481E807DFE
:10239000801E085C02EB002085B2AC4222D11448BA
:1023A00040781349097888421BD1114880780A285F
:1023B00016D2DFE800F0050607080B0E0F12131403
:1023C0000EE00DE00CE000F015F809E000F09EF8DA
:1023D00006E005E000F026F902E001E000E000BFC1
:1023E00000E000BF002002498875087600BFB9E709
:1023F0004C1000202DE9F041002542480179C078B9
:1024000001EB002087B23F488179407901EB002041
:102410001FFA80F83B48027829466D1C1930425457
:10242000032229466D1C42544FEA4800C11700EBB5
:1024300011610912A0EB0121CBB22A466D1C314972
:1024400019318B54002621E0B9192F4A32F81100B6
:10245000C11700EB1161C1F3072329466A1CD5B2ED
:10246000284A19325354B919274A32F81100C117B2
:1024700000EB11610912A0EB0121CBB229466A1CC5
:10248000D5B2204A19325354701CC6B24645DBDB24
:1024900029461C481930FEF74BFE04462046E1173A
:1024A00004EB1161C1F3072329466A1CD5B2154A12
:1024B00019325354E11704EB11610912A4EB012105
:1024C000CBB229466A1CD5B20E4A193253540D4874
:1024D00090F8550020B1012803D002280DD106E064
:1024E0000CE029460748193001F04CFE06E0294669
:1024F0000448193001F056FE00E000BF00BFBDE8FF
:10250000F08100004C100020A21100202DE9F041C4
:10251000002542480179C07801EB002087B23F488E
:102520008179407901EB00201FFA80F83B4802785E
:1025300029466D1C19304254042229466D1C425410
:102540004FEA4800C11700EB11610912A0EB01210D
:10255000CBB22A466D1C314919318B54002621E03B
:10256000B9192F4A32F81100C11700EB1161C1F3FC
:10257000072329466A1CD5B2284A19325354B9197F
:10258000274A32F81100C11700EB11610912A0EBC4
:102590000121CBB229466A1CD5B2204A19325354C4
:1025A000701CC6B24645DBDB29461C481930FEF7D5
:1025B000BFFD04462046E11704EB1161C1F3072378
:1025C00029466A1CD5B2154A19325354E11704EB57
:1025D00011610912A4EB0121CBB229466A1CD5B2C4
:1025E0000E4A193253540D4890F8550020B1012875
:1025F00003D002280DD106E00CE029460748193027
:1026000001F0C0FD06E029460448193001F0CAFD7A
:1026100000E000BF00BFBDE8F08100004C100020CA
:10262000A21100202DE9F04100243F480179C07833
:1026300001EB002085B23C488179407901EB002014
:1026400086B23A4820F81560374802782146641C63
:102650001930425406222146641C42542846E91788
:1026600005EB1161C1F307232246641C2E49193181
:102670008B54E91705EB11610912A5EB0121CBB2CF
:102680002246641C284919318B543046F11706EB59
:102690001161C1F307232246641C234919318B546D
:1026A000F11706EB11610912A6EB0121CBB222460C
:1026B000641C1D4919318B5421461B481930FEF703
:1026C00037FD07463846F91707EB1161C1F30723B9
:1026D0002246641C144919318B54F91707EB116118
:1026E0000912A7EB0121CBB22246641C0E49193115
:1026F0008B540D4890F8550020B1012803D00228D2
:102700000DD106E00CE0E1B20748193001F03AFDC6
:1027100006E0E1B20448193001F044FD00E000BFDA
:1027200000BFBDE8F08100004C100020F211002035
:1027300001203D4908700020C87581F85500FF2030
:102740003A490968088000203949096808803949F0
:10275000096808803849096808803849096808808C
:102760003749096808803749096808803649096887
:102770000880364909680880FF20354909680880C3
:1027800000203449096808803348008833490968C3
:102790000880334800883349096808803248008837
:1027A000324909680880324800883249096808803F
:1027B000314800883149096808803148008831492A
:1027C0000968088000203049096808802F4800887F
:1027D0002F49096808802F4800882F490968088018
:1027E0002E4800882E49096808802E4800882E4906
:1027F000096808802D4800882D49096808802D48FF
:1028000000882D49096808802C4800882C490968EF
:1028100008802C4800882C49096808802B480088CB
:102820002B490968088070474C100020C8910008A7
:10283000CC910008D0910008D4910008D8910008EC
:10284000DC910008E0910008E4910008E89100089C
:10285000EC910008F0910008B0030020F891000806
:10286000B4030020FC910008B60300200092000889
:10287000B803002004920008BA0300200892000860
:10288000BC0300200C92000810920008D203002024
:1028900014920008DA03002018920008E2030020D6
:1028A0001C920008EA03002020920008EC0300209C
:1028B00024920008EE03002028920008F003002074
:1028C0002C920008FA03002030920008B203002086
:1028D000349200087047000070B5002100230F22D9
:1028E000C47804B3154C246804F4E064C4F5E064CF
:1028F000210AC1F10403CA40447804FA03F1847840
:102900001440214309010E4C0678A155047804F0C7
:102910001F050124AC4005786D11AD0005F1E025DF
:10292000C5F8004109E0047804F01F050124AC401B
:10293000044D0678761145F8264070BD0CED00E098
:1029400000E400E080E100E002490143024A116036
:10295000704700000000FA050CED00E01748006821
:10296000008810B1012825D111E0154800881549CB
:10297000A1F8A8001448006800781149098841EAC4
:102980000030C0F30E0011490968088013E01048B8
:1029900000880C49A1F8AC000B48006800780C498D
:1029A000098841EA003080B240F4004007490968D4
:1029B000088000E000BF00BF00207047DC910008E5
:1029C0000C0000205C0100200C920008809100089F
:1029D0000E00002010B501462248008800EB800060
:1029E0004FF6FF7404EA80021F48008800EB800065
:1029F00004EA80031D4800884042814203DB1B48F3
:102A00000088814222DD1A480078012804D1042080
:102A1000184C2071084610BD17480088904206DA0D
:102A200015480088401C144C20800846F3E71348E2
:102A30000088984205DA11480088401C0F4C20801D
:102A400002E001200A4C20700020E4E70020094C3D
:102A50002071074C2070084C2080084C20800846CC
:102A6000D9E70000E6030020E8030020E40300208B
:102A7000AE0000204C040020B0000020B200002076
:102A800010B500F013F800F089FC00F0B1FC00F084
:102A9000D1FC00F059FC00F02BFC00F065FD00F0CB
:102AA00009FD00F02FFD00F002F810BD70477047DF
:102AB00006480078012808D105480078FF2804D28C
:102AC00003480078401C02490870704786030020C4
:102AD0007903002010B500241A480078012830D16D
:102AE000FDF782FB04461848007820B116480078AC
:102AF000401E1549087014480078F8B9134800784A
:102B0000E0B900F093FD12481249097850F821000D
:102B1000114908600F4800781049097888420DD0A3
:102B20000D480068806B401C0B49096888630C489D
:102B30000068401C0A490860FDF775FB2046FDF758
:102B400057FB10BD86030020790300207A03002084
:102B50005C1700207C030020940300207B030020EE
:102B60006003002070B5054600260F48007808B1C4
:102B7000002070BDFDF738FB06460C48046800686D
:102B800020B10A4800684068084908603046FDF7EF
:102B90002FFB3CB101202070002020816560204681
:102BA00000F097FB2046E4E779030020640300204F
:102BB0002DE9F04105460E4600271F48007820B158
:102BC000102030700020BDE8F081FDF70DFB0746B6
:102BD0001A4850F8250030B13846FDF709FB282087
:102BE00030700020EFE70120144941F82500144817
:102BF00004684CB9002041F825003846FDF7F8FA82
:102C0000042030702046DEE70D48006840680C491B
:102C100008603846FDF7ECFA04202070FF2040EAF7
:102C20000520208100206060204600F052FB00203B
:102C300030702046C7E70000790300205C170020B1
:102C40006403002010B500240B480078012811D13E
:102C5000FDF7CAFA04460948007840B908480078E8
:102C6000FF2804D206480078401C05490870204619
:102C7000FDF7BEFA10BD0000860300207903002096
:102C80007A03002010B5002413480078012821D1D0
:102C9000FDF7AAFA044611480078C0B10F48007841
:102CA000401E0E4908700846007860B90C4800784C
:102CB00028B92046FDF79CFA00F07EFC0AE0204689
:102CC000FDF796FA06E02046FDF792FA02E020466C
:102CD000FDF78EFA10BD0000860300207A03002065
:102CE0007903002070B5054600260F48007808B12A
:102CF000002070BDFDF778FA06460C4804680068AD
:102D000020B10A4800684068084908603046FDF76D
:102D10006FFA3CB1032020702581002060602046BE
:102D200000F0D7FA2046E4E779030020640300208E
:102D300010B50B48007890B900F078FC094800788D
:102D40000949087009480749097850F821000849DD
:102D500008600846006807490860FDF74CFA10BD96
:102D6000860300207C0300207B0300205C170020EA
:102D7000940300208C03002010B50024022000F0F2
:102D8000F5F9FDF731FA044600200B4908602046AA
:102D9000FDF72EFA192000F0E9F9FDF725FA0446AF
:102DA000054800680549086001200549087020466B
:102DB000FDF71EFA10BD00008803002070030020FC
:102DC00078030020704700002DE9FE4F06460F46AD
:102DD00090461C464FF00009FDF706FA81461F4851
:102DE000007828B14846FDF703FA3C20BDE8FE8F85
:102DF0001B4850F8240060BB0120194941F8240009
:102E00004846FDF7F5F9002342463946304600F0C2
:102E100009F982460020009001900346024651467F
:102E20000290204600F018FC054635B90D480078A0
:102E300001280CD100F0C0FB09E0FDF7D5F981466F
:102E40000020074941F824004846FDF7D1F92846FB
:102E5000CCE74846FDF7CCF92820C7E779030020E6
:102E60005C170020860300202DE9F04F85B08146D5
:102E70008A4693461C46DDE90F78129D0020039098
:102E8000FDF7B2F903902348007830B10398FDF7BD
:102E9000AFF93C2005B0BDE8F08F1F4850F8240082
:102EA00088BB01201C4941F824000398FDF7A0F9D4
:102EB0002A464146384600F0DFFC2B465A4651462A
:102EC000484600F0AFF804901198CDE900800295D3
:102ED0003A4620460E9B049900F0BEFB064636B9E2
:102EE0000E48007801280CD100F066FB09E0FDF7E0
:102EF0007BF903900020084941F824000398FDF76E
:102F000077F93046C6E7FFE70398FDF771F9282007
:102F1000C0E70000790300205C1700208603002032
:102F2000704770472DE9F04106460F4614464FF0B2
:102F300000081548007818B112202070BDE8F08113
:102F4000FDF752F98046FF2E03D11048006890F833
:102F500032600F4850F826502DB94046FDF748F929
:102F600043202070EAE7012D05D14046FDF740F9E6
:102F700043202070E2E7EF644046FDF739F9002076
:102F8000207000BFDAE70000790300208C030020E6
:102F90005C170020704700002DE9F04707460D46FA
:102FA0004FF0000A002028606860FDF71DF9824696
:102FB000FF2F03D11948006890F83270184850F874
:102FC00027402CB95046FDF713F94320BDE8F087A0
:102FD000012C04D15046FDF70BF94320F6E7207C85
:102FE00000F0010020B95046FDF702F94520EDE759
:102FF0000026D4F80C90D4F808805046FDF7F8F875
:1030000000E0761C58F8041B0029FAD0B0002860B4
:10301000A9EB0600800068600020D7E78C03002041
:103020005C17002070B5044610464FF080750560AF
:10303000051F28462C606FF00106051F28462E60EC
:103040004FF01236051F28462E604FF00336051F3D
:1030500028462E604FF00236051F28462E60761057
:10306000051F28462E60051F284629604FF011369F
:10307000051F28462E604FF01036051F28462E608B
:103080004FF00936051F28462E604FF00836051F01
:1030900028462E604FF00736051F28462E604FF059
:1030A0000636051F28462E604FF00536051F2846B8
:1030B0002E604FF00436051F28462E6070BD0000BC
:1030C0002DE9F04105464FF00008FDF78DF88046E8
:1030D000FF2D05D12048006890F83250012608E005
:1030E0001D48006890F83200A84201D1012600E096
:1030F00000261A4850F825402CB94046FDF778F8CC
:103100004820BDE8F081012C04D14046FDF770F85D
:103110004320F6E794F834701148C05D94F83510F8
:1031200088430F49C8550846C05D30B994F8361039
:103130000C48007888430B49087094F8300040F040
:10314000080084F830004046FDF752F8012E01D106
:1031500000F032FA0020D4E78C0300205C17002036
:103160007E0300207D0300207047000070B50546F7
:1031700000261748007800B170BD1648007800B1ED
:10318000FAE71DB3FDF730F806461348006890F8DB
:1031900034401248005D1049096891F835108843A1
:1031A0000E4908550846005D40B90B48006890F884
:1031B00036100B48007888430949087006480068B3
:1031C000C5623046FDF714F800F0F6F900BFD3E70A
:1031D000790300207A0300208C0300207E03002066
:1031E0007D03002070B5002600F072F8FCF7FCFFAC
:1031F000064631480068401C2F4908603046FCF7FD
:10320000F7FF2E480078012853D12D48007820B1CF
:10321000012804D0022809D103E001250BE0002594
:1032200009E0012501202649087004E0012500205D
:103230002349087000BF00BF05B970BD214804686C
:1032400033E0FCF7D1FF0646E06A50B3E06A401E67
:10325000E062E06A28BB94F8300000F0370040B12B
:1032600014F8300F00F0C800207001206070303C6E
:1032700002E0002084F8310094F8300000F00800EB
:1032800078B93434A0781049097808430E49087099
:1032900020780E49085C6178084314F834190B4A09
:1032A000505464693046FCF7A3FF94F832003F287D
:1032B000C7D100BFC1E70000A4030020860300209F
:1032C0009C030020980300207D0300207E03002043
:1032D0007047014600228A72002005E0002301F1B8
:1032E0000B021354421CD0B20828F7D370470000D9
:1032F0002DE9F0415021114800F02CF900250DE096
:10330000681C86B20D4800EB051400EB0617002080
:10331000207067600AA0E060681C85B2042DEFD3BE
:10332000064800EB051400202070606004A0E060F7
:10333000024804490860BDE8F08100000C13002039
:103340003F0000006803002070B5C821114800F05C
:1033500001F900230FE0581C85B203EB83000D49EF
:1033600001EB800405EB850001EB80060020207056
:103370006660581C83B2092BEDD303EB830005492B
:1033800001EB80040020207060600846024908605C
:1033900070BD0000441200206403002000200A4990
:1033A00008600A4908700A4908700A4908700A4901
:1033B00008700A4908600A4908600A4908600A4911
:1033C00008600A4908707047A403002079030020B0
:1033D0007A0300208703002086030020600300207A
:1033E000880300207403002070030020780300206D
:1033F00000210A4A1170002004E00021084A1154FB
:10340000411CC8B20828F8D30021064A1170064AA8
:103410001170064A1160064A116070477D03002052
:103420007E0300207B0300207C0300209403002007
:103430008C03002070B54FF47C71194800F08AF8B5
:103440004FF48071174800F085F8002413E0601CE9
:10345000C5B2C4EBC40000EB4000114901EB80038E
:10346000C5EBC50000EB400001EB80065E610EA0DD
:10347000D864601CC4B20B2CE9D3C4EBC40000EBCD
:103480004000074901EB80030020586106A0D86482
:1034900000200649086002480549086070BD000028
:1034A0005C1800205C1700203F00000098030020FB
:1034B0009003002000B587B00320002180220A4B32
:1034C000CDE90132CDE903104FF6FF703F23074AE3
:1034D00000900748FFF7C8FC06AA06A13F20FFF7A7
:1034E00021FD07B000BD00005C150020581700202A
:1034F0008D37000875432F4F532D49492049646C7F
:103500006500000000B587B00320002180220A4B2F
:10351000CDE90132CDE903104FF6FE703E23074A94
:1035200000900748FFF7A0FC06AA06A13E20FFF77F
:10353000F9FC07B000BD00005C1300205815002006
:10354000B537000875432F4F532D494920537461F7
:103550007400000004E0002200F8012B4A1E91B222
:103560000029F8D1704700002DE9F041782110487A
:10357000FFF7F0FF00240DE0601C86B204EB44006E
:103580000B4901EBC00506EB460001EBC0072F60BD
:10359000601C84B2042CEFD304EB4400044901EB1B
:1035A000C00500202860084602490860BDE8F08197
:1035B0004C1C0020A003002010B50024FCF714FED2
:1035C000044613480078F8B912480078E0B900F0D2
:1035D0002DF811481149097850F821001049086068
:1035E0000E4800780F49097888420DD00C480068D1
:1035F000806B401C0A49096888630B480068401CBE
:1036000009490860FCF708FE2046FCF7F1FD10BDF3
:10361000790300207A0300205C1700207C0300203F
:10362000940300207B030020600300200649074A22
:103630001278885C0649095C034A515C01EBC001C1
:10364000044A117070470000389400087D03002080
:103650007E0300207C0300202DE9F84F05460F462D
:1036600090469946DDE90AAB00200090FCF7BCFDCE
:1036700000903F480468002C74D0183454F8040CAF
:103680003B4908600098FCF7B3FD44F8187CA57628
:10369000002020766076606144F814BC44F80CACDD
:1036A00044F8108C0C9824F8080C24F8069C002090
:1036B000E077E810207705F00700E076217F012011
:1036C0008840A077E17E012088406077002060601C
:1036D000E060A0602062A0626062E062206325A0DA
:1036E0006063183C002606E0002104F1500040F819
:1036F0002610701CC6B2002EF6D02046FFF762FBE3
:103700002046FFF70DFCFCF76FFD00901A4840F8CB
:1037100025401A48006860610020A06117480068D1
:1037200010B1164800688461144804603434A078ED
:103730001349097808431249087020781149085C38
:103740006178084314F834190E4A50540E48007832
:10375000401C0D4908700098FCF74AFD0020BDE8A8
:10376000F88FFFE70098FCF743FD4220F7E70000E1
:10377000900300203F0000005C1700209803002009
:103780007D0300207E03002087030020002400BF6B
:1037900000BFFCF729FD044605480068401C0449A9
:1037A00008602046FCF724FDFFF7BBFBF1E70000B3
:1037B00088030020002400BF02E03220FFF7D6FC7F
:1037C000194800780028F8D0184800686421B0FB38
:1037D000F1F0164908600846006828B9002014492D
:1037E0000870FF20FFF76CFC00BFFCF7FDFC0446EF
:1037F000104800681049086000200E490860204603
:10380000FCF7F6FC0C48006808490968B0FBF1F0C9
:10381000C0F1640006490870FFF7BCFB00F00EF829
:103820001920FFF7A3FCE0E77803002070030020D5
:103830006C03002088030020740300207CB5002561
:1038400014E069462846FFF7A7FB064666B9094813
:1038500050F8254044B1012C06D0D4E9020100EB18
:10386000810060640198A064681CC5B23F2DE8D94E
:103870007CBD00005C17002002F0010343B102F0A0
:1038800002032BB102E0491E002308C00029FAD12F
:10389000704700002DE9F041002057490968086091
:1038A0005549096848605449096888604FF07C5060
:1038B00051490968C86050490968C86805F09AF913
:1038C000064600224D4B04F05BFD044604F072FCFA
:1038D000494909680861012047490968087546494E
:1038E0000968C86805F086F906460022444B04F0D2
:1038F00063FF044604F05EFC3F49096888610020CC
:103900003D490968C8613C49096808623A49096843
:1039100048623C49096808603A4909684860394981
:103920000968886037490968C860374835490968B7
:1039300008613648334909684861012031490968FE
:10394000087633482F490968C86100202D49096865
:1039500008622C49096848622A49096888622D4929
:10396000096808602B49096848602A490968886025
:1039700028490968C8602848264909680861274815
:1039800024490968486101202249096808764FF0F6
:103990007C5020490968C86100201E4909680862F6
:1039A0001C49096848621B49096888621C49096802
:1039B00008601B4909684860194909688860184906
:1039C0000968C8614FF07E5015490968C8601548FC
:1039D00013490968086101201149096808751248EE
:1039E0000F490968886100200D49096808620C497F
:1039F00009684862BDE8F081E00000200000544002
:103A000000001440DC000020000020429A99193F79
:103A100000002041E40000209A99993ECDCCCC3D95
:103A2000E80000200AD7A33D0000404010B501F097
:103A30009DFD01F0A9FCFEF77BFE10BD2DE9F041D4
:103A400005460C4641480068008820B1012836D060
:103A5000022856D144E03E48D0F8A000008800EB90
:103A600080003B4B03EB8000406802881846D0F88A
:103A7000A000008800EB800053F820000188284651
:103A800003F00EFD334908803148D0F8A0000088CB
:103A900000EB80002E4B03EB8000C06802881846C4
:103AA000D0F8A000008800EB800003EB8000806865
:103AB0000188204603F0F4FC2749088022E07D229B
:103AC00040F6A331284603F0EBFC224908807D2212
:103AD00040F6A331204603F0E3FC1F49088011E0C3
:103AE000002240F61F41284603F0DAFC19490880FD
:103AF000002240F61F41204603F0D2FC1649088000
:103B000000E000BF00BF1548007A082802D100205D
:103B1000BDE8F0811248B0F900004FF47A714843D3
:103B20001049B1F9001090FBF1F00F4908800F48DF
:103B30000078012802D102F0A9FF04E003F01AFA8C
:103B40000746FEF747FA06463046E1E7349200089A
:103B50005C010020AA000020AC0000204C040020E2
:103B6000CE030020D0030020A80000205401002034
:103B70002DE9F04F87B006460C466648008805F0F0
:103B80003BF9824664480068C168504605F07CF9FC
:103B900007466048008805F02FF982465E480068B5
:103BA0000169504605F070F980465A48008805F0D2
:103BB00023F98246584800688169504605F064F947
:103BC00081461425304605F0FFF85349096808621C
:103BD000284605F0F9F882464F480068016A5046C9
:103BE00005F01EFA1AD8684205F0EEF882464A48F7
:103BF0000068016A504605F013F90FD801204649C4
:103C000009680875444A1268116A434A1268D06903
:103C100005F01CF840490968C86106E000203E49EB
:103C2000096808753C490968C8613B490968086A20
:103C3000002105F079F807D100203749096848606C
:103C400035490968C86134E0334A1268516A324A1A
:103C50001268106A05F016FA8346494605F014F911
:103C60002D4904900968087D05F0C6F84146019089
:103C700005F00AF9834628480068C169584605F0EE
:103C800003F9039024480068016A384605F0FCF8FF
:103C90000290039904F0DAFF8246049904F0D6FFFB
:103CA000059005F075F8069005F08EF81A49096838
:103CB0004860204605F088F8824617480068416849
:103CC000504605F0ADF805D2204605F07DF81249C2
:103CD00009684860604205F077F882460E4800683F
:103CE0004168504605F09CF905D2604205F06CF839
:103CF00009490968486008480068006A0649096877
:103D0000486205490968486805F042F807B0BDE80F
:103D1000F08F0000BE030020E000002070B50546D3
:103D20002F48008840102F49098800EB61002E4978
:103D300008802E48008840102A49C98800EB61009D
:103D40002B49088028480088254908802848008891
:103D50002649088026480288234801882846FDF71E
:103D6000E5FA244908602448407968B90024FCF742
:103D700057FF22482249086022490860224908600A
:103D800000201D4908712AE01A480068002808DD53
:103D900018480468642C00DA642401201649C871AC
:103DA00010E014480068002809DA1248006844420C
:103DB000642C00DA6424FF200F49C87102E000245B
:103DC000FCF72EFF11490C80091D0C80091D0C8089
:103DD0000948007918B9642C01DBFCF7F9FE70BDC5
:103DE000A400002002000020A0000020A600002067
:103DF000A20000209C0000208800002020A10700D5
:103E0000480000204400002040000020342C0140E5
:103E100001460020034A506820F4404008435060A7
:103E2000704700000010024029B1064A526902435F
:103E3000044B5A6104E0034A52698243014B5A61C0
:103E4000704700000010024029B1064AD2690243BF
:103E5000044BDA6104E0034AD2698243014BDA6120
:103E6000704700000010024029B1064A126902435F
:103E7000044B1A6104E0034A12698243014B1A6140
:103E8000704700000010024029B1064A92690243BF
:103E9000044B9A6104E0034A92698243014B9A61A0
:103EA000704700000010024029B1064AD268024360
:103EB000044BDA6004E0034AD2688243014BDA60C3
:103EC000704700000010024010B500F03BF84FF4BE
:103ED000803000F0F9F800BF312000F0C3F800286E
:103EE000FAD01020FDF798FD0220FDF7C3FD002059
:103EF00000F0DEF8002000F019F94FF4806000F0C7
:103F000009F94FF4E0114FF4803000F021F901205D
:103F100000F018F900BF392000F0A4F80028FAD00A
:103F2000022000F023F900BF00F0BAF80828FBD106
:103F300001210846FFF778FF01217D20FFF7A4FF4C
:103F400010BD00000F48006840F001000D490860F6
:103F5000084640680C4908400A494860084600681D
:103F60000A490840074908600846006820F4802094
:103F700008600846406820F4FE0048604FF41F00C7
:103F800088607047001002400000FFF8FFFFF6FE57
:103F900030B500210022002400232D4D6D6805F06E
:103FA0000C0121B1042905D0082923D105E0294DB0
:103FB000056022E0274D05601FE0254D6D6805F482
:103FC0007012234D6D6805F48034022505EB924292
:103FD0001CB9214D554305600BE01D4D6D6805F47E
:103FE00000351DB11C4D5543056002E0194D554388
:103FF000056002E0174D056000BF00BF144D6D68FD
:1040000005F0F0010909154D6B5C0568DD40456060
:104010000F4D6D6805F4E061090A104D6B5C456851
:10402000DD4085600A4D6D6805F46051C90A0B4D8D
:104030006B5C4568DD40C560054D6D6805F4404129
:10404000890B074D6B5CC568B5FBF3F5056130BDA9
:104050000010024000127A0000093D004B030020CE
:104060005B03002010B501460022002300204A1106
:10407000012A02D1094C236806E0022A02D1074C2A
:10408000236A01E0054C636A01F01F020124944099
:104090001C400CB1012000E0002010BD00100240C7
:1040A0000248406800F00C00704700000010024019
:1040B00001460020034A506820F0F0000843506099
:1040C00070470000001002401149096821F4803156
:1040D0000F4A11601146096821F480211160B0F582
:1040E000803F03D0B0F5802F0ED106E00849096863
:1040F00041F48031064A116007E00549096841F43E
:10410000A021034A116000E000BF00BF704700001B
:104110000010024001460020034A506820F4E0608D
:104120000843506070470000001002400146002024
:10413000034A506820F4605040EAC1005060704764
:10414000001002400149086670470000000042422A
:1041500002460020044B586820F47C1042EA010318
:104160001843014B58607047001002400146002080
:10417000034A506820F00300084350607047000075
:104180000010024070B505460C46802C07DA224626
:1041900029460348FCF782F82046FDF7F7F970BD81
:1041A000FC09002070B505460C4622462946034806
:1041B000FCF774F82046FDF757FA70BDFC080020A4
:1041C00010B504462146094800F012F82146074878
:1041D000103000F00DF821460448203000F008F8B7
:1041E00021460248303000F003F810BDF0000020F6
:1041F00070B504460D46A07A4006000EA0722189D3
:104200006068FDF735FD10B9A07A401CA072A07A55
:1042100000F00700072802D10120E07205E0A07A33
:1042200000F0070008B90020E072207BE17A8842A4
:1042300003D029462046FDF721FEE07A207370BDA9
:1042400010B5FBF7D1FF04466A225C495C4800F0D8
:10425000B7FE2046FBF7CCFF584800885949088034
:1042600056484088584908805448808857490880F3
:10427000524800895649088050484089554908806D
:104280004E488089544908804C48C0895349088069
:104290004A48008A524908804848408A5149088063
:1042A0004648808A504908804448C08A4F4908805F
:1042B0004248008B4E4908804048408B4D49088059
:1042C0003E48808B4C4908803C48C08B4B49088055
:1042D0003A48008C4A4908803848408C494908804F
:1042E0003648808C484908803448C08C00B2474921
:1042F00008803248008D00B2454908802F48408D23
:10430000444908802D48808D434908802B48C08D42
:10431000424908802948008E414908802748408E3C
:10432000404908802548808E3F4908802348C08E38
:104330003E4908802148008F3D4908801F48408F32
:104340003C4908801D48808F3B4908801B48C08F2E
:104350003A4908801948B0F84000394908801748A0
:10436000B0F84200374908801448B0F84400364994
:1043700008801248B0F84600344908800F48B0F869
:104380004800334908800D48B0F84A003149088098
:104390000A48B0F84C00304908800848B0F84E0090
:1043A0002E4908800548B0F850002D490880034880
:1043B000B0F852002B49088010BD0000E60A00202A
:1043C00000000108A8030020AA030020AC0300207D
:1043D000B0030020B2030020B4030020B603002085
:1043E000B8030020BA030020BC030020BE03002055
:1043F000C0030020C2030020C4030020C603002025
:10440000C8030020CA030020CC030020CE030020F4
:10441000D0030020D2030020D4030020D6030020C4
:10442000D8030020DA030020DC030020DE03002094
:10443000E0030020E2030020E4030020E603002064
:10444000E8030020EA030020EC030020EE03002034
:10445000F0030020F2030020F4030020F603002004
:10446000F8030020FA03002010B5FBF7BDFE044658
:104470006A225849584800F0A3FD2046FBF7B8FED1
:10448000544800885549088052484088544908805B
:1044900050488088534908804E48C0885249088057
:1044A0004C480089514908804A4840895049088051
:1044B000484880894F4908804648C0894E4908804D
:1044C0004448008A4D4908804248408A4C49088047
:1044D0004048808A4B4908803E48C08A4A49088043
:1044E0003C48008B494908803A48408B484908803D
:1044F0003848808B474908803648C08B4649088039
:104500003448008C454908803248408C4449088032
:104510003048808C434908802E48C08C424908802E
:104520002C48008D414908802A48408D4049088028
:104530002848808D3F4908802648C08D3E49088024
:104540002448008E3D4908802248408E3C4908801E
:104550002048808E3B4908801E48C08E3A4908801A
:104560001C48008F394908801A48408F3849088014
:104570001848808F374908801648C08F3649088010
:104580001448B0F84000354908801248B0F842009D
:10459000334908800F48B0F84400324908800D487C
:1045A000B0F84600304908800A48B0F848002F4962
:1045B00008800848B0F84A002D4908800548B0F83E
:1045C0004C002C4908800348B0F84E002A49088066
:1045D00010BD0000500B002000080108FC03002063
:1045E000FE03002000040020020400200404002038
:1045F00006040020080400200A0400200C04002007
:104600000E040020100400201204002014040020D6
:1046100016040020180400201A0400201C040020A6
:104620001E04002020040020220400202404002076
:1046300026040020280400202A0400202C04002046
:104640002E04002030040020320400203404002016
:1046500036040020380400203A0400203C040020E6
:104660003E040020400400204204002044040020B6
:1046700046040020480400204A04002010B59F484A
:104680000068008810B101287ED198E09C4800683D
:1046900000789C49098841EA0030C0F30E009A492D
:1046A0000968088000F038FE9848B0F8A8009749DB
:1046B000B1F8A610401A7D2838DD944890F8A4007F
:1046C00001287BD19148B0F8A8008D490968098874
:1046D00001EB81018D4A52F8211008801046B0F894
:1046E000A60087490968098801EB810102EB810175
:1046F0004968088082480068008800EB8000114605
:1047000001EB80000069008840F002007C490968E4
:10471000098801EB810102EB81010969088002F03F
:1047200023FD0020794981F8A40010BD7748B0F836
:10473000A8007649B1F8A610401A10F17D0F3BDAB7
:10474000724890F8A400012838D17048B0F8A6004B
:104750006B490968098801EB81016C4A52F8211004
:1047600008801046B0F8A80065490968098801EB7F
:10477000810102EB81014968088061480068008876
:1047800000EB8000114600E0B3E001EB800000691F
:10479000008840F002005A490968098801EB81014C
:1047A00002EB81010969088002F0DEFC0020574914
:1047B00081F8A400B9E701E00120B6E79BE050488A
:1047C000006800785249098841EA003080B240F41C
:1047D00000404D490968088000F0BAFD4B48B0F828
:1047E000AC004A49B1F8AA10401A7D2839DD474883
:1047F00090F8A40001287BD14448B0F8AC004049AF
:104800000968098801EB8101404A02EB810189684E
:1048100008801046B0F8AA0039490968098801EBF8
:10482000810102EB8101C968088035480068008871
:1048300000EB8000114601EB80000069008840F029
:1048400001002F490968098801EB810102EB810110
:104850000969088002F088FC00202C4981F8A40036
:1048600063E72A48B0F8AC002849B1F8AA10401A0A
:1048700010F17D0F3ADA254890F8A400012837D1CD
:104880002248B0F8AA001E490968098801EB810195
:104890001E4A02EB8101896808801046B0F8AC001E
:1048A00017490968098801EB810102EB8101C96898
:1048B000088013480068008800EB8000114601EB77
:1048C00080000069008840F001000D4909680988EE
:1048D00001EB810102EB81010969088002F044FCCF
:1048E00000200A4981F8A4001FE701E001201CE72D
:1048F00001E0012019E700BF00BF16E7DC910008C6
:104900000C9200080C000020809100085C0100203F
:104910000E00002010B5002240F22441164802F09B
:1049200023FA00211548FCF7FDFE4FF40070FCF758
:10493000DDFE1248FCF7A8FFC0F180001049887521
:10494000002406E00F48015D0D48401C0155601C25
:10495000C4B20B48807DA042F4DC80200749303986
:10496000486301210548FCF7DDFE012240F22441A5
:10497000014802F0F9F910BD004800403000024043
:104980004C1000207C09002010B5002240F2244188
:10499000164802F0E9F900211548FCF7C3FE4FF470
:1049A0000010FCF7A3FE1248FCF76EFFC0F1800078
:1049B00010498875002406E00F48015D0D48401C31
:1049C0000155601CC4B20B48807DA042F4DC8020FD
:1049D00007496C39086701210548FCF7A3FE01224D
:1049E00040F22441014802F0BFF910BD00440040EC
:1049F0006C0002404C1000207C08002010B5FBF732
:104A0000F3FB04466A225649564800F0D9FA20467C
:104A1000FBF7EEFB52480088534908805048408815
:104A2000524908804E480089514908804C484089C5
:104A3000504908804A4880894F4908804848C089C1
:104A40004E4908804648008A4D4908804448408ABB
:104A50004C4908804248808A4B4908804048C08AB7
:104A60004A4908803E48008B494908803C48408BB1
:104A7000484908803A48808B474908803848C08BAD
:104A8000464908803648008C454908803448408CA7
:104A9000444908803248808C434908803048408D22
:104AA000424908802E48808D414908802C48C08D9D
:104AB000404908802A48008E3F4908802848408E97
:104AC0003E4908802648808E3D4908802448C08E93
:104AD0003C4908802248008F3B4908802048408F8D
:104AE0003A4908801E48808F394908801C48C08F89
:104AF000384908801A48B0F84000374908801848FB
:104B0000B0F84200354908801548B0F844003449EF
:104B100008801348B0F84600324908801048B0F8C1
:104B20004800314908800E48B0F84A002F490880F3
:104B30000B48B0F84C002E4908800948B0F84E00E8
:104B40002C4908800648B0F850002B4908800448DA
:104B5000B0F8520029490880FDF7EAFD10BD0000B9
:104B60007C0A002000040108A8030020AA030020FA
:104B7000B0030020B2030020B4030020B6030020DD
:104B8000B8030020BA030020BC030020BE030020AD
:104B9000C0030020C2030020C4030020C60300207D
:104BA000C8030020CA030020CC030020D203002049
:104BB000D4030020D6030020D8030020DA0300200D
:104BC000DC030020DE030020E0030020E2030020DD
:104BD000E4030020E6030020E8030020EA030020AD
:104BE000EC030020EE030020F0030020F20300207D
:104BF000F4030020F6030020F8030020FA0300204D
:104C00002DE9F84F05460E461446684204F0DCF8DC
:104C100058490968086258480068A04203D000203B
:104C200054490968C86153490968086A534904F03E
:104C3000F7F87AD84F490968086A514904F0F0F941
:104C400073D84C490968086A4E4904F0E9F808D855
:104C500048490968086A4C4904F0E2F901D8012082
:104C600000E00020434909680875424A1268116A49
:104C7000404A1268D06903F0E9FF3E490968C861FB
:104C80003C4A1268516A3B4A1268106A04F0FAF909
:104C90008146384800688169484604F0F5F80746BF
:104CA00034490968087D04F0A7F883463148006854
:104CB0000169584604F0E8F882462E480068C16948
:104CC000504604F0E1F881462A4A1268116A294ADE
:104CD0001268D06804F0D8F84946009003F0B6FF97
:104CE0008046394603F0B2FF2249096848603046E1
:104CF00004F06AF807461F4800684168384604F027
:104D00008FF805D2304604F05FF81A490968486008
:104D1000184909684868002104F082F812D200207E
:104D20001449096848600DE0FFE712490968086AFC
:104D3000144904F075F905D2304604F045F80D49E0
:104D4000096848600B480068006A0A4909684862B7
:104D500009480460012C03D106480068406804E05B
:104D600004480068406880F00040074604F010F8EE
:104D7000BDE8F88FE8000020EC0000200000484269
:104D8000000048C200002041000020C12DE9F84F7A
:104D9000814688468248008800EBC00101EB00157F
:104DA0008048008800EB800046007F48008800EBC8
:104DB0008000470007F11E0BA6F11E0000904FF087
:104DC000000A00247948008800287DD178480088AE
:104DD00078490968A0EB010A77480068B0F1FF3F05
:104DE00002D0012871D140E071480088B84213DC3C
:104DF00072480068401C7149086008460068A84273
:104E000001D2002430E000206C4908606A48006844
:104E100040426949086027E000206849086064480A
:104E2000008858451ADC62480088B84216DDBAF19D
:104E3000000F0CDA6048006840F6B83148435C491E
:104E40000988C91B48431E2190FBF1F40CE05A4825
:104E5000006840F6B83100FB01F405E056480068F0
:104E600040F6B83100FB01F446E051480088B042FA
:104E700013DB52480068401C50490860084600682F
:104E8000A84201D2002434E000204C4908604A487E
:104E900000684042484908602BE00020474908600C
:104EA00043480188009881421DDB41480088B04298
:104EB00019DABAF1000F0FDD3F48006840F6B8314B
:104EC00048433B49098801E01CE013E0711A48435C
:104ED0001E2190FBF1F40CE03748006840F6B83131
:104EE00000FB01F405E03448006840F6B83100FBEF
:104EF00001F401E0002400BF00BF2D4800882D49C7
:104F000008604AE02C480068B0F1FF3F02D0012859
:104F100040D11FE0B9F1000F13DD28480068401CA4
:104F20002649086008460068A84201D2002410E023
:104F30000020224908602048006840421E4908605D
:104F400007E01D4840F6B83102684846FFF758FEB2
:104F5000044621E0B8F1000F13DD18480068401C3A
:104F60001649086008460068A84201D2002410E0F3
:104F70000020124908601048006840420E4908604D
:104F800007E00D4840F6B83102684046FFF738FEAA
:104F9000044601E0002400BF00BF2046BDE8F88FB2
:104FA000DC030020DE030020E0030020DA03002001
:104FB000A8000020B8000020B4000020BC000020A1
:104FC00030B504460D46002307E0204600F00BF8FC
:104FD00025F81300A41C581C83B202EBD271B3EB6A
:104FE000610FF2DB30BD0146088870472DE9F05FA4
:104FF00080468A461746B8F1006F02D33348804591
:1050000001D3BDE8F09FFCF741FDA8F1006B4FEA2A
:105010009B25CBF34809C9F50074A74200DC3C4648
:105020004DE04FF0006101EB85208A142849FFF71D
:10503000C7FF00260BE009EB0600254931F81000F8
:105040004FF6FF71884200D003E0701C86B2A64282
:10505000F1DB00BFA6421BDA4FF0006101EB8520B7
:10506000FCF790FC002608E03AF8160006EB090170
:10507000174A22F81100701C86B2A642F4DB4FF0EA
:10508000006101EB85208A14114900F023F804E047
:1050900022465146404600F01DF8A74200D10FE0DD
:1050A0006D1C4FF000090AEB440AA044381B87B27C
:1050B000B7F5007F02DD4FF4007400E03C46B0E736
:1050C00000BFFCF79FFC00BF9BE700000000020848
:1050D000A20B00202DE9F04105460E46174600249C
:1050E00007E036F814102846FCF7A4FCAD1C601C41
:1050F00084B2BC42F5DBBDE8F081704710B5494889
:105100000088494908804948008848804848008804
:105110008880484800880881474800884881474877
:105120000088888146480088C881464800880882EF
:10513000454800884882454800888882444800885D
:10514000C88244480088088343480088488343480D
:105150000088888342480088C883424800880884C1
:105160004148008848844148008888844048008835
:10517000C8844048008808853F48008848853F48E3
:10518000008888853E480088C8853E480088088693
:105190003D48008848863D48008888863C4800880D
:1051A000C8863C48008808873B48008848873B48B9
:1051B000008888873A480088C8873A480088A1F85C
:1051C000400039480088A1F8420038480088A1F81A
:1051D000440037480088A1F8460036480088A1F806
:1051E000480035480088A1F84A0034480088A1F8F2
:1051F0004C0033480088A1F84E0032480088A1F8DE
:10520000500031480088A1F85200FAF7EDFF04463B
:105210006A2205492D48FFF7E9FE2046FAF7E8FF24
:1052200010BD0000A8030020E60A0020AA03002009
:10523000AC030020B0030020B2030020B403002020
:10524000B6030020B8030020BA030020BC030020EE
:10525000BE030020C0030020C2030020C4030020BE
:10526000C6030020C8030020CA030020CC0300208E
:10527000CE030020D0030020D2030020D40300205E
:10528000D6030020D8030020DA030020DC0300202E
:10529000DE030020E0030020E2030020E4030020FE
:1052A000E6030020E8030020EA030020EC030020CE
:1052B000EE030020F0030020F2030020F40300209E
:1052C000F6030020F8030020FA0300200000010884
:1052D0000E49B1F900100E4AB2F90020891A48109F
:1052E0000A49B1F900100A4AB2F90020891A04D417
:1052F000C1B2084A1268118007E041424FF47F4270
:1053000002EA0121034A126811807047AC000020B4
:10531000AA0000207C9100080B48B0F9000000288A
:1053200005DB094800780949096808800AE0064851
:10533000B0F9000040424FF47F4101EA00200349E8
:105340000968088070470000AA0000207C910008CE
:105350000B48B0F90000002805DB0948007809492E
:10536000096808800AE00648B0F9000040424FF49E
:105370007F4101EA00200349096808807047000066
:10538000AC0000207C91000840F65A704349088028
:10539000A5204349088040F65A7042490880A5205C
:1053A0004149088003204149088040F65A7040492D
:1053B0000880A5203F49088040F65A703E49088081
:1053C000A5203E49088000203D49088040F65A70DB
:1053D0003C490880A5203C49088040F65A703B496A
:1053E0000880A5203A49088000203A49088040F604
:1053F0005A7039490880A5203849088040F65A700B
:1054000037490880A52037490880002036490880A0
:1054100040F65A7035490880A5203549088040F685
:105420005A7034490880A520334908800020334948
:10543000088040F65A7032490880A520314908801A
:1054400040F65A7030490880A52030490880002075
:105450002F49088040F65A702E490880A5202E4911
:10546000088040F65A702D490880A5202C490880F4
:1054700000202C49088040F65A702B490880A5204E
:105480002A49088040F65A7029490880A5202949F0
:10549000088000202849088070470000FC03002095
:1054A000FE03002000040020020400200404002069
:1054B00006040020080400200A0400200C04002038
:1054C0000E04002010040020120400201404002008
:1054D00016040020180400201A0400201C040020D8
:1054E0001E040020200400202204002024040020A8
:1054F00026040020280400202A0400202C04002078
:105500002E04002030040020320400203404002047
:1055100036040020380400203A0400203C04002017
:105520003E040020400400204204002044040020E7
:1055300046040020480400204A0400200848B0F92E
:105540000000322101EB600006490988322202EB9B
:10555000610140EA012004490968088070470000A1
:10556000AC000020AA0000207C9100084EF6556097
:10557000394908800020394908803949088039496B
:1055800008803949088039490880394908803949F3
:1055900008800120384908800020384908803849AF
:1055A000088028203749088001203749088050208A
:1055B000364908804FF4E160354908803549088054
:1055C000354908800A20354908800520344908807B
:1055D000C820344908804FF4FA703349088000200D
:1055E000324908805F2032490880322031490880E2
:1055F0000520314908800120304908805F2030496A
:10560000088001202F4908800F202F4908800020A2
:105610002E49088002202E4908805A202D490880F2
:105620000A202D49088000202C4908802C49088038
:105630002C4908802C49088032202C49088064209D
:105640002B49088014202B49088032202A490880E1
:1056500000202A4908807047A8030020AA030020E0
:10566000AC030020AE030020B0030020B2030020F2
:10567000B4030020B6030020B8030020BA030020C2
:10568000BC030020BE030020C0030020C203002092
:10569000C4030020C6030020C8030020CA03002062
:1056A000CC030020CE030020D0030020D203002032
:1056B000D4030020D6030020D8030020E2030020FA
:1056C000E4030020E6030020E8030020DA030020C2
:1056D000DC030020DE030020E0030020EA030020BA
:1056E000EC030020EE030020F0030020F203002072
:1056F000F4030020F6030020F8030020FA03002042
:1057000010B500F001F810BD0CB50020019000901C
:105710003348006840F480303149086000BF3048A9
:10572000006800F4003000900198401C019000983F
:1057300018B90198B0F5A06FF1D12948006800F4BC
:10574000003010B10120009001E00020009000988E
:10575000012843D12348006840F010002149086027
:105760000846006820F0030008600846006840F022
:10577000020008601A4840681949486008464068B5
:1057800048600846406840F48060486008464068C9
:1057900020F47C1048600846406840F4E8104860F7
:1057A0000846006840F08070086000BF0C48006840
:1057B00000F000700028F9D00948406820F003008C
:1057C000074948600846406840F00200486000BF52
:1057D0000348406800F00C000828F9D10CBD000017
:1057E000001002400020024001460B480088814220
:1057F00006DC094800884042814201DB00207047F6
:1058000005480088814203DD03480088081AF6E74E
:10581000014800880844F2E7C00300201B480068E4
:10582000008810B101282DD115E0194800881949C8
:10583000A1F8A6001848006800781549098841EACF
:105840000030C0F30E001549096808800120114995
:1058500081F8A40017E0124800880E49A1F8AA00B8
:105860000D48006800780E49098841EA003080B28E
:1058700040F400400949096808800120054981F881
:10588000A40000E000BF00BF00207047DC910008CA
:105890000C0000205C0100200C92000880910008A0
:1058A0000E0000202DE9F04704460D46002C7BD069
:1058B000601B03F089FA6449096808626249096853
:1058C000086A624903F0ACFA11D25F490968086AB4
:1058D0005F4903F0A5FB0AD200205B490968086212
:1058E00059480068C06858490968486065E05648EA
:1058F0000068416A4FF0804003F0C6FA8146524A80
:105900001268916A504A1268106A03F09FF9824641
:10591000494603F0B7FB80464B480068C1694046E2
:1059200003F0B2FA0646484A1268116A464A1268FB
:10593000506903F0A9FA8146434A1268516A424A03
:105940001268106A03F09EFB82463F4800680169B6
:10595000504603F099FA8046494603F077F9074626
:10596000314603F073F9384909688860364A12688D
:105970009168354A1268D06803F068F932490968BD
:105980004860204603F020FA07462F480068416827
:10599000384603F079FA0646002103F041FA0CD2AA
:1059A000002C02DD012102E037E04FF0FF31084614
:1059B00003F00AFA244909684860234909684868DD
:1059C000244903F02DFB04D822481F490968486088
:1059D0000AE01D49096848681F4903F021FA03D805
:1059E0001D4819490968486017480068406A164907
:1059F0000968886214480068006A134909684862A7
:105A000011480068406810490968C8600E4800687D
:105A100040680D49096808600FE000200A490968DC
:105A2000C860094909680862074909684862064967
:105A300009688862044909680860034909680868B8
:105A400003F0A6F9BDE8F087E40000200000204143
:105A5000000020C100008744000087C4024648427D
:105A6000824201DA484270478A4201DD0846FAE77D
:105A70001046F8E7042808D14FF0E021096941F009
:105A800004014FF0E022116107E04FF0E0210969C5
:105A900021F004014FF0E0221161704710B5054874
:105AA0000078012805D1FDF703F8FDF79BFBFDF712
:105AB00011F810BD8603002010B51348006840F0AF
:105AC00001001149086008464068104908400E4925
:105AD0004860084600680E4908400B4908600846BF
