:020000040800F2
:10000000B8240020A9010008FD2800089D1D000853
:1000100021240008E51000080B6F00080000000014
:100020000000000000000000000000006351000814
:100030001F1A00080000000037020008395B0008A2
:10004000116F0008C3010008C3010008C3010008C4
:10005000C3010008C3010008211A0008C3010008F9
:10006000C3010008C3010008C30100086D160008A1
:1000700095160008C3010008C3010008C301000869
:10008000C30100086D170008C3010008C301000880
:10009000C3010008C3010008C3010008C301000830
:1000A000F55D0008C3010008C3010008F95D000800
:1000B000C3010008195E0008895F0008C301000839
:1000C000C3010008C3010008C3010008C301000800
:1000D000C3010008C3010008F56B0008856C000827
:1000E000C3010008C3010008C301000800F002F8C2
:1000F00000F04BF80AA090E8000C82448344AAF177
:100100000107DA4501D100F040F8AFF2090EBAE874
:100110000F0013F0010F18BFFB1A43F0010318473B
:1001200038930000489300000A444FF0000C10F888
:10013000013B13F0070408BF10F8014B1D1108BF65
:1001400010F8015B641E05D010F8016B641E01F805
:10015000016BF9D113F0080F1EBF10F8014BAD1C55
:100160000C1B09D16D1E58BF01F801CBFAD505E073
:1001700014F8016B01F8016B6D1EF9D59142D6D3CD
:1001800070471FB51FBD10B510BD00F006F9114630
:10019000FFF7F7FF07F024FD00F024F903B4FFF7A1
:1001A000F2FF03BC00F028F90948804709480047DE
:1001B000FEE7FEE7FEE7FEE7FEE7FEE7FEE7FEE717
:1001C000FEE7FEE704480549054A064B7047000074
:1001D000555B0008ED000008B81E0020B824002080
:1001E000B8200020B8200020EFF3108072B67047CE
:1001F00080F310887047204C204D25604FF000049C
:1002000084F309881E4C4FF0010525701D4C4FF0FA
:100210008055256062B6FEE730B41A4C4FF0805529
:10022000256030BC704730B4164C4FF080552560C7
:1002300030BC704700BF72B6EFF3098028B1203898
:1002400080E8F00F10490968086000B50F48804742
:100250005DF804EB0E480F490A7802700A480E490F
:100260000A680260106890E8F00F203080F3098877
:100270004EF0040E62B6704720ED00E00000FFFF74
:100280008203002004ED00E0880300208131000893
:10029000770300207803002090030020032A40F217
:1002A000308010F0030C00F0158011F8013BBCF118
:1002B000020F624498BF11F801CB00F8013B38BF30
:1002C00011F8013BA2F1040298BF00F801CB38BF3E
:1002D00000F8013B11F0030300F02880083AC0F059
:1002E000088051F8043B083A51F804CBA0E8081004
:1002F000F5E7121D5CBF51F8043B40F8043BAFF337
:100300000080D20724BF11F8013B11F801CB48BF90
:1003100011F8012B24BF00F8013B00F801CB48BFC6
:1003200000F8012B704770477047704710B5203AAE
:10033000C0F00B80B1E81850203AA0E81850B1E89E
:100340001850A0E81850BFF4F5AF5FEA027C24BF54
:10035000B1E81850A0E8185044BF18C918C0BDE84B
:1003600010405FEA827C24BF51F8043B40F8043B14
:1003700008BF7047D20728BF31F8023B48BF11F8C9
:10038000012B28BF20F8023B48BF00F8012B704723
:1003900000487047581E002070477546FFF7F8FF69
:1003A000AE4605006946534620F00700854618B062
:1003B00020B5FFF707FFBDE820404FF000064FF0E3
:1003C00000074FF000084FF0000B21F00701AC468A
:1003D000ACE8C009ACE8C009ACE8C009ACE8C009A9
:1003E0008D46704710B50446AFF300802046BDE847
:1003F0001040FFF7D3BE000001491820ABBEFEE756
:100400002600020021B1826842F00102826003E00E
:10041000826822F001028260704721B1826842F452
:100420008072826003E0826822F48072826070478A
:10043000014600208A6802F004020AB1012000E0AF
:1004400000207047014600208A6802F008020AB1C5
:10045000012000E00020704730B502460020002354
:1004600050680F4C20400D790C6844EA0524204365
:10047000506090680B4C2040D1E902542C434D79D8
:1004800044EA450420439060D06A20F470000C7C5C
:10049000641EE4B2234340EA0350D06230BD000042
:1004A000FFFEF0FFFDF7F1FFF0B504460D4600201A
:1004B0000021092D11DDE068A5F10A0606EB4607CB
:1004C000072606FA07F18843A5F10A0606EB460659
:1004D00003FA06F10843E0600CE0206905EB4507EC
:1004E000072606FA07F1884305EB450603FA06F1ED
:1004F00008432061072A0FDA606B561E06EB860759
:100500001F2606FA07F18843561E06EB860605FAF3
:1005100006F10843606322E00D2A0FDA206BD61F34
:1005200006EB86071F2606FA07F18843D61F06EB5F
:10053000860605FA06F10843206310E0E06AA2F19E
:100540000D0606EB86071F2606FA07F18843A2F17F
:100550000D0606EB860605FA06F10843E062F0BDDB
:10056000816841F008018160704721B1826842F4DE
:10057000A002826003E0826822F4A00282607047D9
:10058000816841F0040181607047000000B591B0BE
:100590004FF4004003F09AFC01214FF4047003F083
:1005A000D1FC0F20ADF8400000208DF8430010A9C9
:1005B0003D4801F0FCFA3D4801F032F93C4800901A
:1005C0003C480190002002900420039000200490F9
:1005D0008020059040000690800007902020089021
:1005E0000002099000200A906946304801F0F7F9AE
:1005F000012202212D4801F0E9F901212B4801F0E7
:1006000003F900200B9001208DF8300000208DF8B8
:1006100031004FF460200D9000200E9004208DF8E2
:100620003C000BA922484C38FFF716FF0323012298
:100630000A211F484C38FFF737FF032302220B2102
:100640001B484C38FFF730FF03231A460C2118488B
:100650004C38FFF729FF032304220D2114484C389E
:10066000FFF722FF012112484C38FFF7D6FE012187
:100670000F484C38FFF7C6FE0D484C38FFF770FFA7
:1006800000BF0B484C38FFF7DDFE0028F9D10848C1
:100690004C38FFF775FF00BF05484C38FFF7C8FE20
:1006A0000028F9D111B000BD00100140080002403F
:1006B0004C2401400200002070B58A480068008880
:1006C00008B1012000E000200546874C2078012871
:1006D0000CD186480068008800EB4001201D00EB2B
:1006E0008100406800886080002020708048007889
:1006F0000A287CDD7B480068008801281ED17B48E1
:100700000068008800EB4001201D00EB810040687C
:10071000018876480068008800EB4002201D00EB4D
:1007200082000089014471480068008800EB4002A3
:10073000201D00EB82004088814200DDC5B96B4B73
:100740001B681B8803EB4306231D03EB86031A7A01
:10075000664B1B681B8803EB4306231D03EB8603D4
:100760005968604B1B6818882B4600F0C7F83BE0BF
:100770005C480068008802281DD15C480068008839
:1007800000EB4001201D00EB8100406801885748C4
:100790000068008800EB4002201D00EB8200008909
:1007A000091A52480068008800EB4002201D30F80A
:1007B0002200814200DABDB94C4B1B681B8803EB59
:1007C0004306231D03EB86031A7A484B1B681B88DC
:1007D00003EB4306231D03EB86035968414B1B685B
:1007E00018882B4600F08AF80020414908703F48DD
:1007F0000068008820B13D4800680088182813D19F
:100800003A480068008800EB4001201D00EB8100A1
:100810004068008800EB80004FF6FF7101EA40005D
:1008200034490968088031E030480068008812289F
:1008300009D02E4800680088162804D02B4800688C
:10084000008817280FD129480068008800EB400174
:10085000201D00EB81004068008800F548702549A4
:100860000968088012E021480068008800EB400118
:10087000201D00EB81004068008800EB80004FF4F1
:10088000487101EB40001B49096808801A4800685C
:100890000088022814D11448418814480068008850
:1008A00000EB40021048001D00EB82004068018010
:1008B00001200D490870FF200C49096808800AE0F2
:1008C0000D4800680088012805D107490870FF20FD
:1008D00006490968088006480078401C04490870E9
:1008E00070BD0000F890000814020020F09000088D
:1008F00046030020E89000083091000830B5012B35
:1009000036D1012802D0022830D117E01C4C2478BF
:1009100034B901241A4D2C700C8814440C800CE05E
:10092000184C2478072C05DA164C2478641C154DD5
:100930002C7002E00C8814440C8018E0104C2478D1
:1009400034B901240E4D2C700C88A41A0C800CE0D4
:100950000C4C2478072C05DA0A4C2478641C094DC9
:100960002C7002E00C88A41A0C8000E000BF05E0A7
:1009700023B90024024D2C70024D2C7030BD0000B4
:10098000450300204403002007285FD2DFE800F081
:100990005E4F3140130422000121344A1160344A71
:1009A000C2F8A81143F20401324A118000212F4AF3
:1009B000121D116058E001212C4A11602C4AC2F826
:1009C000A8114FF450512B4A11800021274A121DC3
:1009D000116049E00121254A121D1160244AC2F824
:1009E000A8114FF45051234A118000211F4A116071
:1009F0003AE001211D4A121D11601D4AC2F8A811DA
:100A00004FF441511B4A11800021184A11602BE01C
:100A10000121164A1160164AC2F8A4114FF441513F
:100A2000144A11800021114A083211601CE0012192
:100A30000E4A11600E4AC2F8A41143F204010D4A95
:100A400011800021094A083211600DE04FF4405135
:100A5000084A11800121054A1160054AC2F8A41113
:100A6000024A0832116000BF00BF7047A001214256
:100A700000002142202C0140072861D2DFE800F06D
:100A800060513342130423000121364A1160364A73
:100A9000C2F8A8114FF44151344A11800021314A63
:100AA000121F11605BE001212E4A121F11602E4AB5
:100AB000C2F8A4114FF441512C4A11800021294A57
:100AC000121D11604BE00121264A121F1160264AB7
:100AD000C2F8A41143F20401244A11800021214AE2
:100AE000121D11603BE001211E4A121F11601E4AB7
:100AF000C2F8A81143F204011C4A11800021194ACE
:100B000011602CE00121174A121F1160164AC2F829
:100B1000A8114FF45051154A11800021114A11605B
:100B20001DE001210F4A11600F4AC2F8A8114FF4CD
:100B300050510E4A118000210A4A121F11600EE026
:100B40004FF44051094A11800121064A121F1160D9
:100B5000054AC2F8A411034A121D116000BF00BF6C
:100B600070470000A401214200002142202C0140D6
:100B700008B54FF47060ADF8000010208DF8030048
:100B800003208DF8020069460E4801F010F84FF47A
:100B90006040ADF8000018208DF8030003208DF8A8
:100BA00002006946084801F002F84FF4E070ADF821
:100BB000000048208DF803006946044800F0F7FF64
:100BC00008BD000000080140000C01400010014079
:100BD00000B500230F488068C0F38213012B17DB98
:100BE000062B15DC01200C490871084690F9070016
:100BF000401C18B91846FFF7C7FE06E00648C07942
:100C0000012802D11846FFF737FF0020034908806A
:100C100000BD0000001001408800002024040040B6
:100C200000200749088000BF00BF00200549086078
:100C30000549C1F8A4010349083108607047000064
:100C4000202C0140A00121420000214200B58BB0C0
:100C50000121C80203F076F9424805F0ABFB0220FF
:100C6000ADF820004020ADF8220040F2AF40ADF8D2
:100C700024000020ADF826008DF8280008A9394886
:100C800005F096FE6020ADF810000020ADF81200CF
:100C9000ADF814004FF41670ADF816000020ADF852
:100CA0001800ADF81A00ADF81C00ADF81E0004A93C
:100CB0002C4805F0D3FC4FF41670ADF8160004A9CB
:100CC000284805F021FD4FF41670ADF8160004A970
:100CD000244805F079FD7020ADF810000020ADF833
:100CE00012000A20ADF816000220ADF8180004A981
:100CF0001C4805F0C3FD4FF40060ADF80000401043
:100D0000ADF802008010ADF804007820ADF80600C0
:100D10000020ADF80800ADF80A00ADF80C006946F7
:100D2000104805F019FB08210E4805F0E3FC0821E6
:100D30000C4805F03BFD08210A4805F095FD01210E
:100D4000084805F028FB1021064805F015FB012195
:100D5000044805F014FB01221021024805F074FC40
:100D60000BB000BD002C014000B58BB0012102206A
:100D700003F0C8F80121354800F0A4FF344805F01D
:100D800019FB4720ADF820000020ADF8220042F208
:100D90000F70ADF824000020ADF826008DF8280073
:100DA00008A92B4805F004FE0020ADF81400ADF8AA
:100DB00016000320ADF818000020ADF81A000A2034
:100DC000ADF81C0005A9224805F0E8FB0020ADF8AD
:100DD0000400ADF8060042F21070ADF80A000020E1
:100DE000ADF80C0001A91A4805F048FD012118488A
:100DF00005F082FD4021164805F08AFD04211448C3
:100E000005F0A1FD8021124805F08BFD502110480E
:100E100005F090FD0E48103000884FF6EF71084045
:100E20000B4910310880084600884FF6BF71084012
:100E30000749103108800121054805F0A0FA012278
:100E40005021034805F000FC0BB000BD000C1A0057
:100E5000000400400EB50121042003F053F81248AD
:100E600005F0A8FA4720ADF800000020ADF8020018
:100E700040F69F70ADF804000020ADF806008DF834
:100E800008006946084805F093FD0121064805F071
:100E900073FA0121044805F072FA01221146024852
:100EA00005F0D2FB0EBD00000008004010B503F0B5
:100EB00069F806F02DFA00F0B3FFFFF759FEFFF7CF
:100EC000C5FEFFF751FFFFF7C5FF02F0EFFC4FF43F
:100ED000E13007F005F84FF4E13007F067F8FFF76D
:100EE00055FB4FF47A7006F041FA10BD10B50120A1
:100EF00041490880414800884149088041480088AC
:100F0000488041480088088140480088488140481E
:100F1000008888813F480088C8813F48008808824F
:100F20003E48008848823E48008888823D480088C4
:100F3000C8823D48008808833C48008848833C4874
:100F4000008888833B480088C8833B480088088421
:100F50003A48008848843A4800880885394800881B
:100F6000488539480088888538480088C8853848C9
:100F70000088088637480088488637480088888671
:100F800036480088C8863648008808873548008873
:100F9000488735480088888734480088C88734489F
:100FA0000088A1F8400033480088A1F84200324888
:100FB0000088A1F8440031480088A1F84600304874
:100FC0000088A1F848002F480088A1F84A002E4860
:100FD0000088A1F84C002D480088A1F84E00FFF7CA
:100FE00003F904466A220649294804F033F82046EA
:100FF000FFF7FEF810BD0000A8030020A4030020A6
:10100000740A0020A6030020AC030020AE030020D9
:10101000B0030020B2030020B4030020B603002078
:10102000B8030020BA030020BC030020BE03002048
:10103000C0030020C2030020C6030020C403002018
:10104000CC030020CE030020D0030020D2030020D8
:10105000D4030020D6030020D8030020DA030020A8
:10106000DC030020DE030020E0030020E203002078
:10107000E4030020E6030020E8030020EA03002048
:10108000EC030020EE030020F0030020F203002018
:101090000004010810B510480068008848B10E48E7
:1010A00000680088012804D00B48006800880228E6
:1010B00011D10020094908804FF47A7006F056F9E2
:1010C000054909680A88064951F822008047FF202F
:1010D00001490968088010BD50910008AA0300204A
:1010E0003001002000BFFEE770B502460C46FF2528
:1010F000FF2309E012F8010B80EA05010648405C75
:1011000080EA03050548435C201EA4F10106B4B241
:10111000F0D143EA052070BD5891000858920008AC
:101120002DE9F04705460C46284607F0E3FD6749E0
:101130000968086265490968086A654907F006FE9A
:101140007CD862490968086A624907F0FFFEF7D84F
:101150005E490968086A4FF0804107F0F7FD11D831
:101160005A490968086A4FF0404107F0EFFE09D874
:1011700000205649096848600320574948700020FC
:10118000087089E051480068416A4FF0804007F0DC
:1011900011FE81464D4A1268916A4C4A1268106AE3
:1011A00007F0EAFC8246494607F002FF80464748BE
:1011B0000068C169404607F0FDFD0646434A1268D3
:1011C000116A424A1268506907F0F4FD81463F4AAD
:1011D0001268516A3D4A1268106A07F0E9FE8246B9
:1011E0003A4800680169504607F0E4FD80464946E8
:1011F00007F0C2FC0746314607F0BEFC33490968D8
:101200008860324A12689168304A1268D06807F0E4
:10121000B3FC2E4909684860204607F06BFD06467E
:101220002A4800684168304607F090FD07D2204602
:1012300007F060FD2549096848602DE011E0604233
:1012400007F058FD0646214800684168304607F01F
:101250007DFE21D2604207F04DFD1C4909684860BF
:101260001AE01A490968086A194907F06FFE06D2A0
:10127000204607F03FFD1549096848600CE0134916
:101280000968086A134907F061FD05D2604207F05A
:1012900031FD0E49096848600C480068406A0B49F6
:1012A0000968886209480068006A08490968486254
:1012B00006480068406805490968C860034909682C
:1012C000486807F0FBFCBDE8F0870000DC00002068
:1012D00000004842000048C2500100202DE9F047BC
:1012E00005460C46284607F005FD64490968086272
:1012F00062490968086A624907F028FD77D85F49A2
:101300000968086A5F4907F021FEF7D85B49096858
:10131000086A4FF0804107F019FD0CD85749096859
:10132000086A4FF0404107F011FE04D800205349ED
:101330000968486089E051480068416A4FF0804080
:1013400007F038FD81464D4A1268916A4B4A12688F
:10135000106A07F011FC8246494607F029FE8046D4
:1013600046480068C169404607F024FD0646434AE6
:101370001268116A414A1268506907F01BFD8146E4
:101380003E4A1268516A3D4A1268106A07F010FE20
:1013900082463A4800680169504607F00BFD8046D6
:1013A000494607F0E9FB0746314607F0E5FB3349BC
:1013B00009688860314A12689168304A1268D068BA
:1013C00007F0DAFB2D4909684860204607F092FCD7
:1013D00006462A4800684168304607F0B7FC07D245
:1013E000204607F087FC2549096848602DE011E098
:1013F000604207F07FFC064620480068416830469E
:1014000007F0A4FD21D2604207F074FC1B49096873
:1014100048601AE019490968086A194907F096FDF9
:1014200006D2204607F066FC1449096848600CE0C3
:1014300012490968086A134907F088FC05D260421E
:1014400007F058FC0D49096848600C480068406A7C
:101450000A490968886209480068006A07490968FA
:10146000486206480068406804490968C860034942
:101470000968486807F022FCBDE8F087D400002026
:1014800000004842000048C22DE9F04788B00446F9
:101490008846154600266B48008800EB4001C1EBEA
:1014A0004010A8EB80096848008807F0CBF84FF09F
:1014B0003332664BCDE9000107F014F9CDE90401A0
:1014C000404607F0BFF8CDE90201DDE9042307F04B
:1014D0003DFACDE9060107F041F882465C48C0F8C4
:1014E0000080204600F043FC07465A480078012857
:1014F0001BD1BAF1000F16DDB7F1FF3F03D047B1A2
:10150000012F0ED107E004EB8A06002E00DD002635
:1015100008E0002606E0A4EB8A06002E00DA00268A
:1015200000E000BF66E0264664E04B4800780028F3
:1015300050D12CB94949088049490880002659E012
:101540004648008844F6206188422DDA43480088E6
:10155000401C42490880B9F1000F20DD05204149B7
:1015600048713F480088401C3D490880B7F1FF3F63
:1015700003D057B1012F10D109E004EBC90616F1D1
:10158000050F01DD6FF0040608E0002606E0A4EB7D
:10159000C906052E00DA052600E000BF2AE026462F
:1015A00000203049487125E02D480088B0F5FA5FE9
:1015B00009DB002601202849087006202949887186
:1015C0002948076000E02646002025490880234975
:1015D00008800FE02448006887420AD04FB12248B3
:1015E000006830B100201F49887126461A490870EA
:1015F00000E0002640F2EC50854208DC40F22E402C
:10160000854204DB002017494872887215E040F2D9
:10161000EC50854202DD09201249487240F22E400A
:10162000854202DA0A200F498872002640F22D20F6
:10163000854202DC72B603F095FD304608B0BDE885
:10164000F0870000C6030020C40300203333274086
:10165000C800002050010020CC000020CE00002057
:10166000D000002044040020C400002010B5022057
:1016700000F096F948B1012000F0B8F8034800687E
:1016800002F0C2FB01200249087010BD38000020A2
:101690000A00002010B5FEF7A7FD044612480078A6
:1016A000401C114908702046FEF7A2FD202000F0E2
:1016B00077F9A8B1002240F224410C4805F08EFBD6
:1016C000012240F22661094805F088FB0021084804
:1016D00000F09AF8202000F089F8102000F086F839
:1016E00001F004FA10BD000075030020004800401E
:1016F0001C00024010B5044600BF2021194805F027
:1017000036FB0028F9D104B910BD00BF164800F01F
:101710002DF90028FAD10021134800F075F8214670
:10172000114800F07AF901210F4800F06DF800BF70
:10173000202000F01FF90028FAD000BF40210948FE
:1017400005F015FB0028F9D04021064805F0E2FA23
:10175000202000F03DF80021034800F055F800BFBC
:10176000D2E70000004800401C00024010B5FEF720
:101770003BFD044613480078401C1249087020467F
:10178000FEF736FD4FF0007000F00AF9B8B1002204
:1017900040F224410C4805F021FB012240F2266171
:1017A000094805F01BFB0021084800F02DF84FF018
:1017B000007000F01BF84FF0807000F017F801F097
:1017C00095F910BD750300200044004080000240E0
:1017D00000F0805111B10349086001E002494860FE
:1017E00070470000040402400000024000F08051F5
:1017F00011B10349086001E00249486070470000E8
:10180000040402400000024021B1026842F00102DB
:10181000026004E002684FF6FE731A4002607047EF
:1018200001684FF6FE7211400160002101604160C5
:101830008160C1604B49884208D14A4908394968EA
:1018400041F00F01474A083A51608AE04549143196
:10185000884208D143490839496841F0F001414ABA
:10186000083A51607DE03F492831884208D13D491E
:101870000839496841F470613A4A083A516070E0A9
:1018800038493C31884208D136490839496841F421
:101890007041344A083A516063E03249503188421D
:1018A00008D130490839496841F470212D4A083A75
:1018B000516056E02B496431884208D129490839E2
:1018C000496841F47001274A083A516049E02549C6
:1018D0007831884208D123490839496841F070615C
:1018E000204A083A51603CE01F49884206D1011F56
:1018F000096841F00F01021F116032E01A491431EA
:10190000884208D11849091F096841F0F001164AB8
:10191000121F116025E014492831884208D112496C
:10192000091F096841F470610F4A121F116018E025
:101930000D493C31884208D10B49091F096841F41F
:101940007041094A121F11600BE00749503188426B
:1019500007D10549091F096841F47021024A121F85
:1019600011607047080002400804024001464868C0
:1019700080B2704701460020002201F0805313B16D
:10198000054B1A6801E0054B1A6802EA01030BB126
:10199000012000E0002070470004024000000240E7
:1019A00001460020002201F0805313B1054B1A6854
:1019B00001E0054B1A6802EA01030BB1012000E0C7
:1019C0000020704700040240000002401AB1036882
:1019D0000B43036002E003688B430360704710B55C
:1019E0000022026847F6F0739A430C6A8B6823431F
:1019F0000C6923434C6923438C692343CC692343FB
:101A00004C6A23438C6A23431A430260CB684360C9
:101A10000B6883604B68C36010BD416070477047BE
:101A200010B5012000F014F840B14021044800F046
:101A30009CF903F097FB012000F004F810BD0000B2
:101A4000001401400149086070470000140401407F
:101A500001460020034A12680A400AB1012000E052
:101A6000002070471404014030B5044604254FF4AB
:101A7000302000F089F80546042D17D10C48006984
:101A800040F002000A49086108464461006940F0DC
:101A9000400008614FF4302000F076F80546044815
:101AA000006941F6FD71084001490861284630BDD2
:101AB0000020024004200B49C96801F0010109B16E
:101AC00001200EE00749C96801F0040109B10220B4
:101AD00007E00449C96801F0100109B1032000E0E2
:101AE00004207047002002400348006940F0800055
:101AF000014908617047000000200240054909685B
:101B000021F01001034A1160114609680143116078
:101B1000704700000020024070B504460D460426C0
:101B2000F00200F031F80646042E11D10948006990
:101B300040F00100074908612580F00200F024F818
:101B400006460448006941F6FE71084001490861F3
:101B5000304670BD0020024001460020034A106854
:101B600000F0380008431060704700000020024079
:101B700002480349486003484860704723016745AD
:101B800000200240AB89EFCD00B502460423FFF7E9
:101B900091FF034603E0FFF78DFF0346521E012B22
:101BA00001D1002AF7D102B90523184600BD2DE95D
:101BB000F0410246002500260020002300240027D3
:101BC00091F803C00CF00F0591F803C00CF0100C55
:101BD000BCF1000F03D091F802C04CEA050591F862
:101BE00000C0BCF1000F31D0146800202BE04FF092
:101BF000010C0CFA00F3B1F800C00CEA03069E4297
:101C000020D183004FF00F0C0CFA03F7BC4305FA08
:101C100003FC4CEA040491F803C0BCF1280F06D180
:101C20004FF0010C0CFA00FCC2F814C00AE091F865
:101C300003C0BCF1480F05D14FF0010C0CFA00FCB9
:101C4000C2F810C0401C0828D1D31460B1F800C0FD
:101C5000BCF1FF0F34DD546800202EE000F1080CC9
:101C60004FF0010808FA0CF3B1F800C00CEA0306C3
:101C70009E4221D183004FF00F0C0CFA03F7BC43B6
:101C800005FA03FC4CEA040491F803C0BCF1280FE8
:101C900005D100F1080C08FA0CF8C2F8148091F88C
:101CA00003C0BCF1480F07D100F1080C4FF0010848
:101CB00008FA0CF8C2F81080401C0828CED35460F3
:101CC000BDE8F081F0B50A4600230024002100257C
:101CD00000F00046B6F1004F02D11D4EF16901E05F
:101CE0001B4E7168C0F3034583B200F44016B6F58D
:101CF000401F08D121F07061154E766826F070669D
:101D0000134F7E6012E000F48016B6F5801F06D1F6
:101D1000032606FA05F4A14341F0706106E0460D82
:101D2000360103FA06F6B14341F0706122B1460D67
:101D3000360103FA06F6314300F00046B6F1004FD3
:101D400002D1034EF16101E0014E7160F0BD00006F
:101D5000000001400246002093680B400BB10120B7
:101D600000E0002070474161704701617047014603
:101D700009B900207047002902DA4FF0FF30F9E777
:101D80000120F7E7024611B1012904D101E0104614
:101D900070475042FCE70020FAE700000348006863
:101DA00000F0010000B100BE00BFFEE7F0ED00E072
:101DB0004CF6CC40014908607047000000300040FC
:101DC00010B500F013F810BD70B505460C4645F28D
:101DD000555000F01FF8284600F010F8204600F09B
:101DE00013F800F003F8FFF7E3FF70BD4AF6AA20EE
:101DF0000149086070470000003000400149486018
:101E000070470000003000400149886070470000C2
:101E10000030004001490860704700000030004079
:101E200008B510208DF8030003208DF802004FF450
:101E30008050ADF8000069461848FFF7B8FE04204E
:101E4000ADF8000069461648FFF7B1FEBDF8001076
:101E50001348FFF788FF04208DF803004002ADF817
:101E6000000069460F48FFF7A2FE4FF48050ADF81E
:101E7000000069460B48FFF79AFE4FF48070ADF8FA
:101E8000000069460548FFF792FE4FF40070ADF878
:101E9000000069460148FFF78AFE08BD000C0140BA
:101EA000001401400010014008B54FF4A06000F09C
:101EB0005FFD1D208DF8000000208DF8010001203D
:101EC0008DF802008DF80300684600F019FD1B2014
:101ED0008DF8000001208DF8010000208DF802002F
:101EE00001208DF80300684600F00AFD0B208DF8F4
:101EF000000001208DF801008DF802008DF803002C
:101F0000684600F0FDFC1E208DF8000002208DF8D0
:101F1000010000208DF8020001208DF803006846C2
:101F200000F0EEFC27208DF8000003208DF8010062
:101F300000208DF8020001208DF80300684600F0B3
:101F4000DFFC0C208DF8000003208DF8010001203B
:101F50008DF802008DF80300684600F0D1FC0D20DA
:101F60008DF8000003208DF8010002208DF802009A
:101F700001208DF80300684600F0C2FC08BD000097
:101F8000026812880B2A71D2DFE802F006071420DB
:101F90002B36414B555F71007BE0C27A012A03D199
:101FA00002224A808A8004E0C27A12B900224A8062
:101FB0008A806EE0C27A012A02D14A808A8004E0D7
:101FC000C27A12B900224A808A8062E0C27A012A6B
:101FD00002D10522CA8003E0C27A0AB90022CA806F
:101FE00057E0C27A012A02D104220A8103E0C27AB0
:101FF0000AB902220A814CE0C27A012A02D10222E5
:102000004A8103E0C27A0AB904224A8141E0C27AD5
:10201000012A01D18A8103E0C27A0AB900228A81A9
:1020200037E0C27A012A01D1CA8103E0C27A0AB933
:102030000022CA812DE0C27A012A01D10A8203E07E
:10204000C27A0AB900220A8223E0134A12881AB11E
:10205000114A1288012A08D1C27A012A01D14A8282
:1020600003E0C27A0AB900224A8212E010E00A4A6A
:1020700012881AB1084A1288012A08D1C27A012AA4
:1020800001D18A8203E0C27A0AB900228A8200E082
:1020900000BF00BF70470000AC0300202DE9F041F5
:1020A0000146DFF864C3BCF800C00CEB8C0C4FF6A3
:1020B000FF7808EA4C02DFF854C3BCF800C00CEB10
:1020C0008C0C08EA4C0303F11E0C1FFA8CF5A2F1EC
:1020D0001E0C1FFA8CF6DFF838C3BCF800C0BCF148
:1020E000000F7CD1DFF82CC3BCF800C0AC450DDD7F
:1020F000DFF820C3BCF800C0B44507DA4FF0000C8D
:10210000DFF8148388F804C008467AE1DFF804C3D6
:10211000BCF800C0944505DADFF8F8C2BCF800C08E
:102120009C4520DC4FF0040CDFF8EC8288F804C0FA
:10213000DFF8E0C2BCF800C0944506DB002901DAF4
:102140008C4601E04FF0000C6046DFF8C8C2BCF8D6
:1021500000C09C45D9DC002901DD8C4601E04FF030
:10216000000C60464DE14FF0000CDFF8AC8288F8BF
:1021700004C0DFF8A0C2BCF800C0AC4516DCDFF834
:1021800094C2BCF800C09C4510DD00290CDADFF8D1
:1021900084C2BCF800C0ACEB030C0CFB01FC4FF09C
:1021A0001E089CFBF8FC00E08C466046DFF864C229
:1021B000BCF800C0B445A8DBDFF858C2BCF800C0CA
:1021C0009445A2DA00290EDDDFF848C2BCF800C051
:1021D000A2EB0C0C0CFB01FC4FF01E0800E005E02C
:1021E0009CFBF8FC00E08C4660460AE1DFF820C268
:1021F000BCF800C0BCF1010F47D1DFF820C2BCF829
:102200000EC0BCF1000F02D14FF0010C01E04FF005
:10221000000CDFF80882B8F81080B8F1000F02D186
:102220004FF0010801E04FF000080CEA080CBCF187
:10223000000F07D04FF0000CDFF8DC8188F804C0F5
:102240000846DEE04FF0040CDFF8CC8188F804C0CB
:10225000DFF8C8C1BCF80EC0BCF1010F06D10029DF
:1022600001DA8C4601E04FF0000C6046DFF8ACC1AB
:10227000BCF810C0BCF1010FB7D1002901DD8C46BC
:1022800001E04FF0000C6046BBE0DFF884C1BCF811
:1022900000C0BCF1020F73D10846DFF878C1BCF86A
:1022A00000C0944505DADFF86CC1BCF800C09C455D
:1022B0001BDC0124DFF85CC1BCF800C0944506DBE0
:1022C000002901DA8C4601E04FF0000C6046DFF88F
:1022D00044C1BCF800C09C4557DC002901DD8C4698
:1022E00001E04FF0000C60464FE0DFF828C1BCF879
:1022F00000C0A2EB0C0CBCF11E0F08DBDFF814C110
:10230000BCF800C0ACEB030CBCF11E0F3CDA00249F
:10231000DFF800C1BCF800C0AC4516DCDFF8F4C043
:10232000BCF800C09C4510DD00290CDADFF8E4C0E1
:10233000BCF800C0ACEB030C0CFB01FC4FF01E081A
:102340009CFBF8FC00E08C466046DFF8C8C0BCF897
:1023500000C0B44519DBDFF8BCC0BCF800C0944530
:1023600013DA00290DDDDFF8ACC0BCF800C0A2EB29
:102370000C0C0CFB01FC4FF01E089CFBF8FC01E070
:102380003FE08C46604600E00024DFF890C0BCF8D7
:102390000EC0BCF1000F08D1DFF880C0BCF810C03F
:1023A000BCF1000F01D100271CE00127DFF86CC051
:1023B000BCF80EC0BCF1010F06D1002801DA84463A
:1023C00001E04FF0000C6046DFF850C0BCF810C0D0
:1023D000BCF1010F06D1002801DD844601E04FF079
:1023E000000C604604B937B14FF0040CDFF82880C8
:1023F00088F804C005E04FF0000CDFF81C8088F876
:1024000004C0BDE8F0810000CE030020D20300200C
:10241000CC030020A400002044040020500400202D
:1024200000BFFEE770B52448007E00B970BD2248A9
:10243000807D022815DD2048807D801E81B21E48E7
:10244000401CFEF751FE04461B48807D401E1A4981
:10245000491C0A5C481E807D801E085C02EB00203F
:1024600085B2AC4222D11448407813490978884299
:102470001BD1114880780A2816D2DFE800F0050643
:1024800007080B0E0F1213140EE00DE00CE000F025
:1024900015F809E000F08AF806E005E000F0FEF823
:1024A00002E001E000E000BF00E000BF00200249C0
:1024B0008875087600BFB9E7701000202DE9F0415B
:1024C000002538480179C07801EB002087B23548F3
:1024D0008179407901EB00201FFA80F831480278B9
:1024E00029466D1C19304254032229466D1C425462
:1024F0004FEA4800C11700EB11610912A0EB01215E
:10250000CBB22A466D1C274919318B54002621E095
:10251000B919254A32F81100C11700EB1161C1F356
:10252000072329466A1CD5B21E4A19325354B919D9
:102530001D4A32F81100C11700EB11610912A0EB1E
:102540000121CBB229466A1CD5B2164A193253541E
:10255000701CC6B24645DBDB294612481930FEF72F
:10256000C3FD04462046E11704EB1161C1F30723C4
:1025700029466A1CD5B20B4A19325354E11704EBB1
:1025800011610912A4EB0121CBB229466A1CD5B214
:10259000044A193253542946104601F051FEBDE851
:1025A000F081000070100020C61100202DE9F041DC
:1025B000002538480179C07801EB002087B2354802
:1025C0008179407901EB00201FFA80F831480278C8
:1025D00029466D1C19304254042229466D1C425470
:1025E0004FEA4800C11700EB11610912A0EB01216D
:1025F000CBB22A466D1C274919318B54002621E0A5
:10260000B919254A32F81100C11700EB1161C1F365
:10261000072329466A1CD5B21E4A19325354B919E8
:102620001D4A32F81100C11700EB11610912A0EB2D
:102630000121CBB229466A1CD5B2164A193253542D
:10264000701CC6B24645DBDB294612481930FEF73E
:102650004BFD04462046E11704EB1161C1F307234B
:1026600029466A1CD5B20B4A19325354E11704EBC0
:1026700011610912A4EB0121CBB229466A1CD5B223
:10268000044A193253542946104601F0D9FDBDE8D9
:10269000F081000070100020C61100202DE9F041EB
:1026A000002435480179C07801EB002085B232481A
:1026B0008179407901EB002086B2304820F815601E
:1026C0002D4802782146641C1930425406222146C6
:1026D000641C42542846E91705EB1161C1F3072336
:1026E0002246641C244919318B54E91705EB11610A
:1026F0000912A5EB0121CBB22246641C1E491931F7
:102700008B543046F11706EB1161C1F307232246C3
:10271000641C194919318B54F11706EB1161091228
:10272000A6EB0121CBB22246641C134919318B540C
:10273000214611481930FEF7D7FC07463846F917ED
:1027400007EB1161C1F307232246641C0A491931C2
:102750008B54F91707EB11610912A7EB0121CBB2DA
:102760002246641C044919318B54E1B202481930E5
:1027700001F066FDBDE8F08170100020021200201B
:102780000120374908700020C875FF2035490968C5
:1027900008800020344909680880344909680880A5
:1027A0003349096808803349096808803249096853
:1027B0000880324909680880314909680880314930
:1027C0000968088030480088304909680880304826
:1027D00000883049096808802F4800882F49096817
:1027E00008802F4800882F49096808802E480088F3
:1027F0002E49096808802E4800882E4909680880FB
:102800002D4800882D49096808802D4800882D49E9
:10281000096808802C4800882C49096808802C48E1
:1028200000882C49096808802B4800882B490968D2
:1028300008802B4800882B49096808802A480088AE
:102840002A49096808800020294909680880FF2072
:1028500028490968088000202749096808807047CE
:1028600070100020F0900008F4900008F890000824
:1028700030910008389100083C9100084091000810
:102880004491000848910008AC0300200091000822
:10289000AE03002010910008B0030020149100083E
:1028A000B203002018910008B40300201C91000816
:1028B000B603002034910008CC03002004910008E6
:1028C000D403002008910008DC0300200C910008CC
:1028D000E403002020910008E60300202491000872
:1028E000E803002028910008EA0300202C9100084A
:1028F0004C91000850910008549100087047000066
:1029000070B5002100230F22C47804B3154C24684D
:1029100004F4E064C4F5E064210AC1F10403CA4090
:10292000447804FA03F184781440214309010E4CE1
:102930000678A155047804F01F050124AC40057801
:102940006D11AD0005F1E025C5F8004109E00478FE
:1029500004F01F050124AC40044D0678761145F8BB
:10296000264070BD0CED00E000E400E080E100E0F6
:1029700002490143024A1160704700000000FA0555
:102980000CED00E017480068008810B1012825D13F
:1029900011E0154800881549A1F8A80014480068FE
:1029A00000781149098841EA0030C0F30E0011494E
:1029B0000968088013E0104800880C49A1F8AC00B1
:1029C0000B48006800780C49098841EA003080B261
:1029D00040F4004007490968088000E000BF00BFDC
:1029E000002070473C9100080C0000205801002096
:1029F00034910008AC9000080E00002030B501466C
:102A00001F4C248804EB84044FF6FF7505EA84020A
:102A10001C4C248804EB840405EA84031A4C2488A3
:102A20006442A14203DB184C2488A1421FDD174CED
:102A30002478012C01D1084621E0154C24889442C9
:102A400006DA0846124C2488641C114D2C8016E0CE
:102A50000020104C24889C4205DA0E4C2488641C0B
:102A60000C4D2C800BE00124084D2C7007E008462B
:102A70000024064D2C70064D2C80064D2C8030BD58
:102A8000E0030020E2030020DE030020AA00002073
:102A9000AC000020AE00002010B500F013F800F0EC
:102AA00089FC00F0B1FC00F0D1FC00F059FC00F012
:102AB0002BFC00F065FD00F009FD00F02FFD00F09B
:102AC00002F810BD7047704706480078012808D109
:102AD00005480078FF2804D203480078401C0249CA
:102AE00008707047820300207503002010B5002491
:102AF0001A480078012830D1FDF776FB04461848C3
:102B0000007820B116480078401E15490870144816
:102B10000078F8B913480078E0B900F093FD124846
:102B20001249097850F82100114908600F480078CF
:102B30001049097888420DD00D480068806B401C10
:102B40000B49096888630C480068401C0A49086002
:102B5000FDF769FB2046FDF74BFB10BD820300200B
:102B60007503002076030020601700207803002002
:102B700090030020770300205C03002070B5054619
:102B800000260F48007808B1002070BDFDF72CFB2F
:102B900006460C480468006820B10A48006840688E
:102BA000084908603046FDF723FB3CB10120207046
:102BB000002020816560204600F097FB2046E4E776
:102BC00075030020600300202DE9F04105460E4604
:102BD00000271F48007820B1102030700020BDE889
:102BE000F081FDF701FB07461A4850F8250030B187
:102BF0003846FDF7FDFA282030700020EFE701206D
:102C0000144941F82500144804684CB9002041F8E3
:102C100025003846FDF7ECFA042030702046DEE748
:102C20000D48006840680C4908603846FDF7E0FA36
:102C300004202070FF2040EA0520208100206060F1
:102C4000204600F052FB002030702046C7E700000D
:102C500075030020601700206003002010B50024D9
:102C60000B480078012811D1FDF7BEFA0446094847
:102C7000007840B908480078FF2804D20648007858
:102C8000401C054908702046FDF7B2FA10BD00004F
:102C900082030020750300207603002010B5002475
:102CA00013480078012821D1FDF79EFA0446114807
:102CB0000078C0B10F480078401E0E4908700846E1
:102CC000007860B90C48007828B92046FDF790FAE2
:102CD00000F07EFC0AE02046FDF78AFA06E0204676
:102CE000FDF786FA02E02046FDF782FA10BD0000EB
:102CF00082030020760300207503002070B505468E
:102D000000260F48007808B1002070BDFDF76CFA6E
:102D100006460C480468006820B10A48006840680C
:102D2000084908603046FDF763FA3CB10320207083
:102D3000258100206060204600F0D7FA2046E4E7B5
:102D4000750300206003002010B50B48007890B98F
:102D500000F078FC094800780949087009480749DB
:102D6000097850F8210008490860084600680749BA
:102D70000860FDF740FA10BD8203002078030020B0
:102D800077030020601700209003002088030020B4
:102D900010B50024022000F0F5F9FDF725FA0446ED
:102DA00000200B4908602046FDF722FA192000F0A8
:102DB000E9F9FDF719FA0446054800680549086075
:102DC0000120054908702046FDF712FA10BD0000E9
:102DD000840300206C03002074030020704700006F
:102DE0002DE9FE4F06460F4690461C464FF000095F
:102DF000FDF7FAF981461F48007828B14846FDF7EB
:102E0000F7F93C20BDE8FE8F1B4850F8240060BB5A
:102E10000120194941F824004846FDF7E9F900234B
:102E200042463946304600F009F9824600200090BB
:102E300001900346024651460290204600F018FCDD
:102E4000054635B90D48007801280CD100F0C0FBCB
:102E500009E0FDF7C9F981460020074941F824003F
:102E60004846FDF7C5F92846CCE74846FDF7C0F9C6
:102E70002820C7E775030020601700208203002088
:102E80002DE9F04F85B081468A4693461C46DDE920
:102E90000F78129D00200390FDF7A6F903902348B8
:102EA000007830B10398FDF7A3F93C2005B0BDE8E8
:102EB000F08F1F4850F8240088BB01201C4941F8BE
:102EC00024000398FDF794F92A464146384600F05D
:102ED000DFFC2B465A465146484600F0AFF80490B6
:102EE0001198CDE9008002953A4620460E9B049940
:102EF00000F0BEFB064636B90E48007801280CD11A
:102F000000F066FB09E0FDF76FF903900020084927
:102F100041F824000398FDF76BF93046C6E7FFE758
:102F20000398FDF765F92820C0E70000750300202D
:102F30006017002082030020704770472DE9F041A0
:102F400006460F4614464FF000081548007818B1A1
:102F500012202070BDE8F081FDF746F98046FF2E73
:102F600003D11048006890F832600F4850F826509E
:102F70002DB94046FDF73CF943202070EAE7012DCA
:102F800005D14046FDF734F943202070E2E7EF64B5
:102F90004046FDF72DF90020207000BFDAE7000061
:102FA0007503002088030020601700207047000090
:102FB0002DE9F04707460D464FF0000A0020286033
:102FC0006860FDF711F98246FF2F03D119480068A8
:102FD00090F83270184850F827402CB95046FDF749
:102FE00007F94320BDE8F087012C04D15046FDF7D6
:102FF000FFF84320F6E7207C00F0010020B950469E
:10300000FDF7F6F84520EDE70026D4F80C90D4F84B
:1030100008805046FDF7ECF800E0761C58F8041BD9
:103020000029FAD0B0002860A9EB06008000686093
:103030000020D7E7880300206017002070B5044601
:1030400010464FF080750560051F28462C606FF014
:103050000106051F28462E604FF01236051F284630
:103060002E604FF00336051F28462E604FF00236C3
:10307000051F28462E607610051F28462E60051F66
:10308000284629604FF01136051F28462E604FF064
:103090001036051F28462E604FF00936051F2846BA
:1030A0002E604FF00836051F28462E604FF0073679
:1030B000051F28462E604FF00636051F28462E6055
:1030C0004FF00536051F28462E604FF00436051FC9
:1030D00028462E6070BD00002DE9F04105464FF0F6
:1030E0000008FDF781F88046FF2D05D120480068D3
:1030F00090F83250012608E01D48006890F8320030
:10310000A84201D1012600E000261A4850F82540C7
:103110002CB94046FDF76CF84820BDE8F081012C41
:1031200004D14046FDF764F84320F6E794F8347084
:103130001148C05D94F8351088430F49C8550846BA
:10314000C05D30B994F836100C48007888430B49BC
:10315000087094F8300040F0080084F830004046D1
:10316000FDF746F8012E01D100F032FA0020D4E735
:1031700088030020601700207A03002079030020D4
:103180007047000070B5054600261748007800B16A
:1031900070BD1648007800B1FAE71DB3FDF724F8BA
:1031A00006461348006890F834401248005D104904
:1031B000096891F8351088430E4908550846005DA6
:1031C00040B90B48006890F836100B4800788843E7
:1031D0000949087006480068C5623046FDF708F8DE
:1031E00000F0F6F900BFD3E7750300207603002056
:1031F000880300207A0300207903002070B50026A0
:1032000000F072F8FCF7F0FF064631480068401CF9
:103210002F4908603046FCF7EBFF2E480078012864
:1032200053D12D48007820B1012804D0022809D1BB
:1032300003E001250BE0002509E0012501202649D6
:10324000087004E0012500202349087000BF00BF7A
:1032500005B970BD2148046833E0FCF7C5FF064698
:10326000E06A50B3E06A401EE062E06A28BB94F86E
:10327000300000F0370040B114F8300F00F0C80003
:10328000207001206070303C02E0002084F83100A2
:1032900094F8300000F0080078B93434A078104970
:1032A000097808430E49087020780E49085C617857
:1032B000084314F834190B4A505464693046FCF73B
:1032C00097FF94F832003F28C7D100BFC1E7000044
:1032D000A003002082030020980300209403002014
:1032E000790300207A0300207047014600228A7289
:1032F000002005E0002301F10B021354421CD0B260
:103300000828F7D3704700002DE9F04150211148FB
:1033100000F02CF900250DE0681C86B20D4800EB8A
:10332000051400EB06170020207067600AA0E0601B
:10333000681C85B2042DEFD3064800EB051400206D
:103340002070606004A0E060024804490860BDE8A5
:10335000F0810000101300203F00000064030020F3
:1033600070B5C821114800F001F900230FE0581C86
:1033700085B203EB83000D4901EB800405EB85006A
:1033800001EB8006002020706660581C83B2092B78
:10339000EDD303EB8300054901EB8004002020708E
:1033A000606008460249086070BD000048120020B5
:1033B0006003002000200A4908600A4908700A4991
:1033C00008700A4908700A4908700A4908600A49E1
:1033D00008600A4908600A4908600A49087070478D
:1033E000A003002075030020760300208303002043
:1033F000820300205C03002084030020700300206F
:103400006C0300207403002000210A4A1170002080
:1034100004E00021084A1154411CC8B20828F8D31E
:103420000021064A1170064A1170064A1160064AC8
:1034300011607047790300207A0300207703002091
:1034400078030020900300208803002070B54FF41B
:103450007C71194800F08AF84FF48071174800F029
:1034600085F8002413E0601CC5B2C4EBC40000EB77
:103470004000114901EB8003C5EBC50000EB4000A3
:1034800001EB80065E610EA0D864601CC4B20B2CF8
:10349000E9D3C4EBC40000EB4000074901EB800313
:1034A0000020586106A0D864002006490860024840
:1034B0000549086070BD00006018002060170020FA
:1034C0003F000000940300208C03002000B587B06B
:1034D0000320002180220A4BCDE90132CDE90310FF
:1034E0004FF6FF703F23074A00900748FFF7C8FCDC
:1034F00006AA06A13F20FFF721FD07B000BD00008E
:10350000601500205C170020A537000875432F4F79
:10351000532D49492049646C6500000000B587B00F
:103520000320002180220A4BCDE90132CDE90310AE
:103530004FF6FE703E23074A00900748FFF7A0FCB5
:1035400006AA06A13E20FFF7F9FC07B000BD000067
:10355000601300205C150020CD37000875432F4F05
:10356000532D4949205374617400000004E0002287
:1035700000F8012B4A1E91B20029F8D170470000D3
:103580002DE9F04178211048FFF7F0FF00240DE00D
:10359000601C86B204EB44000B4901EBC00506EB4E
:1035A000460001EBC0072F60601C84B2042CEFD3EF
:1035B00004EB4400044901EBC005002028600846E4
:1035C00002490860BDE8F081501C00209C030020E7
:1035D00010B50024FCF708FE044613480078F8B93B
:1035E00012480078E0B900F02DF811481149097827
:1035F00050F82100104908600E4800780F490978FA
:1036000088420DD00C480068806B401C0A4909684C
:1036100088630B480068401C09490860FCF7FCFD02
:103620002046FCF7E5FD10BD750300207603002061
:10363000601700207803002090030020770300200B
:103640005C0300200649074A1278885C0649095C39
:10365000034A515C01EBC001044A1170704700003D
:1036600058930008790300207A0300207803002093
:103670002DE9F84F05460F4690469946DDE90AAB1D
:1036800000200090FCF7B0FD00903F480468002C3B
:1036900074D0183454F8040C3B4908600098FCF7C7
:1036A000A7FD44F8187CA57600202076607660613E
:1036B00044F814BC44F80CAC44F8108C0C9824F872
:1036C000080C24F8069C0020E077E810207705F02D
:1036D0000700E076217F01208840A077E17E01206D
:1036E0008840607700206060E060A0602062A06297
:1036F0006062E062206325A06063183C002606E05B
:10370000002104F1500040F82610701CC6B2002EB3
:10371000F6D02046FFF762FB2046FFF70DFCFCF7D2
:1037200063FD00901A4840F825401A48006860611F
:103730000020A0611748006810B116480068846135
:10374000144804603434A0781349097808431249B6
:10375000087020781149085C6178084314F834191E
:103760000E4A50540E480078401C0D4908700098CD
:10377000FCF73EFD0020BDE8F88FFFE70098FCF75E
:1037800037FD4220F7E700008C0300203F000000D7
:103790006017002094030020790300207A030020A2
:1037A00083030020002400BF00BFFCF71DFD04467A
:1037B00005480068401C044908602046FCF718FDD5
:1037C000FFF7BBFBF1E7000084030020002400BFEB
:1037D00002E03220FFF7D6FC194800780028F8D024
:1037E000184800686421B0FBF1F0164908600846EB
:1037F000006828B9002014490870FF20FFF76CFC0E
:1038000000BFFCF7F1FC044610480068104908604E
:1038100000200E4908602046FCF7EAFC0C480068CE
:1038200008490968B0FBF1F0C0F16400064908706E
:10383000FFF7BCFB00F00EF81920FFF7A3FCE0E750
:10384000740300206C030020680300208403002020
:10385000700300207CB5002514E069462846FFF778
:10386000A7FB064666B9094850F8254044B1012C2B
:1038700006D0D4E9020100EB810060640198A064E5
:10388000681CC5B23F2DE8D97CBD00006017002040
:1038900002F0010343B102F002032BB102E0491E22
:1038A000002308C00029FAD1704700002DE9F0413B
:1038B00000206A49096808606849096848606749E2
:1038C000096888604FF07C5064490968C8606349A2
:1038D0000968C86805F024F906460022604B04F028
:1038E000E5FC044604F0FCFB5C4909680861012022
:1038F0005A490968087559490968C86805F010F9F6
:1039000006460022574B04F0EDFE044604F0E8FBA7
:10391000524909688861002050490968C8614F49C7
:10392000096808624D49096848624F49096808609A
:103930004D49096848604C49096888604A490968E6
:10394000C8604A48484909680861494846490968C1
:103950004861012044490968087646484249096897
:10396000C86100204049096808623F490968486207
:103970003D49096888624049096808603E4909680C
:1039800048603D49096888603B490968C860374814
:103990003949096808613648374909684861012092
:1039A000354909680876334833490968C8610020F9
:1039B0003149096808623049096848622E49096836
:1039C00088622E49096808602C49096848602B49BB
:1039D0000968886029490968C86029482749096831
:1039E0000861284825490968486101202349096878
:1039F00008764FF07C5021490968C86100201F49B2
:103A0000096808621D49096848621C49096888629A
:103A10001D49096808601C49096848601A49096815
:103A2000886019490968C8614FF0814016490968E2
:103A3000C8601648144909680861012012490968DC
:103A40000875134810490968886100200E49096803
:103A500008620D4909684862BDE8F081D80000207D
:103A60000080514000001440D4000020000020429B
:103A70009A99193F00002041DC000020E00000205E
:103A80009A99993ECDCCCC3DE40000200AD7A33DC5
:103A90000000404010B501F0C1FD01F0C3FCFEF78D
:103AA0006FFE10BD2DE9FF5F044689466149D1F8DC
:103AB000A010098801EB81015E4A52F821100988A3
:103AC000D2F8A020128802EB82025A4B03EB82024A
:103AD00052681288881A04F09EFD05460E46554924
:103AE000D1F8A010098801EB8101524A52F8211047
:103AF0000988081B04F08FFD074600224E4B04F096
:103B0000F1FD2A463346CDE9000104F0CFFB8246A1
:103B100004F0E6FA02900021029805F017F901D2AC
:103B200000200290029804F0FBFF05460022424B61
:103B300004F0D6FE01D241480290029805F0BEF88A
:103B4000643800B23E4908803A49D1F8A01009888B
:103B500001EB8101374A02EB810189680988D2F8BB
:103B6000A020128802EB8202324B03EB8202D26861
:103B70001288881A04F04FFD05460E462D49D1F8EB
:103B8000A010098801EB81012A4A02EB81018968B2
:103B90000988A1EB090004F03EFD82460022264B75
:103BA00004F0A0FD07462A46334604F07FFBCDE92A
:103BB000000104F095FA02900021029805F0C6F881
:103BC00001D200200290029804F0AAFF05460022CC
:103BD000194B04F085FE01D218480290029805F0B6
:103BE0006DF8643800B2174908801748C079072873
:103BF00003D1002004B0BDE8F09F1448B0F90000E4
:103C00004FF47A7148431249B1F9001090FBF1F07A
:103C10001049088010480078012802D102F074FF92
:103C200004E003F089F90546FEF738FA039003989B
:103C3000E0E7000058010020000069400000484310
:103C4000A6000020A800002044040020C803002093
:103C5000CA030020A4000020500100202DE9F04FED
:103C600087B006460C466648008805F05BF8824639
:103C700064480068C168504605F09CF807466048F3
:103C8000008805F04FF882465E480068016950469A
:103C900005F090F880465A48008805F043F88246BF
:103CA000584800688169504605F084F8814614251B
:103CB000304605F01FF8534909680862284605F0A8
:103CC00019F882464F480068016A504605F03EF9EF
:103CD0001AD8684205F00EF882464A480068016A20
:103CE000504605F033F80FD8012046490968087599
:103CF000444A1268116A434A1268D06904F03CFFD2
:103D000040490968C86106E000203E490968087515
:103D10003C490968C8613B490968086A002104F008
:103D200099FF07D10020374909684860354909687B
:103D3000C86134E0334A1268516A324A1268106A24
:103D400005F036F98346494605F034F82D490490CC
:103D50000968087D04F0E6FF4146019005F02AF865
:103D6000834628480068C169584605F023F8039047
:103D700024480068016A384605F01CF8029003994F
:103D800004F0FAFE8246049904F0F6FE059004F071
:103D900095FF069004F0AEFF1A4909684860204676
:103DA00004F0A8FF8246174800684168504604F0B6
:103DB000CDFF05D2204604F09DFF124909684860F6
:103DC000604204F097FF82460E4800684168504602
:103DD00005F0BCF805D2604204F08CFF094909687F
:103DE000486008480068006A064909684862054951
:103DF0000968486804F062FF07B0BDE8F08F000072
:103E0000B8030020D800002070B506462648008878
:103E100040102649098800EB6105234805802348A6
:103E2000C28829463046FDF72FFB2149086021480A
:103E3000407968B90024FCF7F3FE1F481F49086069
:103E40001F4908601F49086000201A4908712AE0CC
:103E500017480068002808DD15480468642C00DA5B
:103E6000642401201349C87110E01148006800283B
:103E700009DA0F4800684442642C00DA6424FF2009
:103E80000C49C87102E00024FCF7CAFE0E490C8000
:103E9000091D0C80091D0C800648007918B9642C96
:103EA00001DBFCF795FE70BDA000002002000020A1
:103EB0009C0000208800002020A10700480000206E
:103EC0004400002040000020342C01400146002026
:103ED000034A506820F44040084350607047000097
:103EE0000010024029B1064A52690243044B5A614C
:103EF00004E0034A52698243014B5A617047000053
:103F00000010024029B1064AD2690243044BDA612B
:103F100004E0034AD2698243014BDA617047000032
:103F20000010024029B1064A12690243044B1A618B
:103F300004E0034A12698243014B1A617047000092
:103F40000010024029B1064A92690243044B9A616B
:103F500004E0034A92698243014B9A617047000072
:103F60000010024029B1064AD2680243044BDA60CD
:103F700004E0034AD2688243014BDA6070470000D4
:103F80000010024010B500F03BF84FF4803000F014
:103F9000F9F800BF312000F0C3F80028FAD0102053
:103FA000FDF7ACFD0220FDF7D7FD002000F0DEF8A4
:103FB000002000F019F94FF4806000F009F94FF487
:103FC000E0114FF4803000F021F9012000F018F9E1
:103FD00000BF392000F0A4F80028FAD0022000F039
:103FE00023F900BF00F0BAF80828FBD101210846E8
:103FF000FFF778FF01217D20FFF7A4FF10BD00002F
:104000000F48006840F001000D490860084640680C
:104010000C4908400A494860084600680A490840B7
:10402000074908600846006820F4802008600846B8
:10403000406820F4FE0048604FF41F00886070471D
:10404000001002400000FFF8FFFFF6FE30B500212F
:104050000022002400232D4D6D6805F00C0121B1D4
:10406000042905D0082923D105E0294D056022E067
:10407000274D05601FE0254D6D6805F47012234D36
:104080006D6805F48034022505EB92421CB9214D80
:10409000554305600BE01D4D6D6805F400351DB1FD
:1040A0001C4D5543056002E0194D5543056002E083
:1040B000174D056000BF00BF144D6D6805F0F0019D
:1040C0000909154D6B5C0568DD4045600F4D6D6855
:1040D00005F4E061090A104D6B5C4568DD408560C0
:1040E0000A4D6D6805F46051C90A0B4D6B5C45685B
:1040F000DD40C560054D6D6805F44041890B074DF5
:104100006B5CC568B5FBF3F5056130BD001002407E
:1041100000127A0000093D004703002057030020E9
:1041200010B501460022002300204A11012A02D1C5
:10413000094C236806E0022A02D1074C236A01E0F9
:10414000054C636A01F01F02012494401C400CB12D
:10415000012000E0002010BD00100240024840682D
:1041600000F00C00704700000010024001460020E3
:10417000034A506820F0F000084350607047000088
:10418000001002401149096821F480310F4A116082
:104190001146096821F480211160B0F5803F03D0F9
:1041A000B0F5802F0ED106E00849096841F480314E
:1041B000064A116007E00549096841F4A021034A55
:1041C000116000E000BF00BF704700000010024017
:1041D00001460020034A506820F4E0600843506024
:1041E000704700000010024001460020034A50685A
:1041F00020F4605040EAC100506070470010024057
:104200000149086670470000000042420246002053
:10421000044B586820F47C1042EA01031843014B18
:10422000586070470010024001460020034A506861
:1042300020F0030008435060704700000010024067
:1042400070B505460C46224629460348FCF726F879
:104250002046FDF74FFA70BDF409002010B5044662
:104260002146094800F012F821460748103000F0B6
:104270000DF821460448203000F008F82146024895
:10428000303000F003F810BDEC00002070B504469B
:104290000D46A07A4006000EA07221896068FDF7E5
:1042A00059FD10B9A07A401CA072A07A00F0070056
:1042B000072802D10120E07205E0A07A00F0070093
:1042C00008B90020E072207BE17A884203D02946B9
:1042D0002046FDF755FEE07A207370BD10B5FBF760
:1042E00083FF04466A225949594800F09DFE204642
:1042F000FBF77EFF554800885649088053484088A0
:104300005549088051488088544908804F48C088E2
:10431000534908804D480089524908804B484089DC
:104320005149088049488089504908804748C089D8
:104330004F4908804548008A4E4908804348408AD2
:104340004D4908804148808A4C4908803F48C08ACE
:104350004B4908803D48008B4A4908803B48408BC8
:10436000494908803948808B484908803748C08BC4
:10437000474908803548008C464908803348408CBE
:10438000454908803148808C00B2444908802F4854
:10439000C08C00B2424908802C48008D41490880F9
:1043A0002A48408D404908802848808D3F49088030
:1043B0002648C08D3E4908802448008E3D4908802B
:1043C0002248408E3C4908802048808E3B49088026
:1043D0001E48C08E3A4908801C48008F3949088021
:1043E0001A48408F384908801848808F374908801C
:1043F0001648C08F364908801448B0F84000354947
:1044000008801248B0F84200334908800F48B0F8DD
:104410004400324908800D48B0F846003049088011
:104420000A48B0F848002F4908800848B0F84A0008
:104430002D4908800548B0F84C002C4908800348F5
:10444000B0F84E002A49088010BD0000DE0A0020A6
:1044500000000108A4030020A6030020A8030020F8
:10446000AA030020AC030020AE030020B00300200C
:10447000B2030020B4030020B6030020B8030020DC
:10448000BA030020BC030020BE030020C0030020AC
:10449000C2030020C4030020C6030020C80300207C
:1044A000CA030020CC030020CE030020D00300204C
:1044B000D2030020D4030020D6030020D80300201C
:1044C000DA030020DC030020DE030020E0030020EC
:1044D000E2030020E4030020E6030020E8030020BC
:1044E000EA030020EC030020EE030020F00300208C
:1044F000F203002010B5FBF777FE04466A22584904
:10450000584800F091FD2046FBF772FE54480088A1
:10451000554908805248408854490880504880884E
:10452000534908804E48C088524908804C48008949
:10453000514908804A484089504908804848808944
:104540004F4908804648C0894E4908804448008A3F
:104550004D4908804248408A4C4908804048808A3A
:104560004B4908803E48C08A4A4908803C48008B35
:10457000494908803A48408B484908803848808B30
:10458000474908803648C08B464908803448008C2B
:10459000454908803248408C444908803048808C26
:1045A000434908802E48C08C424908802C48008D21
:1045B000414908802A48408D404908802848808D1C
:1045C0003F4908802648C08D3E4908802448008E17
:1045D0003D4908802248408E3C4908802048808E12
:1045E0003B4908801E48C08E3A4908801C48008F0D
:1045F000394908801A48408F384908801848808F08
:10460000374908801648C08F364908801448B0F8EA
:104610004000354908801248B0F84200334908800C
:104620000F48B0F84400324908800D48B0F8460001
:10463000304908800A48B0F848002F4908800848E7
:10464000B0F84A002D4908800548B0F84C002C49C4
:1046500008800348B0F84E002A49088010BD0000C9
:10466000480B002000080108F4030020F603002096
:10467000F8030020FA030020FC030020FE030020C2
:10468000000400200204002004040020060400208E
:10469000080400200A0400200C0400200E0400205E
:1046A000100400201204002014040020160400202E
:1046B000180400201A0400201C0400201E040020FE
:1046C00020040020220400202404002026040020CE
:1046D000280400202A0400202C0400202E0400209E
:1046E000300400203204002034040020360400206E
:1046F000380400203A0400203C0400203E0400203E
:10470000400400204204002010B59F480068008843
:1047100010B101287ED198E09C48006800789C493F
:10472000098841EA0030C0F30E009A490968088000
:1047300000F02AFE9848B0F8A8009749B1F8A610F2
:10474000401A7D2838DD944890F8A40001287BD1D8
:104750009148B0F8A8008D490968098801EB8101EA
:104760008D4A52F8211008801046B0F8A6008749FB
:104770000968098801EB810102EB81014968088021
:1047800082480068008800EB8000114601EB800041
:104790000069008840F002007C490968098801EB43
:1047A000810102EB81010969088002F0BFFC002051
:1047B000794981F8A40010BD7748B0F8A80076497F
:1047C000B1F8A610401A10F17D0F3BDA724890F84C
:1047D000A400012838D17048B0F8A6006B490968D8
:1047E000098801EB81016C4A52F8211008801046BB
:1047F000B0F8A80065490968098801EB810102EB5E
:1048000081014968088061480068008800EB8000E9
:10481000114600E0B3E001EB80000069008840F041
:1048200002005A490968098801EB810102EB810104
:104830000969088002F07AFC0020574981F8A40039
:10484000B9E701E00120B6E79BE050480068007836
:104850005249098841EA003080B240F400404D4995
:104860000968088000F0B6FD4B48B0F8AC004A4932
:10487000B1F8AA10401A7D2839DD474890F8A40005
:1048800001287BD14448B0F8AC0040490968098848
:1048900001EB8101404A02EB8101896808801046E2
:1048A000B0F8AA0039490968098801EB810102EBD7
:1048B0008101C968088035480068008800EB8000E5
:1048C000114601EB80000069008840F001002F498B
:1048D0000968098801EB810102EB810109690880FF
:1048E00002F024FC00202C4981F8A40063E72A4848
:1048F000B0F8AC002849B1F8AA10401A10F17D0FA9
:104900003ADA254890F8A400012837D12248B0F8B7
:10491000AA001E490968098801EB81011E4A02EBC1
:104920008101896808801046B0F8AC001749096811
:10493000098801EB810102EB8101C96808801348F5
:104940000068008800EB8000114601EB80000069E0
:10495000008840F001000D490968098801EB8101D8
:1049600002EB81010969088002F0E0FB00200A499E
:1049700081F8A4001FE701E001201CE701E001200D
:1049800019E700BF00BF16E73C910008349100080A
:104990000C000020AC900008580100200E00002000
:1049A00010B5002240F22441164802F017FA002107
:1049B0001548FCF729FF4FF40070FCF709FF124877
:1049C000FCF7D4FFC0F1800010498875002406E090
:1049D0000F48015D0D48401C0155601CC4B20B48D6
:1049E000807DA042F4DC80200749303948630121F2
:1049F0000548FCF709FF012240F22441014802F07A
:104A0000EDF910BD00480040300002407010002059
:104A10007409002010B5002240F22441164802F02B
:104A2000DDF900211548FCF7EFFE4FF40010FCF70C
:104A3000CFFE1248FCF79AFFC0F18000104988753C
:104A4000002406E00F48015D0D48401C0155601C24
:104A5000C4B20B48807DA042F4DC802007496C3949
:104A6000086701210548FCF7CFFE012240F22441EE
:104A7000014802F0B3F910BD004400406C00024050
:104A8000701000207408002010B5FBF7ADFB044641
:104A90006A225049504800F0C7FA2046FBF7A8FBAD
:104AA0004C4800884D4908804A4840884C49088055
:104AB000484800894B490880464840894A4908804F
:104AC00044488089494908804248C089484908804B
:104AD0004048008A474908803E48408A4649088045
:104AE0003C48808A454908803A48C08A4449088041
:104AF0003848008B434908803648408B424908803B
:104B00003448808B414908803248C08B4049088036
:104B10003048008C3F4908802E48408C3E49088030
:104B20002C48008D3D4908802A48408D3C4908802A
:104B30002848808D3B4908802648C08D3A49088026
:104B40002448008E394908802248408E3849088020
:104B50002048808E374908801E48C08E364908801C
:104B60001C48008F354908801A48408F3449088016
:104B70001848808F334908801648C08F3249088012
:104B80001448B0F84000314908801248B0F842009B
:104B90002F4908800F48B0F844002E4908800D487E
:104BA000B0F846002C4908800A48B0F848002B4964
:104BB00008800848B0F84A00294908800548B0F83C
:104BC0004C00284908800348B0F84E002649088068
:104BD00010BD0000740A002000040108A403002096
:104BE000A6030020AC030020AE030020B003002089
:104BF000B2030020B4030020B6030020B803002055
:104C0000BA030020BC030020BE030020C003002024
:104C1000C2030020C4030020C6030020CC030020F0
:104C2000CE030020D0030020D2030020D4030020B4
:104C3000D6030020D8030020DA030020DC03002084
:104C4000DE030020E0030020E2030020E403002054
:104C5000E6030020E8030020EA030020EC03002024
:104C6000EE030020F0030020F20300202DE9F84FAE
:104C700005460E461446684204F03CF8544909685B
:104C8000086254480068A04203D0002050490968D7
:104C9000C8614F490968086A4F4904F057F87AD843
:104CA0004B490968086A4D4904F050F973D84849DE
:104CB0000968086A4A4904F049F808D8444909686B
:104CC000086A484904F042F901D8012000E00020B8
:104CD0003F49096808753E4A1268116A3C4A1268E1
:104CE000D06903F049FF3A490968C861384A126837
:104CF000516A374A1268106A04F05AF981463448FA
:104D000000688169484604F055F80746304909684B
:104D1000087D04F007F883462D480068016958466D
:104D200004F048F882462A480068C169504604F0F9
:104D300041F88146264A1268116A254A1268D068ED
:104D400004F038F84946009003F016FF80463946D3
:104D500003F012FF1E4909684860304603F0CAFF9D
:104D600007461B4800684168384603F0EFFF05D24C
:104D7000304603F0BFFF16490968486014490968C6
:104D80004868002103F0E2FF12D2002010490968B0
:104D900048600DE0FFE70E490968086A104904F011
:104DA000D5F805D2304603F0A5FF094909684860E7
:104DB00007480068006A06490968486205480460B7
:104DC00003490968486803F079FFBDE8F88F0000DF
:104DD000E4000020E80000200000FA430000FAC3CD
:104DE0000000C8420000C8C22DE9F84F814688463D
:104DF0008548008800EBC00101EB0015834800885E
:104E000000EB800046008248008800EB80004700ED
:104E100007F11E0BA6F11E0000904FF0000A0024BF
:104E20007C48008800287DD17B4800887B49096840
:104E3000A0EB010A7A480068B0F1FF3F02D00128D8
:104E400071D140E074480088B84213DC75480068AE
:104E5000401C7449086008460068A84201D200243A
:104E600030E000206F4908606D48006840426C499E
:104E7000086027E000206B490860674800885845B3
:104E80001ADC65480088B84216DDBAF1000F0CDA6A
:104E90006348006840F6B83148435F490988C91B38
:104EA00048431E2190FBF1F40CE05D48006840F699
:104EB000B83100FB01F405E05948006840F6B8310C
:104EC00000FB01F446E054480088B04213DB55482B
:104ED0000068401C5349086008460068A84201D297
:104EE000002434E000204F4908604D4800684042EB
:104EF0004B4908602BE000204A4908604648018879
:104F0000009881421DDB44480088B04219DABAF1AA
:104F1000000F0FDD4248006840F6B83148433E4973
:104F2000098801E01CE013E0711A48431E2190FB40
:104F3000F1F40CE03A48006840F6B83100FB01F4A7
:104F400005E03748006840F6B83100FB01F401E0A5
:104F5000002400BF00BF304800883049086050E09E
:104F60002F480068B0F1FF3F02D0012846D122E06F
:104F7000B9F1000F13DD2B480068401C2949086077
:104F800008460068A84201D2002413E00020254909
:104F90000860234800684042214908600AE0204830
:104FA00040F6B83102684846FFF760FE1C490968C0
:104FB00000FB01F424E0B8F1000F13DD194800688C
:104FC000401C1849086008460068A84201D2002425
:104FD00013E000201349086011480068404210495E
:104FE00008600AE00E4840F6B83102684046FFF714
:104FF0003DFE0B49096800FB01F401E0002400BFFD
:1050000000BF2046BDE8F88FD6030020D80300205B
:10501000DA030020D4030020A4000020B400002004
:10502000B0000020B800002030B504460D46002333
:1050300007E0204600F00BF825F81300A41C581CCC
:1050400083B202EBD271B3EB610FF2DB30BD0146EC
:10505000088870472DE9F05F80468A461746B8F108
:10506000006F02D33348804501D3BDE8F09FFCF7C1
:105070007FFDA8F1006B4FEA9B25CBF34809C9F5EA
:105080000074A74200DC3C464DE04FF0006101EBAC
:1050900085208A142849FFF7C7FF00260BE009EB9B
:1050A0000600254931F810004FF6FF71884200D004
:1050B00003E0701C86B2A642F1DB00BFA6421BDAF9
:1050C0004FF0006101EB8520FCF7CEFC002608E0E4
:1050D0003AF8160006EB0901174A22F81100701C75
:1050E00086B2A642F4DB4FF0006101EB85208A1402
:1050F000114900F023F804E022465146404600F0F2
:105100001DF8A74200D10FE06D1C4FF000090AEB1B
:10511000440AA044381B87B2B7F5007F02DD4FF484
:10512000007400E03C46B0E700BFFCF7DDFC00BFC8
:105130009BE70000000002089A0B00202DE9F041D7
:1051400005460E461746002407E036F81410284698
:10515000FCF7E2FCAD1C601C84B2BC42F5DBBDE890
:10516000F081704710B54648008846490880464897
:105170000088488045480088888045480088C88065
:105180004448008808814448008848814348008892
:10519000888143480088C881424800880882424884
:1051A0000088488241480088888241480088C88237
:1051B0004048008808834048008848833F4800886A
:1051C00088833F480088C8833E48008808843E485A
:1051D000008848843D48008888843D480088C88409
:1051E0003C48008808853C48008848853B48008842
:1051F00088853B480088C8853A48008808863A4830
:105200000088488639480088888639480088C886DA
:105210003848008808873848008848873748008819
:10522000888737480088C88736480088A1F840003A
:1052300035480088A1F8420034480088A1F84400AD
:1052400033480088A1F8460032480088A1F8480099
:1052500031480088A1F84A0030480088A1F84C0085
:105260002F480088A1F84E00FAF7BEFF04466A22D4
:1052700004492C48FFF7EEFE2046FAF7B9FF10BDAF
:10528000A4030020DE0A0020A6030020A8030020BB
:10529000AA030020AC030020AE030020B0030020CE
:1052A000B2030020B4030020B6030020B80300209E
:1052B000BA030020BC030020BE030020C00300206E
:1052C000C2030020C4030020C6030020C80300203E
:1052D000CA030020CC030020CE030020D00300200E
:1052E000D2030020D4030020D6030020D8030020DE
:1052F000DA030020DC030020DE030020E0030020AE
:10530000E2030020E4030020E6030020E80300207D
:10531000EA030020EC030020EE030020F00300204D
:10532000F2030020000001081449B1F90010144AEA
:10533000B2F90020891A48101049B1F90010104A3A
:10534000B2F90020891A05D400F07F010D4A1268D5
:10535000118007E041424FF47E5202EAC111094A2E
:1053600012681180074909680988C1F30D0141F4E9
:105370000041044A1268118070470000A800002014
:10538000A6000020A89000081048B0F900000028EE
:1053900007DB0E48007800F07F000D49096808809F
:1053A0000AE00A48B0F9000040424FF47E5101EA99
:1053B000C010074909680880054800680088C0F3E4
:1053C0000D0003490968088070470000A60000200E
:1053D000A89000081148B0F90000002807DB0F482A
:1053E000007800F07F000E49096808800AE00B4849
:1053F000B0F9000040424FF47E5101EAC010084964
:1054000009680880064800680088C0F30D0040F471
:10541000804003490968088070470000A800002008
:10542000A890000840F65A7043490880A5204349D7
:10543000088040F65A7042490880A52041490880FA
:1054400003204149088040F65A7040490880A52051
:105450003F49088040F65A703E490880A5203E49E1
:10546000088000203D49088040F65A703C49088079
:10547000A5203C49088040F65A703B490880A52089
:105480003A49088000203A49088040F65A70394964
:105490000880A5203849088040F65A7037490880AE
:1054A000A5203749088000203649088040F65A7008
:1054B00035490880A5203549088040F65A7034499E
:1054C0000880A5203349088000203349088040F631
:1054D0005A7032490880A5203149088040F65A7038
:1054E00030490880A5203049088000202F490880D5
:1054F00040F65A702E490880A5202E49088040F6B3
:105500005A702D490880A5202C49088000202C497C
:10551000088040F65A702B490880A5202A49088047
:1055200040F65A7029490880A520294908800020A2
:105530002849088070470000F4030020F60300208B
:10554000F8030020FA030020FC030020FE030020E3
:1055500000040020020400200404002006040020AF
:10556000080400200A0400200C0400200E0400207F
:10557000100400201204002014040020160400204F
:10558000180400201A0400201C0400201E0400201F
:1055900020040020220400202404002026040020EF
:1055A000280400202A0400202C0400202E040020BF
:1055B000300400203204002034040020360400208F
:1055C000380400203A0400203C0400203E0400205F
:1055D00040040020420400200D48B0F900003221B0
:1055E00001EB60000B490988322202EB610140EABD
:1055F000C110094909680880074800680088C0F39D
:105600000D0040F4404004490968088070470000DC
:10561000A8000020A6000020A89000084EF65560C3
:1056200037490880002037490880374908803749C2
:1056300008803749088037490880374908800120A9
:1056400036490880002036490880364908802820DD
:1056500035490880012035490880502034490880A8
:105660004FF4E160334908803349088033490880AA
:105670000A2033490880052032490880C820324971
:1056800008804FF4FA7031490880002030490880C2
:105690005F203049088032202F49088005202F499B
:1056A000088001202E4908805F202E4908800120B3
:1056B0002D4908800F202D49088000202C490880A2
:1056C00002202C4908805A202B4908800A202B49A7
:1056D000088000202A4908802A4908802A49088031
:1056E0002A49088032202A490880642029490880F4
:1056F000142029490880502028490880704700005C
:10570000A4030020A6030020A8030020AA03002071
:10571000AC030020AE030020B0030020B203002041
:10572000B4030020B6030020B8030020BA03002011
:10573000BC030020BE030020C0030020C2030020E1
:10574000C4030020C6030020C8030020CA030020B1
:10575000CC030020CE030020D0030020D203002081
:10576000DC030020DE030020E0030020E203002031
:10577000D4030020D6030020D8030020DA03002041
:10578000E4030020E6030020E8030020EA030020F1
:10579000EC030020EE030020F0030020F2030020C1
:1057A00010B500F001F810BD0CB50020019000907C
:1057B0003348006840F480303149086000BF304809
:1057C000006800F4003000900198401C019000989F
:1057D00018B90198B0F5A06FF1D12948006800F41C
:1057E000003010B10120009001E0002000900098EE
:1057F000012843D12348006840F010002149086087
:105800000846006820F0030008600846006840F081
:10581000020008601A484068194948600846406814
:1058200048600846406840F4806048600846406828
:1058300020F47C1048600846406840F4E810486056
:105840000846006840F08070086000BF0C4800689F
:1058500000F000700028F9D00948406820F00300EB
:10586000074948600846406840F00200486000BFB1
:105870000348406800F00C000828F9D10CBD000076
:10588000001002400020024001460B48008881427F
:1058900006DC094800884042814201DB0020704755
:1058A00005480088814203DD03480088081AF6E7AE
:1058B000014800880844F2E7BA0300201B4800684A
:1058C000008810B101282DD115E019480088194928
:1058D000A1F8A6001848006800781549098841EA2F
:1058E0000030C0F30E0015490968088001201149F5
:1058F00081F8A40017E0124800880E49A1F8AA0018
:105900000D48006800780E49098841EA003080B2ED
:1059100040F400400949096808800120054981F8E0
:10592000A40000E000BF00BF002070473C910008C9
:105930000C0000205801002034910008AC900008B1
:105940000E0000202DE9F04704460D46002C7DD0C6
:10595000601B03F0CFF9654909680862634909686B
:10596000086A4FF0804103F0F1F912D25F490968EB
:10597000086A4FF0404103F0E9FA0AD200205B497F
:105980000968086259480068C06858490968486051
:1059900065E056480068416A4FF0804003F00AFA1B
:1059A0008146524A1268916A504A1268106A03F09E
:1059B000E3F88246494603F0FBFA80464B4800680C
:1059C000C169404603F0F6F90646484A1268116A72
:1059D000464A1268506903F0EDF98146434A12685D
:1059E000516A424A1268106A03F0E2FA82463F485E
:1059F00000680169504603F0DDF98046494603F02E
:105A0000BBF80746314603F0B7F8384909688860A3
:105A1000364A12689168354A1268D06803F0ACF8CB
:105A2000324909684860204603F064F907462F4868
:105A300000684168384603F0BDF90646002103F0CE
:105A400085F90CD2002C02DD012102E037E04FF095
:105A5000FF31084603F04EF924490968486023499C
:105A600009684868224903F071FA04D820481F49A0
:105A7000096848600AE01D49096848681D4903F043
:105A800065F903D81B481949096848601748006838
:105A9000406A16490968886214480068006A134918
:105AA0000968486211480068406810490968C86080
:105AB0000E48006840680D49096808600FE0002042
:105AC0000A490968C86009490968086207490968FC
:105AD0004862064909688862044909680860034900
