:020000040800F2
:1000000018230020E9010008753A0008352E000881
:10001000D5340008A9220008D7800008000000009D
:10002000000000000000000000000000BF630008A6
:10003000B72A00080000000077020008DD6C000805
:10004000DD80000803020008030200080302000824
:100050000302000803020008B92A0008030200088E
:1000600003020008030200080302000881260008BA
:10007000A926000803020008030200080302000882
:100080000302000881270008030200080302000899
:10009000030200080302000803020008030200082C
:1000A000996F000803020008030200089D6F000812
:1000B00003020008BD6F00082D710008030200084C
:1000C00003020008030200080302000803020008FC
:1000D0000302000803020008B97D00084D7E0008F5
:1000E00003020008030200080302000800F002F8FF
:1000F00000F06AF80AA090E8000C82448344AAF158
:100100000107DA4501D100F05FF8AFF2090EBAE855
:100110000F0013F0010F18BFFB1A43F0010318473B
:1001200004A8000024A800000A444FF0000C10F8B6
:10013000013B13F0070408BF10F8014B1D1108BF65
:1001400010F8015B641E05D010F8016B641E01F805
:10015000016BF9D113F0080F1EBF10F8014BAD1C55
:100160000C1B09D16D1E58BF01F801CBFAD505E073
:1001700014F8016B01F8016B6D1EF9D59142D6D3CD
:10018000704700000023002400250026103A28BFF5
:1001900078C1FBD8520728BF30C148BF0B607047F9
:1001A00066290AF08C81642900F0CC800020704719
:1001B0001FB500F083FC04000020002109F06CF959
:1001C000E0601FBD10B510BD00F091FD1146FFF7B6
:1001D000EFFF08F08BFE00F0AFFD03B4FFF7F2FF76
:1001E00003BC00F0F3FD00000948804709480047C0
:1001F000FEE7FEE7FEE7FEE7FEE7FEE7FEE7FEE7D7
:10020000FEE7FEE704480549054A064B7047000033
:10021000F96C0008ED000008181D002018230020CC
:10022000181F0020181F0020EFF3108072B67047CF
:1002300080F310887047204C204D25604FF000045B
:1002400084F309881E4C4FF0010525701D4C4FF0BA
:100250008055256062B6FEE730B41A4C4FF08055E9
:10026000256030BC704730B4164C4FF08055256087
:1002700030BC704700BF72B6EFF3098028B1203858
:1002800080E8F00F10490968086000B50F48804702
:100290005DF804EB0E480F490A7802700A480E49CF
:1002A0000A680260106890E8F00F203080F3098837
:1002B0004EF0040E62B6704720ED00E00000FFFF34
:1002C0002204002004ED00E02804002095430008EB
:1002D0001704002018040020300400200FB4044943
:1002E00010B503AA029800F0A1FB10BC5DF814FB46
:1002F0002C01002070B5044685690068C10601D54F
:10030000302600E02026C00707D070BDD4E90121C7
:1003100030469047206A401C20626D1EF6D570BDA5
:1003200070B5044685690078C00707D170BDD4E96F
:10033000012120209047206A401C20626D1EF6D5C6
:1003400070BD00002DE9F0410646002410687529B3
:10035000314616A510D0AFF30080002802DA4042E3
:1003600013A507E031688A0701D512A502E0490705
:1003700004D511A5012401E0AFF3008000210A2279
:1003800006F1240709E0B0FBF2FCB0FBF2F302FB3C
:100390001C00303078541846491C0028F3D12346FD
:1003A0002A463046BDE8F04100F0D7B80000000012
:1003B0002D0000002B000000200000002DE9F04778
:1003C0004FF0000A89460446C0F820A02046E168A4
:1003D0008847002876D0252806D0D4E90121904707
:1003E000206A401C2062F1E7E1682046002588472A
:1003F000C4F81CA006460027C4F818A02A2E09D06D
:10040000304608F0E9F838B304EB8708303EC8F806
:10041000186019E059F8041B204604EB870291612B
:10042000E1688847012F064618D1E069002820DAE4
:1004300025F020051DE0D8F8180000EB800006EB41
:1004400040003038C8F818002046E1688847064662
:1004500008F0C2F80028EED1012F0AD02E2E08D1C4
:100460002046E16888477F1C0646022F45F020059C
:10047000C4DBA069002803DA404245F00105A06111
:10048000E80701D025F01005B6B1A6F14100192802
:1004900002D8203645F400654A463146204625609C
:1004A0004D46FFF77DFE58B1012806D0ED1D25F021
:1004B000070000F1080989E704E005F1040985E770
:1004C00030468AE7206ABDE8F087032A40F2308090
:1004D00010F0030C00F0158011F8013BBCF1020F85
:1004E000624498BF11F801CB00F8013B38BF11F806
:1004F000013BA2F1040298BF00F801CB38BF00F81D
:10050000013B11F0030300F0A382083AC0F0088019
:1005100051F8043B083A51F804CBA0E80810F5E77D
:10052000121D5CBF51F8043B40F8043BAFF3008060
:10053000D20724BF11F8013B11F801CB48BF11F8D5
:10054000012B24BF00F8013B00F801CB48BF00F8A5
:10055000012B70477047704770472DE9F0470D46F3
:1005600099469246044600F124080168880604D59D
:10057000E06921F01001216000E00120A84201DDC6
:10058000471B00E00027A1697A1902EB0900081A4D
:10059000A0612078C00602D42046FFF7ABFE0026FB
:1005A00008E0D4E901211AF806009047206A401CAF
:1005B000761C20624E45F4DB2078C0060AD5204622
:1005C000FFF798FE06E0D4E9012130209047206A29
:1005D000401C2062381EA7F10107F4DC07E0D4E9D3
:1005E000012118F805009047206A401C2062281E4F
:1005F000A5F10105F3DC2046FFF792FE2078000606
:1006000002D50220BDE8F0870120FBE770472DE905
:10061000FF4F0C461E464FF0FF378BB0D2E900016A
:10062000DDF860800A908A46C1F30A5505B93D4657
:10063000002108464FF00000BAF1000F00F440001E
:1006400005DA00EB80004FF4400101EA50004FEA68
:100650009059B9F1010F00DDB9460A9850EA4A00F5
:100660000ED044F61050A5F2FF3545432F14B8F1D3
:10067000000F1ED07542291E1EDDC9F100021CE0CC
:10068000B8F1010F4FF0000001D0302103E0F24338
:1006900005E02154401CB042FBDB30460022002123
:1006A00021540B99C1F80880C1E900200FB0BDE8C2
:1006B000F08FBD1B6D1CDEE74A4600DA694206A8D2
:1006C00000F09EFA06AB93E8070003AB83E807004F
:1006D00050460A9900F080FB8DE80700A0F5005015
:1006E0001F3800900398002D0ADD42F21F014A4690
:1006F0000844002303A90390684600F0E9FD09E0DF
:10070000A0F500504A461F38002303A9039068460D
:1007100000F0F3FD8DE807000004000C03D04FF05B
:10072000FF30410800E01046B8F1000F03D000226E
:10073000009215461EE0751E05D400F0C3F9303254
:1007400062556D1EF9D5B3460122084302D000223E
:100750007F1C04E02078302801D100227F1E002A6F
:10076000099784D01DE0112D07DA00F0ABF9303283
:1007700062556D1C50EA0102F5D1084302D0009881
:10078000C8B10EE00021681E05E0235C625C635482
:100790002254401E491C8142F7DBAB46A81B401E79
:1007A0000990002004F80B000B98099AC0F8088003
:1007B000C0E9002B7AE711264FF0000857E72DE932
:1007C000F04F88460446D21D22F0070191B0D1E9CE
:1007D0000001CDE90A0107F0EBFE02460B98C00FBD
:1007E00001D02D2007E02068810701D52B2002E0F1
:1007F000202101EAC000032A099001D0072A05DB65
:1008000003464146204600F0BBF90BE12078800604
:1008100001D5E06900E00620B8F1650F814606D0F9
:10082000B8F1660F18D0B8F1670F70D131E0002031
:10083000B9F1110F009001DB112301E009F101036F
:100840000AAA01A90CA8FFF7E2FEDDE90C70002658
:1008500009F10105834647E001204B4600904FF027
:1008600000470AAA01A90CA8FFF7D1FEDDE90DB0E7
:100870000C995D46002610B909F101000D18B9EB7D
:10088000050003D4C0F1FF3609F10105A5EB09000D
:100890002BE0B9F1010F01DA4FF001090020B9F1A5
:1008A000110F0090484601DD112300E003460AAA1B
:1008B00001A90CA8FFF7ABFEDDE90C704D46002640
:1008C0008346207800070AD4AB4500DA5D4601A8CC
:1008D000012D04DD411911F8011C302907D04F45C5
:1008E00002DA17F1040F04DA012082460FE06D1ED0
:1008F000EEE7002F02DCED1B3E4403E0781CA8422B
:1009000000DD7D1CB81B00F1010A4FF00047207884
:10091000000703D4AA4501DB4FF0FF3A0021B7F1ED
:10092000004F0DF143088DF8431024D002202B23F3
:10093000002F01DA7F422D230A21021EA0F10100BF
:1009400000DC5FB197FBF1FC97FBF1F201FB1C7C33
:1009500017460CF1300C08F801CDEEE7A8F10100C4
:1009600003702188090501D5452100E06521A0F12A
:10097000010800F8011C09980FA9A1EB0807FF1D49
:1009800000B10120411901EBEA70A1693844081A4D
:10099000401EA0612078C00602D42046FFF7AAFCC2
:1009A000099828B1D4E901219047206A401C2062AF
:1009B0002078C00622D52046FFF79CFC1EE0002EC2
:1009C00004DBB34502DD01A8805D00E03020D4E9FE
:1009D00001219047206A401C2062761CAAF1010088
:1009E0005FEA000A0AD100F069F8C0680168405C5B
:1009F000D4E901219047206A401C2062281EA5F1FD
:100A00000105DCDC07E0D4E9012118F8010B90476F
:100A1000206A401C2062381EA7F10107F3DC204643
:100A2000FFF77EFC032011B041E60000074B70B5D4
:100A30000D467B4400F091F80446284600F052F938
:100A400010B14FF0FF3070BD204670BD237D000017
:100A500010B5203AC0F00B80B1E81850203AA0E859
:100A60001850B1E81850A0E81850BFF4F5AF5FEA8D
:100A7000027C24BFB1E81850A0E8185044BF18C940
:100A800018C0BDE810405FEA827C24BF51F8043BE7
:100A900040F8043B08BF7047D20728BF31F8023B3B
:100AA00048BF11F8012B28BF20F8023B48BF00F8CF
:100AB000012B704700487047B81C00200048704761
:100AC000D81C002030B5B0F10A024FEA900E71F147
:100AD00000034EEA817EB0EB0E0061EB91014FEA1C
:100AE000101E4EEA017E10EB0E0041EB11114FEA91
:100AF000102E4EEA016E10EB0E0041EB11214FEA71
:100B0000104E4EEA014E10EB0E0041EB1141401821
:100B100041F100014FEAD00040EA41704FEAD101B3
:100B200010EB80054FEA810444EA907444EB010421
:100B30006D1944EB0404521BA3414FF0000348BF5E
:100B40000A3200D530BD401C41F1000130BD00002B
:100B500001694A1C02610878704700B58FB0CDE981
:100B600001310021059105497944CDE90310114671
:100B70006846FFF723FC0FB000BD0000E5FFFFFF54
:100B80002DE9F0411F46044603260168072A01F4B7
:100B9000006004DB08B116A505E016A503E008B166
:100BA00015A500E015A521F010002060A069C01E69
:100BB000A0610FB1401EA0612046FFF79BFB4FB123
:100BC000D4E9012138469047206A401C2062C01CAD
:100BD000206206E0206AFAE7D4E9012115F8010B4A
:100BE0009047761EF8D22046FFF79AFBBDE8F081C9
:100BF0004E414E006E616E00494E4600696E6600C1
:100C00002DE9F047814616468AB0354878440DC82C
:100C10008DE80D0032487844801C03AC0DC884E890
:100C20000D0041F69B300844372190FBF1F290FB18
:100C3000F1F5A5F1800501FB12041B3C02D56442CD
:100C4000012000E00020DFF898A080460027FA4449
:100C5000AAF1BE0A0EE0E0070AD03246684607EB6A
:100C6000470101230AEB810100F047FB8DE80700F3
:100C700064107F1C002CEED1194F7F44AE3F19E069
:100C8000E80715D007EB04100DF1180A90E80E00E4
:100C90008AE80E00C068F04201D1981908903246E7
:100CA000012306A903A800F028FB03AB83E8070093
:100CB0006D10641C002DE3D14FF0010332466946EC
:100CC000B8F1000F03A802D000F002FB01E000F031
:100CD00014FBC9E90001C9F808200AB0BDE8F08793
:100CE000FC9C0000007B00F0800070477047754658
:100CF000FFF7E0FEAE4605006946534620F00700C8
:100D0000854618B020B5FFF77DFABDE820404FF0CA
:100D100000064FF000074FF000084FF0000B21F0E5
:100D20000701AC46ACE8C009ACE8C009ACE8C009B2
:100D3000ACE8C0098D46704710B50446AFF300809B
:100D40002046BDE81040FFF748BA00004FF0013CD4
:100D500050F8042B51F8043B9A4221D1A2EB0C032A
:100D6000934313EACC1317D150F8042B51F8043BEA
:100D70009A4215D1A2EB0C03934313EACC130BD187
:100D800050F8042B51F8043B9A4209D1A2EB0C0312
:100D9000934313EACC13DBD04FF00000704700BF41
:100DA000D01A01BAB1FA81F101F0180122FA01F06A
:100DB000CB40C1F12001DBB2C0B2C01A2CFA01F362
:100DC000D11A914311EAC311E6D1704701491820A5
:100DD000ABBEFEE7260002005FEA400C08BF91F0C0
:100DE000000F4FEA8C234FEAC12243EA51514FEAE8
:100DF0001C5018BF00F5F0404FEA300018BF41F01A
:100E000000415FEA6C5C00F02980BCF1FF3F08BF45
:100E100040F080407047130C06BF12044FF0100CD6
:100E20004FF0000C130E04BF12020CF1080C130F4C
:100E300004BF12010CF1040C930F04BF92000CF1DB
:100E4000020CD30F04BF52000CF1010C11464FF0FD
:100E50000002A0F11F00A0EB0C00704711F0004F42
:100E600008BF704731F000413FF4D5AF0B0C06BF0F
:100E700009044FF0100C4FF0000C0B0E04BF0902D8
:100E80000CF1080C0B0F04BF09010CF1040C8B0FC3
:100E900004BF89000CF1020CCB0F04BF49000CF118
:100EA000010CCCF12003A0EB0C0022FA03F302FAB0
:100EB0000CF241EA030100F10100704720F07F4C81
:100EC00080EA030023F07F47ACEB070303F57C5374
:100ED00000F0004003F1FF032DE980494FEA154B74
:100EE00009B44FEA144325EA0B4E24EA03480FF2F3
:100EF000042606EB132749083E785FEA320203FB1B
:100F00000667C7F5000707FB06F64FEA54374FEAB6
:100F1000D64606F1020607FB066CCCF1005C4FEAF0
:100F20001C472CEA074C07FB06F40CFB06F504EB08
:100F300015464FEA961634BF00204FF000404FEAA6
:100F4000D13706FB07FC4FEA1C4C0CFB0BF7D21BFE
:100F500003FB0CF761EB07010CFB0EF7B0EB07404E
:100F600072EB17420CFB08F734BFA2EB0742B2EB5F
:100F7000074261EB17414FEA0C444FEA910706FB29
:100F800007FC4FEA1C4C0CFB0BF7B0EBC74072EBB5
:100F9000573203FB0CF734BFA2EBC742B2EBC74298
:100FA00061EB57310CFB0EF7B0EBC70072EB5772D9
:100FB0000CFB08F734BFA2EBC702B2EBC70261EB30
:100FC0005771039F4FEA816141EA921104EBCC040F
:100FD0004FEAD1374FEA826206FB07FC42EA9012E1
:100FE0004FEA80604FEA1C4C0CFB0BF7D21B03FB53
:100FF0000CF761EB07010CFB0EF7B0EB074072EB4F
:1010000017420CFB08F734BFA2EB0742B2EB0742D2
:1010100061EB17414FEA8C554FEA910704EB9C2492
:1010200006FB07FC4FEA1C4C0CFB0BF7B0EBC74070
:1010300072EB573203FB0CF734BFA2EBC742B2EBA3
:10104000C74261EB57310CFB0EF7B0EBC70072EBF8
:1010500057720CFB08F734BFA2EBC702B2EBC70212
:1010600061EB577115EB4C254FEA816141EA921112
:101070004FEA82624FEAD13742EA901206FB07FC40
:1010800044F100044FEA80604FEA1C4C0CFB0BF764
:10109000D21B03FB0CF761EB07010CFB0EF7B0EB67
:1010A000074072EB17420CFB08F734BFA2EB074274
:1010B000B2EB074261EB174115EB1C154FEA81318A
:1010C00041EA92414FEA823242EA90424FEA80304E
:1010D0004FEA0C7644F1000448EA03434EEA0B4819
:1010E0004FF0000EB2EB080C71EB030724BF624611
:1010F00039464EEB0E0E4FF0000B0018524149419D
:101100004BEB0B0BB2EB080C71EB03077BF1000B05
:1011100024BF624639464EEB0E0E4FF0000B00180E
:10112000524149414BEB0B0BB2EB080C71EB03073F
:101130007BF1000B24BF624639464EEB0E0E51EA9E
:10114000020718BF46F0010616EB0E7655F10002B5
:1011500054F1000103D5BDE88901BDE80088BDE870
:101160008901BDE80048B619524141EB0101A3F1E4
:101170000103704780807F7E7D7C7B7A79787776EB
:1011800076757473727171706F6E6E6D6C6C6B6A64
:101190006A69686867666665646463636261616002
:1011A000605F5F5E5E5D5D5C5C5B5B5A5A5959587F
:1011B00058575756565555555454535352525251E9
:1011C000515050504F4F4F4E4E4D4D4D4C4C4C4B3F
:1011D0004B4B4A4A4A494949484848474747474686
:1011E00046464545454444444443434343424242C2
:1011F00042414141002B9C4630D477002BD01CB596
:101200004FEA370703B44FF010004FF01001BAF166
:10121000000F06D0BCF1000FDCBF40F0080040F02A
:1012200008014FF000000FBCBDE810400BF1010BAE
:10123000BBF1010F08BF5FEA170722BF12F10102DD
:1012400011F101014FF0004143F1000300F00040B3
:1012500043EA00007047F9D35708D0E746EA06464C
:1012600013F1400F4FEA16461FDD13F1200FDFBFC9
:1012700016430A46002120335B42BED0C3F120074B
:1012800046EA064602FA07F74FEA164646EA070616
:10129000C3F1200722FA03F201FA07F721FA03F15A
:1012A0004FF0000342EA0702A7E746EA020646EAD1
:1012B00006464FEA164646EA0106BCBF46EA06461F
:1012C000360C4FF000034FF000024FF0000194E79E
:1012D0002DE9804C9A46934670B491E8380007C8CF
:1012E00031EA400C48BF34EA430C03D5FFF7E6FD72
:1012F000FFF780FFF0BCBDE8008C2DE9804C9A46DA
:10130000934670B491E8380007C810F0804F08BFCA
:1013100013F0804F03D100F005F8FFF76BFFF0BC2E
:10132000BDE8008C20F07F4780EA030023F07F4C6B
:1013300007EB0C03A3F57C5300F00040A3F1FE0380
:1013400092F0000F00F0B38095F0000F00F077806E
:101350002DE901494FEA11404FEA144621EA0048BD
:1013600000FB06FC24EA064708FB06F607FB08F824
:1013700000FB07F718EB06484CEB164C4FEA124BF4
:1013800018EB07484FEA15464CEB174022EA0B4E84
:101390000BFB06FC25EA06470EFB06F607FB0EFED6
:1013A0000BFB07F71EEB064E4CEB164C4FF00006FE
:1013B0001EEB074E4CEB174B18EB0B0840F10000EF
:1013C00018EB0E0B58EB000840F100008F1A4FF09D
:1013D00000013CBFC943661B14BFB5EB040C0021E0
:1013E0003CBFC943F61B4FEA17444EEA8E0E27EA6C
:1013F00004454FEA1C4704FB07622CEA074C05FB37
:1014000007F70CFB05F604FB0CFC16EB074642EB5A
:10141000174216EB0C4642EB1C421BEB060658EB40
:101420000202414146EA9E0601D5BDE80189B6198E
:10143000524141EB0101A3F10103BDE801894FEAEB
:1014400014454FEA114724EA054621EA074C05FBFB
:1014500007F406FB07F70CFB06F105FB0CFC11EB90
:10146000074144EB17444FEA124711EB0C4144EBA0
:101470001C4422EA074C05FB07F206FB07F70CFBAE
:1014800006F605FB0CFC16EB074642EB174216EB83
:101490000C4642EB1C456A1854F1000148BF7047E6
:1014A000B619524141EB0101A3F10103704795F0D8
:1014B000000F37D04FEA11424FEA144721EA0246A3
:1014C00024EA074C02FB07F106FB07F70CFB06F4C6
:1014D00002FB0CFC14EB074441EB17414FEA1547A4
:1014E00014EB0C4441EB1C4125EA074C02FB07F5C9
:1014F00006FB07F70CFB06F602FB0CFC16EB074697
:1015000045EB174516EB0C4645EB1C42121951F101
:10151000000148BF7047B619524141EB0101A3F1E8
:10152000010370474FEA14454FEA114724EA054684
:1015300021EA074C05FB07F106FB07F70CFB06F257
:101540004FF0000605FB0CFC12EB074241EB174184
:1015500012EB0C4251EB1C4148BF7047921841EB13
:101560000101A3F10103704721B1826842F0010239
:10157000826003E0826822F001028260704721B13C
:10158000826842F48072826003E0826822F4807292
:1015900082607047014600208A6802F004020AB1A6
:1015A000012000E000207047014600208A6802F018
:1015B00008020AB1012000E00020704730B5024661
:1015C0000020002350680F4C20400D790C6844EA3D
:1015D00005242043506090680B4C2040D1E9025410
:1015E0002C434D7944EA450420439060D06A20F4AE
:1015F00070000C7C641EE4B2234340EA0350D062C6
:1016000030BD0000FFFEF0FFFDF7F1FFF0B504462E
:101610000D4600200021092D11DDE068A5F10A0624
:1016200006EB4607072606FA07F18843A5F10A06E6
:1016300006EB460603FA06F10843E0600CE0206979
:1016400005EB4507072606FA07F1884305EB450633
:1016500003FA06F108432061072A0FDA606B561E71
:1016600006EB86071F2606FA07F18843561E06EB8F
:10167000860605FA06F10843606322E00D2A0FDAB8
:10168000206BD61F06EB86071F2606FA07F1884354
:10169000D61F06EB860605FA06F10843206310E024
:1016A000E06AA2F10D0606EB86071F2606FA07F18F
:1016B0008843A2F10D0606EB860605FA06F10843FB
:1016C000E062F0BD816841F008018160704721B19E
:1016D000826842F4A002826003E0826822F4A002E1
:1016E00082607047816841F00401816070470000AA
:1016F00000B591B04FF4004003F0A8FC01214FF475
:10170000047003F0DFFC0F20ADF8400000208DF8DE
:10171000430010A93D4801F096FA3D4801F0CCF88D
:101720003C4800903C480190002002900420039027
:1017300000200490802005904000069080000790D3
:10174000202008900002099000200A906946304845
:1017500001F091F9012202212D4801F083F90121C4
:101760002B4801F09DF800200B9001208DF83000EF
:1017700000208DF831004FF460200D9000200E9075
:1017800004208DF83C000BA922484C38FFF716FFC7
:10179000032301220A211F484C38FFF737FF032398
:1017A00002220B211B484C38FFF730FF03231A4657
:1017B0000C2118484C38FFF729FF032304220D2180
:1017C00014484C38FFF722FF012112484C38FFF72C
:1017D000D6FE01210F484C38FFF7C6FE0D484C38A5
:1017E000FFF770FF00BF0B484C38FFF7DDFE002805
:1017F000F9D108484C38FFF775FF00BF05484C3851
:10180000FFF7C8FE0028F9D111B000BD001001405B
:10181000080002404C240140AA00002070B58A480C
:101820000068008808B1012000E000200546874CD0
:10183000207801280CD186480068008800EB400120
:10184000201D00EB8100406800886080002020702F
:10185000804800780A287CDD7B48006800880128E1
:101860001ED17B480068008800EB4001201D00EB82
:1018700081004068018876480068008800EB4002DB
:10188000201D00EB82000089014471480068008837
:1018900000EB4002201D00EB82004088814200DD09
:1018A000C5B96B4B1B681B8803EB4306231D03EB79
:1018B00086031A7A664B1B681B8803EB4306231DBD
:1018C00003EB86035968604B1B6818882B4600F0B1
:1018D000C7F83BE05C480068008802281DD15C48DE
:1018E0000068008800EB4001201D00EB810040688B
:1018F000018857480068008800EB4002201D00EB7B
:1019000082000089091A52480068008800EB4002F2
:10191000201D30F82200814200DABDB94C4B1B6813
:101920001B8803EB4306231D03EB86031A7A484BFF
:101930001B681B8803EB4306231D03EB86035968D2
:10194000414B1B6818882B4600F08AF8002041495B
:1019500008703F480068008820B13D480068008852
:10196000182813D13A480068008800EB4001201D78
:1019700000EB81004068008800EB80004FF6FF71AB
:1019800001EA400034490968088031E030480068C5
:101990000088122809D02E4800680088162804D034
:1019A0002B480068008817280FD129480068008854
:1019B00000EB4001201D00EB81004068008800F52D
:1019C000487025490968088012E0214800680088AD
:1019D00000EB4001201D00EB81004068008800EB17
:1019E00080004FF4487101EB40001B4909680880F2
:1019F0001A4800680088022814D114484188144805
:101A00000068008800EB40021048001D00EB8200D7
:101A10004068018001200D490870FF200C490968C9
:101A200008800AE00D4800680088012805D10749B0
:101A30000870FF2006490968088006480078401CA5
:101A40000449087070BD000020A50008B402002001
:101A500018A50008E60300200CA5000824A500082E
:101A600030B5012B36D1012802D0022830D117E041
:101A70001C4C247834B901241A4D2C700C88144461
:101A80000C800CE0184C2478072C05DA164C2478CE
:101A9000641C154D2C7002E00C8814440C8018E076
:101AA000104C247834B901240E4D2C700C88A41AE3
:101AB0000C800CE00C4C2478072C05DA0A4C2478B6
:101AC000641C094D2C7002E00C88A41A0C8000E004
:101AD00000BF05E023B90024024D2C70024D2C708C
:101AE00030BD0000E5030020E403002007285FD29A
:101AF000DFE800F05E4F3140130422000121344A38
:101B00001160344AC2F8A81143F20401324A11802C
:101B100000212F4A121D116058E001212C4A11604A
:101B20002C4AC2F8A8114FF450512B4A11800021C1
:101B3000274A121D116049E00121254A121D11603A
:101B4000244AC2F8A8114FF45051234A11800021B1
:101B50001F4A11603AE001211D4A121D11601D4A01
:101B6000C2F8A8114FF441511B4A11800021184AB4
:101B700011602BE00121164A1160164AC2F8A41127
:101B80004FF44151144A11800021114A083211606A
:101B90001CE001210E4A11600E4AC2F8A41143F262
:101BA00004010D4A11800021094A083211600DE03C
:101BB0004FF44051084A11800121054A1160054A3D
:101BC000C2F8A411024A0832116000BF00BF70477A
:101BD000A001214200002142202C0140072861D2AF
:101BE000DFE800F060513342130423000121364A3C
:101BF0001160364AC2F8A8114FF44151344A11809D
:101C00000021314A121F11605BE001212E4A121F90
:101C100011602E4AC2F8A4114FF441512C4A118090
:101C20000021294A121D11604BE00121264A121F92
:101C30001160264AC2F8A41143F20401244A11801B
:101C40000021214A121D11603BE001211E4A121F92
:101C500011601E4AC2F8A81143F204011C4A118007
:101C60000021194A11602CE00121174A121F11604E
:101C7000164AC2F8A8114FF45051154A118000219C
:101C8000114A11601DE001210F4A11600F4AC2F88C
:101C9000A8114FF450510E4A118000210A4A121F18
:101CA00011600EE04FF44051094A11800121064AAB
:101CB000121F1160054AC2F8A411034A121D1160D7
:101CC00000BF00BF70470000A40121420000214274
:101CD000202C014008B54FF47060ADF800001020D2
:101CE0008DF8030003208DF8020069460E4800F0CD
:101CF000AAFF4FF46040ADF8000018208DF80300F3
:101D000003208DF802006946084800F09CFF4FF45C
:101D1000E070ADF8000048208DF8030069460448E3
:101D200000F091FF08BD000000080140000C0140D8
:101D30000010014000B500230F488068C0F38213F3
:101D4000012B17DB062B15DC01200C490871084616
:101D500090F90700401C18B91846FFF7C7FE06E0C7
:101D60000648C079012802D11846FFF737FF002046
:101D70000349088000BD0000001001403801002028
:101D80002404004000200749088000BF00BF002055
:101D9000054908600549C1F8A401034908310860F4
:101DA00070470000202C0140A00121420000214288
:101DB00000B58BB00121C80203F084F9424805F058
:101DC000DBFB0220ADF820004020ADF8220040F2FD
:101DD000AF40ADF824000020ADF826008DF82800B3
:101DE00008A9394805F0C6FE6020ADF810000020B3
:101DF000ADF81200ADF814004FF41670ADF81600EF
:101E00000020ADF81800ADF81A00ADF81C00ADF8D0
:101E10001E0004A92C4805F003FD4FF41670ADF820
:101E2000160004A9284805F051FD4FF41670ADF8CE
:101E3000160004A9244805F0A9FD7020ADF8100093
:101E40000020ADF812000A20ADF816000220ADF80F
:101E5000180004A91C4805F0F3FD4FF40060ADF82C
:101E600000004010ADF802008010ADF804007820AA
:101E7000ADF806000020ADF80800ADF80A00ADF896
:101E80000C006946104805F049FB08210E4805F092
:101E900013FD08210C4805F06BFD08210A4805F0E8
:101EA000C5FD0121084805F058FB1021064805F042
:101EB00045FB0121044805F044FB012210210248A2
:101EC00005F0A4FC0BB000BD002C014000B58BB0A8
:101ED0000121022003F0D6F80121354800F03EFF31
:101EE000344805F049FB4720ADF820000020ADF84C
:101EF000220042F20F70ADF824000020ADF8260059
:101F00008DF8280008A92B4805F034FE0020ADF814
:101F10001400ADF816000320ADF818000020ADF84D
:101F20001A000A20ADF81C0005A9224805F018FC8B
:101F30000020ADF80400ADF8060042F21070ADF8D4
:101F40000A000020ADF80C0001A91A4805F078FD40
:101F50000121184805F0B2FD4021164805F0BAFDF0
:101F60000421144805F0D1FD8021124805F0BBFD85
:101F70005021104805F0C0FD0E48103000884FF683
:101F8000EF7108400B4910310880084600884FF671
:101F9000BF7108400749103108800121054805F04C
:101FA000D0FA01225021034805F030FC0BB000BDEF
:101FB000000C1A00000400400EB50121042003F0BB
:101FC00061F8124805F0D8FA4720ADF8000000206B
:101FD000ADF8020040F69F70ADF804000020ADF8A7
:101FE00006008DF808006946084805F0C3FD012188
:101FF000064805F0A3FA0121044805F0A2FA0122DF
:102000001146024805F002FC0EBD00000008004029
:1020100010B503F077F806F0F7FA00F04DFFFFF780
:1020200059FEFFF7C5FEFFF751FFFFF7C5FF02F0AE
:1020300047FD4FF4E13007F0EFF84FF4E13007F0DF
:1020400091F9FFF755FB4FF4FA6006F00BFB002403
:1020500005E00020084921F81400601CC4B20B2CD4
:10206000F7DB002404E0002004490855601CC4B2DA
:102070000C2CF8DB10BD0000440400205A040020A2
:1020800010B501204949088049480088494908801D
:1020900049480088488049480088088148480088A5
:1020A000488148480088888147480088C881474857
:1020B000008808824648008848824648008888820E
:1020C00045480088C88245480088088344480088FD
:1020D000488344480088888343480088C88343482D
:1020E00000880884424800884884424800888884E0
:1020F00041480088488541480088888540480088D4
:10210000C8854048008808863F48008848863F4880
:10211000008888863E480088C8863E480088088730
:102120003D48008848873D48008888873C480088AB
:10213000C8873C480088A1F840003B480088A1F8C7
:1021400042003A480088A1F8440039480088A1F8C4
:10215000460038480088A1F8480037480088A1F8B0
:102160004A0036480088A1F84C0035480088A1F89C
:102170004E0034480088A1F8500033480088A1F888
:10218000520032480088A1F8540031480088A1F874
:102190005600FEF749F804466A2206492D4804F025
:1021A00087F82046FEF744F810BD00000400002028
:1021B00000000020740A0020020000200800002017
:1021C0000A0000200C0000200E000020100000205B
:1021D000120000201400002016000020180000202B
:1021E0001A0000201C0000201E00002020000020FB
:1021F00022000020240000202A0000202C000020C3
:102200002E0000203000002032000020340000208A
:1022100036000020380000203A0000203C0000205A
:102220003E0000204000002042000020440000202A
:1022300046000020480000204A0000204C000020FA
:102240004E000020500000205200002054000020CA
:10225000560000200004010810B5104800680088EE
:1022600048B10E4800680088012804D00B48006877
:102270000088022811D10020094908804FF47A70A3
:1022800006F0F0F9054909680A88064951F8220064
:102290008047FF2001490968088010BD3CA500085F
:1022A00006000020E401002000BFFEE770B50246F2
:1022B0000C46FF25FF2309E012F8010B80EA050117
:1022C0000648405C80EA03050548435C201EA4F1F3
:1022D0000106B4B2F0D143EA052070BD90A5000814
:1022E00090A600082DE9F04705460C46284607F061
:1022F00013FF69490968086267490968086A6749FC
:1023000007F036FF7ED864490968086A644908F016
:102310002FF8F7D860490968086A4FF0804107F044
:1023200027FF15D85C490968086A4FF0404108F05A
:102330001FF80DD8002058490968486059480078AE
:10234000012804D1032057494870002008708AE012
:1023500051480068416A4FF0804007F03DFF8146D8
:102360004D4A1268916A4C4A1268106A07F0F6FDED
:102370008246494608F02EF8804647480068C16901
:10238000404607F029FF0646434A1268116A424A4E
:102390001268506907F020FF81463F4A1268516A6F
:1023A0003D4A1268106A08F015F882463A480068FB
:1023B0000169504607F010FF8046494607F0CEFD00
:1023C0000746314607F0CAFD334909688860324A3A
:1023D00012689168304A1268D06807F0BFFD2E4934
:1023E00009684860204607F097FE06462A480068BC
:1023F0004168304607F0BCFE08D2204607F08CFE4C
:10240000254900E014E0096848602CE0604207F0CC
:1024100083FE0646204800684168304607F0A8FF62
:1024200021D2604207F078FE1B49096848601AE033
:1024300019490968086A194907F09AFF06D2204627
:1024400007F06AFE1449096848600CE012490968FF
:10245000086A134907F08CFE05D2604207F05CFE63
:102460000D49096848600C480068406A0A490968D3
:10247000886209480068006A074909684862064896
:102480000068406804490968C860034909684868E9
:1024900007F006FEBDE8F0878C01002000004842EE
:1024A000000048C2F00100202DE9F04F87B004463B
:1024B0008B469146002006906648008800EB80001D
:1024C00040000590644800886421484304906148B6
:1024D000008807F0A9FA07464FF033325F4B07F048
:1024E000F3FA05460E46584607F09EFA2A4633464A
:1024F000CDE9000107F01CFCCDE9020107F020FA4C
:10250000574908605448008800EB4001C1EB401077
:10251000ABEB800053490860204600F074FC824613
:102520005148007801280FD14D480068002809DD86
:10253000059883B24A4851460268204600F0EAFDF9
:1025400006905EE006945CE048480078002845D19B
:102550002CB94749088047490880069051E0444813
:10256000008844F6206188421FDA41480088401CF8
:102570003F4908803B480068002811DD06203E499D
:1025800088713C480088401C3A490880049883B20E
:10259000344851460268204600F0BCFD069030E009
:1025A00006940020344988712BE03248008842F2BA
:1025B000107188420BDB0020069001202B49087027
:1025C00007202D49C8712D48C0F800A000E00694EE
:1025D0000020284908802649088012E02748006822
:1025E00082450CD0BAF1000F09D02448006830B100
:1025F00000202149C87106941C49087001E00020A0
:10260000069040F2EC50814508DC40F22E408145B6
:1026100004DB002018498872C87216E040F2EC50C2
:10262000814502DD0A201449887240F22E4081451E
:1026300002DA0B201049C8720020069040F22D20CB
:10264000814502DC72B603F0BBFE069807B0BDE818
:10265000F08F0000220000202400002033332740A8
:102660008801002084010020F00100207C0100206E
:102670007E010020800100205A0400207801002003
:1026800010B5022000F0D8F948B1012000F0FAF8A6
:102690000348006802F060FC01200249087010BD88
:1026A000E0000020F400002010B5FDF7BDFD044659
:1026B00012480078401C114908702046FDF7B8FD0B
:1026C000202000F0B9F9A8B1002240F224410C48C2
:1026D00005F06AFC012240F22661094805F064FC1D
:1026E0000021084800F0DCF8202000F0CBF8102092
:1026F00000F0C8F801F004FB10BD00001504002034
:10270000004800401C00024010B5044600BF2021D4
:10271000194805F012FC0028F9D104B910BD00BF1A
:10272000164800F06FF90028FAD10021134800F094
:10273000B7F82146114800F0BCF901210F4800F01C
:10274000AFF800BF202000F061F90028FAD000BFE8
:102750004021094805F0F1FB0028F9D04021064846
:1027600005F0BEFB202000F07FF80021034800F0B8
:1027700097F800BFD2E70000004800401C0002406C
:1027800010B5FDF751FD044613480078401C12496E
:1027900008702046FDF74CFD4FF0007000F04CF93A
:1027A000B8B1002240F224410C4805F0FDFB0122A3
:1027B00040F22661094805F0F7FB0021084800F0C7
:1027C0006FF84FF0007000F05DF84FF0807000F08F
:1027D00059F801F095FA10BD15040020004400409E
:1027E0008000024010B5044600BF20211C4805F0BF
:1027F000A4FB0028F9D104B910BD00BF194800F0AE
:1028000001F90028FAD106F08BFB0021154800F0F1
:1028100047F82146134800F04CF90121114800F017
:102820003FF800BF4FF0007000F0F0F80028F9D03A
:1028300000BF40210A4805F080FB0028F9D0402164
:10284000074805F04DFB4FF0007000F00DF8002137
:10285000044800F025F806F05BFB00BFCCE7000061
:10286000004400408000024000F0805111B1034953
:10287000086001E00249486070470000040402401B
:102880000000024000F0805111B10349086001E0EE
:102890000249486070470000040402400000024002
:1028A00021B1026842F00102026004E002684FF6C2
:1028B000FE731A400260704701684FF6FE721140C5
:1028C00001600021016041608160C1604B49884224
:1028D00008D14A490839496841F00F01474A083A86
:1028E00051608AE045491431884208D1434908398A
:1028F000496841F0F001414A083A51607DE03F49A2
:102900002831884208D13D490839496841F470614D
:102910003A4A083A516070E038493C31884208D15F
:1029200036490839496841F47041344A083A5160DF
:1029300063E032495031884208D13049083949684A
:1029400041F470212D4A083A516056E02B49643118
:10295000884208D129490839496841F47001274A59
:10296000083A516049E025497831884208D1234925
:102970000839496841F07061204A083A51603CE0EA
:102980001F49884206D1011F096841F00F01021F4B
:10299000116032E01A491431884208D11849091FE0
:1029A000096841F0F001164A121F116025E0144930
:1029B0002831884208D11249091F096841F4706121
:1029C0000F4A121F116018E00D493C31884208D1AE
:1029D0000B49091F096841F47041094A121F11602F
:1029E0000BE007495031884207D10549091F0968A2
:1029F00041F47021024A121F116070470800024022
:102A0000080402400146486880B270470146002031
:102A1000002201F0805313B1054B1A6801E0054B09
:102A20001A6802EA01030BB1012000E000207047A0
:102A3000000402400000024001460020002201F094
:102A4000805313B1054B1A6801E0054B1A6802EA7E
:102A500001030BB1012000E0002070470004024098
:102A6000000002401AB103680B43036002E00368F0
:102A70008B430360704710B50022026847F6F0737D
:102A80009A430C6A8B6823430C6923434C692343A4
:102A90008C692343CC6923434C6A23438C6A2343C8
:102AA0001A430260CB6843600B6883604B68C36065
:102AB00010BD41607047704710B5012000F014F858
:102AC00040B14021044800F09CF903F079FC01205A
:102AD00000F004F810BD0000001401400149086036
:102AE000704700001404014001460020034A1268A8
:102AF0000A400AB1012000E00020704714040140A0
:102B000030B5044604254FF4302000F089F805461E
:102B1000042D17D10C48006940F002000A490861F1
:102B200008464461006940F0400008614FF43020DD
:102B300000F076F805460448006941F6FD7108404A
:102B400001490861284630BD0020024004200B499D
:102B5000C96801F0010109B101200EE00749C96807
:102B600001F0040109B1022007E00449C96801F03D
:102B7000100109B1032000E004207047002002404A
:102B80000348006940F08000014908617047000077
:102B9000002002400549096821F01001034A116034
:102BA000114609680143116070470000002002408F
:102BB00070B504460D460426F00200F031F80646D2
:102BC000042E11D10948006940F00100074908614D
:102BD0002580F00200F024F806460448006941F61A
:102BE000FE71084001490861304670BD0020024076
:102BF00001460020034A106800F0380008431060C6
:102C00007047000000200240024803494860034822
:102C1000486070472301674500200240AB89EFCD33
:102C200000B502460423FFF791FF034603E0FFF7D8
:102C30008DFF0346521E012B01D1002AF7D102B9A4
:102C40000523184600BD2DE9F04102460025002667
:102C5000002000230024002791F803C00CF00F058A
:102C600091F803C00CF0100CBCF1000F03D091F8E8
:102C700002C04CEA050591F800C0BCF1000F31D04C
:102C8000146800202BE04FF0010C0CFA00F3B1F8AF
:102C900000C00CEA03069E4220D183004FF00F0CC7
:102CA0000CFA03F7BC4305FA03FC4CEA040491F860
:102CB00003C0BCF1280F06D14FF0010C0CFA00FC48
:102CC000C2F814C00AE091F803C0BCF1480F05D166
:102CD0004FF0010C0CFA00FCC2F810C0401C082890
:102CE000D1D31460B1F800C0BCF1FF0F34DD5468DB
:102CF00000202EE000F1080C4FF0010808FA0CF358
:102D0000B1F800C00CEA03069E4221D183004FF0C7
:102D10000F0C0CFA03F7BC4305FA03FC4CEA04045D
:102D200091F803C0BCF1280F05D100F1080C08FA96
:102D30000CF8C2F8148091F803C0BCF1480F07D119
:102D400000F1080C4FF0010808FA0CF8C2F81080E6
:102D5000401C0828CED35460BDE8F081F0B50A4687
:102D6000002300240021002500F00046B6F1004FAA
:102D700002D11D4EF16901E01B4E7168C0F303459D
:102D800083B200F44016B6F5401F08D121F07061FF
:102D9000154E766826F07066134F7E6012E000F4E0
:102DA0008016B6F5801F06D1032606FA05F4A14366
:102DB00041F0706106E0460D360103FA06F6B143B4
:102DC00041F0706122B1460D360103FA06F6314337
:102DD00000F00046B6F1004F02D1034EF16101E070
:102DE000014E7160F0BD000000000140024600206D
:102DF00093680B400BB1012000E000207047416157
:102E0000704701617047014609B9002070470029E9
:102E100002DA4FF0FF30F9E70120F7E7024611B17F
:102E2000012904D101E0104670475042FCE7002020
:102E3000FAE700000348006800F0010000B100BE9E
:102E400000BFFEE7F0ED00E04CF6CC400149086021
:102E5000704700000030004010B500F013F810BDBE
:102E600070B505460C4645F2555000F01FF828464F
:102E700000F010F8204600F013F800F003F8FFF718
:102E8000E3FF70BD4AF6AA200149086070470000C0
:102E900000300040014948607047000000300040A9
:102EA0000149886070470000003000400149086017
:102EB000704700000030004008B510208DF8030076
:102EC00003208DF802004FF48050ADF800006946F1
:102ED0001848FFF7B8FE0420ADF800006946164810
:102EE000FFF7B1FEBDF800101348FFF788FF04207C
:102EF0008DF803004002ADF8000069460F48FFF767
:102F0000A2FE4FF48050ADF8000069460B48FFF771
:102F10009AFE4FF48070ADF8000069460548FFF74F
:102F200092FE4FF40070ADF8000069460148FFF7CB
:102F30008AFE08BD000C0140001401400010014051
:102F400008B54FF4A06000F0CFFD1D208DF8000003
:102F500000208DF8010001208DF802008DF803009B
:102F6000684600F089FD1B208DF8000001208DF8D7
:102F7000010000208DF8020001208DF80300684652
:102F800000F07AFD0B208DF8000001208DF8010083
:102F90008DF802008DF80300684600F06DFD1E20DC
:102FA0008DF8000002208DF8010000208DF802004D
:102FB00001208DF80300684600F05EFD26208DF8A4
:102FC000000003208DF8010000208DF80200012090
:102FD0008DF80300684600F04FFD27208DF80000B3
:102FE00003208DF8010001208DF802008DF8030008
:102FF000684600F041FD08BD026812880B2A71D2B4
:10300000DFE802F0060714202B36414B555F7100B4
:103010007BE0C27A012A03D102224A808A8004E03E
:10302000C27A12B900224A808A806EE0C27A012AEE
:1030300002D14A808A8004E0C27A12B900224A8012
:103040008A8062E0C27A012A02D10522CA8003E0A6
:10305000C27A0AB90022CA8057E0C27A012A02D194
:1030600004220A8103E0C27A0AB902220A814CE0F2
:10307000C27A012A02D102224A8103E0C27A0AB945
:1030800004224A8141E0C27A012A01D18A8103E007
:10309000C27A0AB900228A8137E0C27A012A01D1B4
:1030A000CA8103E0C27A0AB90022CA812DE0C27A3D
:1030B000012A01D10A8203E0C27A0AB900220A82F7
:1030C00023E0134A12881AB1114A1288012A08D142
:1030D000C27A012A01D14A8203E0C27A0AB90022E7
:1030E0004A8212E010E00A4A12881AB1084A12888D
:1030F000012A08D1C27A012A01D18A8203E0C27A68
:103100000AB900228A8200E000BF00BF70470000B9
:103110000800002030B50446B1F1FF3F03D051B1A3
:10312000012911D109E002EB820528195D42A8426C
:1031300000DD584209E0002007E002EB8205601B39
:10314000984200DA184600E000BF00BF30BD000022
:103150002DE9F0410146DFF864C3BCF800C00CEB78
:103160008C0C4FF6FF7808EA4C02DFF854C3BCF829
:1031700000C00CEB8C0C08EA4C0303F11E0C1FFA88
:103180008CF5A2F11E0C1FFA8CF6DFF838C3BCF8E0
:1031900000C0BCF1000F7CD1DFF82CC3BCF800C02C
:1031A000AC450DDDDFF820C3BCF800C0B44507DA3C
:1031B0004FF0000CDFF8148388F805C008467AE168
:1031C000DFF804C3BCF800C0944505DADFF8F8C2A4
:1031D000BCF800C09C4520DC4FF0050CDFF8EC8209
:1031E00088F805C0DFF8E0C2BCF800C0944506DBF3
:1031F000002901DA8C4601E04FF0000C6046DFF850
:10320000C8C2BCF800C09C45D9DC002901DD8C4651
:1032100001E04FF0000C60464DE14FF0000CDFF88C
:10322000AC8288F805C0DFF8A0C2BCF800C0AC458D
:1032300016DCDFF894C2BCF800C09C4510DD002904
:103240000CDADFF884C2BCF800C0ACEB030C0CFB5A
:1032500001FC4FF01E089CFBF8FC00E08C46604629
:10326000DFF864C2BCF800C0B445A8DBDFF858C280
:10327000BCF800C09445A2DA00290EDDDFF848C290
:10328000BCF800C0A2EB0C0C0CFB01FC4FF01E08BC
:1032900000E005E09CFBF8FC00E08C4660460AE19B
:1032A000DFF820C2BCF800C0BCF1010F47D1DFF845
:1032B00020C2BCF80EC0BCF1000F02D14FF0010CCF
:1032C00001E04FF0000CDFF80882B8F81080B8F188
:1032D000000F02D14FF0010801E04FF000080CEAA6
:1032E000080CBCF1000F07D04FF0000CDFF8DC81B8
:1032F00088F805C00846DEE04FF0050CDFF8CC8109
:1033000088F805C0DFF8C8C1BCF80EC0BCF1010FD9
:1033100006D1002901DA8C4601E04FF0000C60462E
:10332000DFF8ACC1BCF810C0BCF1010FB7D1002967
:1033300001DD8C4601E04FF0000C6046BBE0DFF899
:1033400084C1BCF800C0BCF1020F73D10846DFF89D
:1033500078C1BCF800C0944505DADFF86CC1BCF850
:1033600000C09C451BDC0124DFF85CC1BCF800C038
:10337000944506DB002901DA8C4601E04FF0000C91
:103380006046DFF844C1BCF800C09C4557DC00290A
:1033900001DD8C4601E04FF0000C60464FE0DFF8A5
:1033A00028C1BCF800C0A2EB0C0CBCF11E0F08DB5E
:1033B000DFF814C1BCF800C0ACEB030CBCF11E0F6D
:1033C0003CDA0024DFF800C1BCF800C0AC4516DCD4
:1033D000DFF8F4C0BCF800C09C4510DD00290CDA11
:1033E000DFF8E4C0BCF800C0ACEB030C0CFB01FC44
:1033F0004FF01E089CFBF8FC00E08C466046DFF8AE
:10340000C8C0BCF800C0B44519DBDFF8BCC0BCF8CC
:1034100000C0944513DA00290DDDDFF8ACC0BCF81C
:1034200000C0A2EB0C0C0CFB01FC4FF01E089CFB37
:10343000F8FC01E03FE08C46604600E00024DFF845
:1034400090C0BCF80EC0BCF1000F08D1DFF880C0FE
:10345000BCF810C0BCF1000F01D100271CE001270F
:10346000DFF86CC0BCF80EC0BCF1010F06D100281B
:1034700001DA844601E04FF0000C6046DFF850C0EE
:10348000BCF810C0BCF1010F06D1002801DD844654
:1034900001E04FF0000C604604B937B14FF0050C65
:1034A000DFF8288088F805C005E04FF0000CDFF851
:1034B0001C8088F805C0BDE8F08100002C000020C9
:1034C000300000202A000020580100205A0400206B
:1034D0004404002000BFFEE770B52448007E00B918
:1034E00070BD2248807D022815DD2048807D801E29
:1034F00081B21E48401CFEF7D9FE04461B48807D61
:10350000401E1A49491C0A5C481E807D801E085CCA
:1035100002EB002085B2AC4222D114484078134916
:10352000097888421BD1114880780A2816D2DFE832
:1035300000F0050607080B0E0F1213140EE00DE045
:103540000CE000F015F809E000F09EF806E005E058
:1035500000F026F902E001E000E000BF00E000BF5B
:10356000002002498875087600BFB9E740100020A6
:103570002DE9F041002542480179C07801EB002097
:1035800087B23F488179407901EB00201FFA80F82B
:103590003B48027829466D1C1930425403222946C3
:1035A0006D1C42544FEA4800C11700EB116109122B
:1035B000A0EB0121CBB22A466D1C314919318B5445
:1035C000002621E0B9192F4A32F81100C11700EB8B
:1035D0001161C1F3072329466A1CD5B2284A193262
:1035E0005354B919274A32F81100C11700EB116181
:1035F0000912A0EB0121CBB229466A1CD5B2204AA0
:1036000019325354701CC6B24645DBDB29461C48B0
:103610001930FEF74BFE04462046E11704EB11611A
:10362000C1F3072329466A1CD5B2154A19325354EF
:10363000E11704EB11610912A4EB0121CBB2294679
:103640006A1CD5B20E4A193253540D4890F85500F1
:1036500020B1012803D002280DD106E00CE0294654
:103660000748193001F0ACFE06E02946044819303D
:1036700001F0B6FE00E000BF00BFBDE8F081000031
:1036800040100020E61100202DE9F04100254248BD
:103690000179C07801EB002087B23F4881794079F9
:1036A00001EB00201FFA80F83B48027829466D1C88
:1036B00019304254042229466D1C42544FEA4800F6
:1036C000C11700EB11610912A0EB0121CBB22A4610
:1036D0006D1C314919318B54002621E0B9192F4A4C
:1036E00032F81100C11700EB1161C1F3072329461D
:1036F0006A1CD5B2284A19325354B919274A32F8EC
:103700001100C11700EB11610912A0EB0121CBB22E
:1037100029466A1CD5B2204A19325354701CC6B2CD
:103720004645DBDB29461C481930FEF7BFFD044641
:103730002046E11704EB1161C1F3072329466A1CF7
:10374000D5B2154A19325354E11704EB116109122D
:10375000A4EB0121CBB229466A1CD5B20E4A19321C
:1037600053540D4890F8550020B1012803D0022889
:103770000DD106E00CE029460748193001F020FE83
:1037800006E029460448193001F02AFE00E000BF97
:1037900000BFBDE8F081000040100020961100201D
:1037A0002DE9F04100243F480179C07801EB002069
:1037B00085B23C488179407901EB002086B23A48D5
:1037C00020F81560374802782146641C19304254AD
:1037D00006222146641C42542846E91705EB116174
:1037E000C1F307232246641C2E4919318B54E91773
:1037F00005EB11610912A5EB0121CBB22246641C35
:10380000284919318B543046F11706EB1161C1F389
:1038100007232246641C234919318B54F11706EB08
:1038200011610912A6EB0121CBB22246641C1D498D
:1038300019318B5421461B481930FEF737FD0746D6
:103840003846F91707EB1161C1F307232246641CC0
:10385000144919318B54F91707EB11610912A7EBC1
:103860000121CBB22246641C0E4919318B540D48FC
:1038700090F8550020B1012803D002280DD106E0B0
:103880000CE0E1B20748193001F09AFD06E0E1B220
:103890000448193001F0A4FD00E000BF00BFBDE8FE
:1038A000F081000040100020E61100200120424974
:1038B00008700020C87581F85500FF203F4909684D
:1038C000088000203E49096808803E490968088050
:1038D0003D49096808803D49096808803C490968F4
:1038E00008803C49096808803B49096808803B49D1
:1038F00009680880FF203A49096808800020394992
:1039000009680880384800883849096808803848BC
:1039100000883849096808803748008837490968AD
:103920000880374800883749096808803648008889
:103930003649096808803648008836490968088091
:1039400000203549096808803448008834490968EE
:103950000880344800883449096808803348008862
:10396000334909680880334800883349096808806A
:103970003248008832490968088032480088324954
:103980000968088031480088314909680880314851
:103990000088314909680880304800883049096842
:1039A0000880304800883049096808802F4800881E
:1039B0002F490968088070474010002018A50008AA
:1039C0001CA5000820A5000824A5000828A50008BB
:1039D0002CA5000830A5000834A5000838A500086B
:1039E0003CA5000840A500080800002064A50008C8
:1039F0000C0000205CA500080E00002060A5000857
:103A00001000002068A50008120000206CA5000826
:103A10001400002048A500084CA500082A0000203A
:103A200050A500083200002054A500083A000020EC
:103A300058A500085200002070A500080A000020C8
:103A400074A500085400002078A500085600002046
:103A50007CA500084200002080A50008440000204A
:103A600084A500084600002088A500084800002022
:103A70008CA500087047000070B5002100230F22BC
:103A8000C47804B3154C246804F4E064C4F5E0641D
:103A9000210AC1F10403CA40447804FA03F184788E
:103AA0001440214309010E4C0678A155047804F016
:103AB0001F050124AC4005786D11AD0005F1E0252E
:103AC000C5F8004109E0047804F01F050124AC406A
:103AD000044D0678761145F8264070BD0CED00E0E7
:103AE00000E400E080E100E002490143024A116085
:103AF000704700000000FA050CED00E01748006870
:103B0000008810B1012825D111E015480088154919
:103B1000A1F8A8001448006800781149098841EA12
:103B20000030C0F30E0011490968088013E0104806
:103B300000880C49A1F8AC000B48006800780C49DB
:103B4000098841EA003080B240F400400749096822
:103B5000088000E000BF00BF002070472CA50008CF
:103B6000B2000020F801002048A50008D4A40008F5
:103B7000B400002010B501464248008800EB8000E8
:103B80004FF6FF7404EA80023F48008800EB800093
:103B900004EA80033D48008820B1012832D0022881
:103BA0006DD16AE03A4800884042814203DB3848E0
:103BB000008881421BDD37480078012807D10420A6
:103BC000354C20710520354CE080002010BD344874
:103BD0000088904206DA32480088401C304C208031
:103BE0000846F3E701202B4C20700020EEE7002070
:103BF000294C2071274C2070294C2080294C208092
:103C00000846E3E7224800884042814203DB20481F
:103C10000088814226DD1F480078012804D1042055
:103C20001D4C20710846D1E71D480088904206DAF5
:103C30001B480088401C1A4C20800846C6E71A48DA
:103C40000068008860B917480088984205DA15486E
:103C50000088401C134C208002E001200D4C207095
:103C60000020B3E700200C4C20710A4C20700C4C53
:103C700020800C4C20800846A8E70846A6E70020D4
:103C8000A4E700003E000020400000203A00002091
:103C90003C0000205C0100205A0400204404002065
:103CA0005E010020600100207CA5000810B500F036
:103CB00013F800F089FC00F0B1FC00F0D1FC00F03A
:103CC00059FC00F02BFC00F065FD00F009FD00F050
:103CD0002FFD00F002F810BD7047704706480078CD
:103CE000012808D105480078FF2804D2034800784D
:103CF000401C02490870704722040020150400206F
:103D000010B500241A480078012830D1FCF78CFA4D
:103D100004461848007820B116480078401E15491E
:103D2000087014480078F8B913480078E0B900F03A
:103D300093FD12481249097850F821001149086092
:103D40000F4800781049097888420DD00D48006866
:103D5000806B401C0B49096888630C480068401C54
:103D60000A490860FCF77FFA2046FCF761FA10BDAB
:103D70002204002015040020160400205017002003
:103D8000180400203004002017040020FC03002049
:103D900070B5054600260F48007808B1002070BDB8
:103DA000FCF742FA06460C480468006820B10A484D
:103DB00000684068084908603046FCF739FA3CB1B1
:103DC00001202070002020816560204600F097FBD4
:103DD0002046E4E715040020000400202DE9F0410E
:103DE00005460E4600271F48007820B1102030708D
:103DF0000020BDE8F081FCF717FA07461A4850F892
:103E0000250030B13846FCF713FA28203070002026
:103E1000EFE70120144941F82500144804684CB923
:103E2000002041F825003846FCF702FA04203070E3
:103E30002046DEE70D48006840680C4908603846B7
:103E4000FCF7F6F904202070FF2040EA05202081CD
:103E500000206060204600F052FB002030702046B9
:103E6000C7E70000150400205017002000040020C0
:103E700010B500240B480078012811D1FCF7D4F9C3
:103E800004460948007840B908480078FF2804D261
:103E900006480078401C054908702046FCF7C8F920
:103EA00010BD00002204002015040020160400208C
:103EB00010B5002413480078012821D1FCF7B4F98B
:103EC000044611480078C0B10F480078401E0E49E2
:103ED00008700846007860B90C48007828B9204678
:103EE000FCF7A6F900F07EFC0AE02046FCF7A0F9FA
:103EF00006E02046FCF79CF902E02046FCF798F922
:103F000010BD00002204002016040020150400202B
:103F100070B5054600260F48007808B1002070BD36
:103F2000FCF782F906460C480468006820B10A488C
:103F300000684068084908603046FCF779F93CB1F0
:103F400003202070258100206060204600F0D7FA11
:103F50002046E4E7150400200004002010B50B48BB
:103F6000007890B900F078FC094800780949087099
:103F700009480749097850F82100084908600846AF
:103F8000006807490860FCF756F910BD22040020BC
:103F900018040020170400205017002030040020CF
:103FA0002804002010B50024022000F0F5F9FCF7E9
:103FB0003BF9044600200B4908602046FCF738F91D
:103FC000192000F0E9F9FCF72FF9044605480068CC
:103FD000054908600120054908702046FCF728F9CA
:103FE00010BD0000240400200C0400201404002054
:103FF000704700002DE9FE4F06460F4690461C46CE
:104000004FF00009FCF710F981461F48007828B1ED
:104010004846FCF70DF93C20BDE8FE8F1B4850F8E0
:10402000240060BB0120194941F824004846FCF7F0
:10403000FFF8002342463946304600F009F982462F
:10404000002000900190034602465146029020460F
:1040500000F018FC054635B90D48007801280CD150
:1040600000F0C0FB09E0FCF7DFF8814600200749BB
:1040700041F824004846FCF7DBF82846CCE74846E0
:10408000FCF7D6F82820C7E71504002050170020B9
:10409000220400202DE9F04F85B081468A469346E0
:1040A0001C46DDE90F78129D00200390FCF7BCF858
:1040B00003902348007830B10398FCF7B9F83C200E
:1040C00005B0BDE8F08F1F4850F8240088BB0120E0
:1040D0001C4941F824000398FCF7AAF82A464146F7
:1040E000384600F0DFFC2B465A465146484600F061
:1040F000AFF804901198CDE9008002953A46204629
:104100000E9B049900F0BEFB064636B90E480078B7
:1041100001280CD100F066FB09E0FCF785F803905C
:104120000020084941F824000398FCF781F8304644
:10413000C6E7FFE70398FCF77BF82820C0E70000FC
:1041400015040020501700202204002070477047FB
:104150002DE9F04106460F4614464FF00008154879
:10416000007818B112202070BDE8F081FCF75CF8EF
:104170008046FF2E03D11048006890F832600F4847
:1041800050F826502DB94046FCF752F843202070D5
:10419000EAE7012D05D14046FCF74AF8432020709C
:1041A000E2E7EF644046FCF743F80020207000BFD0
:1041B000DAE7000015040020280400205017002032
:1041C000704700002DE9F04707460D464FF0000A02
:1041D000002028606860FCF727F88246FF2F03D193
:1041E0001948006890F83270184850F827402CB9E8
:1041F0005046FCF71DF84320BDE8F087012C04D1A0
:104200005046FCF715F84320F6E7207C00F001004B
:1042100020B95046FCF70CF84520EDE70026D4F80D
:104220000C90D4F808805046FCF702F800E0761CA9
:1042300058F8041B0029FAD0B0002860A9EB06004A
:10424000800068600020D7E7280400205017002075
:1042500070B5044610464FF080750560051F28466E
:104260002C606FF00106051F28462E604FF01236B5
:10427000051F28462E604FF00336051F28462E6086
:104280004FF00236051F28462E607610051F28467F
:104290002E60051F284629604FF01136051F28465D
:1042A0002E604FF01036051F28462E604FF009365D
:1042B000051F28462E604FF00836051F28462E6041
:1042C0004FF00736051F28462E604FF00636051FB3
:1042D00028462E604FF00536051F28462E604FF009
:1042E0000436051F28462E6070BD00002DE9F04100
:1042F00005464FF00008FBF797FF8046FF2D05D1DC
:104300002048006890F83250012608E01D480068F7
:1043100090F83200A84201D1012600E000261A4898
:1043200050F825402CB94046FBF782FF4820BDE8F5
:10433000F081012C04D14046FBF77AFF4320F6E7D9
:1043400094F834701148C05D94F8351088430F49D3
:10435000C8550846C05D30B994F836100C4800784E
:1043600088430B49087094F8300040F0080084F846
:1043700030004046FBF75CFF012E01D100F032FA1D
:104380000020D4E728040020501700201A04002041
:10439000190400207047000070B505460026174834
:1043A000007800B170BD1648007800B1FAE71DB37F
:1043B000FBF73AFF06461348006890F8344012486D
:1043C000005D1049096891F8351088430E49085579
:1043D0000846005D40B90B48006890F836100B485D
:1043E000007888430949087006480068C56230466D
:1043F000FBF71EFF00F0F6F900BFD3E7150400201D
:1044000016040020280400201A04002019040020AB
:1044100070B5002600F072F8FBF706FF064631483B
:104420000068401C2F4908603046FBF701FF2E480A
:104430000078012853D12D48007820B1012804D0FC
:10444000022809D103E001250BE0002509E0012540
:1044500001202649087004E0012500202349087046
:1044600000BF00BF05B970BD2148046833E0FBF709
:10447000DBFE0646E06A50B3E06A401EE062E06A96
:1044800028BB94F8300000F0370040B114F8300F2A
:1044900000F0C800207001206070303C02E0002075
:1044A00084F8310094F8300000F0080078B9343412
:1044B000A0781049097808430E49087020780E4901
:1044C000085C6178084314F834190B4A5054646945
:1044D0003046FBF7ADFE94F832003F28C7D100BF4D
:1044E000C1E700004004002022040020380400201E
:1044F00034040020190400201A04002070470146EB
:1045000000228A72002005E0002301F10B021354FF
:10451000421CD0B20828F7D3704700002DE9F041C3
:104520005021114800F02CF900250DE0681C86B2DE
:104530000D4800EB051400EB0617002020706760A3
:104540000AA0E060681C85B2042DEFD3064800EB9A
:10455000051400202070606004A0E0600248044957
:104560000860BDE8F0810000001300203F0000005B
:104570000404002070B5C821114800F001F900239F
:104580000FE0581C85B203EB83000D4901EB80045A
:1045900005EB850001EB8006002020706660581C4A
:1045A00083B2092BEDD303EB8300054901EB8004B3
:1045B00000202070606008460249086070BD00005D
:1045C000381200200004002000200A4908600A492F
:1045D00008700A4908700A4908700A4908700A49AF
:1045E00008600A4908600A4908600A4908600A49DF
:1045F00008707047400400201504002016040020B5
:104600002304002022040020FC03002024040020B6
:10461000100400200C0400201404002000210A4A89
:104620001170002004E00021084A1154411CC8B256
:104630000828F8D30021064A1170064A1170064A6C
:104640001160064A11607047190400201A04002006
:104650001704002018040020300400202804002043
:1046600070B54FF47C71194800F08AF84FF48071EE
:10467000174800F085F8002413E0601CC5B2C4EBB5
:10468000C40000EB4000114901EB8003C5EBC500FD
:1046900000EB400001EB80065E610EA0D864601C58
:1046A000C4B20B2CE9D3C4EBC40000EB40000749B3
:1046B00001EB80030020586106A0D8640020064961
:1046C000086002480549086070BD000050180020CD
:1046D000501700203F000000340400202C0400206C
:1046E00000B587B00320002180220A4BCDE90132BA
:1046F000CDE903104FF6FF703F23074A00900748AB
:10470000FFF7C8FC06AA06A13F20FFF721FD07B06E
:1047100000BD0000501500204C170020B9490008CA
:1047200075432F4F532D49492049646C65000000A3
:1047300000B587B00320002180220A4BCDE9013269
:10474000CDE903104FF6FE703E23074A009007485C
:10475000FFF7A0FC06AA06A13E20FFF7F9FC07B070
:1047600000BD0000501300204C150020E149000856
:1047700075432F4F532D4949205374617400000035
:1047800004E0002200F8012B4A1E91B20029F8D162
:10479000704700002DE9F04178211048FFF7F0FF45
:1047A00000240DE0601C86B204EB44000B4901EBD1
:1047B000C00506EB460001EBC0072F60601C84B209
:1047C000042CEFD304EB4400044901EBC0050020A6
:1047D0002860084602490860BDE8F081401C0020BE
:1047E0003C04002010B50024FBF71EFD04461348CE
:1047F0000078F8B912480078E0B900F02DF81148B7
:104800001149097850F82100104908600E480078D5
:104810000F49097888420DD00C480068806B401C15
:104820000A49096888630B480068401C0949086008
:10483000FBF712FD2046FBF7FBFC10BD1504002022
:104840001604002050170020180400203004002017
:1048500017040020FC0300200649074A1278885CF0
:104860000649095C034A515C01EBC001044A11701E
:104870007047000090A70008190400201A040020C7
:10488000180400202DE9F84F05460F46904699463A
:10489000DDE90AAB00200090FBF7C6FC00903F4822
:1048A0000468002C74D0183454F8040C3B49086098
:1048B0000098FBF7BDFC44F8187CA5760020207614
:1048C0006076606144F814BC44F80CAC44F8108C79
:1048D0000C9824F8080C24F8069C0020E077E810D7
:1048E000207705F00700E076217F01208840A0773F
:1048F000E17E01208840607700206060E060A06079
:104900002062A0626062E062206325A06063183CC0
:10491000002606E0002104F1500040F82610701C2B
:10492000C6B2002EF6D02046FFF762FB2046FFF706
:104930000DFCFBF779FC00901A4840F825401A4816
:10494000006860610020A0611748006810B1164837
:1049500000688461144804603434A07813490978ED
:1049600008431249087020781149085C61780843AF
:1049700014F834190E4A50540E480078401C0D4962
:1049800008700098FBF754FC0020BDE8F88FFFE7A3
:104990000098FBF74DFC4220F7E700002C040020B4
:1049A0003F000000501700203404002019040020AC
:1049B0001A04002023040020002400BF00BFFBF7DE
:1049C00033FC044605480068401C04490860204642
:1049D000FBF72EFCFFF7BBFBF1E7000024040020EF
:1049E000002400BF02E03220FFF7D6FC194800780F
:1049F0000028F8D0184800686421B0FBF1F016498F
:104A000008600846006828B9002014490870FF2093
:104A1000FFF76CFC00BFFBF707FC0446104800687A
:104A20001049086000200E4908602046FBF700FC92
:104A30000C48006808490968B0FBF1F0C0F1640057
:104A400006490870FFF7BCFB00F00EF81920FFF7CD
:104A5000A3FCE0E7140400200C040020080400205C
:104A600024040020100400207CB5002514E06946D1
:104A70002846FFF7A7FB064666B9094850F82540C7
:104A800044B1012C06D0D4E9020100EB810060643E
:104A90000198A064681CC5B23F2DE8D97CBD000018
:104AA0005017002002F0010343B102F002032BB1C2
:104AB00002E0491E002308C00029FAD17047000017
:104AC0002DE9F041002057490968086055490968F7
:104AD00048605449096888604FF07C505149096822
:104AE000C86050490968C86805F00CFA06460022FB
:104AF0004D4B04F0CDFD044604F0E4FC494909683F
:104B00000861012047490968087546490968C8686D
:104B100005F0F8F906460022444B04F0D5FF0446A0
:104B200004F0D0FC3F490968886100203D490968CC
:104B3000C8613C49096808623A49096848623C49C9
:104B4000096808603A490968486039490968886015
:104B500037490968C86037483549096808613648E7
:104B600033490968486101203149096808763348AA
:104B70002F490968C86100202D49096808622C493D
:104B8000096848622A49096888622D4909680860ED
:104B90002B49096848602A490968886028490968DA
:104BA000C8602848264909680861274824490968D7
:104BB000486101202249096808764FF07C5020495D
:104BC0000968C86100201E49096808621C49096813
:104BD00048621B49096888621C49096808601B49CA
:104BE0000968486019490968886018490968C861F6
:104BF000174816490968C8604FF07C501349096886
:104C00000861012011490968087512480F490968AF
:104C1000886100200D49096808620C4909684862EA
:104C2000BDE8F081900100200000544000001440D5
:104C30008C010020000020429A99193F0000204179
:104C4000940100209A99993ECDCCCC3D980100204A
:104C50000000A0410000404010B501F099FD01F0B6
:104C6000BDFCFEF723FE10BD2DE9F04105460C46C4
:104C700045480088012804D0022836D0042856D19F
:104C800044E04248D0F8A000008800EB80003F4B91
:104C900003EB8000406802881846D0F8A000008826
:104CA00000EB800053F820000188284603F066FDE1
:104CB000374908703548D0F8A000008800EB800024
:104CC000324B03EB8000C06802881846D0F8A00081
:104CD000008800EB800003EB80008068018820469C
:104CE00003F04CFD2B49087022E07D2240F6A331F1
:104CF000284603F043FD264908707D2240F6A33183
:104D0000204603F03BFD2349087011E07D2240F668
:104D1000A331284603F032FD1D4908707D2240F67C
:104D2000A331204603F02AFD1A49087000E000BFB5
:104D300000BF1948007A082802D10020BDE8F081A0
:104D40001648B0F900004FF47A7148431449B1F99C
:104D5000001090FBF1F013490880134800780128F7
:104D600002D102F0B3FF0CE0094A1278643A51B262
:104D7000074A1278643A50B203F05EFA0746FEF72B
:104D8000E7F906463046D9E70A000020F80100207E
:104D90005A0100205B0100205A0400202600002058
:104DA0002800002058010020F00100202DE9F04FDC
:104DB00087B006460C466648008805F0C5F982466D
:104DC00064480068C168504605F006FA0746604826
:104DD000008805F0B9F982465E48006801695046CE
:104DE00005F0FAF980465A48008805F0ADF9824688
:104DF000584800688169504605F0EEF9814614254F
:104E0000304605F089F9534909680862284605F0DB
:104E100083F982464F480068016A504605F0A8FAB7
:104E20001AD8684205F078F982464A480068016A53
:104E3000504605F09DF90FD80120464909680875CC
:104E4000444A1268116A434A1268D06905F086F82C
:104E500040490968C86106E000203E4909680875B4
:104E60003C490968C8613B490968086A002105F0A6
:104E7000E3F807D1002037490968486035490968D7
:104E8000C86134E0334A1268516A324A1268106AC3
:104E900005F0A0FA8346494605F09EF92D49049095
:104EA0000968087D05F050F94146019005F094F934
:104EB000834628480068C169584605F08DF903907B
:104EC00024480068016A384605F086F90290039983
:104ED00005F044F88246049905F040F8059005F085
:104EE000DFF8069005F018F91A490968486020466D
:104EF00005F012F98246174800684168504605F0EF
:104F000037F905D2204605F007F9124909684860CB
:104F1000604205F001F982460E480068416850463B
:104F200005F026FA05D2604205F0F6F8094909684D
:104F3000486008480068006A0649096848620549EF
:104F40000968486805F0ACF807B0BDE8F08F0000CC
:104F5000160000209001002070B505462F480088FB
:104F600040102F49098800EB61002E4908802E4827
:104F7000008840102A49C98800EB61002B4908804D
:104F80002848008825490880284800882649088044
:104F900026480288234801882846FDF785FA2449D7
:104FA00008602448407968B90024FCF7EBFE2248E9
:104FB00022490860224908602249086000201D49F2
:104FC00008712AE01A480068002808DD18480468BB
:104FD000642C00DA642401201649C87110E01448DA
:104FE0000068002809DA124800684442642C00DA9C
:104FF0006424FF200F49C87102E00024FCF7C2FEC0
:1050000011490C80091D0C80091D0C80094800798C
:1050100018B9642C01DBFCF78DFE70BD5401002033
:10502000AA0000205001002056010020520100205B
:105030004C0100203801002020A10700F0000020D2
:10504000EC000020E8000020342C01400146002044
:10505000034A506820F44040084350607047000005
:105060000010024029B1064A52690243044B5A61BA
:1050700004E0034A52698243014B5A6170470000C1
:105080000010024029B1064AD2690243044BDA619A
:1050900004E0034AD2698243014BDA6170470000A1
:1050A0000010024029B1064A12690243044B1A61FA
:1050B00004E0034A12698243014B1A617047000001
:1050C0000010024029B1064A92690243044B9A61DA
:1050D00004E0034A92698243014B9A6170470000E1
:1050E0000010024029B1064AD2680243044BDA603C
:1050F00004E0034AD2688243014BDA607047000043
:105100000010024010B500F03BF84FF4803000F082
:10511000F9F800BF312000F0C3F80028FAD01020C1
:10512000FDF738FD0220FDF763FD002000F0DEF8FA
:10513000002000F019F94FF4806000F009F94FF4F5
:10514000E0114FF4803000F021F9012000F018F94F
:1051500000BF392000F0A4F80028FAD0022000F0A7
:1051600023F900BF00F0BAF80828FBD10121084656
:10517000FFF778FF01217D20FFF7A4FF10BD00009D
:105180000F48006840F001000D490860084640687B
:105190000C4908400A494860084600680A49084026
:1051A000074908600846006820F480200860084627
:1051B000406820F4FE0048604FF41F00886070478C
:1051C000001002400000FFF8FFFFF6FE30B500219E
:1051D0000022002400232D4D6D6805F00C0121B143
:1051E000042905D0082923D105E0294D056022E0D6
:1051F000274D05601FE0254D6D6805F47012234DA5
:105200006D6805F48034022505EB92421CB9214DEE
:10521000554305600BE01D4D6D6805F400351DB16B
:105220001C4D5543056002E0194D5543056002E0F1
:10523000174D056000BF00BF144D6D6805F0F0010B
:105240000909154D6B5C0568DD4045600F4D6D68C3
:1052500005F4E061090A104D6B5C4568DD4085602E
:105260000A4D6D6805F46051C90A0B4D6B5C4568C9
:10527000DD40C560054D6D6805F44041890B074D63
:105280006B5CC568B5FBF3F5056130BD00100240ED
:1052900000127A0000093D00E7030020F703002018
:1052A00010B501460022002300204A11012A02D134
:1052B000094C236806E0022A02D1074C236A01E068
:1052C000054C636A01F01F02012494401C400CB19C
:1052D000012000E0002010BD00100240024840689C
:1052E00000F00C0070470000001002400146002052
:1052F000034A506820F0F0000843506070470000F7
:10530000001002401149096821F480310F4A1160F0
:105310001146096821F480211160B0F5803F03D067
:10532000B0F5802F0ED106E00849096841F48031BC
:10533000064A116007E00549096841F4A021034AC3
:10534000116000E000BF00BF704700000010024085
:1053500001460020034A506820F4E0600843506092
:10536000704700000010024001460020034A5068C8
:1053700020F4605040EAC1005060704700100240C5
:1053800001490866704700000000424202460020C2
:10539000044B586820F47C1042EA01031843014B87
:1053A000586070470010024001460020034A5068D0
:1053B00020F00300084350607047000000100240D6
:1053C00070B505460C46802C07DA2246294603486C
:1053D000FBF77BF82046FDF797F970BDF409002034
:1053E00070B505460C46224629460348FBF76DF882
:1053F0002046FDF7F7F970BDF408002010B504460B
:105400002146094800F012F821460748103000F004
:105410000DF821460448203000F008F821460248E3
:10542000303000F003F810BDA001002070B5044634
:105430000D46A07A4006000EA07221896068FDF733
:10544000D5FC10B9A07A401CA072A07A00F0070029
:10545000072802D10120E07205E0A07A00F00700E1
:1054600008B90020E072207BE17A884203D0294607
:105470002046FDF7C1FDE07A207370BD10B5FAF744
:10548000D3FE04466A226349634800F0FBFE2046CF
:10549000FAF7CEFE5F480088604908805D48408882
:1054A0005F4908805B4880885E4908805948C08809
:1054B0005D490880574800895C4908805548408903
:1054C0005B490880534880895A4908805148C089FF
:1054D000594908804F48008A584908804D48408AF9
:1054E000574908804B48808A564908804948C08AF5
:1054F000554908804748008B544908804548408BEF
:10550000534908804348808B524908804148C08BEA
:10551000514908803F48008C504908803D48408CE4
:105520004F4908803B48808C4E4908803948C08CE0
:1055300000B24D4908803748008D00B24B490880C1
:105540003448408D4A4908803248808D4949088056
:105550003048C08D484908802E48008E4749088051
:105560002C48408E464908802A48808E454908804C
:105570002848C08E444908802648008F4349088047
:105580002448408F424908802248808F4149088042
:105590002048C08F404908801E48B0F840003F496D
:1055A00008801C48B0F842003D4908801948B0F80E
:1055B00044003C4908801748B0F846003A49088042
:1055C0001448B0F84800394908801248B0F84A0039
:1055D000374908800F48B0F84C00364908800D481C
:1055E000B0F84E00344908800A48B0F850003349FA
:1055F00008800848B0F85200314908800548B0F8E2
:105600005400304908800348B0F856002E490880FD
:1056100010BD0000DE0A002000000108000000208C
:1056200002000020040000200600002008000020E6
:105630000A0000200C0000200E00002010000020B6
:105640001200002014000020160000201800002086
:105650001A0000201C0000201E0000202000002056
:105660002200002024000020260000202800002026
:105670002A0000202C0000202E00002030000020F6
:1056800032000020340000203600002038000020C6
:105690003A0000203C0000203E0000204000002096
:1056A0004200002044000020460000204800002066
:1056B0004A0000204C0000204E0000205000002036
:1056C00052000020540000205600002010B5FAF7C8
:1056D000ABFD04466A225849584800F0D3FD2046E5
:1056E000FAF7A6FD5448008855490880524840887A
:1056F0005449088050488088534908804E48C088E3
:10570000524908804C480089514908804A484089DC
:1057100050490880484880894F4908804648C089D8
:105720004E4908804448008A4D4908804248408AD2
:105730004C4908804048808A4B4908803E48C08ACE
:105740004A4908803C48008B494908803A48408BC8
:10575000484908803848808B474908803648C08BC4
:10576000464908803448008C454908803248408CBE
:10577000444908803048808C434908802E48C08CBA
:10578000424908802C48008D414908802A48408DB4
:10579000404908802848808D3F4908802648C08DB0
:1057A0003E4908802448008E3D4908802248408EAA
:1057B0003C4908802048808E3B4908801E48C08EA6
:1057C0003A4908801C48008F394908801A48408FA0
:1057D000384908801848808F374908801648C08F9C
:1057E000364908801448B0F840003549088012480E
:1057F000B0F84200334908800F48B0F844003249FD
:1058000008800D48B0F84600304908800A48B0F8D2
:1058100048002F4908800848B0F84A002D49088000
:105820000548B0F84C002C4908800348B0F84E00F9
:105830002A49088010BD0000480B0020000801081C
:10584000580000205A0000205C0000205E0000206C
:10585000600000206200002064000020660000203C
:10586000680000206A0000206C0000206E0000200C
:1058700070000020720000207400002076000020DC
:10588000780000207A0000207C0000207E000020AC
:10589000800000208200002084000020860000207C
:1058A000880000208A0000208C0000208E0000204C
:1058B000900000209200002094000020960000201C
:1058C000980000209A0000209C0000209E000020EC
:1058D000A0000020A2000020A4000020A6000020BC
:1058E00010B59D480068008810B101287ED196E06F
:1058F0009A48006800789A49098841EA0030C0F364
:105900000E009849096808809748B0F8A8009649A1
:10591000B1F8A610401A7D2838DD934890F8A4000D
:1059200001287BD19048B0F8A8008C490968098803
:1059300001EB81018C4A52F8211008801046B0F822
:10594000A60086490968098801EB810102EB810103
:105950004968088081480068008800EB8000114693
:1059600001EB80000069008840F002007B49096873
:10597000098801EB810102EB81010969088002F0CD
:1059800035FD0020784981F8A40010BD7648B0F8B4
:10599000A8007549B1F8A610401A10F17D0F3BDA46
:1059A000714890F8A400012838D16F48B0F8A600DB
:1059B0006A490968098801EB81016B4A52F8211094
:1059C00008801046B0F8A80064490968098801EB0E
:1059D000810102EB81014968088060480068008805
:1059E00000EB8000114601EB800000E0AFE00069B1
:1059F000008840F0020059490968098801EB8101DB
:105A000002EB81010969088002F0F0FC0020564990
:105A100081F8A400B9E701E00120B6E799E04F481A
:105A2000006800785149098841EA003080B240F4AA
:105A300000404C49096808804B48B0F8AC004A491E
:105A4000B1F8AA10401A7D2839DD474890F8A40023
:105A500001287BD14448B0F8AC0040490968098866
:105A600001EB8101404A02EB810189680880104600
:105A7000B0F8AA0039490968098801EB810102EBF5
:105A80008101C968088035480068008800EB800003
:105A9000114601EB80000069008840F001002F49A9
:105AA0000968098801EB810102EB8101096908801D
:105AB00002F09CFC00202C4981F8A40065E72A48EC
:105AC000B0F8AC002849B1F8AA10401A10F17D0FC7
:105AD0003ADA254890F8A400012837D12248B0F8D6
