:020000040800F2
:10000000D8240020A9010008E1280008A91D000843
:10001000F1230008F11000088B6E000800000000BA
:100020000000000000000000000000007351000804
:100030002B1A00080000000037020008055B0008CA
:10004000916E0008C3010008C3010008C301000845
:10005000C3010008C30100082D1A0008C3010008ED
:10006000C3010008C3010008C30100087916000895
:10007000A1160008C3010008C3010008C30100085D
:10008000C301000879170008C3010008C301000874
:10009000C3010008C3010008C3010008C301000830
:1000A000C15D0008C3010008C3010008C55D000868
:1000B000C3010008E55D0008555F0008C3010008A2
:1000C000C3010008C3010008C3010008C301000800
:1000D000C3010008C3010008756B0008056C000827
:1000E000C3010008C3010008C301000800F002F8C2
:1000F00000F04BF80AA090E8000C82448344AAF177
:100100000107DA4501D100F040F8AFF2090EBAE874
:100110000F0013F0010F18BFFB1A43F0010318473B
:10012000E8920000F89200000A444FF0000C10F82A
:10013000013B13F0070408BF10F8014B1D1108BF65
:1001400010F8015B641E05D010F8016B641E01F805
:10015000016BF9D113F0080F1EBF10F8014BAD1C55
:100160000C1B09D16D1E58BF01F801CBFAD505E073
:1001700014F8016B01F8016B6D1EF9D59142D6D3CD
:1001800070471FB51FBD10B510BD00F006F9114630
:10019000FFF7F7FF07F0F8FC00F024F903B4FFF7CE
:1001A000F2FF03BC00F028F90948804709480047DE
:1001B000FEE7FEE7FEE7FEE7FEE7FEE7FEE7FEE717
:1001C000FEE7FEE704480549054A064B7047000074
:1001D000215B0008ED000008D81E0020D824002074
:1001E000D8200020D8200020EFF3108072B670478E
:1001F00080F310887047204C204D25604FF000049C
:1002000084F309881E4C4FF0010525701D4C4FF0FA
:100210008055256062B6FEE730B41A4C4FF0805529
:10022000256030BC704730B4164C4FF080552560C7
:1002300030BC704700BF72B6EFF3098028B1203898
:1002400080E8F00F10490968086000B50F48804742
:100250005DF804EB0E480F490A7802700A480E490F
:100260000A680260106890E8F00F203080F3098877
:100270004EF0040E62B6704720ED00E00000FFFF74
:100280008203002004ED00E088030020753100089F
:10029000770300207803002090030020032A40F217
:1002A000308010F0030C00F0158011F8013BBCF118
:1002B000020F624498BF11F801CB00F8013B38BF30
:1002C00011F8013BA2F1040298BF00F801CB38BF3E
:1002D00000F8013B11F0030300F02880083AC0F059
:1002E000088051F8043B083A51F804CBA0E8081004
:1002F000F5E7121D5CBF51F8043B40F8043BAFF337
:100300000080D20724BF11F8013B11F801CB48BF90
:1003100011F8012B24BF00F8013B00F801CB48BFC6
:1003200000F8012B704770477047704710B5203AAE
:10033000C0F00B80B1E81850203AA0E81850B1E89E
:100340001850A0E81850BFF4F5AF5FEA027C24BF54
:10035000B1E81850A0E8185044BF18C918C0BDE84B
:1003600010405FEA827C24BF51F8043B40F8043B14
:1003700008BF7047D20728BF31F8023B48BF11F8C9
:10038000012B28BF20F8023B48BF00F8012B704723
:1003900000487047781E002070477546FFF7F8FF49
:1003A000AE4605006946534620F00700854618B062
:1003B00020B5FFF707FFBDE820404FF000064FF0E3
:1003C00000074FF000084FF0000B21F00701AC468A
:1003D000ACE8C009ACE8C009ACE8C009ACE8C009A9
:1003E0008D46704710B50446AFF300802046BDE847
:1003F0001040FFF7D3BE000001491820ABBEFEE756
:100400002600020021B1826842F00102826003E00E
:10041000826822F001028260704721B1826842F452
:100420008072826003E0826822F48072826070478A
:10043000014600208A6802F004020AB1012000E0AF
:1004400000207047014600208A6802F008020AB1C5
:10045000012000E00020704730B502460020002354
:1004600050680F4C20400D790C6844EA0524204365
:10047000506090680B4C2040D1E902542C434D79D8
:1004800044EA450420439060D06A20F470000C7C5C
:10049000641EE4B2234340EA0350D06230BD000042
:1004A000FFFEF0FFFDF7F1FFF0B504460D4600201A
:1004B0000021092D11DDE068A5F10A0606EB4607CB
:1004C000072606FA07F18843A5F10A0606EB460659
:1004D00003FA06F10843E0600CE0206905EB4507EC
:1004E000072606FA07F1884305EB450603FA06F1ED
:1004F00008432061072A0FDA606B561E06EB860759
:100500001F2606FA07F18843561E06EB860605FAF3
:1005100006F10843606322E00D2A0FDA206BD61F34
:1005200006EB86071F2606FA07F18843D61F06EB5F
:10053000860605FA06F10843206310E0E06AA2F19E
:100540000D0606EB86071F2606FA07F18843A2F17F
:100550000D0606EB860605FA06F10843E062F0BDDB
:10056000816841F008018160704721B1826842F4DE
:10057000A002826003E0826822F4A00282607047D9
:10058000816841F0040181607047000000B591B0BE
:100590004FF4004003F094FC01214FF4047003F089
:1005A000CBFC0F20ADF8400000208DF8430010A9CF
:1005B0003D4801F002FB3D4801F038F93C4800900D
:1005C0003C480190002002900420039000200490F9
:1005D0008020059040000690800007902020089021
:1005E0000002099000200A906946304801F0FDF9A8
:1005F000012202212D4801F0EFF901212B4801F0E1
:1006000009F900200B9001208DF8300000208DF8B2
:1006100031004FF460200D9000200E9004208DF8E2
:100620003C000BA922484C38FFF716FF0323012298
:100630000A211F484C38FFF737FF032302220B2102
:100640001B484C38FFF730FF03231A460C2118488B
:100650004C38FFF729FF032304220D2114484C389E
:10066000FFF722FF012112484C38FFF7D6FE012187
:100670000F484C38FFF7C6FE0D484C38FFF770FFA7
:1006800000BF0B484C38FFF7DDFE0028F9D10848C1
:100690004C38FFF775FF00BF05484C38FFF7C8FE20
:1006A0000028F9D111B000BD00100140080002403F
:1006B0004C2401400200002070B58A480068008880
:1006C00008B1012000E000200546874C2078012871
:1006D0000CD186480068008800EB4001201D00EB2B
:1006E0008100406800886080002020708048007889
:1006F0000A287CDD7B480068008801281ED17B48E1
:100700000068008800EB4001201D00EB810040687C
:10071000018876480068008800EB4002201D00EB4D
:1007200082000089014471480068008800EB4002A3
:10073000201D00EB82004088814200DDC5B96B4B73
:100740001B681B8803EB4306231D03EB86031A7A01
:10075000664B1B681B8803EB4306231D03EB8603D4
:100760005968604B1B6818882B4600F0C7F83BE0BF
:100770005C480068008802281DD15C480068008839
:1007800000EB4001201D00EB8100406801885748C4
:100790000068008800EB4002201D00EB8200008909
:1007A000091A52480068008800EB4002201D30F80A
:1007B0002200814200DABDB94C4B1B681B8803EB59
:1007C0004306231D03EB86031A7A484B1B681B88DC
:1007D00003EB4306231D03EB86035968414B1B685B
:1007E00018882B4600F08AF80020414908703F48DD
:1007F0000068008820B13D4800680088182813D19F
:100800003A480068008800EB4001201D00EB8100A1
:100810004068008800EB80004FF6FF7101EA40005D
:1008200034490968088031E030480068008812289F
:1008300009D02E4800680088162804D02B4800688C
:10084000008817280FD129480068008800EB400174
:10085000201D00EB81004068008800F548702549A4
:100860000968088012E021480068008800EB400118
:10087000201D00EB81004068008800EB80004FF4F1
:10088000487101EB40001B49096808801A4800685C
:100890000088022814D11448418814480068008850
:1008A00000EB40021048001D00EB82004068018010
:1008B00001200D490870FF200C49096808800AE0F2
:1008C0000D4800680088012805D107490870FF20FD
:1008D00006490968088006480078401C04490870E9
:1008E00070BD0000A8900008140200209C90000831
:1008F0004603002094900008E090000830B5012BDA
:1009000036D1012802D0022830D117E01C4C2478BF
:1009100034B901241A4D2C700C8814440C800CE05E
:10092000184C2478072C05DA164C2478641C154DD5
:100930002C7002E00C8814440C8018E0104C2478D1
:1009400034B901240E4D2C700C88A41A0C800CE0D4
:100950000C4C2478072C05DA0A4C2478641C094DC9
:100960002C7002E00C88A41A0C8000E000BF05E0A7
:1009700023B90024024D2C70024D2C7030BD0000B4
:10098000450300204403002007285FD2DFE800F081
:100990005E4F3140130422000121344A1160344A71
:1009A000C2F8A81143F20401324A118000212F4AF3
:1009B000121D116058E001212C4A11602C4AC2F826
:1009C000A8114FF450512B4A11800021274A121DC3
:1009D000116049E00121254A121D1160244AC2F824
:1009E000A8114FF45051234A118000211F4A116071
:1009F0003AE001211D4A121D11601D4AC2F8A811DA
:100A00004FF441511B4A11800021184A11602BE01C
:100A10000121164A1160164AC2F8A4114FF441513F
:100A2000144A11800021114A083211601CE0012192
:100A30000E4A11600E4AC2F8A41143F204010D4A95
:100A400011800021094A083211600DE04FF4405135
:100A5000084A11800121054A1160054AC2F8A41113
:100A6000024A0832116000BF00BF7047A001214256
:100A700000002142202C0140072861D2DFE800F06D
:100A800060513342130423000121364A1160364A73
:100A9000C2F8A8114FF44151344A11800021314A63
:100AA000121F11605BE001212E4A121F11602E4AB5
:100AB000C2F8A4114FF441512C4A11800021294A57
:100AC000121D11604BE00121264A121F1160264AB7
:100AD000C2F8A41143F20401244A11800021214AE2
:100AE000121D11603BE001211E4A121F11601E4AB7
:100AF000C2F8A81143F204011C4A11800021194ACE
:100B000011602CE00121174A121F1160164AC2F829
:100B1000A8114FF45051154A11800021114A11605B
:100B20001DE001210F4A11600F4AC2F8A8114FF4CD
:100B300050510E4A118000210A4A121F11600EE026
:100B40004FF44051094A11800121064A121F1160D9
:100B5000054AC2F8A411034A121D116000BF00BF6C
:100B600070470000A401214200002142202C0140D6
:100B700008B54FF47060ADF8000010208DF8030048
:100B800003208DF8020069460E4801F016F84FF474
:100B90006040ADF8000018208DF8030003208DF8A8
:100BA00002006946084801F008F84FF4E070ADF81B
:100BB000000048208DF803006946044800F0FDFF5E
:100BC00008BD000000080140000C01400010014079
:100BD00000B500230F488068C0F38213012B17DB98
:100BE000062B15DC01200C490871084690F9070016
:100BF000401C18B91846FFF7C7FE06E00648C07942
:100C0000012802D11846FFF737FF0020034908806A
:100C100000BD0000001001408800002024040040B6
:100C200000200749088000BF00BF00200549086078
:100C30000549C1F8A4010349083108607047000064
:100C4000202C0140A00121420000214200B58BB0C0
:100C50000121C80203F070F9424805F06BFB022045
:100C6000ADF820004020ADF8220040F2AF40ADF8D2
:100C700024000020ADF826008DF8280008A9394886
:100C800005F056FE6020ADF810000020ADF812000F
:100C9000ADF814004FF41670ADF816000020ADF852
:100CA0001800ADF81A00ADF81C00ADF81E0004A93C
:100CB0002C4805F093FC4FF41670ADF8160004A90B
:100CC000284805F0E1FC4FF41670ADF8160004A9B1
:100CD000244805F039FD7020ADF810000020ADF873
:100CE00012000A20ADF816000220ADF8180004A981
:100CF0001C4805F083FD4FF40060ADF80000401083
:100D0000ADF802008010ADF804007820ADF80600C0
:100D10000020ADF80800ADF80A00ADF80C006946F7
:100D2000104805F0D9FA08210E4805F0A3FC082167
:100D30000C4805F0FBFC08210A4805F055FD01218F
:100D4000084805F0E8FA1021064805F0D5FA012117
:100D5000044805F0D4FA01221021024805F034FCC1
:100D60000BB000BD002C014000B58BB0012102206A
:100D700003F0C2F80121354800F0AAFF344805F01D
:100D8000D9FA4720ADF820000020ADF8220042F249
:100D90000F70ADF824000020ADF826008DF8280073
:100DA00008A92B4805F0C4FD0020ADF81400ADF8EB
:100DB00016000320ADF818000020ADF81A000A2034
:100DC000ADF81C0005A9224805F0A8FB0020ADF8ED
:100DD0000400ADF8060042F21070ADF80A000020E1
:100DE000ADF80C0001A91A4805F008FD01211848CA
:100DF00005F042FD4021164805F04AFD0421144843
:100E000005F061FD8021124805F04BFD502110488E
:100E100005F050FD0E48103000884FF6EF71084085
:100E20000B4910310880084600884FF6BF71084012
:100E30000749103108800121054805F060FA0122B8
:100E40005021034805F0C0FB0BB000BD000C1A0098
:100E5000000400400EB50121042003F04DF81248B3
:100E600005F068FA4720ADF800000020ADF8020058
:100E700040F69F70ADF804000020ADF806008DF834
:100E800008006946084805F053FD0121064805F0B1
:100E900033FA0121044805F032FA012211460248D2
:100EA00005F092FB0EBD00000008004010B503F0F5
:100EB00063F806F045FA00F0B9FFFFF759FEFFF7B7
:100EC000C5FEFFF751FFFFF7C5FF02F0E9FC4FF445
:100ED000E13006F0D9FF4FF4E13007F03BF8FFF7BF
:100EE00055FB4FF47A7006F059FA10BD10B5012089
:100EF00043490880434800884349088043480088A4
:100F00004880434800880881424800884881424818
:100F10000088888141480088C8814148008808824B
:100F20004048008848824048008888823F480088BE
:100F3000C8823F48008808833E48008848833E486E
:100F4000008888833D480088C8833D48008808841D
:100F50003C48008848843C48008808853B48008815
:100F600048853B48008888853A480088C8853A48C3
:100F7000008808863948008848863948008888866D
:100F800038480088C886384800880887374800886D
:100F9000488737480088888736480088C887364899
:100FA0000088A1F8400035480088A1F84200344884
:100FB0000088A1F8440033480088A1F84600324870
:100FC0000088A1F8480031480088A1F84A0030485C
:100FD0000088A1F84C002F480088A1F84E002E4848
:100FE0000088A1F85000FFF7FFF804466A2206497E
:100FF0002A4804F037F82046FFF7FAF810BD000041
:10100000A8030020A4030020740A0020A6030020E7
:10101000AC030020AE030020B0030020B203002088
:10102000B4030020B6030020B8030020BA03002058
:10103000BC030020BE030020C0030020C203002028
:10104000C4030020C6030020CC030020CE030020F0
:10105000D0030020D2030020D4030020D6030020B8
:10106000D8030020DA030020DC030020DE03002088
:10107000E0030020E2030020E4030020E603002058
:10108000E8030020EA030020EC030020EE03002028
:10109000F0030020F2030020F40300200004010804
:1010A00010B510480068008848B10E4800680088F4
:1010B000012804D00B4800680088022811D10020C4
:1010C000094908804FF47A7006F068F90549096803
:1010D0000A88064951F822008047FF200149096823
:1010E000088010BD00910008AA03002030010020F4
:1010F00000BFFEE770B502460C46FF25FF2309E05E
:1011000012F8010B80EA05010648405C80EA0305FD
:101110000548435C201EA4F10106B4B2F0D143EAB5
:10112000052070BD08910008089200082DE9F047DD
:1011300005460C46284607F0B1FD67490968086274
:1011400065490968086A654907F0D4FD7CD8624999
:101150000968086A624907F0CDFEF7D85E49096858
:10116000086A4FF0804107F0C5FD11D85A49096857
:10117000086A4FF0404107F0BDFE09D800205649EB
:10118000096848600320574948700020087089E0CA
:1011900051480068416A4FF0804007F0DFFD81460A
:1011A0004D4A1268916A4C4A1268106A07F0B8FCFE
:1011B0008246494607F0D0FE804647480068C1692C
:1011C000404607F0CBFD0646434A1268116A424A80
:1011D0001268506907F0C2FD81463F4A1268516AA1
:1011E0003D4A1268106A07F0B7FE82463A48006826
:1011F0000169504607F0B2FD8046494607F090FC71
:101200000746314607F08CFC334909688860324A4A
:1012100012689168304A1268D06807F081FC2E4944
:1012200009684860204607F039FD06462A480068EC
:101230004168304607F05EFD07D2204607F02EFDDC
:101240002549096848602DE011E0604207F026FD5D
:101250000646214800684168304607F04BFE21D21F
:10126000604207F01BFD1C49096848601AE01A49F2
:101270000968086A194907F03DFE06D2204607F0C2
:101280000DFD1549096848600CE013490968086AB2
:10129000134907F02FFD05D2604207F0FFFC0E490D
:1012A000096848600C480068406A0B490968886210
:1012B00009480068006A08490968486206480068E9
:1012C000406805490968C86003490968486807F02B
:1012D000C9FCBDE8F0870000DC00002000004842A7
:1012E000000048C2500100202DE9F04705460C4699
:1012F000284607F0D3FC6449096808626249096816
:10130000086A624907F0F6FC77D85F490968086AFD
:101310005F4907F0EFFDF7D85B490968086A4FF0AD
:10132000804107F0E7FC0CD857490968086A4FF07C
:10133000404107F0DFFD04D80020534909684860A8
:1013400089E051480068416A4FF0804007F006FD8F
:1013500081464D4A1268916A4B4A1268106A07F03A
:10136000DFFB8246494607F0F7FD804646480068A5
:10137000C169404607F0F2FC0646434A1268116A0A
:10138000414A1268506907F0E9FC81463E4A1268FA
:10139000516A3D4A1268106A07F0DEFD82463A48FB
:1013A00000680169504607F0D9FC8046494607F0BD
:1013B000B7FB0746314607F0B3FB3349096888603D
:1013C000314A12689168304A1268D06807F0A8FB69
:1013D0002D4909684860204607F060FC06462A4807
:1013E00000684168304607F085FC07D2204607F0C8
:1013F00055FC2549096848602DE011E0604207F07E
:101400004DFC0646204800684168304607F072FDF2
:1014100021D2604207F042FC1B49096848601AE08B
:1014200019490968086A194907F064FD06D220467F
:1014300007F034FC1449096848600CE01249096857
:10144000086A134907F056FC05D2604207F026FCF3
:101450000D49096848600C480068406A0A490968F3
:10146000886209480068006A0749096848620648B6
:101470000068406804490968C86003490968486809
:1014800007F0F0FBBDE8F087D400002000004842E0
:10149000000048C22DE9F04788B00446884615464A
:1014A00000266B48008800EB4001C1EB4010A8EB20
:1014B00080096848008807F099F84FF03332664B8E
:1014C000CDE9000107F0E2F8CDE90401404607F05C
:1014D0008DF8CDE90201DDE9042307F00BFACDE92F
:1014E000060107F00FF882465C48C0F800802046ED
:1014F00000F043FC07465A48007801281BD1BAF196
:10150000000F16DDB7F1FF3F03D047B1012F0ED119
:1015100007E004EB8A06002E00DD002608E0002626
:1015200006E0A4EB8A06002E00DA002600E000BFE9
:1015300066E0264664E04B480078002850D12CB97C
:101540004949088049490880002659E046480088F2
:1015500044F6206188422DDA43480088401C424905
:101560000880B9F1000F20DD0620414988713F480D
:101570000088401C3D490880B7F1FF3F03D057B1B8
:10158000012F10D109E004EBC90616F1050F01DDAA
:101590006FF0040608E0002606E0A4EBC906052E5D
:1015A00000DA052600E000BF2AE026460020304988
:1015B000887125E02D480088B0F5FA5F09DB002628
:1015C00001202849087007202949C8712948076067
:1015D00000E02646002025490880234908800FE0C6
:1015E0002448006887420AD04FB12248006830B1D1
:1015F00000201F49C87126461A49087000E00026DD
:1016000040F2EC50854208DC40F22E40854204DB7B
:10161000002017498872C87215E040F2EC508542EC
:1016200002DD0A201249887240F22E40854202DA19
:101630000B200F49C872002640F22D20854202DCA3
:1016400072B603F097FD304608B0BDE8F0870000A1
:10165000C6030020C403002033332740C800002005
:1016600050010020CC000020CE000020D00000203F
:1016700046040020C400002010B5022000F096F9B6
:1016800048B1012000F0B8F80348006802F0B6FB4A
:1016900001200249087010BD380000200A00002017
:1016A00010B5FEF7A1FD044612480078401C114910
:1016B00008702046FEF79CFD202000F077F9A8B1C5
:1016C000002240F224410C4805F048FB012240F280
:1016D0002661094805F042FB0021084800F09AF80D
:1016E000202000F089F8102000F086F801F0F8F9C9
:1016F00010BD000075030020004800401C0002409F
:1017000010B5044600BF2021194805F0F0FA002862
:10171000F9D104B910BD00BF164800F02DF900281A
:10172000FAD10021134800F075F82146114800F065
:101730007AF901210F4800F06DF800BF202000F079
:101740001FF90028FAD000BF4021094805F0CFFA60
:101750000028F9D04021064805F09CFA202000F02E
:101760003DF80021034800F055F800BFD2E7000023
:10177000004800401C00024010B5FEF735FD04464D
:1017800013480078401C124908702046FEF730FDCF
:101790004FF0007000F00AF9B8B1002240F2244185
:1017A0000C4805F0DBFA012240F22661094805F0F9
:1017B000D5FA0021084800F02DF84FF0007000F035
:1017C0001BF84FF0807000F017F801F089F910BD98
:1017D00075030020004400408000024000F080516A
:1017E00011B10349086001E00249486070470000F8
:1017F000040402400000024000F0805111B103498E
:10180000086001E00249486070470000040402409B
:101810000000024021B1026842F00102026004E0CF
:1018200002684FF6FE731A400260704701684FF677
:10183000FE72114001600021016041608160C16061
:101840004B49884208D14A490839496841F00F019B
:10185000474A083A51608AE045491431884208D124
:1018600043490839496841F0F001414A083A51605A
:101870007DE03F492831884208D13D49083949680F
:1018800041F470613A4A083A516070E038493C319D
:10189000884208D136490839496841F47041344AD0
:1018A000083A516063E032495031884208D13049EA
:1018B0000839496841F470212D4A083A516056E0D0
:1018C0002B496431884208D129490839496841F4D3
:1018D0007001274A083A516049E025497831884229
:1018E00008D123490839496841F07061204A083A13
:1018F00051603CE01F49884206D1011F096841F050
:101900000F01021F116032E01A491431884208D1D8
:101910001849091F096841F0F001164A121F1160A9
:1019200025E014492831884208D11249091F096865
:1019300041F470610F4A121F116018E00D493C31EB
:10194000884208D10B49091F096841F47041094ACE
:10195000121F11600BE007495031884207D1054939
:10196000091F096841F47021024A121F1160704773
:1019700008000240080402400146486880B27047EF
:1019800001460020002201F0805313B1054B1A6874
:1019900001E0054B1A6802EA01030BB1012000E0E7
:1019A0000020704700040240000002400146002071
:1019B000002201F0805313B1054B1A6801E0054B7A
:1019C0001A6802EA01030BB1012000E00020704711
:1019D00000040240000002401AB103680B43036098
:1019E00002E003688B430360704710B50022026871
:1019F00047F6F0739A430C6A8B6823430C692343C0
:101A00004C6923438C692343CC6923434C6A2343A9
:101A10008C6A23431A430260CB6843600B6883607F
:101A20004B68C36010BD41607047704710B501201E
:101A300000F014F840B14021044800F09CF903F094
:101A400099FB012000F004F810BD000000140140D3
:101A5000014908607047000014040140014600205D
:101A6000034A12680A400AB1012000E000207047D2
:101A70001404014030B5044604254FF4302000F032
:101A800089F80546042D17D10C48006940F0020082
:101A90000A49086108464461006940F04000086155
:101AA0004FF4302000F076F805460448006941F60E
:101AB000FD71084001490861284630BD0020024000
:101AC00004200B49C96801F0010109B101200EE0B1
:101AD0000749C96801F0040109B1022007E004497F
:101AE000C96801F0100109B1032000E0042070472B
:101AF000002002400348006940F08000014908616D
:101B000070470000002002400549096821F01001DB
:101B1000034A1160114609680143116070470000D3
:101B20000020024070B504460D460426F00200F085
:101B300031F80646042E11D10948006940F0010031
:101B4000074908612580F00200F024F806460448A1
:101B5000006941F6FE71084001490861304670BDD8
:101B60000020024001460020034A106800F03800BF
:101B700008431060704700000020024002480349FB
:101B800048600348486070472301674500200240D1
:101B9000AB89EFCD00B502460423FFF791FF034662
:101BA00003E0FFF78DFF0346521E012B01D1002AEF
:101BB000F7D102B90523184600BD2DE9F0410246D0
:101BC00000250026002000230024002791F803C0F0
:101BD0000CF00F0591F803C00CF0100CBCF1000FD5
:101BE00003D091F802C04CEA050591F800C0BCF1A1
:101BF000000F31D0146800202BE04FF0010C0CFADC
:101C000000F3B1F800C00CEA03069E4220D1830025
:101C10004FF00F0C0CFA03F7BC4305FA03FC4CEA37
:101C2000040491F803C0BCF1280F06D14FF0010C59
:101C30000CFA00FCC2F814C00AE091F803C0BCF131
:101C4000480F05D14FF0010C0CFA00FCC2F810C08F
:101C5000401C0828D1D31460B1F800C0BCF1FF0FBC
:101C600034DD546800202EE000F1080C4FF001082C
:101C700008FA0CF3B1F800C00CEA03069E4221D129
:101C800083004FF00F0C0CFA03F7BC4305FA03FC7A
:101C90004CEA040491F803C0BCF1280F05D100F10F
:101CA000080C08FA0CF8C2F8148091F803C0BCF1D3
:101CB000480F07D100F1080C4FF0010808FA0CF8A2
:101CC000C2F81080401C0828CED35460BDE8F081D3
:101CD000F0B50A46002300240021002500F000464C
:101CE000B6F1004F02D11D4EF16901E01B4E716843
:101CF000C0F3034583B200F44016B6F5401F08D187
:101D000021F07061154E766826F07066134F7E6084
:101D100012E000F48016B6F5801F06D1032606FAFD
:101D200005F4A14341F0706106E0460D360103FA67
:101D300006F6B14341F0706122B1460D360103FA57
:101D400006F6314300F00046B6F1004F02D1034ED3
:101D5000F16101E0014E7160F0BD00000000014042
:101D60000246002093680B400BB1012000E00020E8
:101D700070474161704701617047014609B9002011
:101D80007047002902DA4FF0FF30F9E70120F7E74A
:101D9000024611B1012904D101E0104670475042BA
:101DA000FCE70020FAE700000348006800F00100AB
:101DB00000B100BE00BFFEE7F0ED00E04CF6CC4005
:101DC00001490860704700000030004010B500F085
:101DD00013F810BD70B505460C4645F2555000F09D
:101DE0001FF8284600F010F8204600F013F800F025
:101DF00003F8FFF7E3FF70BD4AF6AA200149086027
:101E00007047000000300040014948607047000002
:101E100000300040014988607047000000300040F9
:101E200001490860704700000030004008B51020EC
:101E30008DF8030003208DF802004FF48050ADF8B8
:101E4000000069461848FFF7B8FE0420ADF800000E
:101E500069461648FFF7B1FEBDF800101348FFF7BA
:101E600088FF04208DF803004002ADF800006946A9
:101E70000F48FFF7A2FE4FF48050ADF8000069460E
:101E80000B48FFF79AFE4FF48070ADF800006946EA
:101E90000548FFF792FE4FF40070ADF80000694668
:101EA0000148FFF78AFE08BD000C01400014014004
:101EB0000010014008B54FF4A06000F04BFD1D205C
:101EC0008DF8000000208DF8010001208DF802003F
:101ED0008DF80300684600F005FD1B208DF800001A
:101EE00001208DF8010000208DF8020001208DF8FE
:101EF0000300684600F0F6FC0B208DF8000001207E
:101F00008DF801008DF802008DF80300684600F09E
:101F1000E9FC1E208DF8000002208DF80100002051
:101F20008DF8020001208DF80300684600F0DAFC0D
:101F300027208DF8000003208DF8010000208DF887
:101F4000020001208DF80300684600F0CBFC08BDBC
:101F5000026812880B2A71D2DFE802F0060714200B
:101F60002B36414B555F71007BE0C27A012A03D1C9
:101F700002224A808A8004E0C27A12B900224A8092
:101F80008A806EE0C27A012A02D14A808A8004E007
:101F9000C27A12B900224A808A8062E0C27A012A9B
:101FA00002D10522CA8003E0C27A0AB90022CA809F
:101FB00057E0C27A012A02D104220A8103E0C27AE0
:101FC0000AB902220A814CE0C27A012A02D1022215
:101FD0004A8103E0C27A0AB904224A8141E0C27A06
:101FE000012A01D18A8103E0C27A0AB900228A81DA
:101FF00037E0C27A012A01D1CA8103E0C27A0AB964
:102000000022CA812DE0C27A012A01D10A8203E0AE
:10201000C27A0AB900220A8223E0134A12881AB14E
:10202000114A1288012A08D1C27A012A01D14A82B2
:1020300003E0C27A0AB900224A8212E010E00A4A9A
:1020400012881AB1084A1288012A08D1C27A012AD4
:1020500001D18A8203E0C27A0AB900228A8200E0B2
:1020600000BF00BF70470000AC0300202DE9F04125
:102070000146DFF864C3BCF800C00CEB8C0C4FF6D3
:10208000FF7808EA4C02DFF854C3BCF800C00CEB40
:102090008C0C08EA4C0303F11E0C1FFA8CF5A2F11C
:1020A0001E0C1FFA8CF6DFF838C3BCF800C0BCF178
:1020B000000F7CD1DFF82CC3BCF800C0AC450DDDAF
:1020C000DFF820C3BCF800C0B44507DA4FF0000CBD
:1020D000DFF8148388F805C008467AE1DFF804C306
:1020E000BCF800C0944505DADFF8F8C2BCF800C0BF
:1020F0009C4520DC4FF0050CDFF8EC8288F805C029
:10210000DFF8E0C2BCF800C0944506DB002901DA24
:102110008C4601E04FF0000C6046DFF8C8C2BCF806
:1021200000C09C45D9DC002901DD8C4601E04FF060
:10213000000C60464DE14FF0000CDFF8AC8288F8EF
:1021400005C0DFF8A0C2BCF800C0AC4516DCDFF863
:1021500094C2BCF800C09C4510DD00290CDADFF801
:1021600084C2BCF800C0ACEB030C0CFB01FC4FF0CC
:102170001E089CFBF8FC00E08C466046DFF864C259
:10218000BCF800C0B445A8DBDFF858C2BCF800C0FA
:102190009445A2DA00290EDDDFF848C2BCF800C081
:1021A000A2EB0C0C0CFB01FC4FF01E0800E005E05C
:1021B0009CFBF8FC00E08C4660460AE1DFF820C298
:1021C000BCF800C0BCF1010F47D1DFF820C2BCF859
:1021D0000EC0BCF1000F02D14FF0010C01E04FF036
:1021E000000CDFF80882B8F81080B8F1000F02D1B7
:1021F0004FF0010801E04FF000080CEA080CBCF1B8
:10220000000F07D04FF0000CDFF8DC8188F805C024
:102210000846DEE04FF0050CDFF8CC8188F805C0F9
:10222000DFF8C8C1BCF80EC0BCF1010F06D100290F
:1022300001DA8C4601E04FF0000C6046DFF8ACC1DB
:10224000BCF810C0BCF1010FB7D1002901DD8C46EC
:1022500001E04FF0000C6046BBE0DFF884C1BCF841
:1022600000C0BCF1020F73D10846DFF878C1BCF89A
:1022700000C0944505DADFF86CC1BCF800C09C458D
:102280001BDC0124DFF85CC1BCF800C0944506DB10
:10229000002901DA8C4601E04FF0000C6046DFF8BF
:1022A00044C1BCF800C09C4557DC002901DD8C46C8
:1022B00001E04FF0000C60464FE0DFF828C1BCF8A9
:1022C00000C0A2EB0C0CBCF11E0F08DBDFF814C140
:1022D000BCF800C0ACEB030CBCF11E0F3CDA0024D0
:1022E000DFF800C1BCF800C0AC4516DCDFF8F4C074
:1022F000BCF800C09C4510DD00290CDADFF8E4C012
:10230000BCF800C0ACEB030C0CFB01FC4FF01E084A
:102310009CFBF8FC00E08C466046DFF8C8C0BCF8C7
:1023200000C0B44519DBDFF8BCC0BCF800C0944560
:1023300013DA00290DDDDFF8ACC0BCF800C0A2EB59
:102340000C0C0CFB01FC4FF01E089CFBF8FC01E0A0
:102350003FE08C46604600E00024DFF890C0BCF807
:102360000EC0BCF1000F08D1DFF880C0BCF810C06F
:10237000BCF1000F01D100271CE00127DFF86CC081
:10238000BCF80EC0BCF1010F06D1002801DA84466A
:1023900001E04FF0000C6046DFF850C0BCF810C000
:1023A000BCF1010F06D1002801DD844601E04FF0A9
:1023B000000C604604B937B14FF0050CDFF82880F7
:1023C00088F805C005E04FF0000CDFF81C8088F8A5
:1023D00005C0BDE8F0810000CE030020D20300203C
:1023E000CC030020A400002046040020520400205A
:1023F00000BFFEE770B52448007E00B970BD2248DA
:10240000807D022815DD2048807D801E81B21E4817
:10241000401CFEF76FFE04461B48807D401E1A4993
:10242000491C0A5C481E807D801E085C02EB00206F
:1024300085B2AC4222D114484078134909788842C9
:102440001BD1114880780A2816D2DFE800F0050673
:1024500007080B0E0F1213140EE00DE00CE000F055
:1024600015F809E000F08AF806E005E000F0FEF853
:1024700002E001E000E000BF00E000BF00200249F0
:102480008875087600BFB9E7701000202DE9F0418B
:10249000002538480179C07801EB002087B2354823
:1024A0008179407901EB00201FFA80F831480278E9
:1024B00029466D1C19304254032229466D1C425492
:1024C0004FEA4800C11700EB11610912A0EB01218E
:1024D000CBB22A466D1C274919318B54002621E0C6
:1024E000B919254A32F81100C11700EB1161C1F387
:1024F000072329466A1CD5B21E4A19325354B9190A
:102500001D4A32F81100C11700EB11610912A0EB4E
:102510000121CBB229466A1CD5B2164A193253544E
:10252000701CC6B24645DBDB294612481930FEF75F
:10253000E1FD04462046E11704EB1161C1F30723D6
:1025400029466A1CD5B20B4A19325354E11704EBE1
:1025500011610912A4EB0121CBB229466A1CD5B244
:10256000044A193253542946104601F063FEBDE86F
:10257000F081000070100020C61100202DE9F0410C
:10258000002538480179C07801EB002087B2354832
:102590008179407901EB00201FFA80F831480278F8
:1025A00029466D1C19304254042229466D1C4254A0
:1025B0004FEA4800C11700EB11610912A0EB01219D
:1025C000CBB22A466D1C274919318B54002621E0D5
:1025D000B919254A32F81100C11700EB1161C1F396
:1025E000072329466A1CD5B21E4A19325354B91919
:1025F0001D4A32F81100C11700EB11610912A0EB5E
:102600000121CBB229466A1CD5B2164A193253545D
:10261000701CC6B24645DBDB294612481930FEF76E
:1026200069FD04462046E11704EB1161C1F307235D
:1026300029466A1CD5B20B4A19325354E11704EBF0
:1026400011610912A4EB0121CBB229466A1CD5B253
:10265000044A193253542946104601F0EBFDBDE8F7
:10266000F081000070100020C61100202DE9F0411B
:10267000002435480179C07801EB002085B232484A
:102680008179407901EB002086B2304820F815604E
:102690002D4802782146641C1930425406222146F6
:1026A000641C42542846E91705EB1161C1F3072366
:1026B0002246641C244919318B54E91705EB11613A
:1026C0000912A5EB0121CBB22246641C1E49193127
:1026D0008B543046F11706EB1161C1F307232246F4
:1026E000641C194919318B54F11706EB1161091259
:1026F000A6EB0121CBB22246641C134919318B543D
:10270000214611481930FEF7F5FC07463846F917FF
:1027100007EB1161C1F307232246641C0A491931F2
:102720008B54F91707EB11610912A7EB0121CBB20A
:102730002246641C044919318B54E1B20248193015
:1027400001F078FDBDE8F081701000201612002025
:1027500001203A4908700020C875FF2038490968EF
:1027600008800020374909680880374909680880CF
:10277000364909680880364909680880354909687A
:102780000880354909680880344909680880344957
:10279000096808803348008833490968088033484D
:1027A000008833490968088032480088324909683E
:1027B000088032480088324909680880314800881A
:1027C0003149096808803148008831490968088022
:1027D000304800883049096808803048008830490E
:1027E000096808802F4800882F49096808802F4809
:1027F00000882F49096808802E4800882E490968FA
:1028000008802E4800882E49096808802D480088D5
:102810002D49096808802D4800882D4909680880DD
:1028200000202C4909680880FF202B49096808808E
:1028300000202A49096808807047000070100020B5
:102840009C900008A4900008A8900008E090000860
:10285000E8900008EC900008F0900008F490000860
:10286000F8900008AA030020AC900008AC030020F8
:10287000B0900008AE030020C0900008B003002014
:10288000C4900008B2030020C8900008B4030020E0
:10289000CC900008B6030020E4900008CC03002090
:1028A000B4900008D4030020B8900008DC03002096
:1028B000BC900008E4030020D0900008E60300204C
:1028C000D4900008E8030020D8900008EA03002014
:1028D000DC900008FC9000080091000804910008BA
:1028E0007047000070B5002100230F22C47804B3A4
:1028F000154C246804F4E064C4F5E064210AC1F1D5
:102900000403CA40447804FA03F184781440214354
:1029100009010E4C0678A155047804F01F05012426
:10292000AC4005786D11AD0005F1E025C5F800411A
:1029300009E0047804F01F050124AC40044D06783A
:10294000761145F8264070BD0CED00E000E400E093
:1029500080E100E002490143024A11607047000033
:102960000000FA050CED00E017480068008810B17F
:10297000012825D111E0154800881549A1F8A800C3
:102980001448006800781149098841EA0030C0F312
:102990000E0011490968088013E0104800880C49AE
:1029A000A1F8AC000B48006800780C49098841EA9E
:1029B000003080B240F4004007490968088000E018
:1029C00000BF00BF00207047EC9000080C00002002
:1029D00058010020E4900008549000080E000020E8
:1029E00010B501462248008800EB80004FF6FF74C6
:1029F00004EA80021F48008800EB800004EA80039C
:102A00001D4800884042814203DB1B480088814208
:102A100022DD1A480078012804D10420184C2071C6
:102A2000084610BD17480088904206DA154800880D
:102A3000401C144C20800846F3E713480088984255
:102A400005DA11480088401C0F4C208002E001206C
:102A50000A4C20700020E4E70020094C2071074C4C
:102A60002070084C2080084C20800846D9E70000E0
:102A7000E0030020E2030020DE030020AA00002083
:102A800046040020AC000020AE00002010B500F08D
:102A900013F800F089FC00F0B1FC00F0D1FC00F06C
:102AA00059FC00F02BFC00F065FD00F009FD00F082
:102AB0002FFD00F002F810BD7047704706480078FF
:102AC000012808D105480078FF2804D2034800787F
:102AD000401C0249087070478203002075030020E3
:102AE00010B500241A480078012830D1FDF77CFB8E
:102AF00004461848007820B116480078401E154951
:102B0000087014480078F8B913480078E0B900F06C
:102B100093FD12481249097850F8210011490860C4
:102B20000F4800781049097888420DD00D48006898
:102B3000806B401C0B49096888630C480068401C86
:102B40000A490860FDF76FFB2046FDF751FB10BDF9
:102B500082030020750300207603002080170020E8
:102B60007803002090030020770300205C030020FE
:102B700070B5054600260F48007808B1002070BDEA
:102B8000FDF732FB06460C480468006820B10A488D
:102B900000684068084908603046FDF729FB3CB1F1
:102BA00001202070002020816560204600F097FB06
:102BB0002046E4E775030020600300202DE9F04182
:102BC00005460E4600271F48007820B110203070BF
:102BD0000020BDE8F081FDF707FB07461A4850F8D2
:102BE000250030B13846FDF703FB28203070002067
:102BF000EFE70120144941F82500144804684CB956
:102C0000002041F825003846FDF7F2FA0420307024
:102C10002046DEE70D48006840680C4908603846E9
:102C2000FDF7E6FA04202070FF2040EA052020810D
:102C300000206060204600F052FB002030702046EB
:102C4000C7E7000075030020801700206003002004
:102C500010B500240B480078012811D1FDF7C4FA03
:102C600004460948007840B908480078FF2804D293
:102C700006480078401C054908702046FDF7B8FA60
:102C800010BD0000820300207503002076030020A1
:102C900010B5002413480078012821D1FDF7A4FACB
:102CA000044611480078C0B10F480078401E0E4914
:102CB00008700846007860B90C48007828B92046AA
:102CC000FDF796FA00F07EFC0AE02046FDF790FA48
:102CD00006E02046FDF78CFA02E02046FDF788FA70
:102CE00010BD000082030020760300207503002041
:102CF00070B5054600260F48007808B1002070BD69
:102D0000FDF772FA06460C480468006820B10A48CC
:102D100000684068084908603046FDF769FA3CB130
:102D200003202070258100206060204600F0D7FA43
:102D30002046E4E7750300206003002010B50B482F
:102D4000007890B900F078FC0948007809490870CB
:102D500009480749097850F82100084908600846E1
:102D6000006807490860FDF746FA10BD820300209D
:102D700078030020770300208017002090030020B4
:102D80008803002010B50024022000F0F5F9FDF7BB
:102D90002BFA044600200B4908602046FDF728FA6C
:102DA000192000F0E9F9FDF71FFA0446054800680C
:102DB000054908600120054908702046FDF718FA0A
:102DC00010BD0000840300206C0300207403002069
:102DD000704700002DE9FE4F06460F4690461C4600
:102DE0004FF00009FDF700FA81461F48007828B12E
:102DF0004846FDF7FDF93C20BDE8FE8F1B4850F822
:102E0000240060BB0120194941F824004846FDF721
:102E1000EFF9002342463946304600F009F9824670
:102E20000020009001900346024651460290204641
:102E300000F018FC054635B90D48007801280CD182
:102E400000F0C0FB09E0FDF7CFF9814600200749FB
:102E500041F824004846FDF7CBF92846CCE7484620
:102E6000FDF7C6F92820C7E775030020801700206A
:102E7000820300202DE9F04F85B081468A469346B3
:102E80001C46DDE90F78129D00200390FDF7ACF998
:102E900003902348007830B10398FDF7A9F93C204E
:102EA00005B0BDE8F08F1F4850F8240088BB012012
:102EB0001C4941F824000398FDF79AF92A46414637
:102EC000384600F0DFFC2B465A465146484600F093
:102ED000AFF804901198CDE9008002953A4620465B
:102EE0000E9B049900F0BEFB064636B90E480078EA
:102EF00001280CD100F066FB09E0FDF775F903909D
:102F00000020084941F824000398FDF771F9304684
:102F1000C6E7FFE70398FDF76BF92820C0E700003C
:102F2000750300208017002082030020704770473F
:102F30002DE9F04106460F4614464FF000081548AB
:102F4000007818B112202070BDE8F081FDF74CF92F
:102F50008046FF2E03D11048006890F832600F4879
:102F600050F826502DB94046FDF742F94320207015
:102F7000EAE7012D05D14046FDF73AF943202070DC
:102F8000E2E7EF644046FDF733F90020207000BF10
:102F9000DAE7000075030020880300208017002076
:102FA000704700002DE9F04707460D464FF0000A34
:102FB000002028606860FDF717F98246FF2F03D1D3
:102FC0001948006890F83270184850F827402CB91A
:102FD0005046FDF70DF94320BDE8F087012C04D1E0
:102FE0005046FDF705F94320F6E7207C00F001008C
:102FF00020B95046FDF7FCF84520EDE70026D4F84F
:103000000C90D4F808805046FDF7F2F800E0761CEA
:1030100058F8041B0029FAD0B0002860A9EB06007C
:10302000800068600020D7E7880300208017002018
:1030300070B5044610464FF080750560051F2846A0
:103040002C606FF00106051F28462E604FF01236E7
:10305000051F28462E604FF00336051F28462E60B8
:103060004FF00236051F28462E607610051F2846B1
:103070002E60051F284629604FF01136051F28468F
:103080002E604FF01036051F28462E604FF009368F
:10309000051F28462E604FF00836051F28462E6073
:1030A0004FF00736051F28462E604FF00636051FE5
:1030B00028462E604FF00536051F28462E604FF03B
:1030C0000436051F28462E6070BD00002DE9F04132
:1030D00005464FF00008FDF787F88046FF2D05D123
:1030E0002048006890F83250012608E01D4800682A
:1030F00090F83200A84201D1012600E000261A48CB
:1031000050F825402CB94046FDF772F84820BDE83C
:10311000F081012C04D14046FDF76AF84320F6E720
:1031200094F834701148C05D94F8351088430F4905
:10313000C8550846C05D30B994F836100C48007880
:1031400088430B49087094F8300040F0080084F878
:1031500030004046FDF74CF8012E01D100F032FA64
:103160000020D4E788030020801700207A03002085
:10317000790300207047000070B505460026174807
:10318000007800B170BD1648007800B1FAE71DB3B1
:10319000FDF72AF806461348006890F834401248B4
:1031A000005D1049096891F8351088430E490855AB
:1031B0000846005D40B90B48006890F836100B488F
:1031C000007888430949087006480068C56230469F
:1031D000FDF70EF800F0F6F900BFD3E77503002005
:1031E00076030020880300207A0300207903002062
:1031F00070B5002600F072F8FCF7F6FF064631487D
:103200000068401C2F4908603046FCF7F1FF2E484B
:103210000078012853D12D48007820B1012804D02E
:10322000022809D103E001250BE0002509E0012572
:1032300001202649087004E0012500202349087078
:1032400000BF00BF05B970BD2148046833E0FCF73A
:10325000CBFF0646E06A50B3E06A401EE062E06AD7
:1032600028BB94F8300000F0370040B114F8300F5C
:1032700000F0C800207001206070303C02E00020A7
:1032800084F8310094F8300000F0080078B9343444
:10329000A0781049097808430E49087020780E4933
:1032A000085C6178084314F834190B4A5054646977
:1032B0003046FCF79DFF94F832003F28C7D100BF8D
:1032C000C1E70000A0030020820300209803002033
:1032D00094030020790300207A0300207047014600
:1032E00000228A72002005E0002301F10B02135432
:1032F000421CD0B20828F7D3704700002DE9F041F6
:103300005021114800F02CF900250DE0681C86B210
:103310000D4800EB051400EB0617002020706760D5
:103320000AA0E060681C85B2042DEFD3064800EBCC
:10333000051400202070606004A0E0600248044989
:103340000860BDE8F0810000301300203F0000005D
:103350006403002070B5C821114800F001F9002372
:103360000FE0581C85B203EB83000D4901EB80048C
:1033700005EB850001EB8006002020706660581C7C
:1033800083B2092BEDD303EB8300054901EB8004E5
:1033900000202070606008460249086070BD00008F
:1033A000681200206003002000200A4908600A49D2
:1033B00008700A4908700A4908700A4908700A49E1
:1033C00008600A4908600A4908600A4908600A4911
:1033D00008707047A00300207503002076030020CA
:1033E00083030020820300205C030020840300206C
:1033F000700300206C0300207403002000210A4A9F
:103400001170002004E00021084A1154411CC8B288
:103410000828F8D30021064A1170064A1170064A9E
:103420001160064A11607047790300207A0300207A
:1034300077030020780300209003002088030020F9
:1034400070B54FF47C71194800F08AF84FF4807120
:10345000174800F085F8002413E0601CC5B2C4EBE7
:10346000C40000EB4000114901EB8003C5EBC5002F
:1034700000EB400001EB80065E610EA0D864601C8A
:10348000C4B20B2CE9D3C4EBC40000EB40000749E5
:1034900001EB80030020586106A0D8640020064993
:1034A000086002480549086070BD000080180020CF
:1034B000801700203F000000940300208C030020B0
:1034C00000B587B00320002180220A4BCDE90132EC
:1034D000CDE903104FF6FF703F23074A00900748DD
:1034E000FFF7C8FC06AA06A13F20FFF721FD07B0A1
:1034F00000BD0000801500207C17002099370008CF
:1035000075432F4F532D49492049646C65000000D5
:1035100000B587B00320002180220A4BCDE901329B
:10352000CDE903104FF6FE703E23074A009007488E
:10353000FFF7A0FC06AA06A13E20FFF7F9FC07B0A2
:1035400000BD0000801300207C150020C13700085A
:1035500075432F4F532D4949205374617400000067
:1035600004E0002200F8012B4A1E91B20029F8D194
:10357000704700002DE9F04178211048FFF7F0FF77
:1035800000240DE0601C86B204EB44000B4901EB03
:10359000C00506EB460001EBC0072F60601C84B23B
:1035A000042CEFD304EB4400044901EBC0050020D8
:1035B0002860084602490860BDE8F081701C0020C0
:1035C0009C03002010B50024FCF70EFE04461348AF
:1035D0000078F8B912480078E0B900F02DF81148E9
:1035E0001149097850F82100104908600E48007808
:1035F0000F49097888420DD00C480068806B401C48
:103600000A49096888630B480068401C094908603A
:10361000FCF702FE2046FCF7EBFD10BD7503002011
:1036200076030020801700207803002090030020FC
:10363000770300205C0300200649074A1278885C63
:103640000649095C034A515C01EBC001044A117050
:103650007047000008930008790300207A030020D7
:10366000780300202DE9F84F05460F46904699460D
:10367000DDE90AAB00200090FCF7B6FD00903F4862
:103680000468002C74D0183454F8040C3B490860CA
:103690000098FCF7ADFD44F8187CA5760020207654
:1036A0006076606144F814BC44F80CAC44F8108CAB
:1036B0000C9824F8080C24F8069C0020E077E81009
:1036C000207705F00700E076217F01208840A07771
:1036D000E17E01208840607700206060E060A060AB
:1036E0002062A0626062E062206325A06063183CF3
:1036F000002606E0002104F1500040F82610701C5E
:10370000C6B2002EF6D02046FFF762FB2046FFF738
:103710000DFCFCF769FD00901A4840F825401A4856
:10372000006860610020A0611748006810B1164869
:1037300000688461144804603434A078134909781F
:1037400008431249087020781149085C61780843E1
:1037500014F834190E4A50540E480078401C0D4994
:1037600008700098FCF744FD0020BDE8F88FFFE7E3
:103770000098FCF73DFD4220F7E700008C03002095
:103780003F000000801700209403002079030020F0
:103790007A03002083030020002400BF00BFFCF751
:1037A00023FD044605480068401C04490860204683
:1037B000FCF71EFDFFF7BBFBF1E7000084030020D0
:1037C000002400BF02E03220FFF7D6FC1948007841
:1037D0000028F8D0184800686421B0FBF1F01649C1
:1037E00008600846006828B9002014490870FF20C6
:1037F000FFF76CFC00BFFCF7F7FC044610480068BC
:103800001049086000200E4908602046FCF7F0FCD3
:103810000C48006808490968B0FBF1F0C0F1640089
:1038200006490870FFF7BCFB00F00EF81920FFF7FF
:10383000A3FCE0E7740300206C0300206803002071
:1038400084030020700300207CB5002514E0694645
:103850002846FFF7A7FB064666B9094850F82540F9
:1038600044B1012C06D0D4E9020100EB8100606470
:103870000198A064681CC5B23F2DE8D97CBD00004A
:103880008017002002F0010343B102F002032BB1C4
:1038900002E0491E002308C00029FAD17047000049
:1038A0002DE9F04100206A49096808606849096803
:1038B00048606749096888604FF07C50644909682E
:1038C000C86063490968C86805F0FEF8064600222A
:1038D000604B04F0BFFC044604F0D6FB5C49096869
:1038E000086101205A490968087559490968C8687A
:1038F00005F0EAF806460022574B04F0C7FE0446DE
:1039000004F0C2FB524909688861002050490968E7
:10391000C8614F49096808624D49096848624F49C2
:10392000096808604D49096848604C490968886021
:103930004A490968C8604A484849096808614948CD
:1039400046490968486101204449096808764648A3
:1039500042490968C86100204049096808623F4936
:10396000096848623D4909688862404909680860F9
:103970003E49096848603D49096888603B490968D3
:10398000C8603748394909680861364837490968C5
:103990004861012035490968087633483349096888
:1039A000C8610020314909680862304909684862E5
:1039B0002E49096888622E49096808602C490968FF
:1039C00048602B490968886029490968C860294806
:1039D0002749096808612848254909684861012084
:1039E0002349096808764FF07C5021490968C8616D
:1039F00000201F49096808621D49096848621C497E
:103A0000096888621D49096808601C49096848609E
:103A10001A490968886019490968C8614FF08140EE
:103A200016490968C86016481449096808610120E8
:103A3000124909680875134810490968886100200F
:103A40000E49096808620D4909684862BDE8F081BD
:103A5000D80000200080514000001440D400002015
:103A6000000020429A99193F00002041DC0000200C
:103A7000E00000209A99993ECDCCCC3DE400002096
:103A80000AD7A33D0000404010B501F0A9FD01F0A8
:103A9000B5FCFEF75DFE10BD2DE9FF5F04468946CB
:103AA0006149D1F8A010098801EB81015E4A52F802
:103AB00021100988D2F8A020128802EB82025A4B0A
:103AC00003EB820252681288881A04F078FD0546DA
:103AD0000E465549D1F8A010098801EB8101524AE0
:103AE00052F821100988081B04F069FD07460022DE
:103AF0004E4B04F0CBFD2A463346CDE9000104F0DD
:103B0000A9FB824604F0C0FA02900021029805F059
:103B1000F1F801D200200290029804F0D5FF05468A
:103B20000022424B04F0B0FE01D2414802900298BC
:103B300005F098F8643800B23E4908803A49D1F857
:103B4000A010098801EB8101374A02EB81018968E5
:103B50000988D2F8A020128802EB8202324B03EBD4
:103B60008202D2681288881A04F029FD05460E46A2
:103B70002D49D1F8A010098801EB81012A4A02EBF6
:103B8000810189680988A1EB090004F018FD8246CB
:103B90000022264B04F07AFD07462A46334604F0FD
:103BA00059FBCDE9000104F06FFA02900021029860
:103BB00005F0A0F801D200200290029804F084FFE2
:103BC00005460022194B04F05FFE01D2184802900E
:103BD000029805F047F8643800B217490880174882
:103BE000007A082803D1002004B0BDE8F09F1448F3
:103BF000B0F900004FF47A7148431249B1F900104E
:103C000090FBF1F01049088010480078012802D19B
:103C100002F03AFF04E003F0A7F90546FEF726FAA2
:103C200003900398E0E7000058010020000069407D
:103C300000004843A6000020A80000204604002001
:103C4000C8030020CA030020A40000205001002067
:103C50002DE9F04F87B006460C466648008805F00F
:103C600035F8824664480068C168504605F076F829
:103C700007466048008805F029F882465E480068DB
:103C80000169504605F06AF880465A48008805F0F8
:103C90001DF88246584800688169504605F05EF874
:103CA00081461425304604F0F9FF5349096808623B
:103CB000284604F0F3FF82464F480068016A5046E8
:103CC00005F018F91AD8684204F0E8FF82464A481D
:103CD0000068016A504605F00DF80FD801204649EA
:103CE00009680875444A1268116A434A1268D06923
:103CF00004F016FF40490968C86106E000203E490B
:103D0000096808753C490968C8613B490968086A3F
:103D1000002104F073FF07D100203749096848608B
:103D200035490968C86134E0334A1268516A324A39
:103D30001268106A05F010F98346494605F00EF83E
:103D40002D4904900968087D04F0C0FF41460190A8
:103D500005F004F8834628480068C169584604F015
:103D6000FDFF039024480068016A384604F0F6FF1E
:103D70000290039904F0D4FE8246049904F0D0FE28
:103D8000059004F06FFF069004F088FF1A49096857
:103D90004860204604F082FF824617480068416868
:103DA000504604F0A7FF05D2204604F077FF1249E1
:103DB00009684860604204F071FF82460E4800685E
:103DC0004168504605F096F805D2604204F066FF5F
:103DD00009490968486008480068006A0649096896
:103DE000486205490968486804F03CFF07B0BDE82F
:103DF000F08F0000B8030020D800002070B5064600
:103E00002648008840102649098800EB61052348B0
:103E100005802348C28829463046FDF73BFB2149EF
:103E200008602148407968B90024FCF7F9FE1F4872
:103E30001F4908601F4908601F49086000201A498F
:103E400008712AE017480068002808DD1548046852
:103E5000642C00DA642401201349C87110E0114871
:103E60000068002809DA0F4800684442642C00DA30
:103E70006424FF200C49C87102E00024FCF7D0FE46
:103E80000E490C80091D0C80091D0C800648007924
:103E900018B9642C01DBFCF79BFE70BDA00000206C
:103EA000020000209C0000208800002020A10700C4
:103EB000480000204400002040000020342C014035
:103EC00001460020034A506820F4404008435060F7
:103ED000704700000010024029B1064A52690243AF
:103EE000044B5A6104E0034A52698243014B5A6110
:103EF000704700000010024029B1064AD26902430F
:103F0000044BDA6104E0034AD2698243014BDA616F
:103F1000704700000010024029B1064A12690243AE
:103F2000044B1A6104E0034A12698243014B1A618F
:103F3000704700000010024029B1064A926902430E
:103F4000044B9A6104E0034A92698243014B9A61EF
:103F5000704700000010024029B1064AD2680243AF
:103F6000044BDA6004E0034AD2688243014BDA6012
:103F7000704700000010024010B500F03BF84FF40D
:103F8000803000F0F9F800BF312000F0C3F80028BD
:103F9000FAD01020FDF7B8FD0220FDF7E3FD002068
:103FA00000F0DEF8002000F019F94FF4806000F016
:103FB00009F94FF4E0114FF4803000F021F90120AD
:103FC00000F018F900BF392000F0A4F80028FAD05A
:103FD000022000F023F900BF00F0BAF80828FBD156
:103FE00001210846FFF778FF01217D20FFF7A4FF9C
:103FF00010BD00000F48006840F001000D49086046
:10400000084640680C4908400A494860084600686C
:104010000A490840074908600846006820F48020E3
:1040200008600846406820F4FE0048604FF41F0016
:1040300088607047001002400000FFF8FFFFF6FEA6
:1040400030B500210022002400232D4D6D6805F0BD
:104050000C0121B1042905D0082923D105E0294DFF
:10406000056022E0274D05601FE0254D6D6805F4D1
:104070007012234D6D6805F48034022505EB9242E1
:104080001CB9214D554305600BE01D4D6D6805F4CD
:1040900000351DB11C4D5543056002E0194D5543D7
:1040A000056002E0174D056000BF00BF144D6D684C
:1040B00005F0F0010909154D6B5C0568DD404560B0
:1040C0000F4D6D6805F4E061090A104D6B5C4568A1
:1040D000DD4085600A4D6D6805F46051C90A0B4DDD
:1040E0006B5C4568DD40C560054D6D6805F4404179
:1040F000890B074D6B5CC568B5FBF3F5056130BDF9
:104100000010024000127A0000093D004703002021
:104110005703002010B501460022002300204A1159
:10412000012A02D1094C236806E0022A02D1074C79
:10413000236A01E0054C636A01F01F0201249440E8
:104140001C400CB1012000E0002010BD0010024016
:104150000248406800F00C00704700000010024068
:1041600001460020034A506820F0F00008435060E8
:1041700070470000001002401149096821F48031A5
:104180000F4A11601146096821F480211160B0F5D1
:10419000803F03D0B0F5802F0ED106E008490968B2
:1041A00041F48031064A116007E00549096841F48D
:1041B000A021034A116000E000BF00BF704700006B
:1041C0000010024001460020034A506820F4E060DD
:1041D0000843506070470000001002400146002074
:1041E000034A506820F4605040EAC10050607047B4
:1041F000001002400149086670470000000042427A
:1042000002460020044B586820F47C1042EA010367
:104210001843014B586070470010024001460020CF
:10422000034A506820F003000843506070470000C4
:104230000010024070B505460C4622462946034848
:10424000FCF72CF82046FDF75BFA70BDF40900205E
:1042500010B504462146094800F012F821460748E7
:10426000103000F00DF821460448203000F008F826
:1042700021460248303000F003F810BDEC00002069
:1042800070B504460D46A07A4006000EA072218942
:104290006068FDF765FD10B9A07A401CA072A07A95
:1042A00000F00700072802D10120E07205E0A07AA3
:1042B00000F0070008B90020E072207BE17A884214
:1042C00003D029462046FDF743FEE07A207370BDF7
:1042D00010B5FBF789FF04466A225B495B4800F092
:1042E000ABFE2046FBF784FF5748008858490880FA
:1042F0005548408857490880534880885649088067
:104300005148C088554908804F4800895449088061
:104310004D484089534908804B488089524908805C
:104320004948C089514908804748008A5049088057
:104330004548408A4F4908804348808A4E49088052
:104340004148C08A4D4908803F48008B4C4908804D
:104350003D48408B4B4908803B48808B4A49088048
:104360003948C08B494908803748008C4849088043
:104370003548408C474908803348808C00B2464914
:1043800008803148C08C00B2444908802E48008D16
:10439000434908802C48408D424908802A48808D36
:1043A000414908802848C08D404908802648008E31
:1043B0003F4908802448408E3E4908802248808E2C
:1043C0003D4908802048C08E3C4908801E48008F27
:1043D0003B4908801C48408F3A4908801A48808F22
:1043E000394908801848C08F384908801648B0F805
:1043F0004000374908801448B0F842003549088029
:104400001148B0F84400344908800F48B0F846001D
:10441000324908800C48B0F84800314908800A4801
:10442000B0F84A002F4908800748B0F84C002E49E0
:1044300008800548B0F84E002C4908800248B0F8C2
:1044400050002B49088010BDDE0A00200000010842
:10445000A4030020A6030020A8030020AA03002034
:10446000AC030020AE030020B0030020B203002004
:10447000B4030020B6030020B8030020BA030020D4
:10448000BC030020BE030020C0030020C2030020A4
:10449000C4030020C6030020C8030020CA03002074
:1044A000CC030020CE030020D0030020D203002044
:1044B000D4030020D6030020D8030020DA03002014
:1044C000DC030020DE030020E0030020E2030020E4
:1044D000E4030020E6030020E8030020EA030020B4
:1044E000EC030020EE030020F0030020F203002084
:1044F000F403002010B5FBF777FE04466A22584902
:10450000584800F099FD2046FBF772FE5448008899
:10451000554908805248408854490880504880884E
:10452000534908804E48C088524908804C48008949
:10453000514908804A484089504908804848808944
:104540004F4908804648C0894E4908804448008A3F
:104550004D4908804248408A4C4908804048808A3A
:104560004B4908803E48C08A4A4908803C48008B35
:10457000494908803A48408B484908803848808B30
:10458000474908803648C08B464908803448008C2B
:10459000454908803248408C444908803048808C26
:1045A000434908802E48C08C424908802C48008D21
:1045B000414908802A48408D404908802848808D1C
:1045C0003F4908802648C08D3E4908802448008E17
:1045D0003D4908802248408E3C4908802048808E12
:1045E0003B4908801E48C08E3A4908801C48008F0D
:1045F000394908801A48408F384908801848808F08
:10460000374908801648C08F364908801448B0F8EA
:104610004000354908801248B0F84200334908800C
:104620000F48B0F84400324908800D48B0F8460001
:10463000304908800A48B0F848002F4908800848E7
:10464000B0F84A002D4908800548B0F84C002C49C4
:1046500008800348B0F84E002A49088010BD0000C9
:10466000480B002000080108F6030020F803002092
:10467000FA030020FC030020FE03002000040020B9
:104680000204002004040020060400200804002086
:104690000A0400200C0400200E0400201004002056
:1046A0001204002014040020160400201804002026
:1046B0001A0400201C0400201E04002020040020F6
:1046C00022040020240400202604002028040020C6
:1046D0002A0400202C0400202E0400203004002096
:1046E0003204002034040020360400203804002066
:1046F0003A0400203C0400203E0400204004002036
:10470000420400204404002010B59F48006800883F
:1047100010B101287ED198E09C48006800789C493F
:10472000098841EA0030C0F30E009A490968088000
:1047300000F02CFE9848B0F8A8009749B1F8A610F0
:10474000401A7D2838DD944890F8A40001287BD1D8
:104750009148B0F8A8008D490968098801EB8101EA
:104760008D4A52F8211008801046B0F8A6008749FB
:104770000968098801EB810102EB81014968088021
:1047800082480068008800EB8000114601EB800041
:104790000069008840F002007C490968098801EB43
:1047A000810102EB81010969088002F0D7FC002039
:1047B000794981F8A40010BD7748B0F8A80076497F
:1047C000B1F8A610401A10F17D0F3BDA724890F84C
:1047D000A400012838D17048B0F8A6006B490968D8
:1047E000098801EB81016C4A52F8211008801046BB
:1047F000B0F8A80065490968098801EB810102EB5E
:1048000081014968088061480068008800EB8000E9
:10481000114600E0B3E001EB80000069008840F041
:1048200002005A490968098801EB810102EB810104
:104830000969088002F092FC0020574981F8A40021
:10484000B9E701E00120B6E79BE050480068007836
:104850005249098841EA003080B240F400404D4995
:104860000968088000F0AEFD4B48B0F8AC004A493A
:10487000B1F8AA10401A7D2839DD474890F8A40005
:1048800001287BD14448B0F8AC0040490968098848
:1048900001EB8101404A02EB8101896808801046E2
:1048A000B0F8AA0039490968098801EB810102EBD7
:1048B0008101C968088035480068008800EB8000E5
:1048C000114601EB80000069008840F001002F498B
:1048D0000968098801EB810102EB810109690880FF
:1048E00002F03CFC00202C4981F8A40063E72A4830
:1048F000B0F8AC002849B1F8AA10401A10F17D0FA9
:104900003ADA254890F8A400012837D12248B0F8B7
:10491000AA001E490968098801EB81011E4A02EBC1
:104920008101896808801046B0F8AC001749096811
:10493000098801EB810102EB8101C96808801348F5
:104940000068008800EB8000114601EB80000069E0
:10495000008840F001000D490968098801EB8101D8
:1049600002EB81010969088002F0F8FB00200A4986
:1049700081F8A4001FE701E001201CE701E001200D
:1049800019E700BF00BF16E7EC900008E4900008AC
:104990000C00002054900008580100200E00002058
:1049A00010B5002240F22441164802F0D7F9002148
:1049B0001548FCF72FFF4FF40070FCF70FFF12486B
:1049C000FCF7DAFFC0F1800010498875002406E08A
:1049D0000F48015D0D48401C0155601CC4B20B48D6
:1049E000807DA042F4DC80200749303948630121F2
:1049F0000548FCF70FFF012240F22441014802F074
:104A0000ADF910BD00480040300002407010002099
:104A10007409002010B5002240F22441164802F02B
:104A20009DF900211548FCF7F5FE4FF40010FCF746
:104A3000D5FE1248FCF7A0FFC0F180001049887530
:104A4000002406E00F48015D0D48401C0155601C24
:104A5000C4B20B48807DA042F4DC802007496C3949
:104A6000086701210548FCF7D5FE012240F22441E8
:104A7000014802F073F910BD004400406C00024090
:104A8000701000207408002010B5FBF7ADFB044641
:104A90006A225349534800F0CFFA2046FBF7A8FB9F
:104AA0004F480088504908804D4840884F49088049
:104AB0004B4800894E490880494840894D49088043
:104AC000474880894C4908804548C0894B4908803F
:104AD0004348008A4A4908804148408A4949088039
:104AE0003F48808A484908803D48C08A4749088035
:104AF0003B48008B464908803948408B454908802F
:104B00003748808B444908803548C08B434908802A
:104B10003348008C424908803148408C4149088024
:104B20002F48008D404908802D48408D3F4908801E
:104B30002B48808D3E4908802948C08D3D4908801A
:104B40002748008E3C4908802548408E3B49088014
:104B50002348808E3A4908802148C08E3949088010
:104B60001F48008F384908801D48408F374908800A
:104B70001B48808F364908801948C08F3549088006
:104B80001748B0F84000344908801548B0F8420092
:104B9000324908801248B0F8440031490880104872
:104BA000B0F846002F4908800D48B0F848002E495B
:104BB00008800B48B0F84A002C4908800848B0F833
:104BC0004C002B4908800648B0F84E00294908805F
:104BD0000348B0F8500028490880FDF7B9FD10BD22
:104BE000740A002000040108A4030020A60300208A
:104BF000AC030020AE030020B0030020B20300206D
:104C0000B4030020B6030020B8030020BA0300203C
:104C1000BC030020BE030020C0030020C20300200C
:104C2000C4030020C6030020CC030020CE030020D4
:104C3000D0030020D2030020D4030020D60300209C
:104C4000D8030020DA030020DC030020DE0300206C
:104C5000E0030020E2030020E4030020E60300203C
:104C6000E8030020EA030020EC030020EE0300200C
:104C7000F0030020F2030020F40300202DE9F84F98
:104C800005460E461446684204F008F8544909687F
:104C9000086254480068A04203D0002050490968C7
:104CA000C8614F490968086A4F4904F023F87AD867
:104CB0004B490968086A4D4904F01CF973D8484902
:104CC0000968086A4A4904F015F808D8444909688F
:104CD000086A484904F00EF901D8012000E00020DC
:104CE0003F49096808753E4A1268116A3C4A1268D1
:104CF000D06903F015FF3A490968C861384A12685B
:104D0000516A374A1268106A04F026F9814634481D
:104D100000688169484604F021F80746304909686F
:104D2000087D03F0D3FF83462D480068016958468B
:104D300004F014F882462A480068C169504604F01D
:104D40000DF88146264A1268116A254A1268D06811
:104D500004F004F84946009003F0E2FE804639462C
:104D600003F0DEFE1E4909684860304603F096FFF6
:104D700007461B4800684168384603F0BBFF05D270
:104D8000304603F08BFF16490968486014490968EA
:104D90004868002103F0AEFF12D2002010490968D4
:104DA00048600DE0FFE70E490968086A104904F001
:104DB000A1F805D2304603F071FF0949096848603F
:104DC00007480068006A06490968486205480460A7
:104DD00003490968486803F045FFBDE8F88F000003
:104DE000E4000020E80000200000FA430000FAC3BD
:104DF0000000C8420000C8C22DE9F84F814688462D
:104E00008548008800EBC00101EB0015834800884D
:104E100000EB800046008248008800EB80004700DD
:104E200007F11E0BA6F11E0000904FF0000A0024AF
:104E30007C48008800287DD17B4800887B49096830
:104E4000A0EB010A7A480068B0F1FF3F02D00128C8
:104E500071D140E074480088B84213DC754800689E
:104E6000401C7449086008460068A84201D200242A
:104E700030E000206F4908606D48006840426C498E
:104E8000086027E000206B490860674800885845A3
:104E90001ADC65480088B84216DDBAF1000F0CDA5A
:104EA0006348006840F6B83148435F490988C91B28
:104EB00048431E2190FBF1F40CE05D48006840F689
:104EC000B83100FB01F405E05948006840F6B831FC
:104ED00000FB01F446E054480088B04213DB55481B
:104EE0000068401C5349086008460068A84201D287
:104EF000002434E000204F4908604D4800684042DB
:104F00004B4908602BE000204A4908604648018868
:104F1000009881421DDB44480088B04219DABAF19A
:104F2000000F0FDD4248006840F6B83148433E4963
:104F3000098801E01CE013E0711A48431E2190FB30
:104F4000F1F40CE03A48006840F6B83100FB01F497
:104F500005E03748006840F6B83100FB01F401E095
:104F6000002400BF00BF304800883049086050E08E
:104F70002F480068B0F1FF3F02D0012846D122E05F
:104F8000B9F1000F13DD2B480068401C2949086067
:104F900008460068A84201D2002413E000202549F9
:104FA0000860234800684042214908600AE0204820
:104FB00040F6B83102684846FFF760FE1C490968B0
:104FC00000FB01F424E0B8F1000F13DD194800687C
:104FD000401C1849086008460068A84201D2002415
:104FE00013E000201349086011480068404210494E
:104FF00008600AE00E4840F6B83102684046FFF704
:105000003DFE0B49096800FB01F401E0002400BFEC
:1050100000BF2046BDE8F88FD6030020D80300204B
:10502000DA030020D4030020A4000020B4000020F4
:10503000B0000020B800002030B504460D46002323
:1050400007E0204600F00BF825F81300A41C581CBC
:1050500083B202EBD271B3EB610FF2DB30BD0146DC
:10506000088870472DE9F05F80468A461746B8F1F8
:10507000006F02D33348804501D3BDE8F09FFCF7B1
:105080007DFDA8F1006B4FEA9B25CBF34809C9F5DC
:105090000074A74200DC3C464DE04FF0006101EB9C
:1050A00085208A142849FFF7C7FF00260BE009EB8B
:1050B0000600254931F810004FF6FF71884200D0F4
:1050C00003E0701C86B2A642F1DB00BFA6421BDAE9
:1050D0004FF0006101EB8520FCF7CCFC002608E0D6
:1050E0003AF8160006EB0901174A22F81100701C65
:1050F00086B2A642F4DB4FF0006101EB85208A14F2
:10510000114900F023F804E022465146404600F0E1
:105110001DF8A74200D10FE06D1C4FF000090AEB0B
:10512000440AA044381B87B2B7F5007F02DD4FF474
:10513000007400E03C46B0E700BFFCF7DBFC00BFBA
:105140009BE70000000002089A0B00202DE9F041C7
:1051500005460E461746002407E036F81410284688
:10516000FCF7E0FCAD1C601C84B2BC42F5DBBDE882
:10517000F081704710B54848008848490880484881
:105180000088488047480088888047480088C88051
:10519000464800880881464800884881454800887C
:1051A000888145480088C88144480088088244486E
:1051B0000088488243480088888243480088C88223
:1051C0004248008808834248008848834148008854
:1051D000888341480088C883404800880884404844
:1051E000008848843F48008888843F480088C884F5
:1051F0003E48008808853E48008848853D4800882C
:1052000088853D480088C8853C48008808863C4819
:10521000008848863B48008888863B480088C886C6
:105220003A48008808873A48008848873948008803
:10523000888739480088C88738480088A1F8400026
:1052400037480088A1F8420036480088A1F8440099
:1052500035480088A1F8460034480088A1F8480085
:1052600033480088A1F84A0032480088A1F84C0071
:1052700031480088A1F84E0030480088A1F850005D
:10528000FAF7B2FF04466A2204492D48FFF7EAFE06
:105290002046FAF7ADFF10BDA4030020DE0A00206F
:1052A000A6030020A8030020AA030020AC030020CE
:1052B000AE030020B0030020B2030020B40300209E
:1052C000B6030020B8030020BA030020BC0300206E
:1052D000BE030020C0030020C2030020C40300203E
:1052E000C6030020C8030020CA030020CC0300200E
:1052F000CE030020D0030020D2030020D4030020DE
:10530000D6030020D8030020DA030020DC030020AD
:10531000DE030020E0030020E2030020E40300207D
:10532000E6030020E8030020EA030020EC0300204D
:10533000EE030020F0030020F2030020F40300201D
:10534000000001080E49B1F900100E4AB2F9002020
:10535000891A48100A49B1F900100A4AB2F9002026
:10536000891A04D4C1B2084A1268118007E0414288
:105370004FF47F4202EA0121034A1268118070470C
:10538000A8000020A6000020509000080B48B0F9AB
:105390000000002805DB09480078094909680880F1
:1053A0000AE00648B0F9000040424FF47F4101EAAC
:1053B000002003490968088070470000A60000200B
:1053C000509000080B48B0F90000002805DB0948A0
:1053D00000780949096808800AE00648B0F9000029
:1053E00040424FF47F4101EA0020034909680880E8
:1053F00070470000A80000205090000840F65A7046
:1054000043490880A5204349088040F65A70424924
:105410000880A5204149088003204149088040F6C2
:105420005A7040490880A5203F49088040F65A70CC
:105430003E490880A5203E49088000203D4908805B
:1054400040F65A703C490880A5203C49088040F647
:105450005A703B490880A5203A49088000203A4903
:10546000088040F65A7039490880A52038490880DC
:1054700040F65A7037490880A52037490880002037
:105480003649088040F65A7035490880A5203549CC
:10549000088040F65A7034490880A52033490880B6
:1054A00000203349088040F65A7032490880A52010
:1054B0003149088040F65A7030490880A5203049AB
:1054C000088000202F49088040F65A702E49088035
:1054D000A5202E49088040F65A702D490880A52045
:1054E0002C49088000202C49088040F65A702B492E
:1054F0000880A5202A49088040F65A70294908806A
:10550000A52029490880002028490880704700000C
:10551000F6030020F8030020FA030020FC0300201B
:10552000FE030020000400200204002004040020E8
:1055300006040020080400200A0400200C040020B7
:105540000E04002010040020120400201404002087
:1055500016040020180400201A0400201C04002057
:105560001E04002020040020220400202404002027
:1055700026040020280400202A0400202C040020F7
:105580002E040020300400203204002034040020C7
:1055900036040020380400203A0400203C04002097
:1055A0003E04002040040020420400204404002067
:1055B0000848B0F90000322101EB60000649098873
:1055C000322202EB610140EA0120044909680880A7
:1055D00070470000A8000020A6000020509000089E
:1055E0004EF655603849088000203849088038490F
:1055F0000880384908803849088038490880384987
:105600000880012037490880002037490880374941
:10561000088028203649088001203649088050201B
:10562000354908804FF4E1603449088034490880E6
:10563000344908800A20344908800520334908800D
:10564000C820334908804FF4FA703249088000209E
:10565000314908805F203149088032203049088074
:1056600005203049088001202F4908805F202F49FC
:10567000088001202E4908800F202E490880002034
:105680002D49088002202D4908805A202C49088085
:105690000A202C49088000202B4908802B490880CB
:1056A0002B4908802B49088032202B490880642030
:1056B0002A49088014202A49088032202949088074
:1056C0000020294908807047A4030020A603002079
:1056D000A8030020AA030020AC030020AE03002092
:1056E000B0030020B2030020B4030020B603002062
:1056F000B8030020BA030020BC030020BE03002032
:10570000C0030020C2030020C4030020C603002001
:10571000C8030020CA030020CC030020CE030020D1
:10572000D0030020D2030020DC030020DE03002091
:10573000E0030020E2030020D4030020D603002071
:10574000D8030020DA030020E4030020E603002051
:10575000E8030020EA030020EC030020EE03002011
:10576000F0030020F2030020F403002010B500F045
:1057700001F810BD0CB5002001900090334800687E
:1057800040F480303149086000BF3048006800F4C0
:10579000003000900198401C0190009818B90198C1
:1057A000B0F5A06FF1D12948006800F4003010B1C5
:1057B0000120009001E0002000900098012843D1D2
:1057C0002348006840F0100021490860084600683E
:1057D00020F0030008600846006840F002000860FE
:1057E0001A484068194948600846406848600846B9
:1057F000406840F4806048600846406820F47C10AF
:1058000048600846406840F4E81048600846006870
:1058100040F08070086000BF0C48006800F0007025
:105820000028F9D00948406820F003000749486083
:105830000846406840F00200486000BF03484068E6
:1058400000F00C000828F9D10CBD00000010024047
:105850000020024001460B480088814206DC0948CE
:1058600000884042814201DB0020704705480088E3
:10587000814203DD03480088081AF6E701480088E2
:105880000844F2E7BA0300201B480068008810B102
:1058900001282DD115E0194800881949A1F8A60062
:1058A0001848006800781549098841EA0030C0F3BB
:1058B0000E001549096808800120114981F8A400EB
:1058C00017E0124800880E49A1F8AA000D480068A8
:1058D00000780E49098841EA003080B240F4004067
:1058E0000949096808800120054981F8A40000E001
:1058F00000BF00BF00207047EC9000080C000020A3
:1059000058010020E4900008549000080E00002088
:105910002DE9F04704460D46002C7DD0601B03F0B6
:10592000BDF965490968086263490968086A4FF06A
:10593000804103F0DFF912D25F490968086A4FF02D
:10594000404103F0D7FA0AD200205B490968086297
:1059500059480068C06858490968486065E0564879
:105960000068416A4FF0804003F0F8F98146524ADE
:105970001268916A504A1268106A03F0D1F88246A0
:10598000494603F0E9FA80464B480068C169404641
:1059900003F0E4F90646484A1268116A464A12685A
:1059A000506903F0DBF98146434A1268516A424A62
:1059B0001268106A03F0D0FA82463F480068016915
:1059C000504603F0CBF98046494603F0A9F8074654
:1059D000314603F0A5F8384909688860364A1268EC
:1059E0009168354A1268D06803F09AF8324909681C
:1059F0004860204603F052F907462F480068416886
:105A0000384603F0ABF90646002103F073F90CD2D7
:105A1000002C02DD012102E037E04FF0FF310846A3
:105A200003F03CF92449096848602349096848683B
:105A3000224903F05FFA04D820481F4909684860EA
:105A40000AE01D49096848681D4903F053F903D865
:105A50001B4819490968486017480068406A164998
:105A60000968886214480068006A13490968486236
:105A700011480068406810490968C8600E4800680D
:105A800040680D49096808600FE000200A4909686C
:105A9000C8600949096808620749096848620649F7
:105AA0000968886204490968086003490968086848
:105AB00003F0D8F8BDE8F087E0000020000087443C
:105AC000000087C402464842824201DA48427047D9
:105AD0008A4201DD0846FAE71046F8E7042808D1B3
