:020000040800F2
:1000000020230020A9010008B9280008AD1C000821
:100010004D23000821110008CB6E000800000000ED
:100020000000000000000000000000004351000834
:100030002F1900080000000037020008D15A0008FC
:10004000D16E0008C3010008C3010008C301000805
:10005000C3010008C301000831190008C3010008EA
:10006000C3010008C3010008C3010008F914000817
:1000700021150008C3010008C3010008C3010008DE
:10008000C3010008F9150008C3010008C3010008F6
:10009000C3010008C3010008C3010008C301000830
:1000A0008D5D0008C3010008C3010008915D0008D0
:1000B000C3010008B15D0008215F0008C30100080A
:1000C000C3010008C3010008C3010008C301000800
:1000D000C3010008C3010008AD6B0008416C0008B3
:1000E000C3010008C3010008C301000800F002F8C2
:1000F00000F04BF80AA090E8000C82448344AAF177
:100100000107DA4501D100F040F8AFF2090EBAE874
:100110000F0013F0010F18BFFB1A43F0010318473B
:10012000B8930000C89300000A444FF0000C10F888
:10013000013B13F0070408BF10F8014B1D1108BF65
:1001400010F8015B641E05D010F8016B641E01F805
:10015000016BF9D113F0080F1EBF10F8014BAD1C55
:100160000C1B09D16D1E58BF01F801CBFAD505E073
:1001700014F8016B01F8016B6D1EF9D59142D6D3CD
:1001800070471FB51FBD10B510BD00F006F9114630
:10019000FFF7F7FF07F00CFD00F024F903B4FFF7B9
:1001A000F2FF03BC00F028F90948804709480047DE
:1001B000FEE7FEE7FEE7FEE7FEE7FEE7FEE7FEE717
:1001C000FEE7FEE704480549054A064B7047000074
:1001D000ED5A0008ED000008201D0020202300201B
:1001E000201F0020201F0020EFF3108072B6704700
:1001F00080F310887047204C204D25604FF000049C
:1002000084F309881E4C4FF0010525701D4C4FF0FA
:100210008055256062B6FEE730B41A4C4FF0805529
:10022000256030BC704730B4164C4FF080552560C7
:1002300030BC704700BF72B6EFF3098028B1203898
:1002400080E8F00F10490968086000B50F48804742
:100250005DF804EB0E480F490A7802700A480E490F
:100260000A680260106890E8F00F203080F3098877
:100270004EF0040E62B6704720ED00E00000FFFF74
:100280008603002004ED00E08C0300204D310008BF
:100290007B0300207C03002094030020032A40F20B
:1002A000308010F0030C00F0158011F8013BBCF118
:1002B000020F624498BF11F801CB00F8013B38BF30
:1002C00011F8013BA2F1040298BF00F801CB38BF3E
:1002D00000F8013B11F0030300F02880083AC0F059
:1002E000088051F8043B083A51F804CBA0E8081004
:1002F000F5E7121D5CBF51F8043B40F8043BAFF337
:100300000080D20724BF11F8013B11F801CB48BF90
:1003100011F8012B24BF00F8013B00F801CB48BFC6
:1003200000F8012B704770477047704710B5203AAE
:10033000C0F00B80B1E81850203AA0E81850B1E89E
:100340001850A0E81850BFF4F5AF5FEA027C24BF54
:10035000B1E81850A0E8185044BF18C918C0BDE84B
:1003600010405FEA827C24BF51F8043B40F8043B14
:1003700008BF7047D20728BF31F8023B48BF11F8C9
:10038000012B28BF20F8023B48BF00F8012B704723
:1003900000487047C01C002070477546FFF7F8FF03
:1003A000AE4605006946534620F00700854618B062
:1003B00020B5FFF707FFBDE820404FF000064FF0E3
:1003C00000074FF000084FF0000B21F00701AC468A
:1003D000ACE8C009ACE8C009ACE8C009ACE8C009A9
:1003E0008D46704710B50446AFF300802046BDE847
:1003F0001040FFF7D3BE000001491820ABBEFEE756
:100400002600020021B1826842F00102826003E00E
:10041000826822F001028260704721B1826842F452
:100420008072826003E0826822F48072826070478A
:10043000014600208A6802F004020AB1012000E0AF
:1004400000207047014600208A6802F008020AB1C5
:10045000012000E00020704730B502460020002354
:1004600050680F4C20400D790C6844EA0524204365
:10047000506090680B4C2040D1E902542C434D79D8
:1004800044EA450420439060D06A20F470000C7C5C
:10049000641EE4B2234340EA0350D06230BD000042
:1004A000FFFEF0FFFDF7F1FFF0B504460D4600201A
:1004B0000021092D11DDE068A5F10A0606EB4607CB
:1004C000072606FA07F18843A5F10A0606EB460659
:1004D00003FA06F10843E0600CE0206905EB4507EC
:1004E000072606FA07F1884305EB450603FA06F1ED
:1004F00008432061072A0FDA606B561E06EB860759
:100500001F2606FA07F18843561E06EB860605FAF3
:1005100006F10843606322E00D2A0FDA206BD61F34
:1005200006EB86071F2606FA07F18843D61F06EB5F
:10053000860605FA06F10843206310E0E06AA2F19E
:100540000D0606EB86071F2606FA07F18843A2F17F
:100550000D0606EB860605FA06F10843E062F0BDDB
:10056000816841F008018160704721B1826842F4DE
:10057000A002826003E0826822F4A00282607047D9
:10058000816841F0040181607047000000B591B0BE
:100590004FF4004003F070FC01214FF4047003F0AD
:1005A000A7FC0F20ADF8400000208DF8430010A9F3
:1005B0003D4801F084FA3D4801F0BAF83C4800900B
:1005C0003C480190002002900420039000200490F9
:1005D0008020059040000690800007902020089021
:1005E0000002099000200A906946304801F07FF926
:1005F000012202212D4801F071F901212B4801F05F
:100600008BF800200B9001208DF8300000208DF831
:1006100031004FF460200D9000200E9004208DF8E2
:100620003C000BA922484C38FFF716FF0323012298
:100630000A211F484C38FFF737FF032302220B2102
:100640001B484C38FFF730FF03231A460C2118488B
:100650004C38FFF729FF032304220D2114484C389E
:10066000FFF722FF012112484C38FFF7D6FE012187
:100670000F484C38FFF7C6FE0D484C38FFF770FFA7
:1006800000BF0B484C38FFF7DDFE0028F9D10848C1
:100690004C38FFF775FF00BF05484C38FFF7C8FE20
:1006A0000028F9D111B000BD00100140080002403F
:1006B0004C2401400200002070B58A480068008880
:1006C00008B1012000E000200546874C2078012871
:1006D0000CD186480068008800EB4001201D00EB2B
:1006E0008100406800886080002020708048007889
:1006F0000A287CDD7B480068008801281ED17B48E1
:100700000068008800EB4001201D00EB810040687C
:10071000018876480068008800EB4002201D00EB4D
:1007200082000089014471480068008800EB4002A3
:10073000201D00EB82004088814200DDC5B96B4B73
:100740001B681B8803EB4306231D03EB86031A7A01
:10075000664B1B681B8803EB4306231D03EB8603D4
:100760005968604B1B6818882B4600F0C7F83BE0BF
:100770005C480068008802281DD15C480068008839
:1007800000EB4001201D00EB8100406801885748C4
:100790000068008800EB4002201D00EB8200008909
:1007A000091A52480068008800EB4002201D30F80A
:1007B0002200814200DABDB94C4B1B681B8803EB59
:1007C0004306231D03EB86031A7A484B1B681B88DC
:1007D00003EB4306231D03EB86035968414B1B685B
:1007E00018882B4600F08AF80020414908703F48DD
:1007F0000068008820B13D4800680088182813D19F
:100800003A480068008800EB4001201D00EB8100A1
:100810004068008800EB80004FF6FF7101EA40005D
:1008200034490968088031E030480068008812289F
:1008300009D02E4800680088162804D02B4800688C
:10084000008817280FD129480068008800EB400174
:10085000201D00EB81004068008800F548702549A4
:100860000968088012E021480068008800EB400118
:10087000201D00EB81004068008800EB80004FF4F1
:10088000487101EB40001B49096808801A4800685C
:100890000088022814D11448418814480068008850
:1008A00000EB40021048001D00EB82004068018010
:1008B00001200D490870FF200C49096808800AE0F2
:1008C0000D4800680088012805D107490870FF20FD
:1008D00006490968088006480078401C04490870E9
:1008E00070BD000074910008180200206C9100088F
:1008F0004A030020649100087891000830B5012B6C
:1009000036D1012802D0022830D117E01C4C2478BF
:1009100034B901241A4D2C700C8814440C800CE05E
:10092000184C2478072C05DA164C2478641C154DD5
:100930002C7002E00C8814440C8018E0104C2478D1
:1009400034B901240E4D2C700C88A41A0C800CE0D4
:100950000C4C2478072C05DA0A4C2478641C094DC9
:100960002C7002E00C88A41A0C8000E000BF05E0A7
:1009700023B90024024D2C70024D2C7030BD0000B4
:10098000490300204803002007285FD2DFE800F079
:100990005E4F3140130422000121344A1160344A71
:1009A000C2F8A81143F20401324A118000212F4AF3
:1009B000121D116058E001212C4A11602C4AC2F826
:1009C000A8114FF450512B4A11800021274A121DC3
:1009D000116049E00121254A121D1160244AC2F824
:1009E000A8114FF45051234A118000211F4A116071
:1009F0003AE001211D4A121D11601D4AC2F8A811DA
:100A00004FF441511B4A11800021184A11602BE01C
:100A10000121164A1160164AC2F8A4114FF441513F
:100A2000144A11800021114A083211601CE0012192
:100A30000E4A11600E4AC2F8A41143F204010D4A95
:100A400011800021094A083211600DE04FF4405135
:100A5000084A11800121054A1160054AC2F8A41113
:100A6000024A0832116000BF00BF7047A001214256
:100A700000002142202C0140072861D2DFE800F06D
:100A800060513342130423000121364A1160364A73
:100A9000C2F8A8114FF44151344A11800021314A63
:100AA000121F11605BE001212E4A121F11602E4AB5
:100AB000C2F8A4114FF441512C4A11800021294A57
:100AC000121D11604BE00121264A121F1160264AB7
:100AD000C2F8A41143F20401244A11800021214AE2
:100AE000121D11603BE001211E4A121F11601E4AB7
:100AF000C2F8A81143F204011C4A11800021194ACE
:100B000011602CE00121174A121F1160164AC2F829
:100B1000A8114FF45051154A11800021114A11605B
:100B20001DE001210F4A11600F4AC2F8A8114FF4CD
:100B300050510E4A118000210A4A121F11600EE026
:100B40004FF44051094A11800121064A121F1160D9
:100B5000054AC2F8A411034A121D116000BF00BF6C
:100B600070470000A401214200002142202C0140D6
:100B700008B54FF47060ADF8000010208DF8030048
:100B800003208DF8020069460E4800F098FF4FF4EC
:100B90006040ADF8000018208DF8030003208DF8A8
:100BA00002006946084800F08AFF4FF4E070ADF893
:100BB000000048208DF803006946044800F07FFFDC
:100BC00008BD000000080140000C01400010014079
:100BD00000B500230F488068C0F38213012B17DB98
:100BE000062B15DC01200C490871084690F9070016
:100BF000401C18B91846FFF7C7FE06E00648C07942
:100C0000012802D11846FFF737FF0020034908806A
:100C100000BD0000001001408800002024040040B6
:100C200000200749088000BF00BF00200549086078
:100C30000549C1F8A4010349083108607047000064
:100C4000202C0140A00121420000214200B58BB0C0
:100C50000121C80203F04CF9424805F087FB02204D
:100C6000ADF820004020ADF8220040F2AF40ADF8D2
:100C700024000020ADF826008DF8280008A9394886
:100C800005F072FE6020ADF810000020ADF81200F3
:100C9000ADF814004FF41670ADF816000020ADF852
:100CA0001800ADF81A00ADF81C00ADF81E0004A93C
:100CB0002C4805F0AFFC4FF41670ADF8160004A9EF
:100CC000284805F0FDFC4FF41670ADF8160004A995
:100CD000244805F055FD7020ADF810000020ADF857
:100CE00012000A20ADF816000220ADF8180004A981
:100CF0001C4805F09FFD4FF40060ADF80000401067
:100D0000ADF802008010ADF804007820ADF80600C0
:100D10000020ADF80800ADF80A00ADF80C006946F7
:100D2000104805F0F5FA08210E4805F0BFFC08212F
:100D30000C4805F017FD08210A4805F071FD012156
:100D4000084805F004FB1021064805F0F1FA0121DE
:100D5000044805F0F0FA01221021024805F050FC89
:100D60000BB000BD002C014000B58BB0012102206A
:100D700003F09EF80121354800F02CFF344805F0BF
:100D8000F5FA4720ADF820000020ADF8220042F22D
:100D90000F70ADF824000020ADF826008DF8280073
:100DA00008A92B4805F0E0FD0020ADF81400ADF8CF
:100DB00016000320ADF818000020ADF81A000A2034
:100DC000ADF81C0005A9224805F0C4FB0020ADF8D1
:100DD0000400ADF8060042F21070ADF80A000020E1
:100DE000ADF80C0001A91A4805F024FD01211848AE
:100DF00005F05EFD4021164805F066FD042114480B
:100E000005F07DFD8021124805F067FD5021104856
:100E100005F06CFD0E48103000884FF6EF71084069
:100E20000B4910310880084600884FF6BF71084012
:100E30000749103108800121054805F07CFA01229C
:100E40005021034805F0DCFB0BB000BD000C1A007C
:100E5000000400400EB50121042003F029F81248D7
:100E600005F084FA4720ADF800000020ADF802003C
:100E700040F69F70ADF804000020ADF806008DF834
:100E800008006946084805F06FFD0121064805F095
:100E90004FFA0121044805F04EFA0122114602489A
:100EA00005F0AEFB0EBD00000008004010B503F0D9
:100EB0003FF806F067FA00F03BFFFFF759FEFFF737
:100EC000C5FEFFF751FFFFF7C5FF02F0D5FC4FF459
:100ED000E13007F001F84FF4E13007F0A3F8FFF735
:100EE00055FB4FF47A7006F07BFA002405E00020F1
:100EF000084921F81400601CC4B20B2CF7DB002455
:100F000004E0002004490855601CC4B20C2CF8DB36
:100F100010BD0000560400204A04002010B5012036
:100F20004349088043480088434908804348008873
:100F300048804348008808814248008848814248E8
:100F40000088888141480088C8814148008808821B
:100F50004048008848824048008888823F4800888E
:100F6000C8823F48008808833E48008848833E483E
:100F7000008888833D480088C8833D4800880884ED
:100F80003C48008848843C48008808853B480088E5
:100F900048853B48008888853A480088C8853A4893
:100FA000008808863948008848863948008888863D
:100FB00038480088C886384800880887374800883D
:100FC000488737480088888736480088C887364869
:100FD0000088A1F8400035480088A1F84200344854
:100FE0000088A1F8440033480088A1F84600324840
:100FF0000088A1F8480031480088A1F84A0030482C
:101000000088A1F84C002F480088A1F84E002E4817
:101010000088A1F85000FFF7E7F804466A22064965
:101020002A4804F007F82046FFF7E2F810BD000058
:10103000AC030020A8030020780A0020AA030020A7
:10104000B0030020B2030020B4030020B603002048
:10105000B8030020BA030020BC030020BE03002018
:10106000C0030020C2030020C4030020C6030020E8
:10107000C8030020CA030020D0030020D2030020B0
:10108000D4030020D6030020D8030020DA03002078
:10109000DC030020DE030020E0030020E203002048
:1010A000E4030020E6030020E8030020EA03002018
:1010B000EC030020EE030020F0030020F2030020E8
:1010C000F4030020F6030020F803002000040108C8
:1010D00010B510480068008848B10E4800680088C4
:1010E000012804D00B4800680088022811D1002094
:1010F000094908804FF47A7006F072F905490968C9
:101100000A88064951F822008047FF2001490968F2
:10111000088010BD90910008AE030020340100202B
:1011200000BFFEE770B502460C46FF25FF2309E02D
:1011300012F8010B80EA05010648405C80EA0305CD
:101140000548435C201EA4F10106B4B2F0D143EA85
:10115000052070BDD8910008D89200082DE9F0470D
:1011600005460C46284607F001FE694909680862F1
:1011700067490968086A674907F024FE7ED8644910
:101180000968086A644907F01DFFF7D860490968D3
:10119000086A4FF0804107F015FE15D85C490968D0
:1011A000086A4FF0404107F00DFF0DD80020584964
:1011B0000968486059480078012804D1032057493C
:1011C0004870002008708AE051480068416A4FF07A
:1011D000804007F02BFE81464D4A1268916A4C4AC6
:1011E0001268106A07F004FD8246494607F01CFFAA
:1011F000804647480068C169404607F017FE06462A
:10120000434A1268116A424A1268506907F00EFE9A
:1012100081463F4A1268516A3D4A1268106A07F0D7
:1012200003FF82463A4800680169504607F0FEFD18
:101230008046494607F0DCFC0746314607F0D8FCFB
:10124000334909688860324A12689168304A1268E6
:10125000D06807F0CDFC2E4909684860204607F0A9
:1012600085FD06462A4800684168304607F0AAFD19
:1012700008D2204607F07AFD254900E014E009680D
:1012800048602CE0604207F071FD06462048006887
:101290004168304607F096FE21D2604207F066FDB5
:1012A0001B49096848601AE019490968086A194920
:1012B00007F088FE06D2204607F058FD1449096859
:1012C00048600CE012490968086A134907F07AFD82
:1012D00005D2604207F04AFD0D49096848600C4894
:1012E0000068406A0A490968886209480068006A1B
:1012F0000749096848620648006840680449096867
:10130000C86003490968486807F014FDBDE8F08724
:10131000DC00002000004842000048C254010020C8
:101320002DE9F04F87B004468B4691460020069089
:101330006648008800EB8000400005906448008803
:101340006421484304906148008807F0B7F90746D4
:101350004FF033325F4B07F001FA05460E46584610
:1013600007F0ACF92A463346CDE9000107F02AFB25
:10137000CDE9020107F02EF957490860544800886A
:1013800000EB4001C1EB4010ABEB8000534908601B
:10139000204600F074FC82465148007801280FD1A5
:1013A0004D480068002809DD059883B24A48514637
:1013B0000268204600F0EAFD06905EE006945CE0DC
:1013C00048480078002845D12CB94749088047494A
:1013D0000880069051E04448008844F62061884225
:1013E0001FDA41480088401C3F4908803B4800689C
:1013F000002811DD06203E4988713C480088401CC9
:101400003A490880049883B234485146026820461D
:1014100000F0BCFD069030E006940020344988714D
:101420002BE03248008842F2107188420BDB00202A
:10143000069001202B49087007202D49C8712D48BE
:10144000C0F800A000E00694002028490880264942
:10145000088012E02748006882450CD0BAF1000FDE
:1014600009D02448006830B100202149C871069491
:101470001C49087001E00020069040F2EC508145C4
:1014800008DC40F22E40814504DB002018498872B8
:10149000C87216E040F2EC50814502DD0A20144982
:1014A000887240F22E40814502DA0B201049C87242
:1014B0000020069040F22D20814502DC72B603F038
:1014C00041FE069807B0BDE8F08F0000C803002079
:1014D000CA03002033332740D8000020D400002066
:1014E00054010020CC000020CE000020D0000020BD
:1014F0004A040020C800002010B5022000F0D8F9EE
:1015000048B1012000F0FAF80348006802F03AFC04
:1015100001200249087010BD380000200A00002098
:1015200010B5FEF761FE044612480078401C1149D0
:1015300008702046FEF75CFE202000F0B9F9A8B143
:10154000002240F224410C4805F028FC012240F220
:101550002661094805F022FC0021084800F0DCF86B
:10156000202000F0CBF8102000F0C8F801F0A4FA19
:1015700010BD000079030020004800401C0002401C
:1015800010B5044600BF2021194805F0D0FB002803
:10159000F9D104B910BD00BF164800F06FF900285A
:1015A000FAD10021134800F0B7F82146114800F0A5
:1015B000BCF901210F4800F0AFF800BF202000F077
:1015C00061F90028FAD000BF4021094805F0AFFBBF
:1015D0000028F9D04021064805F07CFB202000F0CF
:1015E0007FF80021034800F097F800BFD2E7000021
:1015F000004800401C00024010B5FEF7F5FD04460F
:1016000013480078401C124908702046FEF7F0FD90
:101610004FF0007000F04CF9B8B1002240F22441C4
:101620000C4805F0BBFB012240F22661094805F099
:10163000B5FB0021084800F06FF84FF0007000F093
:101640005DF84FF0807000F059F801F035FA10BDE8
:1016500079030020004400408000024010B5044699
:1016600000BF20211C4805F062FB0028F9D104B915
:1016700010BD00BF194800F001F90028FAD106F0AA
:10168000B1FA0021154800F047F82146134800F050
:101690004CF90121114800F03FF800BF4FF00070F5
:1016A00000F0F0F80028F9D000BF40210A4805F00A
:1016B0003EFB0028F9D04021074805F00BFB4FF016
:1016C000007000F00DF80021044800F025F806F045
:1016D00081FA00BFCCE700000044004080000240D7
:1016E00000F0805111B10349086001E002494860EF
:1016F00070470000040402400000024000F08051E6
:1017000011B10349086001E00249486070470000D8
:10171000040402400000024021B1026842F00102CC
:10172000026004E002684FF6FE731A4002607047E0
:1017300001684FF6FE7211400160002101604160B6
:101740008160C1604B49884208D14A4908394968DB
:1017500041F00F01474A083A51608AE04549143187
:10176000884208D143490839496841F0F001414AAB
:10177000083A51607DE03F492831884208D13D490F
:101780000839496841F470613A4A083A516070E09A
:1017900038493C31884208D136490839496841F412
:1017A0007041344A083A516063E03249503188420E
:1017B00008D130490839496841F470212D4A083A66
:1017C000516056E02B496431884208D129490839D3
:1017D000496841F47001274A083A516049E02549B7
:1017E0007831884208D123490839496841F070614D
:1017F000204A083A51603CE01F49884206D1011F47
:10180000096841F00F01021F116032E01A491431DA
:10181000884208D11849091F096841F0F001164AA9
:10182000121F116025E014492831884208D112495D
:10183000091F096841F470610F4A121F116018E016
:101840000D493C31884208D10B49091F096841F410
:101850007041094A121F11600BE00749503188425C
:1018600007D10549091F096841F47021024A121F76
:1018700011607047080002400804024001464868B1
:1018800080B2704701460020002201F0805313B15E
:10189000054B1A6801E0054B1A6802EA01030BB117
:1018A000012000E0002070470004024000000240D8
:1018B00001460020002201F0805313B1054B1A6845
:1018C00001E0054B1A6802EA01030BB1012000E0B8
:1018D0000020704700040240000002401AB1036873
:1018E0000B43036002E003688B430360704710B54D
:1018F0000022026847F6F0739A430C6A8B68234310
:101900000C6923434C6923438C692343CC692343EB
:101910004C6A23438C6A23431A430260CB684360BA
:101920000B6883604B68C36010BD416070477047AF
:1019300010B5012000F014F840B14021044800F037
:101940009CF903F0FFFB012000F004F810BD00003B
:101950000014014001490860704700001404014070
:1019600001460020034A12680A400AB1012000E043
:10197000002070471404014030B5044604254FF49C
:10198000302000F089F80546042D17D10C48006975
:1019900040F002000A49086108464461006940F0CD
:1019A000400008614FF4302000F076F80546044806
:1019B000006941F6FD71084001490861284630BDC3
:1019C0000020024004200B49C96801F0010109B15F
:1019D00001200EE00749C96801F0040109B10220A5
:1019E00007E00449C96801F0100109B1032000E0D3
:1019F00004207047002002400348006940F0800046
:101A0000014908617047000000200240054909684B
:101A100021F01001034A1160114609680143116069
:101A2000704700000020024070B504460D460426B1
:101A3000F00200F031F80646042E11D10948006981
:101A400040F00100074908612580F00200F024F809
:101A500006460448006941F6FE71084001490861E4
:101A6000304670BD0020024001460020034A106845
:101A700000F038000843106070470000002002406A
:101A8000024803494860034848607047230167459E
:101A900000200240AB89EFCD00B502460423FFF7DA
:101AA00091FF034603E0FFF78DFF0346521E012B13
:101AB00001D1002AF7D102B90523184600BD2DE94E
:101AC000F0410246002500260020002300240027C4
:101AD00091F803C00CF00F0591F803C00CF0100C46
:101AE000BCF1000F03D091F802C04CEA050591F853
:101AF00000C0BCF1000F31D0146800202BE04FF083
:101B0000010C0CFA00F3B1F800C00CEA03069E4287
:101B100020D183004FF00F0C0CFA03F7BC4305FAF9
:101B200003FC4CEA040491F803C0BCF1280F06D171
:101B30004FF0010C0CFA00FCC2F814C00AE091F856
:101B400003C0BCF1480F05D14FF0010C0CFA00FCAA
:101B5000C2F810C0401C0828D1D31460B1F800C0EE
:101B6000BCF1FF0F34DD546800202EE000F1080CBA
:101B70004FF0010808FA0CF3B1F800C00CEA0306B4
:101B80009E4221D183004FF00F0C0CFA03F7BC43A7
:101B900005FA03FC4CEA040491F803C0BCF1280FD9
:101BA00005D100F1080C08FA0CF8C2F8148091F87D
:101BB00003C0BCF1480F07D100F1080C4FF0010839
:101BC00008FA0CF8C2F81080401C0828CED35460E4
:101BD000BDE8F081F0B50A4600230024002100256D
:101BE00000F00046B6F1004F02D11D4EF16901E050
:101BF0001B4E7168C0F3034583B200F44016B6F57E
:101C0000401F08D121F07061154E766826F070668D
:101C1000134F7E6012E000F48016B6F5801F06D1E7
:101C2000032606FA05F4A14341F0706106E0460D73
:101C3000360103FA06F6B14341F0706122B1460D58
:101C4000360103FA06F6314300F00046B6F1004FC4
:101C500002D1034EF16101E0014E7160F0BD000060
:101C6000000001400246002093680B400BB10120A8
:101C700000E00020704741617047016170470146F4
:101C800009B900207047002902DA4FF0FF30F9E768
:101C90000120F7E7024611B1012904D101E0104605
:101CA00070475042FCE70020FAE700000348006854
:101CB00000F0010000B100BE00BFFEE7F0ED00E063
:101CC0004CF6CC40014908607047000000300040ED
:101CD00010B500F013F810BD70B505460C4645F27E
:101CE000555000F01FF8284600F010F8204600F08C
:101CF00013F800F003F8FFF7E3FF70BD4AF6AA20DF
:101D00000149086070470000003000400149486008
:101D100070470000003000400149886070470000B3
:101D2000003000400149086070470000003000406A
:101D300008B510208DF8030003208DF802004FF441
:101D40008050ADF8000069461848FFF7B8FE04203F
:101D5000ADF8000069461648FFF7B1FEBDF8001067
:101D60001348FFF788FF04208DF803004002ADF808
:101D7000000069460F48FFF7A2FE4FF48050ADF80F
:101D8000000069460B48FFF79AFE4FF48070ADF8EB
:101D9000000069460548FFF792FE4FF40070ADF869
:101DA000000069460148FFF78AFE08BD000C0140AB
:101DB000001401400010014008B54FF4A06000F08D
:101DC000B5FD1D208DF8000000208DF801000120D8
:101DD0008DF802008DF80300684600F06FFD1B20AF
:101DE0008DF8000001208DF8010000208DF8020020
:101DF00001208DF80300684600F060FD0B208DF88F
:101E0000000001208DF801008DF802008DF803001C
:101E1000684600F053FD1E208DF8000002208DF86A
:101E2000010000208DF8020001208DF803006846B3
:101E300000F044FD26208DF8000003208DF80100FD
:101E400000208DF8020001208DF80300684600F0A4
:101E500035FD27208DF8000003208DF801000120BA
:101E60008DF802008DF80300684600F027FD08BDDC
:101E7000026812880B2A71D2DFE802F006071420EC
:101E80002B36414B555F71007BE0C27A012A03D1AA
:101E900002224A808A8004E0C27A12B900224A8073
:101EA0008A806EE0C27A012A02D14A808A8004E0E8
:101EB000C27A12B900224A808A8062E0C27A012A7C
:101EC00002D10522CA8003E0C27A0AB90022CA8080
:101ED00057E0C27A012A02D104220A8103E0C27AC1
:101EE0000AB902220A814CE0C27A012A02D10222F6
:101EF0004A8103E0C27A0AB904224A8141E0C27AE7
:101F0000012A01D18A8103E0C27A0AB900228A81BA
:101F100037E0C27A012A01D1CA8103E0C27A0AB944
:101F20000022CA812DE0C27A012A01D10A8203E08F
:101F3000C27A0AB900220A8223E0134A12881AB12F
:101F4000114A1288012A08D1C27A012A01D14A8293
:101F500003E0C27A0AB900224A8212E010E00A4A7B
:101F600012881AB1084A1288012A08D1C27A012AB5
:101F700001D18A8203E0C27A0AB900228A8200E093
:101F800000BF00BF70470000B003002030B504461A
:101F9000B1F1FF3F03D051B1012911D109E002EBAA
:101FA000820528195D42A84200DD584209E0002060
:101FB00007E002EB8205601B984200DA184600E059
:101FC00000BF00BF30BD00002DE9F0410146DFF841
:101FD00064C3BCF800C00CEB8C0C4FF6FF7808EA29
:101FE0004C02DFF854C3BCF800C00CEB8C0C08EAC0
:101FF0004C0303F11E0C1FFA8CF5A2F11E0C1FFA04
:102000008CF6DFF838C3BCF800C0BCF1000F7CD1FF
:10201000DFF82CC3BCF800C0AC450DDDDFF820C3F1
:10202000BCF800C0B44507DA4FF0000CDFF81483A9
:1020300088F805C008467AE1DFF804C3BCF800C0A0
:10204000944505DADFF8F8C2BCF800C09C4520DCF6
:102050004FF0050CDFF8EC8288F805C0DFF8E0C22D
:10206000BCF800C0944506DB002901DA8C4601E08B
:102070004FF0000C6046DFF8C8C2BCF800C09C45B9
:10208000D9DC002901DD8C4601E04FF0000C6046F0
:102090004DE14FF0000CDFF8AC8288F805C0DFF8A6
:1020A000A0C2BCF800C0AC4516DCDFF894C2BCF896
:1020B00000C09C4510DD00290CDADFF884C2BCF8B2
:1020C00000C0ACEB030C0CFB01FC4FF01E089CFBAA
:1020D000F8FC00E08C466046DFF864C2BCF800C043
:1020E000B445A8DBDFF858C2BCF800C09445A2DABA
:1020F00000290EDDDFF848C2BCF800C0A2EB0C0CD2
:102100000CFB01FC4FF01E0800E005E09CFBF8FC16
:1021100000E08C4660460AE1DFF820C2BCF800C04F
:10212000BCF1010F47D1DFF820C2BCF80EC0BCF1F2
:10213000000F02D14FF0010C01E04FF0000CDFF86E
:102140000882B8F81080B8F1000F02D14FF00108F2
:1021500001E04FF000080CEA080CBCF1000F07D0BA
:102160004FF0000CDFF8DC8188F805C00846DEE09F
:102170004FF0050CDFF8CC8188F805C0DFF8C8C146
:10218000BCF80EC0BCF1010F06D1002901DA8C4663
:1021900001E04FF0000C6046DFF8ACC1BCF810C0A5
:1021A000BCF1010FB7D1002901DD8C4601E04FF0F1
:1021B000000C6046BBE0DFF884C1BCF800C0BCF195
:1021C000020F73D10846DFF878C1BCF800C094450F
:1021D00005DADFF86CC1BCF800C09C451BDC0124AB
:1021E000DFF85CC1BCF800C0944506DB002901DAC9
:1021F0008C4601E04FF0000C6046DFF844C1BCF8AB
:1022000000C09C4557DC002901DD8C4601E04FF001
:10221000000C60464FE0DFF828C1BCF800C0A2EB1C
:102220000C0CBCF11E0F08DBDFF814C1BCF800C0B9
:10223000ACEB030CBCF11E0F3CDA0024DFF800C14C
:10224000BCF800C0AC4516DCDFF8F4C0BCF800C038
:102250009C4510DD00290CDADFF8E4C0BCF800C0B2
:10226000ACEB030C0CFB01FC4FF01E089CFBF8FCD4
:1022700000E08C466046DFF8C8C0BCF800C0B4453A
:1022800019DBDFF8BCC0BCF800C0944513DA0029A4
:102290000DDDDFF8ACC0BCF800C0A2EB0C0C0CFBF1
:1022A00001FC4FF01E089CFBF8FC01E03FE08C466F
:1022B000604600E00024DFF890C0BCF80EC0BCF11E
:1022C000000F08D1DFF880C0BCF810C0BCF1000FCF
:1022D00001D100271CE00127DFF86CC0BCF80EC05C
:1022E000BCF1010F06D1002801DA844601E04FF06D
:1022F000000C6046DFF850C0BCF810C0BCF1010F04
:1023000006D1002801DD844601E04FF0000C604654
:1023100004B937B14FF0050CDFF8288088F805C004
:1023200005E04FF0000CDFF81C8088F805C0BDE820
:10233000F0810000D2030020D6030020D00300204B
:10234000A80000204A0400205604002000BFFEE739
:1023500070B52448007E00B970BD2248807D0228F7
:1023600015DD2048807D801E81B21E48401CFEF78E
:10237000D9FE04461B48807D401E1A49491C0A5C50
:10238000481E807D801E085C02EB002085B2AC42B6
:1023900022D1144840781349097888421BD111484A
:1023A00080780A2816D2DFE800F0050607080B0E31
:1023B0000F1213140EE00DE00CE000F015F809E028
:1023C00000F09EF806E005E000F026F902E001E0EA
:1023D00000E000BF00E000BF0020024988750876D9
:1023E00000BFB9E7481000202DE9F0410025424820
:1023F0000179C07801EB002087B23F4881794079AC
:1024000001EB00201FFA80F83B48027829466D1C3A
:1024100019304254032229466D1C42544FEA4800A9
:10242000C11700EB11610912A0EB0121CBB22A46C2
:102430006D1C314919318B54002621E0B9192F4AFE
:1024400032F81100C11700EB1161C1F307232946CF
:102450006A1CD5B2284A19325354B919274A32F89E
:102460001100C11700EB11610912A0EB0121CBB2E1
:1024700029466A1CD5B2204A19325354701CC6B280
:102480004645DBDB29461C481930FEF74BFE044667
:102490002046E11704EB1161C1F3072329466A1CAA
:1024A000D5B2154A19325354E11704EB11610912E0
:1024B000A4EB0121CBB229466A1CD5B20E4A1932CF
:1024C00053540D4890F8550020B1012803D002283C
:1024D0000DD106E00CE029460748193001F086FED0
:1024E00006E029460448193001F090FE00E000BFE4
:1024F00000BFBDE8F0810000481000209E110020C0
:102500002DE9F041002542480179C07801EB002017
:1025100087B23F488179407901EB00201FFA80F8AB
:102520003B48027829466D1C193042540422294642
:102530006D1C42544FEA4800C11700EB11610912AB
:10254000A0EB0121CBB22A466D1C314919318B54C5
:10255000002621E0B9192F4A32F81100C11700EB0B
:102560001161C1F3072329466A1CD5B2284A1932E2
:102570005354B919274A32F81100C11700EB116101
:102580000912A0EB0121CBB229466A1CD5B2204A20
:1025900019325354701CC6B24645DBDB29461C4831
:1025A0001930FEF7BFFD04462046E11704EB116128
:1025B000C1F3072329466A1CD5B2154A1932535470
:1025C000E11704EB11610912A4EB0121CBB22946FA
:1025D0006A1CD5B20E4A193253540D4890F8550072
:1025E00020B1012803D002280DD106E00CE02946D5
:1025F0000748193001F0FAFD06E029460448193071
:1026000001F004FE00E000BF00BFBDE8F081000063
:10261000481000209E1100202DE9F04100243F4881
:102620000179C07801EB002085B23C48817940797E
:1026300001EB002086B23A4820F81560374802784E
:102640002146641C1930425406222146641C42541F
:102650002846E91705EB1161C1F307232246641CE4
:102660002E4919318B54E91705EB11610912A5EBBD
:102670000121CBB22246641C284919318B543046C3
:10268000F11706EB1161C1F307232246641C2349AD
:1026900019318B54F11706EB11610912A6EB0121D8
:1026A000CBB22246641C1D4919318B5421461B486C
:1026B0001930FEF737FD07463846F91707EB116169
:1026C000C1F307232246641C144919318B54F917AE
:1026D00007EB11610912A7EB0121CBB22246641C62
:1026E0000E4919318B540D4890F8550020B101283E
:1026F00003D002280DD106E00CE0E1B20748193002
:1027000001F074FD06E0E1B20448193001F07EFDED
:1027100000E000BF00BFBDE8F081000048100020CD
:10272000EE11002001203B4908700020C87581F897
:102730005500FF203849096808800020374909689A
:102740000880374909680880364909680880364991
:102750000968088035490968088035490968088092
:10276000344909680880344909680880FF203349E2
:1027700009680880002032490968088031480088CB
:102780003149096808803148008831490968088062
:10279000304800883049096808803048008830494E
:1027A000096808802F4800882F49096808802F4849
:1027B00000882F490968088000202E490968088090
:1027C0002D4800882D49096808802D4800882D492A
:1027D000096808802C4800882C49096808802C4822
:1027E00000882C49096808802B4800882B49096813
:1027F00008802B4800882B49096808802A480088EF
:102800002A49096808802A4800882A4909680880F6
:1028100070470000481000206C910008709100087B
:1028200074910008789100087C910008809100085C
:1028300084910008889100088C910008909100080C
:1028400094910008B00300209C910008B20300207E
:10285000A0910008B4030020A4910008B603002052
:10286000A8910008B8030020AC910008BA0300202A
:10287000B0910008B4910008D0030020B89100087E
:10288000D8030020BC910008E0030020C09100089C
:10289000E8030020C4910008EA030020C891000862
:1028A000EC030020CC910008EE030020D09100083A
:1028B000F8030020D49100087047000070B5002193
:1028C00000230F22C47804B3154C246804F4E06498
:1028D000C4F5E064210AC1F10403CA40447804FA53
:1028E00003F184781440214309010E4C0678A15568
:1028F000047804F01F050124AC4005786D11AD008B
:1029000005F1E025C5F8004109E0047804F01F0551
:102910000124AC40044D0678761145F8264070BD80
:102920000CED00E000E400E080E100E0024901433A
:10293000024A1160704700000000FA050CED00E04B
:1029400017480068008810B1012825D111E015480A
:1029500000881549A1F8A8001448006800781149BA
:10296000098841EA0030C0F30E0011490968088067
:1029700013E0104800880C49A1F8AC000B4800682F
:1029800000780C49098841EA003080B240F40040E8
:1029900007490968088000E000BF00BF00207047B9
:1029A000809100080C0000205C010020B09100081C
:1029B000249100080E00002010B50146224800882E
:1029C00000EB80004FF6FF7404EA80021F48008885
:1029D00000EB800004EA80031D48008840428142E9
:1029E00003DB1B480088814222DD1A480078012859
:1029F00004D10420184C2071084610BD17480088E7
:102A0000904206DA15480088401C144C2080084685
:102A1000F3E713480088984205DA11480088401C03
:102A20000F4C208002E001200A4C20700020E4E7D7
:102A30000020094C2071074C2070084C2080084C65
:102A400020800846D9E70000E4030020E6030020C8
:102A5000E2030020AE0000204A040020B000002065
:102A6000B200002010B500F013F800F089FC00F06F
:102A7000B1FC00F0D1FC00F059FC00F02BFC00F0A0
:102A800065FD00F009FD00F02FFD00F002F810BD1B
:102A90007047704706480078012808D1054800783B
:102AA000FF2804D203480078401C02490870704790
:102AB000860300207903002010B500241A4800780E
:102AC000012830D1FDF790FB04461848007820B16A
:102AD00016480078401E1549087014480078F8B967
:102AE00013480078E0B900F093FD124812490978C4
:102AF00050F82100114908600F4800781049097802
:102B000088420DD00D480068806B401C0B49096855
:102B100088630C480068401C0A490860FDF783FB85
:102B20002046FDF765FB10BD8603002079030020D9
:102B30007A030020581700207C0300209403002013
:102B40007B0300206003002070B5054600260F4877
:102B5000007808B1002070BDFDF746FB06460C4822
:102B60000468006820B10A480068406808490860A5
:102B70003046FDF73DFB3CB1012020700020208154
:102B80006560204600F097FB2046E4E779030020CB
:102B9000640300202DE9F04105460E4600271F483A
:102BA000007820B1102030700020BDE8F081FDF7E2
:102BB0001BFB07461A4850F8250030B13846FDF790
:102BC00017FB282030700020EFE70120144941F85E
:102BD0002500144804684CB9002041F82500384607
:102BE000FDF706FB042030702046DEE70D48006844
:102BF00040680C4908603846FDF7FAFA0420207056
:102C0000FF2040EA0520208100206060204600F07F
:102C100052FB002030702046C7E7000079030020F7
:102C2000581700206403002010B500240B480078DA
:102C3000012811D1FDF7D8FA04460948007840B9B7
:102C400008480078FF2804D206480078401C05494F
:102C500008702046FDF7CCFA10BD00008603002066
:102C6000790300207A03002010B50024134800786F
:102C7000012821D1FDF7B8FA044611480078C0B107
:102C80000F480078401E0E4908700846007860B969
:102C90000C48007828B92046FDF7AAFA00F07EFC1F
:102CA0000AE02046FDF7A4FA06E02046FDF7A0FA68
:102CB00002E02046FDF79CFA10BD000086030020CC
:102CC0007A0300207903002070B5054600260F48DE
:102CD000007808B1002070BDFDF786FA06460C4862
:102CE0000468006820B10A48006840680849086024
:102CF0003046FDF77DFA3CB103202070258100208D
:102D00006060204600F0D7FA2046E4E7790300200F
:102D10006403002010B50B48007890B900F078FCEF
:102D2000094800780949087009480749097850F8A6
:102D30002100084908600846006807490860FDF757
:102D40005AFA10BD860300207C0300207B0300207C
:102D500058170020940300208C03002010B5002495
:102D6000022000F0F5F9FDF73FFA044600200B4978
:102D700008602046FDF73CFA192000F0E9F9FDF75C
:102D800033FA0446054800680549086001200549F2
:102D900008702046FDF72CFA10BD000088030020C3
:102DA0007003002078030020704700002DE9FE4FDB
:102DB00006460F4690461C464FF00009FDF714FAF0
:102DC00081461F48007828B14846FDF711FA3C209B
:102DD000BDE8FE8F1B4850F8240060BB0120194954
:102DE00041F824004846FDF703FA002342463946DD
:102DF000304600F009F98246002000900190034619
:102E0000024651460290204600F018FC054635B9AE
:102E10000D48007801280CD100F0C0FB09E0FDF757
:102E2000E3F981460020074941F824004846FDF7B0
:102E3000DFF92846CCE74846FDF7DAF92820C7E74E
:102E40007903002058170020860300202DE9F04F59
:102E500085B081468A4693461C46DDE90F78129D6F
:102E600000200390FDF7C0F903902348007830B1AB
:102E70000398FDF7BDF93C2005B0BDE8F08F1F4871
:102E800050F8240088BB01201C4941F82400039815
:102E9000FDF7AEF92A464146384600F0DFFC2B46E6
:102EA0005A465146484600F0AFF804901198CDE9D3
:102EB000008002953A4620460E9B049900F0BEFB26
:102EC000064636B90E48007801280CD100F066FBA2
:102ED00009E0FDF789F903900020084941F8240032
:102EE0000398FDF785F93046C6E7FFE70398FDF73D
:102EF0007FF92820C0E70000790300205817002040
:102F000086030020704770472DE9F04106460F46C2
:102F100014464FF000081548007818B112202070B0
:102F2000BDE8F081FDF760F98046FF2E03D110481F
:102F3000006890F832600F4850F826502DB940468E
:102F4000FDF756F943202070EAE7012D05D14046F0
:102F5000FDF74EF943202070E2E7EF644046FDF7AD
:102F600047F90020207000BFDAE700007903002055
:102F70008C03002058170020704700002DE9F0470F
:102F800007460D464FF0000A002028606860FDF7F4
:102F90002BF98246FF2F03D11948006890F8327050
:102FA000184850F827402CB95046FDF721F9432026
:102FB000BDE8F087012C04D15046FDF719F94320F4
:102FC000F6E7207C00F0010020B95046FDF710F92B
:102FD0004520EDE70026D4F80C90D4F80880504640
:102FE000FDF706F900E0761C58F8041B0029FAD01A
:102FF000B0002860A9EB0600800068600020D7E7D9
:103000008C0300205817002070B5044610464FF07E
:1030100080750560051F28462C606FF00106051FAE
:1030200028462E604FF01236051F28462E604FF0BE
:103030000336051F28462E604FF00236051F28462E
:103040002E607610051F28462E60051F2846296031
:103050004FF01136051F28462E604FF01036051F21
:1030600028462E604FF00936051F28462E604FF087
:103070000836051F28462E604FF00736051F2846E4
:103080002E604FF00636051F28462E604FF005369D
:10309000051F28462E604FF00436051F28462E6077
:1030A00070BD00002DE9F04105464FF00008FDF726
:1030B0009BF88046FF2D05D12048006890F83250DB
:1030C000012608E01D48006890F83200A84201D1AE
:1030D000012600E000261A4850F825402CB9404649
:1030E000FDF786F84820BDE8F081012C04D1404668
:1030F000FDF77EF84320F6E794F834701148C05D80
:1031000094F8351088430F49C8550846C05D30B95A
:1031100094F836100C48007888430B49087094F8EE
:10312000300040F0080084F830004046FDF760F8B9
:10313000012E01D100F032FA0020D4E78C030020E8
:10314000581700207E0300207D03002070470000F8
:1031500070B5054600261748007800B170BD1648C6
:10316000007800B1FAE71DB3FDF73EF806461348B4
:10317000006890F834401248005D1049096891F8E1
:10318000351088430E4908550846005D40B90B4884
:10319000006890F836100B48007888430949087099
:1031A00006480068C5623046FDF722F800F0F6F9DF
:1031B00000BFD3E7790300207A0300208C030020AE
:1031C0007E0300207D03002070B5002600F072F819
:1031D000FDF70AF8064631480068401C2F49086090
:1031E0003046FDF705F82E480078012853D12D48C8
:1031F000007820B1012804D0022809D103E001257C
:103200000BE0002509E0012501202649087004E0B3
:10321000012500202349087000BF00BF05B970BD1B
:103220002148046833E0FCF7DFFF0646E06A50B34C
:10323000E06A401EE062E06A28BB94F8300000F0CB
:10324000370040B114F8300F00F0C80020700120A2
:103250006070303C02E0002084F8310094F83000C7
:1032600000F0080078B93434A07810490978084390
:103270000E49087020780E49085C6178084314F8FC
:1032800034190B4A505464693046FCF7B1FF94F886
:1032900032003F28C7D100BFC1E70000A4030020CF
:1032A000860300209C030020980300207D0300205B
:1032B0007E0300207047014600228A72002005E04C
:1032C000002301F10B021354421CD0B20828F7D39B
:1032D000704700002DE9F0415021114800F02CF911
:1032E00000250DE0681C86B20D4800EB051400EBCC
:1032F00006170020207067600AA0E060681C85B295
:10330000042DEFD3064800EB051400202070606008
:1033100004A0E060024804490860BDE8F0810000B4
:10332000081300203F0000006803002070B5C8218A
:10333000114800F001F900230FE0581C85B203EB9F
:1033400083000D4901EB800405EB850001EB80064D
:10335000002020706660581C83B2092BEDD303EB6C
:103360008300054901EB800400202070606008465E
:103370000249086070BD0000401200206403002074
:1033800000200A4908600A4908700A4908700A4979
:1033900008700A4908700A4908600A4908600A4921
:1033A00008600A4908600A4908707047A4030020B1
:1033B000790300207A030020870300208603002081
:1033C00060030020880300207403002070030020A5
:1033D0007803002000210A4A1170002004E0002137
:1033E000084A1154411CC8B20828F8D30021064AE3
:1033F0001170064A1170064A1160064A1160704742
:103400007D0300207E0300207B0300207C0300203E
:10341000940300208C03002070B54FF47C71194890
:1034200000F08AF84FF48071174800F085F8002406
:1034300013E0601CC5B2C4EBC40000EB40001149AE
:1034400001EB8003C5EBC50000EB400001EB8006FB
:103450005E610EA0D864601CC4B20B2CE9D3C4EB2F
:10346000C40000EB4000074901EB800300205861D5
:1034700006A0D86400200649086002480549086093
:1034800070BD000058180020581700203F000000B1
:10349000980300209003002000B587B0032000218E
:1034A00080220A4BCDE90132CDE903104FF6FF70BF
:1034B0003F23074A00900748FFF7C8FC06AA06A169
:1034C0003F20FFF721FD07B000BD00005815002088
:1034D000541700207137000875432F4F532D494969
:1034E0002049646C6500000000B587B0032000210E
:1034F00080220A4BCDE90132CDE903104FF6FE7070
:103500003E23074A00900748FFF7A0FC06AA06A141
:103510003E20FFF7F9FC07B000BD00005813002063
:10352000541500209937000875432F4F532D4949F2
:10353000205374617400000004E0002200F8012BA5
:103540004A1E91B20029F8D1704700002DE9F041E0
:1035500078211048FFF7F0FF00240DE0601C86B2D0
:1035600004EB44000B4901EBC00506EB460001EB00
:10357000C0072F60601C84B2042CEFD304EB44001E
:10358000044901EBC0050020286008460249086094
:10359000BDE8F081481C0020A003002010B50024E5
:1035A000FCF722FE044613480078F8B91248007868
:1035B000E0B900F02DF811481149097850F82100C0
:1035C000104908600E4800780F49097888420DD0EC
:1035D0000C480068806B401C0A49096888630B48E6
:1035E0000068401C09490860FCF716FE2046FCF7FD
:1035F000FFFD10BD790300207A030020581700203A
:103600007C030020940300207B0300206003002043
:103610000649074A1278885C0649095C034A515CEE
:1036200001EBC001044A117070470000D8930008F4
:103630007D0300207E0300207C0300202DE9F84F4D
:1036400005460F4690469946DDE90AAB00200090FA
:10365000FCF7CAFD00903F480468002C74D0183471
:1036600054F8040C3B4908600098FCF7C1FD44F88D
:10367000187CA576002020766076606144F814BC42
:1036800044F80CAC44F8108C0C9824F8080C24F87E
:10369000069C0020E077E810207705F00700E07630
:1036A000217F01208840A077E17E0120884060775B
:1036B00000206060E060A0602062A0626062E06262
:1036C000206325A06063183C002606E0002104F179
:1036D000500040F82610701CC6B2002EF6D02046CE
:1036E000FFF762FB2046FFF70DFCFCF77DFD009025
:1036F0001A4840F825401A48006860610020A0611F
:103700001748006810B116480068846114480460C6
:103710003434A07813490978084312490870207896
:103720001149085C6178084314F834190E4A505462
:103730000E480078401C0D4908700098FCF758FDB1
:103740000020BDE8F88FFFE70098FCF751FD42200C
:10375000F7E70000900300203F000000581700200A
:10376000980300207D0300207E03002087030020B3
:10377000002400BF00BFFCF737FD04460548006881
:10378000401C044908602046FCF732FDFFF7BBFBF4
:10379000F1E7000088030020002400BF02E032208F
:1037A000FFF7D6FC194800780028F8D018480068C0
:1037B0006421B0FBF1F0164908600846006828B99A
:1037C000002014490870FF20FFF76CFC00BFFCF7D5
:1037D0000BFD0446104800681049086000200E499F
:1037E00008602046FCF704FD0C4800680849096899
:1037F000B0FBF1F0C0F1640006490870FFF7BCFBB4
:1038000000F00EF81920FFF7A3FCE0E77803002092
:10381000700300206C030020880300207403002044
:103820007CB5002514E069462846FFF7A7FB06464D
:1038300066B9094850F8254044B1012C06D0D4E9B6
:10384000020100EB810060640198A064681CC5B2AD
:103850003F2DE8D97CBD00005817002002F001037D
:1038600043B102F002032BB102E0491E002308C05D
:103870000029FAD1704700002DE9F0410020574996
:1038800009680860554909684860544909688860B2
:103890004FF07C5051490968C86050490968C868B0
:1038A00005F07AF9064600224D4B04F03BFD044634
:1038B00004F052FC49490968086101204749096838
:1038C000087546490968C86805F066F90646002289
:1038D000444B04F043FF044604F03EFC3F490968B2
:1038E000886100203D490968C8613C49096808624F
:1038F0003A49096848623C49096808603A490968D8
:10390000486039490968886037490968C86037489C
:10391000354909680861364833490968486101201A
:1039200031490968087633482F490968C861002081
:103930002D49096808622C49096848622A490968C2
:1039400088622D49096808602B49096848602A493E
:103950000968886028490968C860284826490968B4
:1039600008612748244909684861012022490968FB
:1039700008764FF07C5020490968C86100201E4934
:10398000096808621C49096848621B49096888621D
:103990001C49096808601B49096848601949096899
:1039A000886018490968C8614FF07E501549096858
:1039B000C860154813490968086101201149096860
:1039C000087512480F490968886100200D49096887
:1039D00008620C4909684862BDE8F081E0000020F7
:1039E0000000544000001440DC0000200000204291
:1039F0009A99193F00002041E40000209A99993ECD
:103A0000CDCCCC3DE80000200AD7A33D00004040CB
:103A100010B501F0C9FD01F0D5FCFEF783FE10BD25
:103A20002DE9FF5F044689466149D1F8A010098855
:103A300001EB81015E4A52F821100988D2F8A020DA
:103A4000128802EB82025A4B03EB82025268128800
:103A5000881A04F01CFE05460E465549D1F8A01000
:103A6000098801EB8101524A52F821100988081B8C
:103A700004F00DFE074600224E4B04F06FFE2A466E
:103A80003346CDE9000104F04DFC824604F064FBAE
:103A900002900021029805F095F901D200200290D1
:103AA000029805F079F805460022424B04F054FFD5
:103AB00001D241480290029805F03CF9643800B206
:103AC0003E4908803A49D1F8A010098801EB8101EC
:103AD000374A02EB810189680988D2F8A020128850
:103AE00002EB8202324B03EB8202D2681288881A00
:103AF00004F0CDFD05460E462D49D1F8A0100988E9
:103B000001EB81012A4A02EB810189680988A1EB56
:103B1000090004F0BCFD82460022264B04F01EFE84
:103B200007462A46334604F0FDFBCDE9000104F0C8
:103B300013FB02900021029805F044F901D2002005
:103B40000290029805F028F805460022194B04F06F
:103B500003FF01D218480290029805F0EBF8643890
:103B600000B2174908801748007A082803D10020BE
:103B700004B0BDE8F09F1448B0F900004FF47A712A
:103B800048431249B1F9001090FBF1F01049088048
:103B900010480078012802D102F092FF04E003F0FF
:103BA00003FA0546FEF710FA03900398E0E70000D9
:103BB0005C0100200000694000004843AA0000208A
:103BC000AC0000204A040020CC030020CE030020DB
:103BD000A8000020540100202DE9F04F87B00646D0
:103BE0000C466648008805F0D9F8824664480068AB
:103BF000C168504605F01AF907466048008805F08C
:103C0000CDF882465E4800680169504605F00EF91D
:103C100080465A48008805F0C1F882465848006836
:103C20008169504605F002F981461425304605F0B9
:103C30009DF8534909680862284605F097F88246BE
:103C40004F480068016A504605F0BCF91AD868422E
:103C500005F08CF882464A480068016A504605F033
:103C6000B1F80FD80120464909680875444A12681E
:103C7000116A434A1268D06904F0BAFF40490968E2
:103C8000C86106E000203E49096808753C4909689A
:103C9000C8613B490968086A002105F017F807D197
:103CA000002037490968486035490968C86134E02F
:103CB000334A1268516A324A1268106A05F0B4F940
:103CC0008346494605F0B2F82D4904900968087DFD
:103CD00005F064F84146019005F0A8F883462848AD
:103CE0000068C169584605F0A1F8039024480068AF
:103CF000016A384605F09AF80290039904F078FFBB
:103D00008246049904F074FF059005F013F80690BC
:103D100005F02CF81A4909684860204605F026F895
:103D20008246174800684168504605F04BF805D2B6
:103D3000204605F01BF8124909684860604205F00A
:103D400015F882460E4800684168504605F03AF979
:103D500005D2604205F00AF8094909684860084838
:103D60000068006A064909684862054909684868A8
:103D700004F0E0FF07B0BDE8F08F0000BC030020B6
:103D8000E000002070B505462F48008840102F49FC
:103D9000098800EB61002E4908802E4800884010F9
:103DA0002A49C98800EB61002B490880284800880F
:103DB0002549088028480088264908802648028826
:103DC000234801882846FDF7ABFA244908602448B7
:103DD000407968B90024FCF723FF22482249086093
:103DE000224908602249086000201D4908712AE024
:103DF0001A480068002808DD18480468642C00DAB6
:103E0000642401201649C87110E014480068002895
:103E100009DA124800684442642C00DA6424FF2066
:103E20000F49C87102E00024FCF7FAFE11490C802A
:103E3000091D0C80091D0C800948007918B9642CF3
:103E400001DBFCF7C5FE70BDA400002002000020CD
:103E5000A0000020A6000020A20000209C0000205E
:103E60008800002020A10700480000204400002016
:103E700040000020342C014001460020034A5068D5
:103E800020F440400843506070470000001002409A
:103E900029B1064A52690243044B5A6104E0034ABD
:103EA00052698243014B5A61704700000010024082
:103EB00029B1064AD2690243044BDA6104E0034A9D
:103EC000D2698243014BDA61704700000010024062
:103ED00029B1064A12690243044B1A6104E0034AFD
:103EE00012698243014B1A617047000000100240C2
:103EF00029B1064A92690243044B9A6104E0034ADD
:103F000092698243014B9A617047000000100240A1
:103F100029B1064AD2680243044BDA6004E0034A3E
:103F2000D2688243014BDA60704700000010024003
:103F300010B500F03BF84FF4803000F0F9F800BF06
:103F4000312000F0C3F80028FAD01020FDF75EFD04
:103F50000220FDF789FD002000F0DEF8002000F0CF
:103F600019F94FF4806000F009F94FF4E0114FF4B3
:103F7000803000F021F9012000F018F900BF39204D
:103F800000F0A4F80028FAD0022000F023F900BFC6
:103F900000F0BAF80828FBD101210846FFF778FFA6
:103FA00001217D20FFF7A4FF10BD00000F4800682D
:103FB00040F001000D490860084640680C4908407F
:103FC0000A494860084600680A49084007490860ED
:103FD0000846006820F4802008600846406820F405
:103FE000FE0048604FF41F008860704700100240D8
:103FF0000000FFF8FFFFF6FE30B50021002200248C
:1040000000232D4D6D6805F00C0121B1042905D068
:10401000082923D105E0294D056022E0274D0560E0
:104020001FE0254D6D6805F47012234D6D6805F491
:104030008034022505EB92421CB9214D55430560A1
:104040000BE01D4D6D6805F400351DB11C4D554349
:10405000056002E0194D5543056002E0174D05600B
:1040600000BF00BF144D6D6805F0F0010909154D42
:104070006B5C0568DD4045600F4D6D6805F4E061DF
:10408000090A104D6B5C4568DD4085600A4D6D681E
:1040900005F46051C90A0B4D6B5C4568DD40C56095
:1040A000054D6D6805F44041890B074D6B5CC56893
:1040B000B5FBF3F5056130BD0010024000127A0037
:1040C00000093D004B0300205B03002010B50146B2
:1040D0000022002300204A11012A02D1094C236842
:1040E00006E0022A02D1074C236A01E0054C636A0C
:1040F00001F01F02012494401C400CB1012000E09B
:10410000002010BD001002400248406800F00C0082
:10411000704700000010024001460020034A50682A
:1041200020F0F0000843506070470000001002408B
:104130001149096821F480310F4A1160114609685C
:1041400021F480211160B0F5803F03D0B0F5802FBD
:104150000ED106E00849096841F48031064A116031
:1041600007E00549096841F4A021034A116000E015
:1041700000BF00BF70470000001002400146002051
:10418000034A506820F4E060084350607047000024
:104190000010024001460020034A506820F460509D
:1041A00040EAC100506070470010024001490866B3
:1041B000704700000000424202460020044B58684D
:1041C00020F47C1042EA01031843014B5860704709
:1041D0000010024001460020034A506820F003000E
:1041E00008435060704700000010024070B505465B
:1041F0000C46802C07DA224629460348FCF74EF885
:104200002046FDF7BDF970BDF809002070B50546E0
:104210000C46224629460348FCF740F82046FDF7A5
:104220001DFA70BDF808002010B504462146094863
:1042300000F012F821460748103000F00DF8214632
:104240000448203000F008F821460248303000F0E1
:1042500003F810BDF000002070B504460D46A07AAA
:104260004006000EA07221896068FDF7FBFC10B9C2
:10427000A07A401CA072A07A00F00700072802D1A3
:104280000120E07205E0A07A00F0070008B90020E4
:10429000E072207BE17A884203D029462046FDF770
:1042A000E7FDE07A207370BD10B5FBF79DFF044673
:1042B0006A225949594800F0A7FE2046FBF798FFAB
:1042C0005548008856490880534840885549088019
:1042D00051488088544908804F48008953490880D4
:1042E0004D484089524908804B488089514908808F
:1042F0004948C089504908804748008A4F4908808A
:104300004548408A4E4908804348808A4D49088084
:104310004148C08A4C4908803F48008B4B4908807F
:104320003D48408B4A4908803B48808B494908807A
:104330003948C08B484908803748008C4749088075
:104340003548408C464908803348808C00B2454946
:1043500008803148C08C00B2434908802E48008D47
:10436000424908802C48408D414908802A48808D68
:10437000404908802848C08D3F4908802648008E63
:104380003E4908802448408E3D4908802248808E5E
:104390003C4908802048C08E3B4908801E48008F59
:1043A0003A4908801C48408F394908801A48808F54
:1043B000384908801848C08F374908801648B0F837
:1043C0004000364908801448B0F84200344908805B
:1043D0001148B0F84400334908800F48B0F846004F
:1043E000314908800C48B0F84800304908800A4834
:1043F000B0F84A002E4908800748B0F84C002D4913
:1044000008800548B0F84E002B4908800248B0F8F3
:1044100050002A49088010BDE20A0020000001086F
:10442000A8030020AA030020AC030020B003002052
:10443000B2030020B4030020B6030020B80300201C
:10444000BA030020BC030020BE030020C0030020EC
:10445000C2030020C4030020C6030020C8030020BC
:10446000CA030020CC030020CE030020D00300208C
:10447000D2030020D4030020D6030020D80300205C
:10448000DA030020DC030020DE030020E00300202C
:10449000E2030020E4030020E6030020E8030020FC
:1044A000EA030020EC030020EE030020F0030020CC
:1044B000F2030020F4030020F6030020F80300209C
:1044C00010B5FBF791FE04466A225849584800F09F
:1044D0009BFD2046FBF78CFE544800885549088018
:1044E0005248408854490880504880885349088081
:1044F0004E48C088524908804C480089514908807C
:104500004A48408950490880484880894F49088076
:104510004648C0894E4908804448008A4D49088071
:104520004248408A4C4908804048808A4B4908806C
:104530003E48C08A4A4908803C48008B4949088067
:104540003A48408B484908803848808B4749088062
:104550003648C08B464908803448008C454908805D
:104560003248408C444908803048808C4349088058
:104570002E48C08C424908802C48008D4149088053
:104580002A48408D404908802848808D3F4908804E
:104590002648C08D3E4908802448008E3D49088049
:1045A0002248408E3C4908802048808E3B49088044
:1045B0001E48C08E3A4908801C48008F394908803F
:1045C0001A48408F384908801848808F374908803A
:1045D0001648C08F364908801448B0F84000354965
:1045E00008801248B0F84200334908800F48B0F8FC
:1045F0004400324908800D48B0F846003049088030
:104600000A48B0F848002F4908800848B0F84A0026
:104610002D4908800548B0F84C002C490880034813
:10462000B0F84E002A49088010BD00004C0B002055
:1046300000080108FA030020FC030020FE0300200C
:1046400000040020020400200404002006040020CE
:10465000080400200A0400200C0400200E0400209E
:10466000100400201204002014040020160400206E
:10467000180400201A0400201C0400201E0400203E
:10468000200400202204002024040020260400200E
:10469000280400202A0400202C0400202E040020DE
:1046A00030040020320400203404002036040020AE
:1046B000380400203A0400203C0400203E0400207E
:1046C000400400204204002044040020460400204E
:1046D0004804002010B59F480068008810B10128E8
:1046E0007ED198E09C48006800789C49098841EA9E
:1046F0000030C0F30E009A490968088000F02AFED5
:104700009848B0F8A8009749B1F8A610401A7D283B
:1047100038DD944890F8A40001287BD19148B0F886
:10472000A8008D490968098801EB81018D4A52F87A
:10473000211008801046B0F8A6008749096809884A
:1047400001EB810102EB8101496808808248006821
:10475000008800EB8000114601EB800000690088B2
:1047600040F002007C490968098801EB810102EBF5
:1047700081010969088002F011FD0020794981F862
:10478000A40010BD7748B0F8A8007649B1F8A6108B
:10479000401A10F17D0F3BDA724890F8A40001280E
:1047A00038D17048B0F8A6006B490968098801EB58
:1047B00081016C4A52F8211008801046B0F8A80018
:1047C00065490968098801EB810102EB81014968AB
:1047D000088061480068008800EB8000114600E016
:1047E000B3E001EB80000069008840F002005A4904
:1047F0000968098801EB810102EB810109690880E0
:1048000002F0CCFC0020574981F8A400B9E701E090
:104810000120B6E79BE050480068007852490988BB
:1048200041EA003080B240F400404D4909680880F8
:1048300000F0ACFD4B48B0F8AC004A49B1F8AA1002
:10484000401A7D2839DD474890F8A40001287BD123
:104850004448B0F8AC0040490968098801EB81017F
:10486000404A02EB8101896808801046B0F8AA002E
:1048700039490968098801EB810102EB8101C968A6
:10488000088035480068008800EB8000114601EB85
:1048900080000069008840F001002F4909680988FC
:1048A00001EB810102EB81010969088002F076FCCD
:1048B00000202C4981F8A40063E72A48B0F8AC0036
:1048C0002849B1F8AA10401A10F17D0F3ADA2548AC
:1048D00090F8A400012837D12248B0F8AA001E4958
:1048E0000968098801EB81011E4A02EB8101896890
:1048F00008801046B0F8AC0017490968098801EB38
:10490000810102EB8101C9680880134800680088B2
:1049100000EB8000114601EB80000069008840F048
:1049200001000D490968098801EB810102EB810151
:104930000969088002F032FC00200A4981F8A400CD
:104940001FE701E001201CE701E0012019E700BF9B
:1049500000BF16E780910008B09100080C0000200D
:10496000249100085C0100200E00002010B50022F8
:1049700040F22441164802F011FA00211548FCF7D4
:10498000CBFE4FF40070FCF7ABFE1248FCF776FF4D
:10499000C0F1800010498875002406E00F48015DD1
:1049A0000D48401C0155601CC4B20B48807DA042DC
:1049B000F4DC802007493039486301210548FCF7C1
:1049C000ABFE012240F22441014802F0E7F910BD9C
:1049D00000480040300002404810002078090020C4
:1049E00010B5002240F22441164802F0D7F9002108
:1049F0001548FCF791FE4FF40010FCF771FE1248C9
:104A0000FCF73CFFC0F1800010498875002406E0E7
:104A10000F48015D0D48401C0155601CC4B20B4895
:104A2000807DA042F4DC802007496C3908670121B1
:104A30000548FCF771FE012240F22441014802F0D2
:104A4000ADF910BD004400406C0002404810002049
:104A50007808002010B5FBF7C7FB04466A225349CB
:104A6000534800F0D1FA2046FBF7C2FB4F480088BC
:104A7000504908804D4840884F4908804B4800897C
:104A80004E490880494840894D49088047488089F7
:104A90004C4908804548C0894B4908804348008AF2
:104AA0004A4908804148408A494908803F48808AED
:104AB000484908803D48C08A474908803B48008BE8
:104AC000464908803948408B454908803748808BE3
:104AD000444908803548C08B434908803348008CDE
:104AE000424908803148408C414908802F48008D58
:104AF000404908802D48408D3F4908802B48808DD3
:104B00003E4908802948C08D3D4908802748008ECD
:104B10003C4908802548408E3B4908802348808EC8
:104B20003A4908802148C08E394908801F48008FC3
:104B3000384908801D48408F374908801B48808FBE
:104B4000364908801948C08F354908801748B0F8A1
:104B50004000344908801548B0F8420032490880C6
:104B60001248B0F84400314908801048B0F84600B7
:104B70002F4908800D48B0F848002E4908800B489E
:104B8000B0F84A002C4908800848B0F84C002B497E
:104B900008800648B0F84E00294908800348B0F85C
:104BA000500028490880FDF7BDFD10BD780A00209F
:104BB00000040108A8030020AA030020B00300207D
:104BC000B2030020B4030020B6030020B803002085
:104BD000BA030020BC030020BE030020C003002055
:104BE000C2030020C4030020C6030020C803002025
:104BF000CA030020D0030020D2030020D4030020E9
:104C0000D6030020D8030020DA030020DC030020B4
:104C1000DE030020E0030020E2030020E403002084
:104C2000E6030020E8030020EA030020EC03002054
:104C3000EE030020F0030020F2030020F403002024
:104C4000F6030020F80300202DE9F84F05460E4634
:104C50001446684204F08AF85849096808625848BE
:104C60000068A04203D0002054490968C861534934
:104C70000968086A534904F0A5F87AD84F490968C9
:104C8000086A514904F09EF973D84C490968086ACA
:104C90004E4904F097F808D848490968086A4C4911
:104CA00004F090F901D8012000E000204349096890
:104CB0000875424A1268116A404A1268D06903F0C6
:104CC00097FF3E490968C8613C4A1268516A3B4AED
:104CD0001268106A04F0A8F98146384800688169B2
:104CE000484604F0A3F8074634490968087D04F0F3
:104CF00055F88346314800680169584604F096F833
:104D000082462E480068C169504604F08FF88146FB
:104D10002A4A1268116A294A1268D06804F086F893
:104D20004946009003F064FF8046394603F060FF77
:104D3000224909684860304604F018F807461F48C1
:104D400000684168384604F03DF805D2304604F06A
:104D50000DF81A490968486018490968486800212F
:104D600004F030F812D200201449096848600DE0C0
:104D7000FFE712490968086A144904F023F905D2CB
:104D8000304603F0F3FF0D49096848600B4800689E
:104D9000006A0A490968486209480460012C03D185
:104DA00006480068406804E004480068406880F0F5
:104DB0000040074603F0BEFFBDE8F88FE800002082
:104DC000EC00002000004842000048C200002041E2
:104DD000000020C12DE9F84F8146884682480088AE
:104DE00000EBC00101EB00158048008800EB80005B
:104DF00046007F48008800EB8000470007F11E0B4B
:104E0000A6F11E0000904FF0000A002479480088A7
:104E100000287DD17848008878490968A0EB010A0C
:104E200077480068B0F1FF3F02D0012871D140E01F
:104E300071480088B84213DC72480068401C714910
:104E4000086008460068A84201D2002430E0002033
:104E50006C4908606A48006840426949086027E078
:104E60000020684908606448008858451ADC624898
:104E70000088B84216DDBAF1000F0CDA604800680D
:104E800040F6B83148435C490988C91B48431E2194
:104E900090FBF1F40CE05A48006840F6B83100FB92
:104EA00001F405E05648006840F6B83100FB01F413
:104EB00046E051480088B04213DB52480068401C6D
:104EC0005049086008460068A84201D2002434E036
:104ED00000204C4908604A48006840424849086040
:104EE0002BE0002047490860434801880098814230
:104EF0001DDB41480088B04219DABAF1000F0FDD1E
:104F00003F48006840F6B83148433B49098801E012
:104F10001CE013E0711A48431E2190FBF1F40CE0F1
:104F20003748006840F6B83100FB01F405E034482A
:104F3000006840F6B83100FB01F401E0002400BF36
:104F400000BF2D4800882D4908604AE02C480068C1
:104F5000B0F1FF3F02D0012840D11FE0B9F1000FAE
:104F600013DD28480068401C264908600846006890
:104F7000A84201D2002410E0002022490860204805
:104F8000006840421E49086007E01D4840F6B831FD
:104F900002684846FFF758FE044621E0B8F1000FCA
:104FA00013DD18480068401C164908600846006870
:104FB000A84201D2002410E00020124908601048E5
:104FC000006840420E49086007E00D4840F6B831DD
:104FD00002684046FFF738FE044601E0002400BFA7
:104FE00000BF2046BDE8F88FDA030020DC03002074
:104FF000DE030020D8030020A8000020B800002015
:10500000B4000020BC00002030B504460D4600234B
:1050100007E0204600F00BF825F81300A41C581CEC
:1050200083B202EBD271B3EB610FF2DB30BD01460C
:10503000088870472DE9F05F80468A461746B8F128
:10504000006F02D33348804501D3BDE8F09FFCF7E1
:1050500017FDA8F1006B4FEA9B25CBF34809C9F572
:105060000074A74200DC3C464DE04FF0006101EBCC
:1050700085208A142849FFF7C7FF00260BE009EBBB
:105080000600254931F810004FF6FF71884200D024
:1050900003E0701C86B2A642F1DB00BFA6421BDA19
:1050A0004FF0006101EB8520FCF766FC002608E06C
:1050B0003AF8160006EB0901174A22F81100701C95
:1050C00086B2A642F4DB4FF0006101EB85208A1422
:1050D000114900F023F804E022465146404600F012
:1050E0001DF8A74200D10FE06D1C4FF000090AEB3C
:1050F000440AA044381B87B2B7F5007F02DD4FF4A5
:10510000007400E03C46B0E700BFFCF775FC00BF50
:105110009BE70000000002089E0B00202DE9F041F3
:1051200005460E461746002407E036F814102846B8
:10513000FCF77AFCAD1C601C84B2BC42F5DBBDE818
:10514000F081704710B547480088474908804748B4
:105150000088488046480088888046480088088142
:10516000454800884881454800888881444800882F
:10517000C8814448008808824348008848824348E0
:105180000088888242480088C88242480088088394
:105190004148008848834148008888834048008807
:1051A000C8834048008808843F48008848843F48B6
:1051B000008888843E480088C8843E480088088566
:1051C0003D48008848853D48008888853C480088DF
:1051D000C8853C48008808863B48008848863B488C
:1051E000008888863A480088C8863A480088088738
:1051F00039480088488739480088888738480088B7
:10520000C88738480088A1F8400037480088A1F8CE
:10521000420036480088A1F8440035480088A1F8CB
:10522000460034480088A1F8480033480088A1F8B7
:105230004A0032480088A1F84C0031480088A1F8A3
:105240004E0030480088A1F85000FAF7CDFF044620
:105250006A2205492C48FFF7EDFE2046FAF7C8FF01
:1052600010BD0000A8030020E20A0020AA030020CD
:10527000AC030020B0030020B2030020B4030020E0
:10528000B6030020B8030020BA030020BC030020AE
:10529000BE030020C0030020C2030020C40300207E
:1052A000C6030020C8030020CA030020CC0300204E
:1052B000CE030020D0030020D2030020D40300201E
:1052C000D6030020D8030020DA030020DC030020EE
:1052D000DE030020E0030020E2030020E4030020BE
:1052E000E6030020E8030020EA030020EC0300208E
:1052F000EE030020F0030020F2030020F40300205E
:10530000F6030020F8030020000001080E49B1F95F
:1053100000100E4AB2F90020891A48100A49B1F962
:1053200000100A4AB2F90020891A04D4C1B2084A0E
:105330001268118007E041424FF47F4202EA0121E6
:10534000034A126811807047AC000020AA000020B8
:10535000209100080B48B0F90000002805DB09483F
:1053600000780949096808800AE00648B0F9000099
:1053700040424FF47F4101EA002003490968088058
:1053800070470000AA000020209100080B48B0F9E7
:105390000000002805DB09480078094909680880F1
:1053A0000AE00648B0F9000040424FF47F4101EAAC
:1053B000002003490968088070470000AC00002005
:1053C0002091000840F65A7043490880A5204349BF
:1053D000088040F65A7042490880A520414908805B
:1053E00003204149088040F65A7040490880A520B2
:1053F0003F49088040F65A703E490880A5203E4942
:10540000088000203D49088040F65A703C490880D9
:10541000A5203C49088040F65A703B490880A520E9
:105420003A49088000203A49088040F65A703949C4
:105430000880A5203849088040F65A70374908800E
:10544000A5203749088000203649088040F65A7068
:1054500035490880A5203549088040F65A703449FE
:105460000880A5203349088000203349088040F691
:105470005A7032490880A5203149088040F65A7098
:1054800030490880A5203049088000202F49088035
:1054900040F65A702E490880A5202E49088040F613
:1054A0005A702D490880A5202C49088000202C49DD
:1054B000088040F65A702B490880A5202A490880A8
:1054C00040F65A7029490880A52029490880002003
:1054D0002849088070470000FA030020FC030020E0
:1054E000FE03002000040020020400200404002029
:1054F00006040020080400200A0400200C040020F8
:105500000E040020100400201204002014040020C7
:1055100016040020180400201A0400201C04002097
:105520001E04002020040020220400202404002067
:1055300026040020280400202A0400202C04002037
:105540002E04002030040020320400203404002007
:1055500036040020380400203A0400203C040020D7
:105560003E040020400400204204002044040020A7
:1055700046040020480400200848B0F90000322109
:1055800001EB600006490988322202EB610140EA22
:10559000012004490968088070470000AC00002021
:1055A000AA000020209100084EF655603849088076
:1055B000002038490880384908803849088038492F
:1055C0000880384908803849088001203749088018
:1055D000002037490880374908802820364908804C
:1055E0000120364908805020354908804FF4E16099
:1055F0003449088034490880344908800A203449F5
:105600000880052033490880C820334908804FF4BA
:10561000FA70324908800020314908805F20314902
:105620000880322030490880052030490880012058
:105630002F4908805F202F49088001202E490880CB
:105640000F202E49088000202D49088002202D4976
:1056500008805A202C4908800A202C490880002004
:105660002B4908802B4908802B4908802B4908804A
:1056700032202B49088064202A49088014202A49B6
:105680000880322029490880002029490880704775
:10569000A8030020AA030020AC030020AE030020D2
:1056A000B0030020B2030020B4030020B6030020A2
:1056B000B8030020BA030020BC030020BE03002072
:1056C000C0030020C2030020C4030020C603002042
:1056D000C8030020CA030020CC030020CE03002012
:1056E000D0030020D2030020D4030020D6030020E2
:1056F000E0030020E2030020E4030020E603002092
:10570000D8030020DA030020DC030020DE030020A1
:10571000E8030020EA030020EC030020EE03002051
:10572000F0030020F2030020F4030020F603002021
:10573000F803002010B500F001F810BD0CB50020F2
:10574000019000903348006840F48030314908608F
:1057500000BF3048006800F4003000900198401C01
:105760000190009818B90198B0F5A06FF1D12948BF
:10577000006800F4003010B10120009001E000202A
:1057800000900098012843D12348006840F01000A1
:10579000214908600846006820F0030008600846B8
:1057A000006840F0020008601A48406819494860E3
:1057B0000846406848600846406840F48060486099
:1057C0000846406820F47C1048600846406840F471
:1057D000E81048600846006840F08070086000BF2C
:1057E0000C48006800F000700028F9D009484068B3
:1057F00020F00300074948600846406840F0020076
:10580000486000BF0348406800F00C000828F9D148
:105810000CBD0000001002400020024001460B4871
:105820000088814206DC094800884042814201DB51
:105830000020704705480088814203DD0348008846
:10584000081AF6E7014800880844F2E7BE03002082
:105850001B480068008810B101282DD115E01948B7
:1058600000881949A1F8A600184800680078154971
:10587000098841EA0030C0F30E0015490968088024
:105880000120114981F8A40017E0124800880E4950
:10589000A1F8AA000D48006800780E49098841EA7D
:1058A000003080B240F400400949096808800120B6
:1058B000054981F8A40000E000BF00BF0020704748
:1058C000809100080C0000205C010020B0910008CD
:1058D000249100080E0000202DE9F04704460D46F3
:1058E000002C7BD0601B03F041FA64490968086210
:1058F00062490968086A624903F064FA11D25F4993
:105900000968086A5F4903F05DFB0AD200205B4921
:105910000968086259480068C068584909684860C1
:1059200065E056480068416A4FF0804003F07EFA17
:105930008146524A1268916A504A1268106A03F00E
:1059400057F98246494603F06FFB80464B48006892
:10595000C169404603F06AFA0646484A1268116A6D
:10596000464A1268506903F061FA8146434A126858
:10597000516A424A1268106A03F056FB82463F4859
:1059800000680169504603F051FA8046494603F029
:105990002FF90746314603F02BF93849096888602A
:1059A000364A12689168354A1268D06803F020F9C7
:1059B000324909684860204603F0D8F907462F4865
:1059C00000684168384603F031FA0646002103F0CA
:1059D000F9F90CD2002C02DD012102E037E04FF092
:1059E000FF31084603F0C2F9244909684860234999
:1059F00009684868244903F0E5FA04D822481F4999
:105A0000096848600AE01D49096848681F4903F0B1
:105A1000D9F903D81D481949096848601748006832
:105A2000406A16490968886214480068006A134988
:105A30000968486211480068406810490968C860F0
:105A40000E48006840680D49096808600FE00020B2
:105A50000A490968C860094909680862074909686C
:105A60004862064909688862044909680860034970
:105A70000968086803F05EF9BDE8F087E4000020DB
:105A800000002041000020C100008744000087C4BE
:105A900002464842824201DA484270478A4201DDAA
:105AA0000846FAE71046F8E7042808D14FF0E0214D
:105AB000096941F004014FF0E022116107E04FF065
:105AC000E021096921F004014FF0E02211617047E3
:105AD00010B505480078012805D1FCF7DBFFFDF77C
