:020000040800F2
:1000000020230020D1010008A12B0008891F00082F
:10001000012600086914000887710008000000002C
:10002000000000000000000000000000675400080D
:100030000B1C0008000000005F02000809600008B7
:100040008D710008EB010008EB010008EB010008CE
:10005000EB010008EB0100080D1C0008EB01000893
:10006000EB010008EB010008EB010008D5170008C0
:10007000FD170008EB010008EB010008EB01000888
:10008000EB010008D5180008EB010008EB0100089F
:10009000EB010008EB010008EB010008EB01000890
:1000A000C5620008EB010008EB010008C962000806
:1000B000EB010008E962000861640008EB01000838
:1000C000EB010008EB010008EB010008EB01000860
:1000D000EB010008EB010008696E0008FD6E0008E6
:1000E000EB010008EB010008EB01000800F002F84A
:1000F00000F05FF80AA090E8000C82448344AAF163
:100100000107DA4501D100F054F8AFF2090EBAE860
:100110000F0013F0010F18BFFB1A43F0010318473B
:1001200018940000389400000A444FF0000C10F8B6
:10013000013B13F0070408BF10F8014B1D1108BF65
:1001400010F8015B641E05D010F8016B641E01F805
:10015000016BF9D113F0080F1EBF10F8014BAD1C55
:100160000C1B09D16D1E58BF01F801CBFAD505E073
:1001700014F8016B01F8016B6D1EF9D59142D6D3CD
:10018000704700000023002400250026103A28BFF5
:1001900078C1FBD8520728BF30C148BF0B607047F9
:1001A000642900F0C380002070471FB51FBD10B543
:1001B00010BD00F084FA1146FFF7F7FF07F0DEFEEE
:1001C00000F0A2FA03B4FFF7F2FF03BC00F0A6FAB6
:1001D0000948804709480047FEE7FEE7FEE7FEE7DB
:1001E000FEE7FEE7FEE7FEE7FEE7FEE70448054917
:1001F000054A064B7047000025600008ED00000826
:10020000201D002020230020201F0020201F002070
:10021000EFF3108072B6704780F310887047204C5F
:10022000204D25604FF0000484F309881E4C4FF0E8
:10023000010525701D4C4FF08055256062B6FEE724
:1002400030B41A4C4FF08055256030BC704730B444
:10025000164C4FF08055256030BC704700BF72B619
:10026000EFF3098028B1203880E8F00F10490968C1
:10027000086000B50F4880475DF804EB0E480F4951
:100280000A7802700A480E490A680260106890E80D
:10029000F00F203080F309884EF0040E62B67047EC
:1002A00020ED00E00000FFFF2604002004ED00E048
:1002B0002C040020A13400081B0400201C04002092
:1002C000340400200FB4044910B503AA029800F0CA
:1002D000C3F910BC5DF814FB1801002070B504468A
:1002E00085690068C10601D5302600E02026C007D8
:1002F00007D070BDD4E9012130469047206A401CE8
:1003000020626D1EF6D570BD70B504468569007813
:10031000C00707D170BDD4E9012120209047206A91
:10032000401C20626D1EF6D570BD00002DE9F04125
:100330000646002410687529314616A510D0AFF383
:100340000080002802DA404213A507E031688A07DE
:1003500001D512A502E0490704D511A5012401E049
:10036000AFF3008000210A2206F1240709E0B0FB68
:10037000F2FCB0FBF2F302FB1C003030785418465C
:10038000491C0028F3D123462A463046BDE8F041F7
:1003900000F009B9000000002D0000002B00000053
:1003A000200000002DE9F0474FF0000A894604467E
:1003B000C0F820A02046E1688847002876D025288C
:1003C00006D0D4E901219047206A401C2062F1E761
:1003D000E168204600258847C4F81CA0064600278F
:1003E000C4F818A02A2E09D0304607F03DF938B3DA
:1003F00004EB8708303EC8F8186019E059F8041B70
:10040000204604EB87029161E1688847012F064688
:1004100018D1E069002820DA25F020051DE0D8F881
:10042000180000EB800006EB40003038C8F81800D8
:100430002046E1688847064607F016F90028EED105
:10044000012F0AD02E2E08D12046E16888477F1C54
:100450000646022F45F02005C4DBA069002803DA18
:10046000404245F00105A061E80701D025F01005E4
:10047000B6B1A6F14100192802D8203645F400652E
:100480004A463146204625604D46FFF789FE58B161
:10049000012806D0ED1D25F0070000F1080989E7C5
:1004A00004E005F1040985E730468AE7206ABDE8E3
:1004B000F087032A40F2308010F0030C00F0158022
:1004C00011F8013BBCF1020F624498BF11F801CB57
:1004D00000F8013B38BF11F8013BA2F1040298BFBC
:1004E00000F801CB38BF00F8013B11F0030300F026
:1004F0002580083AC0F0088051F8043B083A51F8CA
:1005000004CBA0E80810F5E7121D5CBF51F8043BCE
:1005100040F8043BAFF30080D20724BF11F8013B41
:1005200011F801CB48BF11F8012B24BF00F8013BA3
:1005300000F801CB48BF00F8012B704710B5203AF6
:10054000C0F00B80B1E81850203AA0E81850B1E88C
:100550001850A0E81850BFF4F5AF5FEA027C24BF42
:10056000B1E81850A0E8185044BF18C918C0BDE839
:1005700010405FEA827C24BF51F8043B40F8043B02
:1005800008BF7047D20728BF31F8023B48BF11F8B7
:10059000012B28BF20F8023B48BF00F8012B704711
:1005A0007047704770472DE9F0470D4699469246CF
:1005B000044600F124080168880604D5E06921F0AA
:1005C0001001216000E00120A84201DD471B00E08E
:1005D0000027A1697A1902EB0900081AA0612078A6
:1005E000C00602D42046FFF779FE002608E0D4E9D1
:1005F00001211AF806009047206A401C761C2062F0
:100600004E45F4DB2078C0060AD52046FFF766FE8B
:1006100006E0D4E9012130209047206A401C206286
:10062000381EA7F10107F4DC07E0D4E9012118F82E
:1006300005009047206A401C2062281EA5F1010594
:10064000F3DC2046FFF760FE2078000602D502208A
:10065000BDE8F0870120FBE7074B70B50D467B44F2
:1006600000F015F80446284600F024F810B14FF0C9
:10067000FF3070BD204670BD877100000048704794
:10068000BC1C002001694A1C02610878704700B553
:100690008FB0CDE901310021059105497944CDE9BB
:1006A000031011466846FFF77DFE0FB000BD000045
:1006B000E5FFFFFF007B00F0800070477047754644
:1006C000FFF7DCFFAE4605006946534620F0070001
:1006D000854618B020B5FFF789FDBDE820404FF0F2
:1006E00000064FF000074FF000084FF0000B21F01C
:1006F0000701AC46ACE8C009ACE8C009ACE8C009E9
:10070000ACE8C0098D46704710B50446AFF30080D1
:100710002046BDE81040FFF755BD000001491820F4
:10072000ABBEFEE72600020021B1826842F0010262
:10073000826003E0826822F001028260704721B18A
:10074000826842F48072826003E0826822F48072E0
:1007500082607047014600208A6802F004020AB1F4
:10076000012000E000207047014600208A6802F066
:1007700008020AB1012000E00020704730B50246AF
:100780000020002350680F4C20400D790C6844EA8B
:1007900005242043506090680B4C2040D1E902545E
:1007A0002C434D7944EA450420439060D06A20F4FC
:1007B00070000C7C641EE4B2234340EA0350D06214
:1007C00030BD0000FFFEF0FFFDF7F1FFF0B504467D
:1007D0000D4600200021092D11DDE068A5F10A0673
:1007E00006EB4607072606FA07F18843A5F10A0635
:1007F00006EB460603FA06F10843E0600CE02069C8
:1008000005EB4507072606FA07F1884305EB450681
:1008100003FA06F108432061072A0FDA606B561EBF
:1008200006EB86071F2606FA07F18843561E06EBDD
:10083000860605FA06F10843606322E00D2A0FDA06
:10084000206BD61F06EB86071F2606FA07F18843A2
:10085000D61F06EB860605FA06F10843206310E072
:10086000E06AA2F10D0606EB86071F2606FA07F1DD
:100870008843A2F10D0606EB860605FA06F1084349
:10088000E062F0BD816841F008018160704721B1EC
:10089000826842F4A002826003E0826822F4A0022F
:1008A00082607047816841F00401816070470000F8
:1008B00000B591B04FF4004003F042FC01214FF429
:1008C000047003F079FC0F20ADF8400000208DF893
:1008D000430010A93D4801F060FA3D4801F096F848
:1008E0003C4800903C480190002002900420039076
:1008F0000020049080200590400006908000079022
:10090000202008900002099000200A906946304893
:1009100001F05BF9012202212D4801F04DF901217E
:100920002B4801F067F800200B9001208DF8300073
:1009300000208DF831004FF460200D9000200E90C3
:1009400004208DF83C000BA922484C38FFF716FF15
:10095000032301220A211F484C38FFF737FF0323E6
:1009600002220B211B484C38FFF730FF03231A46A5
:100970000C2118484C38FFF729FF032304220D21CE
:1009800014484C38FFF722FF012112484C38FFF77A
:10099000D6FE01210F484C38FFF7C6FE0D484C38F3
:1009A000FFF770FF00BF0B484C38FFF7DDFE002853
:1009B000F9D108484C38FFF775FF00BF05484C389F
:1009C000FFF7C8FE0028F9D111B000BD00100140AA
:1009D000080002404C240140AA00002070B58A485B
:1009E0000068008808B1012000E000200546874C1F
:1009F000207801280CD186480068008800EB40016F
:100A0000201D00EB8100406800886080002020707D
:100A1000804800780A287CDD7B480068008801282F
:100A20001ED17B480068008800EB4001201D00EBD0
:100A300081004068018876480068008800EB400229
:100A4000201D00EB82000089014471480068008885
:100A500000EB4002201D00EB82004088814200DD57
:100A6000C5B96B4B1B681B8803EB4306231D03EBC7
:100A700086031A7A664B1B681B8803EB4306231D0B
:100A800003EB86035968604B1B6818882B4600F0FF
:100A9000C7F83BE05C480068008802281DD15C482C
:100AA0000068008800EB4001201D00EB81004068D9
:100AB000018857480068008800EB4002201D00EBC9
:100AC00082000089091A52480068008800EB400241
:100AD000201D30F82200814200DABDB94C4B1B6862
:100AE0001B8803EB4306231D03EB86031A7A484B4E
:100AF0001B681B8803EB4306231D03EB8603596821
:100B0000414B1B6818882B4600F08AF800204149A9
:100B100008703F480068008820B13D4800680088A0
:100B2000182813D13A480068008800EB4001201DC6
:100B300000EB81004068008800EB80004FF6FF71F9
:100B400001EA400034490968088031E03048006813
:100B50000088122809D02E4800680088162804D082
:100B60002B480068008817280FD1294800680088A2
:100B700000EB4001201D00EB81004068008800F57B
:100B8000487025490968088012E0214800680088FB
:100B900000EB4001201D00EB81004068008800EB65
:100BA00080004FF4487101EB40001B490968088040
:100BB0001A4800680088022814D114484188144853
:100BC0000068008800EB40021048001D00EB820026
:100BD0004068018001200D490870FF200C49096818
:100BE00008800AE00D4800680088012805D10749FF
:100BF0000870FF2006490968088006480078401CF4
:100C00000449087070BD0000C8910008A4020020CB
:100C1000C0910008D6030020B4910008CC910008D0
:100C200030B5012B36D1012802D0022830D117E08F
:100C30001C4C247834B901241A4D2C700C881444AF
:100C40000C800CE0184C2478072C05DA164C24781C
:100C5000641C154D2C7002E00C8814440C8018E0C4
:100C6000104C247834B901240E4D2C700C88A41A31
:100C70000C800CE00C4C2478072C05DA0A4C247804
:100C8000641C094D2C7002E00C88A41A0C8000E052
:100C900000BF05E023B90024024D2C70024D2C70DA
:100CA00030BD0000D5030020D403002007285FD208
:100CB000DFE800F05E4F3140130422000121344A86
:100CC0001160344AC2F8A81143F20401324A11807B
:100CD00000212F4A121D116058E001212C4A116099
:100CE0002C4AC2F8A8114FF450512B4A1180002110
:100CF000274A121D116049E00121254A121D116089
:100D0000244AC2F8A8114FF45051234A11800021FF
:100D10001F4A11603AE001211D4A121D11601D4A4F
:100D2000C2F8A8114FF441511B4A11800021184A02
:100D300011602BE00121164A1160164AC2F8A41175
:100D40004FF44151144A11800021114A08321160B8
:100D50001CE001210E4A11600E4AC2F8A41143F2B0
:100D600004010D4A11800021094A083211600DE08A
:100D70004FF44051084A11800121054A1160054A8B
:100D8000C2F8A411024A0832116000BF00BF7047C8
:100D9000A001214200002142202C0140072861D2FD
:100DA000DFE800F060513342130423000121364A8A
:100DB0001160364AC2F8A8114FF44151344A1180EB
:100DC0000021314A121F11605BE001212E4A121FDF
:100DD00011602E4AC2F8A4114FF441512C4A1180DF
:100DE0000021294A121D11604BE00121264A121FE1
:100DF0001160264AC2F8A41143F20401244A11806A
:100E00000021214A121D11603BE001211E4A121FE0
:100E100011601E4AC2F8A81143F204011C4A118055
:100E20000021194A11602CE00121174A121F11609C
:100E3000164AC2F8A8114FF45051154A11800021EA
:100E4000114A11601DE001210F4A11600F4AC2F8DA
:100E5000A8114FF450510E4A118000210A4A121F66
:100E600011600EE04FF44051094A11800121064AF9
:100E7000121F1160054AC2F8A411034A121D116025
:100E800000BF00BF70470000A401214200002142C2
:100E9000202C014008B54FF47060ADF80000102020
:100EA0008DF8030003208DF8020069460E4800F01B
:100EB00074FF4FF46040ADF8000018208DF8030077
:100EC00003208DF802006946084800F066FF4FF4E1
:100ED000E070ADF8000048208DF803006946044832
:100EE00000F05BFF08BD000000080140000C01405D
:100EF0000010014000B500230F488068C0F3821342
:100F0000012B17DB062B15DC01200C490871084664
:100F100090F90700401C18B91846FFF7C7FE06E015
:100F20000648C079012802D11846FFF737FF002094
:100F30000349088000BD000000100140240100208A
:100F40002404004000200749088000BF00BF0020A3
:100F5000054908600549C1F8A40103490831086042
:100F600070470000202C0140A001214200002142D6
:100F700000B58BB00121C80203F01EF9424805F00C
:100F80002FFB0220ADF820004020ADF8220040F2F7
:100F9000AF40ADF824000020ADF826008DF8280001
:100FA00008A9394805F01AFE6020ADF810000020AD
:100FB000ADF81200ADF814004FF41670ADF816003D
:100FC0000020ADF81800ADF81A00ADF81C00ADF81F
:100FD0001E0004A92C4805F057FC4FF41670ADF81C
:100FE000160004A9284805F0A5FC4FF41670ADF8CA
:100FF000160004A9244805F0FDFC7020ADF810008F
:101000000020ADF812000A20ADF816000220ADF85D
:10101000180004A91C4805F047FD4FF40060ADF826
:1010200000004010ADF802008010ADF804007820F8
:10103000ADF806000020ADF80800ADF80A00ADF8E4
:101040000C006946104805F09DFA08210E4805F08D
:1010500067FC08210C4805F0BFFC08210A4805F090
:1010600019FD0121084805F0ACFA1021064805F0E9
:1010700099FA0121044805F098FA0122102102484A
:1010800005F0F8FB0BB000BD002C014000B58BB0A3
:101090000121022003F070F80121354800F008FF1B
:1010A000344805F09DFA4720ADF820000020ADF847
:1010B000220042F20F70ADF824000020ADF82600A7
:1010C0008DF8280008A92B4805F088FD0020ADF810
:1010D0001400ADF816000320ADF818000020ADF89C
:1010E0001A000A20ADF81C0005A9224805F06CFB87
:1010F0000020ADF80400ADF8060042F21070ADF823
:101100000A000020ADF80C0001A91A4805F0CCFC3B
:101110000121184805F006FD4021164805F00EFD96
:101120000421144805F025FD8021124805F00FFD2B
:101130005021104805F014FD0E48103000884FF67D
:10114000EF7108400B4910310880084600884FF6BF
:10115000BF7108400749103108800121054805F09A
:1011600024FA01225021034805F084FB0BB000BD96
:10117000000C1A00000400400EB50121042002F00A
:10118000FBFF124805F02CFA4720ADF800000020C4
:10119000ADF8020040F69F70ADF804000020ADF8F5
:1011A00006008DF808006946084805F017FD012182
:1011B000064805F0F7F90121044805F0F6F9012287
:1011C0001146024805F056FB0EBD00000008004025
:1011D00010B503F011F806F05FFA00F017FFFFF703
:1011E00059FEFFF7C5FEFFF751FFFFF7C5FF02F0FD
:1011F000EDFC4FF4E13007F057F84FF4E13007F021
:10120000F9F8FFF755FB4FF4FA6006F073FA002483
:1012100005E00020084921F81400601CC4B20B2C22
:10122000F7DB002404E0002004490855601CC4B228
:101230000C2CF8DB10BD0000480400205E040020E8
:1012400010B501204949088049480088494908806B
:1012500049480088488049480088088148480088F3
:10126000488148480088888147480088C8814748A5
:10127000008808824648008848824648008888825C
:1012800045480088C882454800880883444800884B
:10129000488344480088888343480088C88343487B
:1012A000008808844248008848844248008888842E
:1012B0004148008848854148008888854048008822
:1012C000C8854048008808863F48008848863F48CF
:1012D000008888863E480088C8863E48008808877F
:1012E0003D48008848873D48008888873C480088FA
:1012F000C8873C480088A1F840003B480088A1F816
:1013000042003A480088A1F8440039480088A1F812
:10131000460038480088A1F8480037480088A1F8FE
:101320004A0036480088A1F84C0035480088A1F8EA
:101330004E0034480088A1F8500033480088A1F8D6
:10134000520032480088A1F8540031480088A1F8C2
:101350005600FEF75DFF04466A2206492D4803F059
:10136000FBFF2046FEF758FF10BD000004000020E0
:10137000000000206C0A002002000020080000206D
:101380000A0000200C0000200E00002010000020A9
:101390001200002014000020160000201800002079
:1013A0001A0000201C0000201E0000202000002049
:1013B00022000020240000202A0000202C00002011
:1013C0002E000020300000203200002034000020D9
:1013D00036000020380000203A0000203C000020A9
:1013E0003E00002040000020420000204400002079
:1013F00046000020480000204A0000204C00002049
:101400004E00002050000020520000205400002018
:10141000560000200004010810B51048006800883C
:1014200048B10E4800680088012804D00B480068C5
:101430000088022811D10020094908804FF47A70F1
:1014400006F058F9054909680A88064951F822004A
:101450008047FF2001490968088010BDE491000819
:1014600006000020D401002000BFFEE770B5024650
:101470000C46FF25FF2309E012F8010B80EA050165
:101480000648405C80EA03050548435C201EA4F141
:101490000106B4B2F0D143EA052070BD38920008CD
:1014A000389300082DE9F05F05460C46584800685F
:1014B000056257480068006A32287FDC544800689B
:1014C000006A10F1320F79DB51480068006A022887
:1014D00013DC4F480068006A10F1020F0DDB00209A
:1014E0004B49096848604B480078012879D10320AE
:1014F000484948700020087073E045490968096A46
:10150000434A1268926A1144414A1268526A02239D
:1015100003FB121007F03CFC81463D480068C1699E
:10152000484607F095FC074639490968086A07F0FC
:101530002FFC8346364800684169584607F088FC0E
:10154000814633490968096A314A1268526A881A21
:1015500007F01EFC83462E4800680169584607F0D4
:1015600077FC8246494607F069FB8046394607F01A
:1015700065FB064607F0D0FB2549096888602448CA
:101580000068C068224909688968084420490968D8
:1015900048601F4800684068A04204DD1C4800689D
:1015A00044601EE00AE01A480068406861428842D0
:1015B00017DA604216490968486012E0144800686A
:1015C000006A322803DD12480068446009E01048D0
:1015D0000068006A10F1320F03DA60420C490968B2
:1015E00048600B480068406A0949096888620848F1
:1015F0000068006A06490968486205480068406852
:1016000003490968C860024800684068BDE8F09F67
:101610007C010020E00100202DE9F0418EB004465D
:101620000F4615464FF000085F4B0FCB0AAE0FC6B2
:1016300024225D49103101A8FEF780FF204600F00A
:101640008CFC06465948007801281DD1584800886E
:10165000401E0AA951F82000381A56490860084669
:10166000006800280EDD52480088401E0AA931F8A3
:10167000200083B24F4831460268204600F0F4FD56
:10168000804669E0A04667E04B480088801E01A9BB
:1016900051F82000381A4949086049480078002864
:1016A00049D12CB94749088047490880804653E012
:1016B0004448008842F21071884224DA4148008888
:1016C000401C404908803D480068002816DD06207F
:1016D0003E4988713C480088401C3B490880364898
:1016E0000088801E01A931F8200083B233483146BA
:1016F0000268204600F0B8FD80462DE0A04600209C
:101700003249887128E03048008841F288318842A7
:101710000ADB4FF0000801202949087007202B49F7
:10172000C8712B48066000E0A046002026490880CA
:101730002449088010E02648006886420AD04EB14D
:101740002348006830B100202049C871A0461C49D8
:10175000087001E04FF0000840F2EC50854208DCD0
:1017600040F22E40854204DB002018498872C8727E
:1017700016E040F2EC50854202DD0A2013498872DF
:1017800040F22E40854202DA0B201049C8724FF019
:10179000000840F22D20854202DC72B603F064FEA0
:1017A00040460EB0BDE8F08138910008E00100200D
:1017B0002200002078010020240000207401002075
:1017C0006C0100206E010020700100205E040020EA
:1017D0006801002010B5022000F0D8F948B10120BE
:1017E00000F0FAF80348006802F018FC01200249F2
:1017F000087010BDDC000020F000002010B5FEF7DE
:1018000007FD044612480078401C11490870204624
:10181000FEF702FD202000F0B9F9A8B1002240F245
:1018200024410C4805F018FC012240F226610948C9
:1018300005F012FC0021084800F0DCF8202000F040
:10184000CBF8102000F0C8F801F0E0FA10BD00005D
:1018500019040020004800401C00024010B5044656
:1018600000BF2021194805F0C0FB0028F9D104B9B8
:1018700010BD00BF164800F06FF90028FAD1002112
:10188000134800F0B7F82146114800F0BCF90121D7
:101890000F4800F0AFF800BF202000F061F90028E9
:1018A000FAD000BF4021094805F09FFB0028F9D07D
:1018B0004021064805F06CFB202000F07FF8002155
:1018C000034800F097F800BFD2E70000004800404E
:1018D0001C00024010B5FEF79BFC0446134800783C
:1018E000401C124908702046FEF796FC4FF000702D
:1018F00000F04CF9B8B1002240F224410C4805F048
:10190000ABFB012240F22661094805F0A5FB00214E
:10191000084800F06FF84FF0007000F05DF84FF0ED
:10192000807000F059F801F071FA10BD1904002020
:10193000004400408000024010B5044600BF202152
:101940001C4805F052FB0028F9D104B910BD00BFB6
:10195000194800F001F90028FAD106F029FB00210E
:10196000154800F047F82146134800F04CF90121D2
:10197000114800F03FF800BF4FF0007000F0F0F8A1
:101980000028F9D000BF40210A4805F02EFB0028AE
:10199000F9D04021074805F0FBFA4FF0007000F045
:1019A0000DF80021044800F025F806F0F9FA00BF10
:1019B000CCE70000004400408000024000F080516D
:1019C00011B10349086001E0024948607047000016
:1019D000040402400000024000F0805111B10349AC
:1019E000086001E0024948607047000004040240BA
:1019F0000000024021B1026842F00102026004E0EE
:101A000002684FF6FE731A400260704701684FF695
:101A1000FE72114001600021016041608160C1607F
:101A20004B49884208D14A490839496841F00F01B9
:101A3000474A083A51608AE045491431884208D142
:101A400043490839496841F0F001414A083A516078
:101A50007DE03F492831884208D13D49083949682D
:101A600041F470613A4A083A516070E038493C31BB
:101A7000884208D136490839496841F47041344AEE
:101A8000083A516063E032495031884208D1304908
:101A90000839496841F470212D4A083A516056E0EE
:101AA0002B496431884208D129490839496841F4F1
:101AB0007001274A083A516049E025497831884247
:101AC00008D123490839496841F07061204A083A31
:101AD00051603CE01F49884206D1011F096841F06E
:101AE0000F01021F116032E01A491431884208D1F7
:101AF0001849091F096841F0F001164A121F1160C8
:101B000025E014492831884208D11249091F096883
:101B100041F470610F4A121F116018E00D493C3109
:101B2000884208D10B49091F096841F47041094AEC
:101B3000121F11600BE007495031884207D1054957
:101B4000091F096841F47021024A121F1160704791
:101B500008000240080402400146486880B270470D
:101B600001460020002201F0805313B1054B1A6892
:101B700001E0054B1A6802EA01030BB1012000E005
:101B8000002070470004024000000240014600208F
:101B9000002201F0805313B1054B1A6801E0054B98
:101BA0001A6802EA01030BB1012000E0002070472F
:101BB00000040240000002401AB103680B430360B6
:101BC00002E003688B430360704710B5002202688F
:101BD00047F6F0739A430C6A8B6823430C692343DE
:101BE0004C6923438C692343CC6923434C6A2343C8
:101BF0008C6A23431A430260CB6843600B6883609E
:101C00004B68C36010BD41607047704710B501203C
:101C100000F014F840B14021044800F09CF903F0B2
:101C200023FC012000F004F810BD00000014014066
:101C3000014908607047000014040140014600207B
:101C4000034A12680A400AB1012000E000207047F0
:101C50001404014030B5044604254FF4302000F050
:101C600089F80546042D17D10C48006940F00200A0
:101C70000A49086108464461006940F04000086173
:101C80004FF4302000F076F805460448006941F62C
:101C9000FD71084001490861284630BD002002401E
:101CA00004200B49C96801F0010109B101200EE0CF
:101CB0000749C96801F0040109B1022007E004499D
:101CC000C96801F0100109B1032000E00420704749
:101CD000002002400348006940F08000014908618B
:101CE00070470000002002400549096821F01001FA
:101CF000034A1160114609680143116070470000F2
:101D00000020024070B504460D460426F00200F0A3
:101D100031F80646042E11D10948006940F001004F
:101D2000074908612580F00200F024F806460448BF
:101D3000006941F6FE71084001490861304670BDF6
:101D40000020024001460020034A106800F03800DD
:101D50000843106070470000002002400248034919
:101D600048600348486070472301674500200240EF
:101D7000AB89EFCD00B502460423FFF791FF034680
:101D800003E0FFF78DFF0346521E012B01D1002A0D
:101D9000F7D102B90523184600BD2DE9F0410246EE
:101DA00000250026002000230024002791F803C00E
:101DB0000CF00F0591F803C00CF0100CBCF1000FF3
:101DC00003D091F802C04CEA050591F800C0BCF1BF
:101DD000000F31D0146800202BE04FF0010C0CFAFA
:101DE00000F3B1F800C00CEA03069E4220D1830044
:101DF0004FF00F0C0CFA03F7BC4305FA03FC4CEA56
:101E0000040491F803C0BCF1280F06D14FF0010C77
:101E10000CFA00FCC2F814C00AE091F803C0BCF14F
:101E2000480F05D14FF0010C0CFA00FCC2F810C0AD
:101E3000401C0828D1D31460B1F800C0BCF1FF0FDA
:101E400034DD546800202EE000F1080C4FF001084A
:101E500008FA0CF3B1F800C00CEA03069E4221D147
:101E600083004FF00F0C0CFA03F7BC4305FA03FC98
:101E70004CEA040491F803C0BCF1280F05D100F12D
:101E8000080C08FA0CF8C2F8148091F803C0BCF1F1
:101E9000480F07D100F1080C4FF0010808FA0CF8C0
:101EA000C2F81080401C0828CED35460BDE8F081F1
:101EB000F0B50A46002300240021002500F000466A
:101EC000B6F1004F02D11D4EF16901E01B4E716861
:101ED000C0F3034583B200F44016B6F5401F08D1A5
:101EE00021F07061154E766826F07066134F7E60A3
:101EF00012E000F48016B6F5801F06D1032606FA1C
:101F000005F4A14341F0706106E0460D360103FA85
:101F100006F6B14341F0706122B1460D360103FA75
:101F200006F6314300F00046B6F1004F02D1034EF1
:101F3000F16101E0014E7160F0BD00000000014060
:101F40000246002093680B400BB1012000E0002006
:101F500070474161704701617047014609B900202F
:101F60007047002902DA4FF0FF30F9E70120F7E768
:101F7000024611B1012904D101E0104670475042D8
:101F8000FCE70020FAE700000348006800F00100C9
:101F900000B100BE00BFFEE7F0ED00E04CF6CC4023
:101FA00001490860704700000030004010B500F0A3
:101FB00013F810BD70B505460C4645F2555000F0BB
:101FC0001FF8284600F010F8204600F013F800F043
:101FD00003F8FFF7E3FF70BD4AF6AA200149086045
:101FE0007047000000300040014948607047000021
:101FF0000030004001498860704700000030004018
:1020000001490860704700000030004008B510200A
:102010008DF8030003208DF802004FF48050ADF8D6
:10202000000069461848FFF7B8FE0420ADF800002C
:1020300069461648FFF7B1FEBDF800101348FFF7D8
:1020400088FF04208DF803004002ADF800006946C7
:102050000F48FFF7A2FE4FF48050ADF8000069462C
:102060000B48FFF79AFE4FF48070ADF80000694608
:102070000548FFF792FE4FF40070ADF80000694686
:102080000148FFF78AFE08BD000C01400014014022
:102090000010014008B54FF4A06000F0BBFD1D200A
:1020A0008DF8000000208DF8010001208DF802005D
:1020B0008DF80300684600F075FD1B208DF80000C8
:1020C00001208DF8010000208DF8020001208DF81C
:1020D0000300684600F066FD0B208DF8000001202B
:1020E0008DF801008DF802008DF80300684600F0BD
:1020F00059FD1E208DF8000002208DF801000020FF
:102100008DF8020001208DF80300684600F04AFDBA
:1021100026208DF8000003208DF8010000208DF8A6
:10212000020001208DF80300684600F03BFD2720E7
:102130008DF8000003208DF8010001208DF80200C9
:102140008DF80300684600F02DFD08BD0268128876
:102150000B2A71D2DFE802F0060714202B36414B20
:10216000555F71007BE0C27A012A03D102224A80C6
:102170008A8004E0C27A12B900224A808A806EE026
:10218000C27A012A02D14A808A8004E0C27A12B956
:1021900000224A808A8062E0C27A012A02D10522A6
:1021A000CA8003E0C27A0AB90022CA8057E0C27A24
:1021B000012A02D104220A8103E0C27A0AB902226A
:1021C0000A814CE0C27A012A02D102224A8103E04C
:1021D000C27A0AB904224A8141E0C27A012A01D1B5
:1021E0008A8103E0C27A0AB900228A8137E0C27A82
:1021F000012A01D1CA8103E0C27A0AB90022CA8148
:102200002DE0C27A012A01D10A8203E0C27A0AB91A
:1022100000220A8223E0134A12881AB1114A128856
:10222000012A08D1C27A012A01D14A8203E0C27A86
:102230000AB900224A8212E010E00A4A12881AB152
:10224000084A1288012A08D1C27A012A01D18A8259
:1022500003E0C27A0AB900228A8200E000BF00BF10
:10226000704700000800002030B50446B1F1FF3F80
:1022700003D051B1012910D109E004EB02105D42F5
:10228000A84201DD6FF0C70008E0002006E0A4EBE3
:102290000210984200DAC82000E000BF00BF30BD45
:1022A0002DE9F04F87B00446CE48008800EB80004F
:1022B0004FF6FF7101EA4005CB48008800EB800033
:1022C00001EA400606F11E001FFA80FBA5F11E0080
:1022D00080B20590C548008800287CD1C448008899
:1022E000584509DDC24801880598814204DA00207A
:1022F000C0494871274670E1BD480088A84203DA0A
:10230000BB480088B04217DC0520BA494871B8487C
:102310000088A84205DB002C01DA204600E00020FE
:102320000746B3480088B042E5DC002C01DD2046BA
:1023300000E00020074650E10020AE494871AC485B
:10234000008858452ADCAA480088B04226DDA84902
:102350000988881B06F0ABFA0022A74BCDE90001E3
:1023600006F020F9CDE9020106F0DEF881464FF0D3
:102370007E51484606F038FE01D24FF07E59002CBF
:102380000ADA204606F004FD4946029006F060FD98
:10239000039006F0C1FC00E02046074694480188FF
:1023A00005988142A7DB92480088A842A3DA9049A9
:1023B0000988681A06F07BFA00228F4BCDE90001EC
:1023C00006F0F0F8CDE9020106F0AEF882464FF0D3
:1023D0007E51504600E014E006F006FE01D24FF0B8
:1023E0007E5A002C0ADD204606F0D2FC51460290AF
:1023F00006F02EFD039006F08FFC00E02046074615
:10240000EBE07A48008801282AD17C48C08908B9C5
:10241000012000E000207949098A09B9012100E082
:102420000021084020B10020724948712746D4E0BD
:102430000520704948717148C089012805D1002CD8
:1024400001DA204600E0002007466C48008A012897
:10245000D6D1002C01DD204600E000200746BCE07C
:10246000624800880228CBD1274661480088A842EC
:1024700003DA5F480088B04216DC4FF001085C4880
:102480000088A84205DB002C01DA204600E000208D
:10249000074657480088B04274DC002C01DD204616
:1024A00000E0002007466DE051480088281A1E28E9
:1024B00004DB4F480088801B1E2861DA4FF00008BB
:1024C0004B48008858452ADC49480088B04226DD40
:1024D00047490988881B06F0EAF90022464BCDE9F6
:1024E000000106F05FF8CDE9020106F01DF8814613
:1024F0004FF07E51484606F077FD01D24FF07E59ED
:10250000002C0ADA204606F043FC4946029006F009
:102510009FFC039006F000FC00E02046074634488C
:102520000188059881422DDB31480088A84229DACC
:102530002F490988681A06F0BAF900222E4BCDE916
:10254000000106F02FF8CDE9020105F0EDFF82460B
:102550004FF07E51504606F047FD01D24FF07E5AB3
:10256000002C0ADD204606F013FC5146029006F0CE
:102570006FFC039006F0D0FB00E02046074601E028
:102580004FF000081D48C08928B91C48008A10B9BE
:102590000020049015E0012004901848C08901280B
:1025A00005D1002F01DA384600E000200746134825
:1025B000008A012805D1002F01DD384600E0002007
:1025C0000746B8F1000F01D1049818B10520094958
:1025D000487102E0002007494871384607B0BDE85D
:1025E000F08F00002C000020300000202A00002086
:1025F000480100205E040020000034404804002010
:1026000000BFFEE770B52448007E00B970BD2248C7
:10261000807D022815DD2048807D801E81B21E4805
:10262000401CFEF723FF04461B48807D401E1A49CC
:10263000491C0A5C481E807D801E085C02EB00205D
:1026400085B2AC4222D114484078134909788842B7
:102650001BD1114880780A2816D2DFE800F0050661
:1026600007080B0E0F1213140EE00DE00CE000F043
:1026700015F809E000F09EF806E005E000F026F904
:1026800002E001E000E000BF00E000BF00200249DE
:102690008875087600BFB9E7381000202DE9F041B1
:1026A000002542480179C07801EB002087B23F48FD
:1026B0008179407901EB00201FFA80F83B480278CD
:1026C00029466D1C19304254032229466D1C425480
:1026D0004FEA4800C11700EB11610912A0EB01217C
:1026E000CBB22A466D1C314919318B54002621E0AA
:1026F000B9192F4A32F81100C11700EB1161C1F36B
:10270000072329466A1CD5B2284A19325354B919ED
:10271000274A32F81100C11700EB11610912A0EB32
:102720000121CBB229466A1CD5B2204A1932535432
:10273000701CC6B24645DBDB29461C481930FEF743
:1027400095FE04462046E11704EB1161C1F307230F
:1027500029466A1CD5B2154A19325354E11704EBC5
:1027600011610912A4EB0121CBB229466A1CD5B232
:102770000E4A193253540D4890F8550020B10128E3
:1027800003D002280DD106E00CE029460748193095
:1027900001F090FE06E029460448193001F09AFE47
:1027A00000E000BF00BFBDE8F0810000381000204D
:1027B000DE1100202DE9F041002542480179C07862
:1027C00001EB002087B23F488179407901EB00207E
:1027D0001FFA80F83B48027829466D1C1930425494
:1027E000042229466D1C42544FEA4800C11700EBF1
:1027F00011610912A0EB0121CBB22A466D1C3149AF
:1028000019318B54002621E0B9192F4A32F81100F2
:10281000C11700EB1161C1F3072329466A1CD5B229
:10282000284A19325354B919274A32F81100C117EE
:1028300000EB11610912A0EB0121CBB229466A1C01
:10284000D5B2204A19325354701CC6B24645DBDB60
:1028500029461C481930FEF709FE04462046E117B8
:1028600004EB1161C1F3072329466A1CD5B2154A4E
:1028700019325354E11704EB11610912A4EB012141
:10288000CBB229466A1CD5B20E4A193253540D48B0
:1028900090F8550020B1012803D002280DD106E0A0
:1028A0000CE029460748193001F004FE06E02946ED
:1028B0000448193001F00EFE00E000BF00BFBDE883
:1028C000F0810000381000208E1100202DE9F04129
:1028D00000243F480179C07801EB002085B23C48D4
:1028E0008179407901EB002086B23A4820F81560E2
:1028F000374802782146641C19304254062221468A
:10290000641C42542846E91705EB1161C1F3072303
:102910002246641C2E4919318B54E91705EB1161CD
:102920000912A5EB0121CBB22246641C28491931BA
:102930008B543046F11706EB1161C1F30723224691
:10294000641C234919318B54F11706EB11610912EC
:10295000A6EB0121CBB22246641C1D4919318B54D0
:1029600021461B481930FEF781FD07463846F91706
:1029700007EB1161C1F307232246641C1449193186
:102980008B54F91707EB11610912A7EB0121CBB2A8
:102990002246641C0E4919318B540D4890F855009D
:1029A00020B1012803D002280DD106E00CE0E1B2ED
:1029B0000748193001F07EFD06E0E1B20448193005
:1029C00001F088FD00E000BF00BFBDE8F08100001D
:1029D00038100020DE11002001204249087000203C
:1029E000C87581F85500FF203F490968088000201C
:1029F0003E49096808803E49096808803D490968E0
:102A000008803D49096808803C49096808803C49BC
:102A1000096808803B49096808803B4909680880C3
:102A2000FF203A4909680880002039490968088070
:102A3000384800883849096808803848008838498B
:102A4000096808803748008837490968088037488E
:102A5000008837490968088036480088364909687F
:102A600008803648008836490968088000203549C2
:102A70000968088034480088344909680880344867
:102A80000088344909680880334800883349096858
:102A90000880334800883349096808803248008834
:102AA000324909680880324800883249096808803C
:102AB0003148008831490968088031480088314927
:102AC0000968088030480088304909680880304823
:102AD00000883049096808802F4800882F49096814
:102AE0000880704738100020C0910008C491000889
:102AF000C8910008CC910008D0910008D49100083A
:102B0000D8910008DC910008E0910008E4910008E9
:102B1000E8910008080000200C9200080C0000203A
:102B2000049200080E000020089200081000002007
:102B300010920008120000201492000814000020D7
:102B4000F0910008F49100082A000020F891000894
:102B500032000020FC9100083A000020009200089A
:102B600052000020189200080A0000201C92000861
:102B700054000020209200085600002024920008F3
:102B80004200002028920008440000202C920008F7
:102B900046000020309200084800002034920008CF
:102BA0007047000070B5002100230F22C47804B3E1
:102BB000154C246804F4E064C4F5E064210AC1F112
:102BC0000403CA40447804FA03F184781440214392
:102BD00009010E4C0678A155047804F01F05012464
:102BE000AC4005786D11AD0005F1E025C5F8004158
:102BF00009E0047804F01F050124AC40044D067878
:102C0000761145F8264070BD0CED00E000E400E0D0
:102C100080E100E002490143024A11607047000070
:102C20000000FA050CED00E017480068008810B1BC
:102C3000012825D111E0154800881549A1F8A80000
:102C40001448006800781149098841EA0030C0F34F
:102C50000E0011490968088013E0104800880C49EB
:102C6000A1F8AC000B48006800780C49098841EADB
:102C7000003080B240F4004007490968088000E055
:102C800000BF00BF00207047D4910008B2000020B0
:102C9000E8010020F09100087C910008B4000020B9
:102CA00010B501463A48008800EB80004FF6FF74EB
:102CB00004EA80023748008800EB800004EA8003C1
:102CC0003548008820B101282CD002285DD15AE077
:102CD000324800884042814203DB3048008881420C
:102CE00015DD2F480088904206DA2D480088401CE8
:102CF0002B4C2080084610BD04202A4C2071022055
:102D0000294C20800520294CE0800020F3E700209A
:102D1000264CE080234C2071214C2080244C2080C4
:102D20000846E8E71D4800884042814203DB1B4813
:102D3000008881421EDD1A480088904206DA184851
:102D40000088401C164C20800846D4E70420154C0F
:102D500020711748008898420ADA164800680088EF
:102D600020B913480088401C114C20800020C2E785
:102D70000846C0E700200B4C2071094C20800C4C09
:102D800020800846B7E70846B5E70020B3E7000013
:102D90003E000020400000203A0000203C000020BF
:102DA0004C0100205E0400200600002048040020A2
:102DB0004E0100202492000810B500F013F800F036
:102DC00089FC00F0B1FC00F0D1FC00F059FC00F0EF
:102DD0002BFC00F065FD00F009FD00F02FFD00F078
:102DE00002F810BD7047704706480078012808D1E6
:102DF00005480078FF2804D203480078401C0249A7
:102E000008707047260400201904002010B5002423
:102E10001A480078012830D1FDF7FAF9044618481D
:102E2000007820B116480078401E154908701448F3
:102E30000078F8B913480078E0B900F093FD124823
:102E40001249097850F82100114908600F480078AC
:102E50001049097888420DD00D480068806B401CED
:102E60000B49096888630C480068401C0A490860DF
:102E7000FDF7EDF92046FDF7CFF910BD260400203F
:102E8000190400201A040020541700201C040020FC
:102E9000340400201B0400200004002070B5054607
:102EA00000260F48007808B1002070BDFDF7B0F98A
:102EB00006460C480468006820B10A48006840686B
:102EC000084908603046FDF7A7F93CB101202070A1
:102ED000002020816560204600F097FB2046E4E753
:102EE00019040020040400202DE9F04105460E4697
:102EF00000271F48007820B1102030700020BDE866
:102F0000F081FDF785F907461A4850F8250030B1E1
:102F10003846FDF781F9282030700020EFE70120C6
:102F2000144941F82500144804684CB9002041F8C0
:102F300025003846FDF770F9042030702046DEE7A2
:102F40000D48006840680C4908603846FDF764F990
:102F500004202070FF2040EA0520208100206060CE
:102F6000204600F052FB002030702046C7E70000EA
:102F700019040020541700200404002010B5002478
:102F80000B480078012811D1FDF742F904460948A1
:102F9000007840B908480078FF2804D20648007835
:102FA000401C054908702046FDF736F910BD0000A9
:102FB00026040020190400201A04002010B5002463
:102FC00013480078012821D1FDF722F90446114861
:102FD0000078C0B10F480078401E0E4908700846BE
:102FE000007860B90C48007828B92046FDF714F93C
:102FF00000F07EFC0AE02046FDF70EF906E02046D0
:10300000FDF70AF902E02046FDF706F910BD0000C1
:10301000260400201A0400201904002070B505467B
:1030200000260F48007808B1002070BDFDF7F0F8C9
:1030300006460C480468006820B10A4800684068E9
:10304000084908603046FDF7E7F83CB103202070DE
:10305000258100206060204600F0D7FA2046E4E792
:10306000190400200404002010B50B48007890B922
:1030700000F078FC094800780949087009480749B8
:10308000097850F821000849086008460068074997
:103090000860FDF7C4F810BD260400201C040020C1
:1030A0001B04002054170020340400202C040020AE
:1030B00010B50024022000F0F5F9FDF7A9F8044648
:1030C00000200B4908602046FDF7A6F8192000F003
:1030D000E9F9FDF79DF804460548006805490860D0
:1030E0000120054908702046FDF796F810BD000044
:1030F000280400201004002018040020704700005D
:103100002DE9FE4F06460F4690461C464FF000093B
:10311000FDF77EF881461F48007828B14846FDF744
:103120007BF83C20BDE8FE8F1B4850F8240060BBB4
:103130000120194941F824004846FDF76DF80023A5
:1031400042463946304600F009F982460020009098
:1031500001900346024651460290204600F018FCBA
:10316000054635B90D48007801280CD100F0C0FBA8
:1031700009E0FDF74DF881460020074941F8240099
:103180004846FDF749F82846CCE74846FDF744F89D
:103190002820C7E719040020541700202604002027
:1031A0002DE9F04F85B081468A4693461C46DDE9FD
:1031B0000F78129D00200390FDF72AF80390234812
:1031C000007830B10398FDF727F83C2005B0BDE842
:1031D000F08F1F4850F8240088BB01201C4941F89B
:1031E00024000398FDF718F82A464146384600F0B7
:1031F000DFFC2B465A465146484600F0AFF8049093
:103200001198CDE9008002953A4620460E9B04991C
:1032100000F0BEFB064636B90E48007801280CD1F6
:1032200000F066FB09E0FCF7F3FF0390002008497B
:1032300041F824000398FCF7EFFF3046C6E7FFE7AC
:103240000398FCF7E9FF2820C0E7000019040020DC
:103250005417002026040020704770472DE9F041E4
:1032600006460F4614464FF000081548007818B17E
:1032700012202070BDE8F081FCF7CAFF8046FF2EC7
:1032800003D11048006890F832600F4850F826507B
:103290002DB94046FCF7C0FF43202070EAE7012D1E
:1032A00005D14046FCF7B8FF43202070E2E7EF6409
:1032B0004046FCF7B1FF0020207000BFDAE70000B5
:1032C000190400202C04002054170020704700002F
:1032D0002DE9F04707460D464FF0000A0020286010
:1032E0006860FCF795FF8246FF2F03D119480068FC
:1032F00090F83270184850F827402CB95046FCF727
:103300008BFF4320BDE8F087012C04D15046FCF729
:1033100083FF4320F6E7207C00F0010020B95046EF
:10332000FCF77AFF4520EDE70026D4F80C90D4F89E
:1033300008805046FCF770FF00E0761C58F8041B2C
:103340000029FAD0B0002860A9EB06008000686070
:103350000020D7E72C0400205417002070B5044645
:1033600010464FF080750560051F28462C606FF0F1
:103370000106051F28462E604FF01236051F28460D
:103380002E604FF00336051F28462E604FF00236A0
:10339000051F28462E607610051F28462E60051F43
:1033A000284629604FF01136051F28462E604FF041
:1033B0001036051F28462E604FF00936051F284697
:1033C0002E604FF00836051F28462E604FF0073656
:1033D000051F28462E604FF00636051F28462E6032
:1033E0004FF00536051F28462E604FF00436051FA6
:1033F00028462E6070BD00002DE9F04105464FF0D3
:103400000008FCF705FF8046FF2D05D12048006825
:1034100090F83250012608E01D48006890F832000C
:10342000A84201D1012600E000261A4850F82540A4
:103430002CB94046FCF7F0FE4820BDE8F081012C95
:1034400004D14046FCF7E8FE4320F6E794F83470D8
:103450001148C05D94F8351088430F49C855084697
:10346000C05D30B994F836100C48007888430B4999
:10347000087094F8300040F0080084F830004046AE
:10348000FCF7CAFE012E01D100F032FA0020D4E789
:103490002C040020541700201E0400201D040020CE
:1034A0007047000070B5054600261748007800B147
:1034B00070BD1648007800B1FAE71DB3FCF7A8FE0E
:1034C00006461348006890F834401248005D1049E1
:1034D000096891F8351088430E4908550846005D83
:1034E00040B90B48006890F836100B4800788843C4
:1034F0000949087006480068C5623046FCF78CFE32
:1035000000F0F6F900BFD3E7190400201A040020E8
:103510002C0400201E0400201D04002070B500268D
:1035200000F072F8FCF774FE064631480068401C53
:103530002F4908603046FCF76FFE2E4800780128BE
:1035400053D12D48007820B1012804D0022809D198
:1035500003E001250BE0002509E0012501202649B3
:10356000087004E0012500202349087000BF00BF57
:1035700005B970BD2148046833E0FCF749FE0646F2
:10358000E06A50B3E06A401EE062E06A28BB94F84B
:10359000300000F0370040B114F8300F00F0C800E0
:1035A000207001206070303C02E0002084F831007F
:1035B00094F8300000F0080078B93434A07810494D
:1035C000097808430E49087020780E49085C617834
:1035D000084314F834190B4A505464693046FCF718
:1035E0001BFE94F832003F28C7D100BFC1E700009E
:1035F00044040020260400203C040020380400205D
:103600001D0400201E0400207047014600228A721B
:10361000002005E0002301F10B021354421CD0B23C
:103620000828F7D3704700002DE9F04150211148D8
:1036300000F02CF900250DE0681C86B20D4800EB67
:10364000051400EB06170020207067600AA0E060F8
:10365000681C85B2042DEFD3064800EB051400204A
:103660002070606004A0E060024804490860BDE882
:10367000F0810000041300203F0000000804002037
:1036800070B5C821114800F001F900230FE0581C63
:1036900085B203EB83000D4901EB800405EB850047
:1036A00001EB8006002020706660581C83B2092B55
:1036B000EDD303EB8300054901EB8004002020706B
:1036C000606008460249086070BD00003C1200209E
:1036D0000404002000200A4908600A4908700A49C9
:1036E00008700A4908700A4908700A4908600A49BE
:1036F00008600A4908600A4908600A49087070476A
:1037000044040020190400201A040020270400208B
:1037100026040020000400202804002014040020B7
:10372000100400201804002000210A4A1170002013
:1037300004E00021084A1154411CC8B20828F8D3FB
:103740000021064A1170064A1170064A1160064AA5
:10375000116070471D0400201E0400201B0400207F
:103760001C040020340400202C04002070B54FF409
:103770007C71194800F08AF84FF48071174800F006
:1037800085F8002413E0601CC5B2C4EBC40000EB54
:103790004000114901EB8003C5EBC50000EB400080
:1037A00001EB80065E610EA0D864601CC4B20B2CD5
:1037B000E9D3C4EBC40000EB4000074901EB8003F0
:1037C0000020586106A0D86400200649086002481D
:1037D0000549086070BD00005418002054170020EF
:1037E0003F000000380400203004002000B587B0FE
:1037F0000320002180220A4BCDE90132CDE90310DC
:103800004FF6FF703F23074A00900748FFF7C8FCB8
:1038100006AA06A13F20FFF721FD07B000BD00006A
:103820005415002050170020C53A000875432F4F4B
:10383000532D49492049646C6500000000B587B0EC
:103840000320002180220A4BCDE90132CDE903108B
:103850004FF6FE703E23074A00900748FFF7A0FC92
:1038600006AA06A13E20FFF7F9FC07B000BD000044
:103870005413002050150020ED3A000875432F4FD7
:10388000532D4949205374617400000004E0002264
:1038900000F8012B4A1E91B20029F8D170470000B0
:1038A0002DE9F04178211048FFF7F0FF00240DE0EA
:1038B000601C86B204EB44000B4901EBC00506EB2B
:1038C000460001EBC0072F60601C84B2042CEFD3CC
:1038D00004EB4400044901EBC005002028600846C1
:1038E00002490860BDE8F081441C0020400400202B
:1038F00010B50024FCF78CFC044613480078F8B996
:1039000012480078E0B900F02DF811481149097803
:1039100050F82100104908600E4800780F490978D6
:1039200088420DD00C480068806B401C0A49096829
:1039300088630B480068401C09490860FCF780FC5C
:103940002046FCF769FC10BD190400201A04002071
:10395000541700201C040020340400201B04002005
:10396000000400200649074A1278885C0649095C71
:10397000034A515C01EBC001044A1170704700001A
:10398000389400081D0400201E0400201C040020A0
:103990002DE9F84F05460F4690469946DDE90AABFA
:1039A00000200090FCF734FC00903F480468002C95
:1039B00074D0183454F8040C3B4908600098FCF7A4
:1039C0002BFC44F8187CA576002020766076606198
:1039D00044F814BC44F80CAC44F8108C0C9824F84F
:1039E000080C24F8069C0020E077E810207705F00A
:1039F0000700E076217F01208840A077E17E01204A
:103A00008840607700206060E060A0602062A06273
:103A10006062E062206325A06063183C002606E037
:103A2000002104F1500040F82610701CC6B2002E90
:103A3000F6D02046FFF762FB2046FFF70DFCFCF7AF
:103A4000E7FB00901A4840F825401A48006860617A
:103A50000020A0611748006810B116480068846112
:103A6000144804603434A078134909780843124993
:103A7000087020781149085C6178084314F83419FB
:103A80000E4A50540E480078401C0D4908700098AA
:103A9000FCF7C2FB0020BDE8F88FFFE70098FCF7B9
:103AA000BBFB4220F7E70000300400203F0000008D
:103AB00054170020380400201D0400201E0400209C
:103AC00027040020002400BF00BFFCF7A1FB044630
:103AD00005480068401C044908602046FCF79CFB30
:103AE000FFF7BBFBF1E7000028040020002400BF23
:103AF00002E03220FFF7D6FC194800780028F8D001
:103B0000184800686421B0FBF1F0164908600846C7
:103B1000006828B9002014490870FF20FFF76CFCEA
:103B200000BFFCF775FB04461048006810490860A8
:103B300000200E4908602046FCF76EFB0C48006828
:103B400008490968B0FBF1F0C0F16400064908704B
:103B5000FFF7BCFB00F00EF81920FFF7A3FCE0E72D
:103B600018040020100400200C0400202804002069
:103B7000140400207CB5002514E069462846FFF7B0
:103B8000A7FB064666B9094850F8254044B1012C08
:103B900006D0D4E9020100EB810060640198A064C2
:103BA000681CC5B23F2DE8D97CBD00005417002029
:103BB00002F0010343B102F002032BB102E0491EFF
:103BC000002308C00029FAD1704700002DE9F04118
:103BD00000205749096808605549096848605449F8
:103BE000096888604FF07C5051490968C8605049A5
:103BF0000968C86804F0F6FF064600224D4B04F041
:103C0000D1FC044604F090FC494909680861012090
:103C100047490968087546490968C86804F0E2FF21
:103C200006460022444B04F0A9FE044604F07CFC46
:103C30003F490968886100203D490968C8613C49DD
:103C4000096808623A49096848623C49096808609D
:103C50003A490968486039490968886037490968FC
:103C6000C8603748354909680861364833490968EA
:103C70004861012031490968087633482F490968AD
:103C8000C86100202D49096808622C49096848620A
:103C90002A49096888622D49096808602B49096822
:103CA00048602A490968886028490968C860284826
:103CB00026490968086127482449096848610120A4
:103CC0002249096808764FF07C5020490968C8618C
:103CD00000201E49096808621C49096848621B499E
:103CE000096888621C49096808601B4909684860BE
:103CF00019490968886018490968C8611748164950
:103D00000968C8604FF07C501349096808610120B8
:103D100011490968087512480F490968886100202F
:103D20000D49096808620C4909684862BDE8F081DC
:103D30008001002000005440000014407C0100205D
:103D4000000020429A99193F000020418401002080
:103D50009A99993ECDCCCC3D880100200000A0412D
:103D60000000404010B501F067FD01F08BFCFEF74C
:103D700033FE10BD70B505460C4644480088012846
:103D800004D0022836D0042856D144E04048D0F868
:103D9000A000008800EB80003D4B03EB80004068F2
:103DA00002881846D0F8A000008800EB800053F885
:103DB00020000188284603F029FD36490870344860
:103DC000D0F8A000008800EB8000314B03EB8000AE
:103DD000C06802881846D0F8A000008800EB800078
:103DE00003EB800080680188204603F00FFD2A491C
:103DF000087022E07D2240F6A331284603F006FD3C
:103E0000244908707D2240F6A331204603F0FEFCD1
:103E10002149087011E07D2240F6A331284603F0C5
:103E2000F5FC1C4908707D2240F6A331204603F0C2
:103E3000EDFC1949087000E000BF00BF1748007A88
:103E4000082801D1002070BD1548B0F900004FF4DA
:103E50007A7148431349B1F9001090FBF1F012490F
:103E6000088012480078012802D102F07BFF09E0A7
:103E7000094A1278643A51B2064A1278643A50B24A
:103E800003F032FA06463046DDE700000A00002063
:103E9000E80100204A0100204B0100205E040020C0
:103EA000260000202800002048010020E00100201A
:103EB0002DE9F04F87B005460C465648008804F0BF
:103EC0007FFF814654480068C168484604F0C0FF3F
:103ED00007465048008804F073FF81464E4800684A
:103EE0000169484604F0B4FF80464A48008804F05F
:103EF00067FF8146484800688169484604F0A8FF8A
:103F00000690142644480068056243480068006A29
:103F1000B04214DC40480068006A714288420EDBFF
:103F200001203D49096808753B480068C0693A4965
:103F30000968096A084438490968C86106E0002030
:103F400035490968087534490968C861324800680C
:103F5000006A38B900203049096848602E4909686C
:103F6000C86138E02C490968096A2B4A1268526A0C
:103F7000881A04F00DFF8346069904F069FF824613
:103F800025490968C86904F003FF234902900968BC
:103F9000087D04F015FF4146019004F059FF834667
:103FA000029904F055FF1C4904900968086A04F05E
:103FB000EFFE8346394604F04BFF0390049904F06A
:103FC0003DFE5146059004F039FE814604F0A4FE02
:103FD000114909684860104800684068A04202DD45
:103FE0000D48006844600C4800684068614288429F
:103FF00003DA604208490968486007480068006AB7
:1040000005490968486204480068406807B0BDE88F
:10401000F08F0000160000208001002010B504463B
:104020003A48008840103A49098800EB6100394954
:1040300008803948008840103549C98800EB610084
:104040003649088033480088304908803348008862
:1040500031490880314802882E4801882046FDF702
:10406000DBFA2F4908602F48407978B900202E49A3
:104070000860FCF767FF2D482D4908602D4908604E
:104080002D4908600020274908713EE02448006857
:1040900000280DDD224800682349086008460068B2
:1040A000642801DA6420086001201E49C87117E005
:1040B0001B48006800280EDA1948006840421A4977
:1040C000086008460068642801DA64200860FF2060
:1040D0001449C87104E0002013490860FCF732FF5E
:1040E00011480088154908800F480088091D08807C
:1040F0000D480088091D08800A48007928B90A4837
:104100000068322801DBFCF7F5FE10BD44010020F9
:10411000AA000020400100204601002042010020AA
:1041200038010020240100203C010020A0252600A9
:10413000EC000020E8000020E4000020342C0140C6
:1041400001460020034A506820F440400843506074
:10415000704700000010024029B1064A526902432C
:10416000044B5A6104E0034A52698243014B5A618D
:10417000704700000010024029B1064AD26902438C
:10418000044BDA6104E0034AD2698243014BDA61ED
:10419000704700000010024029B1064A126902432C
:1041A000044B1A6104E0034A12698243014B1A610D
:1041B000704700000010024029B1064A926902438C
:1041C000044B9A6104E0034A92698243014B9A616D
:1041D000704700000010024029B1064AD26802432D
:1041E000044BDA6004E0034AD2688243014BDA6090
:1041F000704700000010024010B500F03BF84FF48B
:10420000803000F0F9F800BF312000F0C3F800283A
:10421000FAD01020FDF768FD0220FDF793FD002085
:1042200000F0DEF8002000F019F94FF4806000F093
:1042300009F94FF4E0114FF4803000F021F901202A
:1042400000F018F900BF392000F0A4F80028FAD0D7
:10425000022000F023F900BF00F0BAF80828FBD1D3
:1042600001210846FFF778FF01217D20FFF7A4FF19
:1042700010BD00000F48006840F001000D490860C3
:10428000084640680C4908400A49486008460068EA
:104290000A490840074908600846006820F4802061
:1042A00008600846406820F4FE0048604FF41F0094
:1042B00088607047001002400000FFF8FFFFF6FE24
:1042C00030B500210022002400232D4D6D6805F03B
:1042D0000C0121B1042905D0082923D105E0294D7D
:1042E000056022E0274D05601FE0254D6D6805F44F
:1042F0007012234D6D6805F48034022505EB92425F
:104300001CB9214D554305600BE01D4D6D6805F44A
:1043100000351DB11C4D5543056002E0194D554354
:10432000056002E0174D056000BF00BF144D6D68C9
:1043300005F0F0010909154D6B5C0568DD4045602D
:104340000F4D6D6805F4E061090A104D6B5C45681E
:10435000DD4085600A4D6D6805F46051C90A0B4D5A
:104360006B5C4568DD40C560054D6D6805F44041F6
:10437000890B074D6B5CC568B5FBF3F5056130BD76
:104380000010024000127A0000093D00E9030020FD
:10439000F903002010B501460022002300204A1135
:1043A000012A02D1094C236806E0022A02D1074CF7
:1043B000236A01E0054C636A01F01F020124944066
:1043C0001C400CB1012000E0002010BD0010024094
:1043D0000248406800F00C007047000000100240E6
:1043E00001460020034A506820F0F0000843506066
:1043F00070470000001002401149096821F4803123
:104400000F4A11601146096821F480211160B0F54E
:10441000803F03D0B0F5802F0ED106E0084909682F
:1044200041F48031064A116007E00549096841F40A
:10443000A021034A116000E000BF00BF70470000E8
:104440000010024001460020034A506820F4E0605A
:1044500008435060704700000010024001460020F1
:10446000034A506820F4605040EAC1005060704731
:1044700000100240014908667047000000004242F7
:1044800002460020044B586820F47C1042EA0103E5
:104490001843014B5860704700100240014600204D
:1044A000034A506820F00300084350607047000042
:1044B0000010024070B505460C46802C07DA2246F3
:1044C00029460348FBF7F5FF2046FDF7C7F970BD05
:1044D000EC09002070B505460C46224629460348E3
:1044E000FBF7E7FF2046FDF727FA70BDEC08002038
:1044F00010B504462146094800F012F82146074845
:10450000103000F00DF821460448203000F008F883
:1045100021460248303000F003F810BD9001002021
:1045200070B504460D46A07A4006000EA07221899F
:104530006068FDF705FD10B9A07A401CA072A07A52
:1045400000F00700072802D10120E07205E0A07A00
:1045500000F0070008B90020E072207BE17A884271
:1045600003D029462046FDF7F1FDE07A207370BDA7
:1045700010B5FBF74DFE04466A226349634800F01C
:10458000D5FE2046FBF748FE5F480088604908805A
:104590005D4840885F4908805B4880885E490880A4
:1045A0005948C0885D490880574800895C4908809F
:1045B000554840895B490880534880895A4908809A
:1045C0005148C089594908804F48008A5849088095
:1045D0004D48408A574908804B48808A5649088090
:1045E0004948C08A554908804748008B544908808B
:1045F0004548408B534908804348808B5249088086
:104600004148C08B514908803F48008C5049088080
:104610003D48408C4F4908803B48808C4E4908807B
:104620003948C08C00B24D4908803748008D00B22F
:104630004B4908803448408D4A4908803248808D73
:10464000494908803048C08D484908802E48008E6E
:10465000474908802C48408E464908802A48808E69
:10466000454908802848C08E444908802648008F64
:10467000434908802448408F424908802248808F5F
:10468000414908802048C08F404908801E48B0F842
:1046900040003F4908801C48B0F842003D4908806E
:1046A0001948B0F844003C4908801748B0F8460063
:1046B0003A4908801448B0F848003949088012483F
:1046C000B0F84A00374908800F48B0F84C00364926
:1046D00008800D48B0F84E00344908800A48B0F808
:1046E0005000334908800848B0F85200314908802A
:1046F0000548B0F85400304908800348B0F8560027
:104700002E49088010BD0000D60A002000000108D4
:10471000000000200200002004000020060000200D
:10472000080000200A0000200C0000200E000020DD
:1047300010000020120000201400002016000020AD
:10474000180000201A0000201C0000201E0000207D
:10475000200000202200002024000020260000204D
:10476000280000202A0000202C0000202E0000201D
:1047700030000020320000203400002036000020ED
:10478000380000203A0000203C0000203E000020BD
:10479000400000204200002044000020460000208D
:1047A000480000204A0000204C0000204E0000205D
:1047B000500000205200002054000020560000202D
:1047C00010B5FBF725FD04466A225849584800F009
:1047D000ADFD2046FBF720FD544800885549088070
:1047E000524840885449088050488088534908807E
:1047F0004E48C088524908804C4800895149088079
:104800004A48408950490880484880894F49088073
:104810004648C0894E4908804448008A4D4908806E
:104820004248408A4C4908804048808A4B49088069
:104830003E48C08A4A4908803C48008B4949088064
:104840003A48408B484908803848808B474908805F
:104850003648C08B464908803448008C454908805A
:104860003248408C444908803048808C4349088055
:104870002E48C08C424908802C48008D4149088050
:104880002A48408D404908802848808D3F4908804B
:104890002648C08D3E4908802448008E3D49088046
:1048A0002248408E3C4908802048808E3B49088041
:1048B0001E48C08E3A4908801C48008F394908803C
:1048C0001A48408F384908801848808F3749088037
:1048D0001648C08F364908801448B0F84000354962
:1048E00008801248B0F84200334908800F48B0F8F9
:1048F0004400324908800D48B0F84600304908802D
:104900000A48B0F848002F4908800848B0F84A0023
:104910002D4908800548B0F84C002C490880034810
:10492000B0F84E002A49088010BD0000400B00205E
:1049300000080108580000205A0000205C000020F8
:104940005E00002060000020620000206400002063
:1049500066000020680000206A0000206C00002033
:104960006E00002070000020720000207400002003
:1049700076000020780000207A0000207C000020D3
:104980007E000020800000208200002084000020A3
:1049900086000020880000208A0000208C00002073
:1049A0008E00002090000020920000209400002043
:1049B00096000020980000209A0000209C00002013
:1049C0009E000020A0000020A2000020A4000020E3
:1049D000A600002010B59D480068008810B101288D
:1049E0007ED196E09A48006800789A49098841EAA1
:1049F0000030C0F30E009849096808809748B0F865
:104A0000A8009649B1F8A610401A7D2838DD9348D1
:104A100090F8A40001287BD19048B0F8A8008C49F8
:104A20000968098801EB81018C4A52F8211008803D
:104A30001046B0F8A60086490968098801EB810193
:104A400002EB81014968088081480068008800EB1A
:104A50008000114601EB80000069008840F00200F0
:104A60007B490968098801EB810102EB8101096931
:104A7000088002F017FD0020784981F8A40010BDDD
:104A80007648B0F8A8007549B1F8A610401A10F1A0
:104A90007D0F3BDA714890F8A400012838D16F48A7
:104AA000B0F8A6006A490968098801EB81016B4AE0
:104AB00052F8211008801046B0F8A800644909682F
:104AC000098801EB810102EB810149680880604897
:104AD0000068008800EB8000114601EB800000E0D8
:104AE000AFE00069008840F0020059490968098870
:104AF00001EB810102EB81010969088002F0D2FC1F
:104B00000020564981F8A400B9E701E00120B6E78A
:104B100099E04F48006800785149098841EA00301F
:104B200080B240F400404C49096808804B48B0F816
:104B3000AC004A49B1F8AA10401A7D2839DD47482F
:104B400090F8A40001287BD14448B0F8AC0040495B
:104B50000968098801EB8101404A02EB81018968FB
:104B600008801046B0F8AA0039490968098801EBA5
:104B7000810102EB8101C96808803548006800881E
:104B800000EB8000114601EB80000069008840F0D6
:104B900001002F490968098801EB810102EB8101BD
:104BA0000969088002F07EFC00202C4981F8A400ED
:104BB00065E72A48B0F8AC002849B1F8AA10401AB5
:104BC00010F17D0F3ADA254890F8A400012837D17A
:104BD0002248B0F8AA001E490968098801EB810142
:104BE0001E4A02EB8101896808801046B0F8AC00CB
:104BF00017490968098801EB810102EB8101C96845
:104C0000088013480068008800EB8000114601EB23
:104C100080000069008840F001000D49096809889A
:104C200001EB810102EB81010969088002F03AFC85
:104C300000200A4981F8A40021E701E001201EE7D5
:104C400001E001201BE700BF00BF18E7D491000876
:104C5000F0910008B20000207C910008E8010020DB
:104C6000B400002010B5002240F22441164802F0A2
:104C7000F3F900211548FCF7BDFE4FF40070FCF776
:104C80009DFE1248FCF768FFC0F18000104988754E
:104C9000002406E00F48015D0D48401C0155601CD2
:104CA000C4B20B48807DA042F4DC80200749303933
:104CB000486301210548FCF79DFE012240F2244192
:104CC000014802F0C9F910BD004800403000024020
:104CD000381000206C09002010B5002240F2244159
:104CE000164802F0B9F900211548FCF783FE4FF48D
:104CF0000010FCF763FE1248FCF72EFFC0F18000A5
:104D000010498875002406E00F48015D0D48401CDD
:104D10000155601CC4B20B48807DA042F4DC8020A9
:104D200007496C39086701210548FCF763FE012239
:104D300040F22441014802F08FF910BD00440040C8
:104D40006C000240381000206C08002010B5FBF702
:104D50005FFA04466A225B495B4800F0E7FA2046A6
:104D6000FBF75AFA57480088584908805548408848
:104D7000574908805348008956490880514840895E
:104D8000554908804F488089544908804D48C0895A
:104D9000534908804B48008A524908804948408A54
:104DA000514908804748808A504908804548C08A50
:104DB0004F4908804348008B4E4908804148408B4A
:104DC0004D4908803F48808B4C4908803D48C08B46
:104DD0004B4908803B48008C4A4908803948408C40
:104DE000494908803748808C484908803548408DBB
:104DF000474908803348808D464908803148C08D36
:104E0000454908802F48008E444908802D48408E2F
:104E1000434908802B48808E424908802948C08E2B
:104E2000414908802748008F404908802548408F25
:104E30003F4908802348808F3E4908802148C08F21
:104E40003D4908801F48B0F840003C4908801D4893
:104E5000B0F842003A4908801A48B0F8440039498D
:104E600008801848B0F84600374908801548B0F85F
:104E70004800364908801348B0F84A003449088091
:104E80001048B0F84C00334908800E48B0F84E0086
:104E9000314908800B48B0F8500030490880094873
:104EA000B0F852002E4908800648B0F854002D4949
:104EB00008800448B0F856002B490880FDF78CFDA7
:104EC00010BD00006C0A0020000401080000002052
:104ED00002000020080000200A0000200C00002032
:104EE0000E000020100000201200002014000020FE
:104EF00016000020180000201A0000201C000020CE
:104F00001E0000202000002022000020240000209D
:104F10002A0000202C0000202E000020300000205D
:104F2000320000203400002036000020380000202D
:104F30003A0000203C0000203E00002040000020FD
:104F400042000020440000204600002048000020CD
:104F50004A0000204C0000204E000020500000209D
:104F60005200002054000020560000202DE9FE4F82
:104F700006460D461446704258490968086258486A
:104F80000068A04203D0002054490968C861534812
:104F90000068006A0A2814DC50480068006A10F1B2
:104FA0000A0F0EDB01204D49096808754B4800685F
:104FB000C0694A490968096A084448490968C861DA
:104FC00006E0002045490968087544490968C86138
:104FD00042480068006A322859DC40480068006A8C
:104FE00010F1320F53DB3D490968096A3B4A1268E8
:104FF000526A881A03F0CCFE8246384800688169FC
:10500000504603F025FF804634490968C86903F01B
:10501000BFFE324901900968087D03F0D1FE00907F
:105020002E4800680169009803F012FF8346019939
:1050300003F00EFF824629490968086A03F0A8FEBA
:10504000834626480068C168584603F001FF514670
:10505000029003F0F3FD8146414603F0EFFD074661
:1050600003F05AFE1D49096848601C480068406802
:10507000A84202DD19480068456018480068406889
:10508000002807DA002015490968486002E0134843
:105090000068456011480068006A10490968486264
:1050A0000F48046021460FA0FBF70CF90B4800687D
:1050B000016A0CA0FBF706F90848006841680BA0DC
:1050C000FBF700F9012C04D1044800684068BDE8F2
:1050D000FE8F0248006840684042F8E788010020DF
:1050E0008C010020452534640900000050253464FB
:1050F0000920200A000000002DE9F84F814688466B
:105100008248008800EBC00101EB00158048008850
:1051100000EB800046007F48008800EB80004700DD
:1051200007F11E0BA6F11E0000904FF0000A0024AC
:105130007948008800287DD1784800887849096836
:10514000A0EB010A77480068B0F1FF3F02D00128C8
:1051500071D140E071480088B84213DC72480068A1
:10516000401C7149086008460068A84201D200242A
:1051700030E000206C4908606A4800684042694994
:10518000086027E0002068490860644800885845A6
:105190001ADC62480088B84216DDBAF1000F0CDA5A
:1051A0006048006840F6B83148435C490988C91B2B
:1051B00048431E2190FBF1F40CE05A48006840F689
:1051C000B83100FB01F405E05648006840F6B831FC
:1051D00000FB01F446E051480088B04213DB52481E
:1051E0000068401C5049086008460068A84201D287
:1051F000002434E000204C4908604A4800684042DE
:10520000484908602BE0002047490860434801886E
:10521000009881421DDB41480088B04219DABAF19A
:10522000000F0FDD3F48006840F6B83148433B4966
:10523000098801E01CE013E0711A48431E2190FB2D
:10524000F1F40CE03748006840F6B83100FB01F497
:1052500005E03448006840F6B83100FB01F401E095
:10526000002400BF00BF2D4800882D4908604AE097
:105270002C480068B0F1FF3F02D0012840D11FE068
:10528000B9F1000F13DD28480068401C264908606A
:1052900008460068A84201D2002410E000202249FC
:1052A00008602048006840421E49086007E01D4829
:1052B00040F6B83102684846FFF758FE044621E040
:1052C000B8F1000F13DD18480068401C164908604B
:1052D00008460068A84201D2002410E000201249CC
:1052E00008601048006840420E49086007E00D4819
:1052F00040F6B83102684046FFF738FE044601E048
:10530000002400BF00BF2046BDE8F88F3400002015
:105310003600002038000020320000204801002024
:1053200054010020500100205801002030B50446EF
:105330000D46002307E0204600F00BF825F8130087
:10534000A41C581C83B202EBD271B3EB610FF2DBE9
:1053500030BD0146088870472DE9F05F80468A46D7
:105360001746B8F1006F02D33348804501D3BDE83A
:10537000F09FFCF7F3FCA8F1006B4FEA9B25CBF301
:105380004809C9F50074A74200DC3C464DE04FF0E7
:10539000006101EB85208A142849FFF7C7FF00262A
:1053A0000BE009EB0600254931F810004FF6FF71BC
:1053B000884200D003E0701C86B2A642F1DB00BF39
:1053C000A6421BDA4FF0006101EB8520FCF742FC9E
:1053D000002608E03AF8160006EB0901174A22F801
:1053E0001100701C86B2A642F4DB4FF0006101EBA5
:1053F00085208A14114900F023F804E02246514622
:10540000404600F01DF8A74200D10FE06D1C4FF0A0
:1054100000090AEB440AA044381B87B2B7F5007FA5
:1054200002DD4FF4007400E03C46B0E700BFFCF73B
:1054300051FC00BF9BE7000000000208900B002019
:105440002DE9F04105460E461746002407E036F8E0
:1054500014102846FCF756FCAD1C601C84B2BC42FC
:10546000F5DBBDE8F081704710B54E4800884E4925
:1054700008804E48008848804D48008888804D4804
:105480000088C8804C48008808814C4800884881C2
:105490004B48008888814B480088C8814A4800886A
:1054A00008824A48008848824948008888824948DA
:1054B0000088C88248480088088348480088488394
:1054C00047480088888347480088C8834648008842
:1054D00008844648008848844548008888844548B0
:1054E0000088C88444480088088544480088488566
:1054F00043480088888543480088C885424800881A
:105500000886424800884886414800888886414885
:105510000088C88640480088088740480088488737
:105520003F48008888873F480088C8873E480088F1
:10553000A1F840003D480088A1F842003C4800889E
:10554000A1F844003B480088A1F846003A4800888A
:10555000A1F8480039480088A1F84A003848008876
:10556000A1F84C0037480088A1F84E003648008862
:10557000A1F8500035480088A1F85200344800884E
:10558000A1F8540033480088A1F85600FAF740FE0D
:1055900004466A2204493048FFF7DEFE2046FAF747
:1055A0003BFE10BD00000020D60A002002000020B3
:1055B0000400002006000020080000200A0000204F
:1055C0000C0000200E00002010000020120000201F
:1055D0001400002016000020180000201A000020EF
:1055E0001C0000201E0000202000002022000020BF
:1055F0002400002026000020280000202A0000208F
:105600002C0000202E00002030000020320000205E
:105610003400002036000020380000203A0000202E
:105620003C0000203E0000204000002042000020FE
:105630004400002046000020480000204A000020CE
:105640004C0000204E00002050000020520000209E
:105650005400002056000020000001080648007891
:105660004FF47F4101EA00200449097808430449C6
:1056700009680880704700004A0100204B010020A3
:105680007891000840F65A7043490880A5204349A4
:10569000088040F65A7042490880A5204149088098
:1056A00003204149088040F65A7040490880A520EF
:1056B0003F49088040F65A703E490880A5203E497F
:1056C000088000203D49088040F65A703C49088017
:1056D000A5203C49088040F65A703B490880A52027
:1056E0003A49088000203A49088040F65A70394902
:1056F0000880A5203849088040F65A70374908804C
:10570000A5203749088000203649088040F65A70A5
:1057100035490880A5203549088040F65A7034493B
:105720000880A5203349088000203349088040F6CE
:105730005A7032490880A5203149088040F65A70D5
:1057400030490880A5203049088000202F49088072
:1057500040F65A702E490880A5202E49088040F650
:105760005A702D490880A5202C49088000202C491A
:10577000088040F65A702B490880A5202A490880E5
:1057800040F65A7029490880A52029490880002040
:105790002849088070470000580000205A00002067
:1057A0005C0000205E0000206000002062000020FD
:1057B0006400002066000020680000206A000020CD
:1057C0006C0000206E00002070000020720000209D
:1057D0007400002076000020780000207A0000206D
:1057E0007C0000207E00002080000020820000203D
:1057F0008400002086000020880000208A0000200D
:105800008C0000208E0000209000002092000020DC
:105810009400002096000020980000209A000020AC
:105820009C0000209E000020A0000020A20000207C
:10583000A4000020A60000204EF655603E490880D6
:1058400000203E4908803E4908803E4908803E4984
:10585000088001203D49088000203D4908803D49DD
:1058600008803D4908803D4908803D49088028203E
:105870003C49088001203C49088050203B49088071
:105880004FF448703A4908804FF41670394908803F
:10589000394908800A20394908800520384908809C
:1058A000C820384908804FF4FA7037490880002032
:1058B000364908805F203649088032203549088003
:1058C0000520354908800220344908805F2034498A
:1058D00008800120334908803220334908800020A5
:1058E000324908800220324908805A203149088014
:1058F0000A2031490880002030490880304908805A
:1059000030490880304908803220304908806420BE
:105910002F49088014202F49088032202E49088002
:1059200000202E49088001200849088000202C49C9
:1059300008802C49088070470000002002000020E9
:105940000400002006000020080000200A000020BB
:105950000C0000200E00002010000020120000208B
:105960001400002016000020180000201A0000205B
:105970001C0000201E00002020000020220000202B
:105980002400002026000020280000202A000020FB
:105990002C0000202E000020300000203A000020C3
:1059A0003C0000203E00002040000020320000208B
:1059B0003400002036000020380000204200002083
:1059C0004400002046000020480000204A0000203B
:1059D0004C0000204E00002050000020520000200B
:1059E000540000205600002010B500F001F810BD52
:1059F0000CB50020019000903348006840F48030DE
:105A00003149086000BF3048006800F40030009061
:105A10000198401C0190009818B90198B0F5A06F4A
:105A2000F1D12948006800F4003010B10120009045
:105A300001E0002000900098012843D1234800682D
:105A400040F01000214908600846006820F003007B
:105A500008600846006840F0020008601A48406884
:105A6000194948600846406848600846406840F464
:105A7000806048600846406820F47C104860084612
:105A8000406840F4E81048600846006840F08070C4
:105A9000086000BF0C48006800F000700028F9D0D2
:105AA0000948406820F003000749486008464068FC
:105AB00040F00200486000BF0348406800F00C005E
:105AC0000828F9D10CBD000000100240002002405F
:105AD00001460B480088814206DC094800884042A4
