:020000040800F2
:10000000F8130020CD01000841030008390300085F
:100010003D03000833030008C3110008000000007E
:100020000000000000000000000000006F0F00084A
:1000300037030008000000005B02000859100008A8
:10004000E7010008E7010008E7010008E7010008F0
:10005000E7010008E7010008E7010008E7010008E0
:10006000E7010008E7010008E7010008E7010008D0
:10007000E7010008E7010008E7010008E7010008C0
:10008000E7010008E7010008E7010008E7010008B0
:10009000E7010008E7010008E7010008E7010008A0
:1000A000E7010008E7010008E7010008E701000890
:1000B000E7010008E7010008E7010008E701000880
:1000C000E7010008E7010008E7010008E701000870
:1000D000E7010008D5100008E7010008E701000863
:1000E000E7010008E7010008E7010008E701000850
:1000F000E7010008E7010008E7010008E701000840
:10010000E7010008E7010008E7010008E70100082F
:10011000E7010008E7010008E7010008E70100081F
:10012000E7010008E7010008E7010008E70100080F
:1001300000F002F800F03AF80AA090E8000C8244BF
:100140008344AAF10107DA4501D100F02FF8AFF29C
:10015000090EBAE80F0013F0010F18BFFB1A43F0A5
:1001600001031847A8110000C8110000103A24BF6D
:1001700078C878C1FAD8520724BF30C830C144BF0C
:1001800004680C607047000000230024002500264E
:10019000103A28BF78C1FBD8520728BF30C148BFEA
:1001A0000B6070471FB51FBD10B510BD00F08BF878
:1001B0001146FFF7F7FF01F007F800F0A9F803B4C4
:1001C000FFF7F2FF03BC00F0ADF8000009488047DC
:1001D00009480047FEE7FEE7FEE7FEE7FEE7FEE729
:1001E000FEE7FEE7FEE7FEE704480549054A064B41
:1001F000704700007510000831010008F80D00205C
:10020000F8130020F80F0020F80F0020EFF3108003
:1002100072B6704780F310887047204C204D2560DF
:100220004FF0000484F309881E4C4FF0010525703F
:100230001D4C4FF08055256062B6FEE730B41A4C75
:100240004FF08055256030BC704730B4164C4FF0ED
:100250008055256030BC704700BF72B6EFF309804F
:1002600028B1203880E8F00F10490968086000B50F
:100270000F4880475DF804EB0E480F490A7802707A
:100280000A480E490A680260106890E8F00F2030B2
:1002900080F309884EF0040E62B6704720ED00E04E
:1002A0000000FFFF2A00002004ED00E030000020E5
:1002B000610800081F0000202000002038000020F6
:1002C000704770477047754600F028F8AE46050045
:1002D0006946534620F00700854618B020B5FFF761
:1002E00083FFBDE820404FF000064FF000074FF0BD
:1002F00000084FF0000B21F00701AC46ACE8C00944
:10030000ACE8C009ACE8C009ACE8C0098D4670474C
:100310000446AFF300802046FFF751FF00487047C6
:10032000940D002001491820ABBEFEE72600020014
:10033000704700BFFEE7704700BFFEE700BFFEE763
:10034000704710B500F013F800F096FB00F0BEFB0C
:1003500000F0DEFB00F066FB00F038FB00F072FC02
:1003600000F016FC00F03CFC00F002F810BD7047F5
:100370007047000006480078012808D10548007839
:10038000FF2804D203480078401C024908707047D7
:100390002A0000201D00002010B500241A48007813
:1003A000012830D1FFF732FF04461848007820B109
:1003B00016480078401E1549087014480078F8B9AE
:1003C00013480078E0B900F09FFC12481249097800
:1003D00050F82100114908600F4800781049097849
:1003E00088420DD00D480068806B401C0B4909689D
:1003F00088630C480068401C0A490860FFF725FF25
:100400002046FFF707FF10BD2A0000201D00002036
:100410001E0000202C0800202000002038000020B2
:100420001F0000200400002010B50B48007890B990
:1004300000F06AFC09480078094908700948074932
:10044000097850F821000849086008460068074903
:100450000860FFF7E2FE10BD2A0000202000002007
:100460001F0000202C080020380000203000002051
:1004700010B50024022000F0F5F9FFF7C7FE04468E
:1004800000200B4908602046FFF7C4FE142000F04E
:10049000E9F9FFF7BBFE0446054800680549086016
:1004A0000120054908702046FFF7B4FE10BD00008A
:1004B0002C000020140000201C00002070470000C9
:1004C0002DE9FE4F06460F4690461C464FF00009A8
:1004D000FFF79CFE81461F48007828B14846FFF789
:1004E00099FE3C20BDE8FE8F1B4850F8240060BBFD
:1004F0000120194941F824004846FFF78BFE0023EC
:1005000042463946304600F009F982460020009004
:1005100001900346024651460290204600F00AFC34
:10052000054635B90D48007801280CD100F0B2FB22
:1005300009E0FFF76BFE81460020074941F82400DF
:100540004846FFF767FE2846CCE74846FFF762FEBD
:100550002820C7E71D0000202C0800202A000020CA
:100560002DE9F04F85B081468A4693461C46DDE969
:100570000F78129D00200390FFF748FE0390234858
:10058000007830B10398FFF745FE3C2005B0BDE888
:10059000F08F1F4850F8240088BB01201C4941F807
:1005A00024000398FFF736FE2A464146384600F0FD
:1005B000D1FC2B465A465146484600F0AFF804900D
:1005C0001198CDE9008002953A4620460E9B049989
:1005D00000F0B0FB064636B90E48007801280CD171
:1005E00000F058FB09E0FFF711FE039000200849D6
:1005F00041F824000398FFF70DFE3046C6E7FFE7F9
:100600000398FFF707FE2820C0E700001D00002028
:100610002C0800202A000020704770472DE9F04187
:1006200006460F4614464FF000081548007818B1EA
:1006300012202070BDE8F081FFF7E8FD8046FF2E14
:1006400003D11048006890F832600F4850F82650E7
:100650002DB94046FFF7DEFD43202070EAE7012D6B
:1006600005D14046FFF7D6FD43202070E2E7EF6456
:100670004046FFF7CFFD0020207000BFDAE7000002
:100680001D000020300000202C08002070470000D2
:100690002DE9F04707460D464FF0000A002028607C
:1006A0006860FFF7B3FD8246FF2F03D11948006849
:1006B00090F83270184850F827402CB95046FFF790
:1006C000A9FD4320BDE8F087012C04D15046FFF777
:1006D000A1FD4320F6E7207C00F0010020B9504640
:1006E000FFF798FD4520EDE70026D4F80C90D4F8EC
:1006F00008805046FFF78EFD00E0761C58F8041B7A
:100700000029FAD0B0002860A9EB060080006860DC
:100710000020D7E7300000202C08002070B50446E8
:1007200010464FF080750560051F28462C606FF05D
:100730000106051F28462E604FF01236051F284679
:100740002E604FF00336051F28462E604FF002360C
:10075000051F28462E607610051F28462E60051FAF
:10076000284629604FF01136051F28462E604FF0AD
:100770001036051F28462E604FF00936051F284603
:100780002E604FF00836051F28462E604FF00736C2
:10079000051F28462E604FF00636051F28462E609E
:1007A0004FF00536051F28462E604FF00436051F12
:1007B00028462E6070BD00002DE9F04105464FF03F
:1007C0000008FFF723FD8046FF2D05D12048006873
:1007D00090F83250012608E01D48006890F8320079
:1007E000A84201D1012600E000261A4850F8254011
:1007F0002CB94046FFF70EFD4820BDE8F081012CE2
:1008000004D14046FFF706FD4320F6E794F8347024
:100810001148C05D94F8351088430F49C855084603
:10082000C05D30B994F836100C48007888430B4905
:10083000087094F8300040F0080084F8300040461A
:10084000FFF7E8FC012E01D100F024FA0020D4E7E4
:10085000300000202C080020220000202100002071
:100860007047000070B5054600261748007800B1B3
:1008700070BD1648007800B1FAE71DB3FFF7C6FC5B
:1008800006461348006890F834401248005D10494D
:10089000096891F8351088430E4908550846005DEF
:1008A00040B90B48006890F836100B480078884330
:1008B0000949087006480068C5623046FFF7AAFC7F
:1008C00000F0E8F900BFD3E71D0000201E00002063
:1008D00030000020220000202100002070B50026FA
:1008E00000F072F8FFF792FC064631480068401CA1
:1008F0002F4908603046FFF78DFC2E48007801280C
:1009000053D12D48007820B1012804D0022809D104
:1009100003E001250BE0002509E00125012026491F
:10092000087004E0012500202349087000BF00BFC3
:1009300005B970BD2148046833E0FFF767FC06463F
:10094000E06A50B3E06A401EE062E06A28BB94F8B7
:10095000300000F0370040B114F8300F00F0C8004C
:10096000207001206070303C02E0002084F83100EB
:1009700094F8300000F0080078B93434A0781049B9
:10098000097808430E49087020780E49085C6178A0
:10099000084314F834190B4A505464693046FFF781
:1009A00039FC94F832003F28C7D100BFC1E70000EE
:1009B000480000202A000020400000203C000020C9
:1009C0002100002022000020704700002DE9F041A6
:1009D0005021114800F02CF900250DE0681C86B26A
:1009E0000D4800EB051400EB06170020207067602F
:1009F0000AA0E060681C85B2042DEFD3064800EB26
:100A0000051400202070606004A0E06002480449E2
:100A10000860BDE8F0810000DC0300203F0000001A
:100A20000C00002070B5C821114800F001F9002326
:100A30000FE0581C85B203EB83000D4901EB8004E5
:100A400005EB850001EB8006002020706660581CD5
:100A500083B2092BEDD303EB8300054901EB80043E
:100A600000202070606008460249086070BD0000E8
:100A7000140300200800002000200A4908600A49E9
:100A800008700A4908700A4908700A4908700A493A
:100A900008600A4908600A4908600A4908600A496A
:100AA00008707047480000201D0000201E00002034
:100AB0002B0000202A000020040000202C00002031
:100AC00018000020140000201C00002000210A4A09
:100AD0001170002004E00021084A1154411CC8B2E2
:100AE0000828F8D30021064A1170064A1170064AF8
:100AF0001160064A1160704721000020220000208A
:100B00001F000020200000203800002030000020BE
:100B100070B54FF47C71194800F08AF84FF4807179
:100B2000174800F085F8002413E0601CC5B2C4EB40
:100B3000C40000EB4000114901EB8003C5EBC50088
:100B400000EB400001EB80065E610EA0D864601CE3
:100B5000C4B20B2CE9D3C4EBC40000EB400007493E
:100B600001EB80030020586106A0D86400200649EC
:100B7000086002480549086070BD00002C0900208B
:100B80002C0800203F0000003C0000203400002022
:100B900000B587B00320002180220A4BCDE9013245
:100BA000CDE903104FF6FF703F23074A0090074836
:100BB000FFF7D6FC06AA06A13F20FFF72FFD07B0DE
:100BC00000BD00002C06002028080020690E000847
:100BD00075432F4F532D49492049646C650000002F
:100BE00000B587B00320002180220A4BCDE90132F5
:100BF000CDE903104FF6FE703E23074A00900748E8
:100C0000FFF7AEFC06AA06A13E20FFF707FD07B0DE
:100C100000BD00002C04002028060020910E0008D2
:100C200075432F4F532D49492053746174000000C0
:100C300004E0002200F8012B4A1E91B20029F8D1ED
:100C4000704700002DE9F04178211048FFF7F0FFD0
:100C500000240DE0601C86B204EB44000B4901EB5C
:100C6000C00506EB460001EBC0072F60601C84B294
:100C7000042CEFD304EB4400044901EBC005002031
:100C80002860084602490860BDE8F0811C0D00207C
:100C90004400002010B50024FFF7B8FA04461348BA
:100CA0000078F8B912480078E0B900F02DF8114842
:100CB0001149097850F82100104908600E48007861
:100CC0000F49097888420DD00C480068806B401CA1
:100CD0000A49096888630B480068401C0949086094
:100CE000FFF7ACFA2046FFF795FA10BD1D00002073
:100CF0001E0000202C0800202000002038000020CA
:100D00001F000020040000200649074A1278885C72
:100D10000649095C034A515C01EBC001044A1170A9
:100D2000704700000C120008210000202200002063
:100D3000200000202DE9F84F05460F4690469946C1
:100D4000DDE90AAB00200090FFF760FA00903F4811
:100D50000468002C74D0183454F8040C3B49086023
:100D60000098FFF757FA44F8187CA5760020207603
:100D70006076606144F814BC44F80CAC44F8108C04
:100D80000C9824F8080C24F8069C0020E077E81062
:100D9000207705F00700E076217F01208840A077CA
:100DA000E17E01208840607700206060E060A06004
:100DB0002062A0626062E062206325A06063183C4C
:100DC000002606E0002104F1500040F82610701CB7
:100DD000C6B2002EF6D02046FFF770FB2046FFF784
:100DE0001BFCFFF713FA00901A4840F825401A48F8
:100DF000006860610020A0611748006810B11648C3
:100E000000688461144804603434A0781349097878
:100E100008431249087020781149085C617808433A
:100E200014F834190E4A50540E480078401C0D49ED
:100E300008700098FFF7EEF90020BDE8F88FFFE793
:100E40000098FFF7E7F94220F7E7000034000020A0
:100E50003F0000002C0800203C0000202100002062
:100E6000220000202B000020002400BF00BFFFF75D
:100E7000CDF9044605480068401C04490860204636
:100E8000FFF7C8F9FFF7C9FBF1E700002C000020CD
:100E9000002400BF02E02820FFF7E4FC1948007896
:100EA0000028F8D0184800686421B0FBF1F016491A
:100EB00008600846006828B9002014490870FF201F
:100EC000FFF77AFC00BFFFF7A1F90446104800685D
:100ED0001049086000200E4908602046FFF79AF983
:100EE0000C48006808490968B0FBF1F0C0F16400E3
:100EF00006490870FFF7CAFB00F00EF81420FFF750
:100F0000B1FCE0E71C0000201400002010000020CD
:100F10002C000020180000207CB5002514E0694654
:100F20002846FFF7B5FB064666B9094850F8254044
:100F300044B1012C06D0D4E9020100EB81006064C9
:100F40000198A064681CC5B23F2DE8D97CBD0000A3
:100F50002C08002002F0010343B102F002032BB180
:100F600002E0491E002308C00029FAD170477047EB
:100F700010B500F001F810BD0CB5002001900090F4
:100F80003348006840F480303149086000BF304881
:100F9000006800F4003000900198401C0190009817
:100FA00018B90198B0F5A06FF1D12948006800F494
:100FB000003010B10120009001E000200090009866
:100FC000012843D12348006840F0100021490860FF
:100FD0000846006820F0030008600846006840F0FA
:100FE000020008601A48406819494860084640688D
:100FF00048600846406840F48060486008464068A1
:1010000020F47C1048600846406840F4E8104860CE
:101010000846006840F08070086000BF0C48006817
:1010200000F000700028F9D00948406820F0030063
:10103000074948600846406840F00200486000BF29
:101040000348406800F00C000828F9D10CBD0000EE
:10105000001002400020024010B505480078012829
:1010600005D1FFF787F9FFF739FCFFF795F910BDB8
:101070002A00002010B51348006840F00100114913
:10108000086008464068104908400E494860084614
:1010900000680E4908400B4908600846006820F4C3
:1010A000802008600846406820F4FE0048604FF445
:1010B0001F008860FFF75CFF4FF000600449086084
:1010C00010BD0000001002400000FFF8FFFFF6FE18
:1010D00008ED00E010B5FFF74DF940F225511E482C
:1010E00000F040F810B31C4800F066F8C4B21B488A
:1010F000008800F40040C8B91848008800F4804017
:1011000060B10A2C03D000201449088020E0134865
:10111000008840F400401149088019E00D2C06D1E8
:101120000E48008840F480400C49088010E00B48CD
:101130000088C0F30D000A490C5408480088401C80
:101140000649088008460088C72801DD002008807D
:10115000FFF722F910BD0000003801400000002018
:101160004C02002070B50246002400230025002018
:1011700040F66A16B14200D100BFC1F3421501F03A
:101180001F03012606FA03F3012D02D1968933408D
:1011900006E0022D02D1168A334001E0968A3340E0
:1011A0000C12012606FA04F41688344013B10CB16F
:1011B000012000E0002070BD01468888C0F30800CF
:1011C000704700BFFEE7000010B5FFF7BAF80C2328
:1011D000044A00210448FFF773F9FFF725F90020BE
:1011E00010BD000048020020ED11000870B5044653
:1011F000002500BFFFF73CF9FFF708F805460C2073
:10120000FFF7DAFA2846FFF705F870BD0000010085
:1012100002000100030001000200010004000100BF
:1012200002000100030001000200010005000100AE
:10123000020001000300010002000100040001009F
:10124000020001000300010002000100060001008D
:10125000020001000300010002000100040001007F
:10126000020001000300010002000100050001006E
:10127000020001000300010002000100040001005F
:10128000020001000300010002000100070001004C
:10129000020001000300010002000100040001003F
:1012A000020001000300010002000100050001002E
:1012B000020001000300010002000100040001001F
:1012C000020001000300010002000100060001000D
:1012D00002000100030001000200010004000100FF
:1012E00002000100030001000200010005000100EE
:1012F00002000100030001000200010004000100DF
:101300000200010003000100020001002C1300088C
:10131000000000204C0000006C0100087813000859
:101320004C000020AC130000880100080000000001
:1013300000000000000000000000000000000000AD
:10134000000000000000000000000000000000009D
:10135000000000000000000000000000000000008D
:10136000000000000000000000000000000000007D
:08137000000000000000000075
:0400000508000131BD
:00000001FF
